{
	"data": {
		"bytecode": {
			"linkReferences": {},
			"object": "608060405234801561001057600080fd5b506104fe806100206000396000f3fe6080604052600436106100345760003560e01c806344ad31ea146100395780636f5ee62814610079578063e2eb41ff1461008e575b600080fd5b34801561004557600080fd5b5061006661005436600461035e565b60016020526000908152604090205481565b6040519081526020015b60405180910390f35b61008c610087366004610377565b6100da565b005b34801561009a57600080fd5b506100c56100a9366004610399565b6000602081905290815260409020805460019091015460ff1682565b60408051928352901515602083015201610070565b600982106101245760405162461bcd60e51b8152602060048201526012602482015271092dcecc2d8d2c840cee4d2c840d2dcc8caf60731b60448201526064015b60405180910390fd5b600081116101745760405162461bcd60e51b815260206004820152601f60248201527f546f6b656e732073686f756c642062652067726561746572207468616e203000604482015260640161011b565b33600090815260208190526040812080548392906101939084906103df565b9091555050336000908152602081815260408083206001908101805460ff191682179055858452909152812080548392906101cf9084906103df565b90915550600090506101e26014836103f8565b90507f3294707d50742e32ce868152d50061f717880fda6956da11d44cf3907c5319ed83836102108661022c565b60405161021f9392919061041a565b60405180910390a1505050565b60008181526001602052604080822080549083905581516008808252610120820190935260609391928160200160208202803683370190505090506000805b600981101561035457858114158015610291575060008181526001602052604090205415155b15610342573360009081526020818152604080832054848452600190925282205486916102bd9161046f565b6102c791906103f8565b9050808484815181106102dc576102dc610486565b602090810291909101810191909152336000908152908190526040812080548392906103099084906103df565b909155508390506103198161049c565b600084815260016020526040812080549296508493509161033b9084906104b5565b9091555050505b8061034c8161049c565b91505061026b565b5090949350505050565b60006020828403121561037057600080fd5b5035919050565b6000806040838503121561038a57600080fd5b50508035926020909101359150565b6000602082840312156103ab57600080fd5b81356001600160a01b03811681146103c257600080fd5b9392505050565b634e487b7160e01b600052601160045260246000fd5b808201808211156103f2576103f26103c9565b92915050565b60008261041557634e487b7160e01b600052601260045260246000fd5b500490565b6000606082018583526020858185015260606040850152818551808452608086019150828701935060005b8181101561046157845183529383019391830191600101610445565b509098975050505050505050565b80820281158282048414176103f2576103f26103c9565b634e487b7160e01b600052603260045260246000fd5b6000600182016104ae576104ae6103c9565b5060010190565b818103818111156103f2576103f26103c956fea2646970667358221220db86f0d5bd90830eb1ea48c13041a3a8584259c1480c73ddb4c5ad37905be03564736f6c63430008140033",
			"opcodes": "PUSH1 0x80 PUSH1 0x40 MSTORE CALLVALUE DUP1 ISZERO PUSH2 0x10 JUMPI PUSH1 0x0 DUP1 REVERT JUMPDEST POP PUSH2 0x4FE DUP1 PUSH2 0x20 PUSH1 0x0 CODECOPY PUSH1 0x0 RETURN INVALID PUSH1 0x80 PUSH1 0x40 MSTORE PUSH1 0x4 CALLDATASIZE LT PUSH2 0x34 JUMPI PUSH1 0x0 CALLDATALOAD PUSH1 0xE0 SHR DUP1 PUSH4 0x44AD31EA EQ PUSH2 0x39 JUMPI DUP1 PUSH4 0x6F5EE628 EQ PUSH2 0x79 JUMPI DUP1 PUSH4 0xE2EB41FF EQ PUSH2 0x8E JUMPI JUMPDEST PUSH1 0x0 DUP1 REVERT JUMPDEST CALLVALUE DUP1 ISZERO PUSH2 0x45 JUMPI PUSH1 0x0 DUP1 REVERT JUMPDEST POP PUSH2 0x66 PUSH2 0x54 CALLDATASIZE PUSH1 0x4 PUSH2 0x35E JUMP JUMPDEST PUSH1 0x1 PUSH1 0x20 MSTORE PUSH1 0x0 SWAP1 DUP2 MSTORE PUSH1 0x40 SWAP1 KECCAK256 SLOAD DUP2 JUMP JUMPDEST PUSH1 0x40 MLOAD SWAP1 DUP2 MSTORE PUSH1 0x20 ADD JUMPDEST PUSH1 0x40 MLOAD DUP1 SWAP2 SUB SWAP1 RETURN JUMPDEST PUSH2 0x8C PUSH2 0x87 CALLDATASIZE PUSH1 0x4 PUSH2 0x377 JUMP JUMPDEST PUSH2 0xDA JUMP JUMPDEST STOP JUMPDEST CALLVALUE DUP1 ISZERO PUSH2 0x9A JUMPI PUSH1 0x0 DUP1 REVERT JUMPDEST POP PUSH2 0xC5 PUSH2 0xA9 CALLDATASIZE PUSH1 0x4 PUSH2 0x399 JUMP JUMPDEST PUSH1 0x0 PUSH1 0x20 DUP2 SWAP1 MSTORE SWAP1 DUP2 MSTORE PUSH1 0x40 SWAP1 KECCAK256 DUP1 SLOAD PUSH1 0x1 SWAP1 SWAP2 ADD SLOAD PUSH1 0xFF AND DUP3 JUMP JUMPDEST PUSH1 0x40 DUP1 MLOAD SWAP3 DUP4 MSTORE SWAP1 ISZERO ISZERO PUSH1 0x20 DUP4 ADD MSTORE ADD PUSH2 0x70 JUMP JUMPDEST PUSH1 0x9 DUP3 LT PUSH2 0x124 JUMPI PUSH1 0x40 MLOAD PUSH3 0x461BCD PUSH1 0xE5 SHL DUP2 MSTORE PUSH1 0x20 PUSH1 0x4 DUP3 ADD MSTORE PUSH1 0x12 PUSH1 0x24 DUP3 ADD MSTORE PUSH18 0x92DCECC2D8D2C840CEE4D2C840D2DCC8CAF PUSH1 0x73 SHL PUSH1 0x44 DUP3 ADD MSTORE PUSH1 0x64 ADD JUMPDEST PUSH1 0x40 MLOAD DUP1 SWAP2 SUB SWAP1 REVERT JUMPDEST PUSH1 0x0 DUP2 GT PUSH2 0x174 JUMPI PUSH1 0x40 MLOAD PUSH3 0x461BCD PUSH1 0xE5 SHL DUP2 MSTORE PUSH1 0x20 PUSH1 0x4 DUP3 ADD MSTORE PUSH1 0x1F PUSH1 0x24 DUP3 ADD MSTORE PUSH32 0x546F6B656E732073686F756C642062652067726561746572207468616E203000 PUSH1 0x44 DUP3 ADD MSTORE PUSH1 0x64 ADD PUSH2 0x11B JUMP JUMPDEST CALLER PUSH1 0x0 SWAP1 DUP2 MSTORE PUSH1 0x20 DUP2 SWAP1 MSTORE PUSH1 0x40 DUP2 KECCAK256 DUP1 SLOAD DUP4 SWAP3 SWAP1 PUSH2 0x193 SWAP1 DUP5 SWAP1 PUSH2 0x3DF JUMP JUMPDEST SWAP1 SWAP2 SSTORE POP POP CALLER PUSH1 0x0 SWAP1 DUP2 MSTORE PUSH1 0x20 DUP2 DUP2 MSTORE PUSH1 0x40 DUP1 DUP4 KECCAK256 PUSH1 0x1 SWAP1 DUP2 ADD DUP1 SLOAD PUSH1 0xFF NOT AND DUP3 OR SWAP1 SSTORE DUP6 DUP5 MSTORE SWAP1 SWAP2 MSTORE DUP2 KECCAK256 DUP1 SLOAD DUP4 SWAP3 SWAP1 PUSH2 0x1CF SWAP1 DUP5 SWAP1 PUSH2 0x3DF JUMP JUMPDEST SWAP1 SWAP2 SSTORE POP PUSH1 0x0 SWAP1 POP PUSH2 0x1E2 PUSH1 0x14 DUP4 PUSH2 0x3F8 JUMP JUMPDEST SWAP1 POP PUSH32 0x3294707D50742E32CE868152D50061F717880FDA6956DA11D44CF3907C5319ED DUP4 DUP4 PUSH2 0x210 DUP7 PUSH2 0x22C JUMP JUMPDEST PUSH1 0x40 MLOAD PUSH2 0x21F SWAP4 SWAP3 SWAP2 SWAP1 PUSH2 0x41A JUMP JUMPDEST PUSH1 0x40 MLOAD DUP1 SWAP2 SUB SWAP1 LOG1 POP POP POP JUMP JUMPDEST PUSH1 0x0 DUP2 DUP2 MSTORE PUSH1 0x1 PUSH1 0x20 MSTORE PUSH1 0x40 DUP1 DUP3 KECCAK256 DUP1 SLOAD SWAP1 DUP4 SWAP1 SSTORE DUP2 MLOAD PUSH1 0x8 DUP1 DUP3 MSTORE PUSH2 0x120 DUP3 ADD SWAP1 SWAP4 MSTORE PUSH1 0x60 SWAP4 SWAP2 SWAP3 DUP2 PUSH1 0x20 ADD PUSH1 0x20 DUP3 MUL DUP1 CALLDATASIZE DUP4 CALLDATACOPY ADD SWAP1 POP POP SWAP1 POP PUSH1 0x0 DUP1 JUMPDEST PUSH1 0x9 DUP2 LT ISZERO PUSH2 0x354 JUMPI DUP6 DUP2 EQ ISZERO DUP1 ISZERO PUSH2 0x291 JUMPI POP PUSH1 0x0 DUP2 DUP2 MSTORE PUSH1 0x1 PUSH1 0x20 MSTORE PUSH1 0x40 SWAP1 KECCAK256 SLOAD ISZERO ISZERO JUMPDEST ISZERO PUSH2 0x342 JUMPI CALLER PUSH1 0x0 SWAP1 DUP2 MSTORE PUSH1 0x20 DUP2 DUP2 MSTORE PUSH1 0x40 DUP1 DUP4 KECCAK256 SLOAD DUP5 DUP5 MSTORE PUSH1 0x1 SWAP1 SWAP3 MSTORE DUP3 KECCAK256 SLOAD DUP7 SWAP2 PUSH2 0x2BD SWAP2 PUSH2 0x46F JUMP JUMPDEST PUSH2 0x2C7 SWAP2 SWAP1 PUSH2 0x3F8 JUMP JUMPDEST SWAP1 POP DUP1 DUP5 DUP5 DUP2 MLOAD DUP2 LT PUSH2 0x2DC JUMPI PUSH2 0x2DC PUSH2 0x486 JUMP JUMPDEST PUSH1 0x20 SWAP1 DUP2 MUL SWAP2 SWAP1 SWAP2 ADD DUP2 ADD SWAP2 SWAP1 SWAP2 MSTORE CALLER PUSH1 0x0 SWAP1 DUP2 MSTORE SWAP1 DUP2 SWAP1 MSTORE PUSH1 0x40 DUP2 KECCAK256 DUP1 SLOAD DUP4 SWAP3 SWAP1 PUSH2 0x309 SWAP1 DUP5 SWAP1 PUSH2 0x3DF JUMP JUMPDEST SWAP1 SWAP2 SSTORE POP DUP4 SWAP1 POP PUSH2 0x319 DUP2 PUSH2 0x49C JUMP JUMPDEST PUSH1 0x0 DUP5 DUP2 MSTORE PUSH1 0x1 PUSH1 0x20 MSTORE PUSH1 0x40 DUP2 KECCAK256 DUP1 SLOAD SWAP3 SWAP7 POP DUP5 SWAP4 POP SWAP2 PUSH2 0x33B SWAP1 DUP5 SWAP1 PUSH2 0x4B5 JUMP JUMPDEST SWAP1 SWAP2 SSTORE POP POP POP JUMPDEST DUP1 PUSH2 0x34C DUP2 PUSH2 0x49C JUMP JUMPDEST SWAP2 POP POP PUSH2 0x26B JUMP JUMPDEST POP SWAP1 SWAP5 SWAP4 POP POP POP POP JUMP JUMPDEST PUSH1 0x0 PUSH1 0x20 DUP3 DUP5 SUB SLT ISZERO PUSH2 0x370 JUMPI PUSH1 0x0 DUP1 REVERT JUMPDEST POP CALLDATALOAD SWAP2 SWAP1 POP JUMP JUMPDEST PUSH1 0x0 DUP1 PUSH1 0x40 DUP4 DUP6 SUB SLT ISZERO PUSH2 0x38A JUMPI PUSH1 0x0 DUP1 REVERT JUMPDEST POP POP DUP1 CALLDATALOAD SWAP3 PUSH1 0x20 SWAP1 SWAP2 ADD CALLDATALOAD SWAP2 POP JUMP JUMPDEST PUSH1 0x0 PUSH1 0x20 DUP3 DUP5 SUB SLT ISZERO PUSH2 0x3AB JUMPI PUSH1 0x0 DUP1 REVERT JUMPDEST DUP2 CALLDATALOAD PUSH1 0x1 PUSH1 0x1 PUSH1 0xA0 SHL SUB DUP2 AND DUP2 EQ PUSH2 0x3C2 JUMPI PUSH1 0x0 DUP1 REVERT JUMPDEST SWAP4 SWAP3 POP POP POP JUMP JUMPDEST PUSH4 0x4E487B71 PUSH1 0xE0 SHL PUSH1 0x0 MSTORE PUSH1 0x11 PUSH1 0x4 MSTORE PUSH1 0x24 PUSH1 0x0 REVERT JUMPDEST DUP1 DUP3 ADD DUP1 DUP3 GT ISZERO PUSH2 0x3F2 JUMPI PUSH2 0x3F2 PUSH2 0x3C9 JUMP JUMPDEST SWAP3 SWAP2 POP POP JUMP JUMPDEST PUSH1 0x0 DUP3 PUSH2 0x415 JUMPI PUSH4 0x4E487B71 PUSH1 0xE0 SHL PUSH1 0x0 MSTORE PUSH1 0x12 PUSH1 0x4 MSTORE PUSH1 0x24 PUSH1 0x0 REVERT JUMPDEST POP DIV SWAP1 JUMP JUMPDEST PUSH1 0x0 PUSH1 0x60 DUP3 ADD DUP6 DUP4 MSTORE PUSH1 0x20 DUP6 DUP2 DUP6 ADD MSTORE PUSH1 0x60 PUSH1 0x40 DUP6 ADD MSTORE DUP2 DUP6 MLOAD DUP1 DUP5 MSTORE PUSH1 0x80 DUP7 ADD SWAP2 POP DUP3 DUP8 ADD SWAP4 POP PUSH1 0x0 JUMPDEST DUP2 DUP2 LT ISZERO PUSH2 0x461 JUMPI DUP5 MLOAD DUP4 MSTORE SWAP4 DUP4 ADD SWAP4 SWAP2 DUP4 ADD SWAP2 PUSH1 0x1 ADD PUSH2 0x445 JUMP JUMPDEST POP SWAP1 SWAP9 SWAP8 POP POP POP POP POP POP POP POP JUMP JUMPDEST DUP1 DUP3 MUL DUP2 ISZERO DUP3 DUP3 DIV DUP5 EQ OR PUSH2 0x3F2 JUMPI PUSH2 0x3F2 PUSH2 0x3C9 JUMP JUMPDEST PUSH4 0x4E487B71 PUSH1 0xE0 SHL PUSH1 0x0 MSTORE PUSH1 0x32 PUSH1 0x4 MSTORE PUSH1 0x24 PUSH1 0x0 REVERT JUMPDEST PUSH1 0x0 PUSH1 0x1 DUP3 ADD PUSH2 0x4AE JUMPI PUSH2 0x4AE PUSH2 0x3C9 JUMP JUMPDEST POP PUSH1 0x1 ADD SWAP1 JUMP JUMPDEST DUP2 DUP2 SUB DUP2 DUP2 GT ISZERO PUSH2 0x3F2 JUMPI PUSH2 0x3F2 PUSH2 0x3C9 JUMP INVALID LOG2 PUSH5 0x6970667358 0x22 SLT KECCAK256 0xDB DUP7 CREATE 0xD5 0xBD SWAP1 DUP4 0xE 0xB1 0xEA BASEFEE 0xC1 ADDRESS COINBASE LOG3 0xA8 PC TIMESTAMP MSIZE 0xC1 BASEFEE 0xC PUSH20 0xDDB4C5AD37905BE03564736F6C63430008140033 "
		},
		"gasEstimates": {
			"creation": {
				"codeDepositCost": "255600",
				"executionCost": "294",
				"totalCost": "255894"
			},
			"external": {
				"gridTokens(uint256)": "2405",
				"investTokens(uint256,uint256)": "infinite",
				"players(address)": "4654"
			},
			"internal": {
				"distributeTokens(uint256)": "infinite",
				"selectLosingGrid()": "infinite"
			}
		},
		"methodIdentifiers": {
			"gridTokens(uint256)": "44ad31ea",
			"investTokens(uint256,uint256)": "6f5ee628",
			"players(address)": "e2eb41ff"
		}
	},
	"abi": [
		{
			"anonymous": false,
			"inputs": [
				{
					"indexed": false,
					"internalType": "uint256",
					"name": "losingGrid",
					"type": "uint256"
				},
				{
					"indexed": false,
					"internalType": "uint256",
					"name": "tokensLost",
					"type": "uint256"
				},
				{
					"indexed": false,
					"internalType": "uint256[]",
					"name": "tokensWon",
					"type": "uint256[]"
				}
			],
			"name": "GameResult",
			"type": "event"
		},
		{
			"inputs": [
				{
					"internalType": "uint256",
					"name": "",
					"type": "uint256"
				}
			],
			"name": "gridTokens",
			"outputs": [
				{
					"internalType": "uint256",
					"name": "",
					"type": "uint256"
				}
			],
			"stateMutability": "view",
			"type": "function"
		},
		{
			"inputs": [
				{
					"internalType": "uint256",
					"name": "gridIndex",
					"type": "uint256"
				},
				{
					"internalType": "uint256",
					"name": "tokens",
					"type": "uint256"
				}
			],
			"name": "investTokens",
			"outputs": [],
			"stateMutability": "payable",
			"type": "function"
		},
		{
			"inputs": [
				{
					"internalType": "address",
					"name": "",
					"type": "address"
				}
			],
			"name": "players",
			"outputs": [
				{
					"internalType": "uint256",
					"name": "tokens",
					"type": "uint256"
				},
				{
					"internalType": "bool",
					"name": "exists",
					"type": "bool"
				}
			],
			"stateMutability": "view",
			"type": "function"
		}
	]
}