{
  "_format": "hh-sol-artifact-1",
  "contractName": "MinterCollection",
  "sourceName": "contracts/minter_collection.sol",
  "abi": [
    {
      "inputs": [
        {
          "internalType": "string",
          "name": "name",
          "type": "string"
        },
        {
          "internalType": "string",
          "name": "symbol",
          "type": "string"
        },
        {
          "internalType": "uint256",
          "name": "_nonTradablePeriod",
          "type": "uint256"
        }
      ],
      "stateMutability": "nonpayable",
      "type": "constructor"
    },
    {
      "inputs": [
        {
          "internalType": "address",
          "name": "sender",
          "type": "address"
        },
        {
          "internalType": "uint256",
          "name": "tokenId",
          "type": "uint256"
        },
        {
          "internalType": "address",
          "name": "owner",
          "type": "address"
        }
      ],
      "name": "ERC721IncorrectOwner",
      "type": "error"
    },
    {
      "inputs": [
        {
          "internalType": "address",
          "name": "operator",
          "type": "address"
        },
        {
          "internalType": "uint256",
          "name": "tokenId",
          "type": "uint256"
        }
      ],
      "name": "ERC721InsufficientApproval",
      "type": "error"
    },
    {
      "inputs": [
        {
          "internalType": "address",
          "name": "approver",
          "type": "address"
        }
      ],
      "name": "ERC721InvalidApprover",
      "type": "error"
    },
    {
      "inputs": [
        {
          "internalType": "address",
          "name": "operator",
          "type": "address"
        }
      ],
      "name": "ERC721InvalidOperator",
      "type": "error"
    },
    {
      "inputs": [
        {
          "internalType": "address",
          "name": "owner",
          "type": "address"
        }
      ],
      "name": "ERC721InvalidOwner",
      "type": "error"
    },
    {
      "inputs": [
        {
          "internalType": "address",
          "name": "receiver",
          "type": "address"
        }
      ],
      "name": "ERC721InvalidReceiver",
      "type": "error"
    },
    {
      "inputs": [
        {
          "internalType": "address",
          "name": "sender",
          "type": "address"
        }
      ],
      "name": "ERC721InvalidSender",
      "type": "error"
    },
    {
      "inputs": [
        {
          "internalType": "uint256",
          "name": "tokenId",
          "type": "uint256"
        }
      ],
      "name": "ERC721NonexistentToken",
      "type": "error"
    },
    {
      "inputs": [
        {
          "internalType": "address",
          "name": "owner",
          "type": "address"
        }
      ],
      "name": "OwnableInvalidOwner",
      "type": "error"
    },
    {
      "inputs": [
        {
          "internalType": "address",
          "name": "account",
          "type": "address"
        }
      ],
      "name": "OwnableUnauthorizedAccount",
      "type": "error"
    },
    {
      "anonymous": false,
      "inputs": [
        {
          "indexed": true,
          "internalType": "address",
          "name": "owner",
          "type": "address"
        },
        {
          "indexed": true,
          "internalType": "address",
          "name": "approved",
          "type": "address"
        },
        {
          "indexed": true,
          "internalType": "uint256",
          "name": "tokenId",
          "type": "uint256"
        }
      ],
      "name": "Approval",
      "type": "event"
    },
    {
      "anonymous": false,
      "inputs": [
        {
          "indexed": true,
          "internalType": "address",
          "name": "owner",
          "type": "address"
        },
        {
          "indexed": true,
          "internalType": "address",
          "name": "operator",
          "type": "address"
        },
        {
          "indexed": false,
          "internalType": "bool",
          "name": "approved",
          "type": "bool"
        }
      ],
      "name": "ApprovalForAll",
      "type": "event"
    },
    {
      "anonymous": false,
      "inputs": [
        {
          "indexed": true,
          "internalType": "address",
          "name": "previousOwner",
          "type": "address"
        },
        {
          "indexed": true,
          "internalType": "address",
          "name": "newOwner",
          "type": "address"
        }
      ],
      "name": "OwnershipTransferred",
      "type": "event"
    },
    {
      "anonymous": false,
      "inputs": [
        {
          "indexed": false,
          "internalType": "address",
          "name": "to",
          "type": "address"
        },
        {
          "indexed": false,
          "internalType": "uint256",
          "name": "tokenId",
          "type": "uint256"
        },
        {
          "indexed": false,
          "internalType": "uint256",
          "name": "initialPrice",
          "type": "uint256"
        },
        {
          "indexed": false,
          "internalType": "uint8",
          "name": "tokenType",
          "type": "uint8"
        }
      ],
      "name": "TokenMinted",
      "type": "event"
    },
    {
      "anonymous": false,
      "inputs": [
        {
          "indexed": false,
          "internalType": "uint256",
          "name": "tokenId",
          "type": "uint256"
        },
        {
          "indexed": false,
          "internalType": "uint256",
          "name": "newPrice",
          "type": "uint256"
        }
      ],
      "name": "TokenPriceUpdated",
      "type": "event"
    },
    {
      "anonymous": false,
      "inputs": [
        {
          "indexed": true,
          "internalType": "address",
          "name": "from",
          "type": "address"
        },
        {
          "indexed": true,
          "internalType": "address",
          "name": "to",
          "type": "address"
        },
        {
          "indexed": true,
          "internalType": "uint256",
          "name": "tokenId",
          "type": "uint256"
        }
      ],
      "name": "Transfer",
      "type": "event"
    },
    {
      "inputs": [
        {
          "internalType": "address",
          "name": "_minter",
          "type": "address"
        }
      ],
      "name": "addMinter",
      "outputs": [],
      "stateMutability": "nonpayable",
      "type": "function"
    },
    {
      "inputs": [
        {
          "internalType": "address",
          "name": "_updater",
          "type": "address"
        }
      ],
      "name": "addPriceUpdater",
      "outputs": [],
      "stateMutability": "nonpayable",
      "type": "function"
    },
    {
      "inputs": [
        {
          "internalType": "address",
          "name": "to",
          "type": "address"
        },
        {
          "internalType": "uint256",
          "name": "tokenId",
          "type": "uint256"
        }
      ],
      "name": "approve",
      "outputs": [],
      "stateMutability": "nonpayable",
      "type": "function"
    },
    {
      "inputs": [
        {
          "internalType": "address",
          "name": "owner",
          "type": "address"
        }
      ],
      "name": "balanceOf",
      "outputs": [
        {
          "internalType": "uint256",
          "name": "",
          "type": "uint256"
        }
      ],
      "stateMutability": "view",
      "type": "function"
    },
    {
      "inputs": [
        {
          "internalType": "uint256",
          "name": "tokenId",
          "type": "uint256"
        }
      ],
      "name": "getApproved",
      "outputs": [
        {
          "internalType": "address",
          "name": "",
          "type": "address"
        }
      ],
      "stateMutability": "view",
      "type": "function"
    },
    {
      "inputs": [
        {
          "internalType": "uint256",
          "name": "tokenId",
          "type": "uint256"
        }
      ],
      "name": "getTokenDetails",
      "outputs": [
        {
          "internalType": "uint8",
          "name": "tokenType",
          "type": "uint8"
        },
        {
          "internalType": "string",
          "name": "metadataURI",
          "type": "string"
        }
      ],
      "stateMutability": "view",
      "type": "function"
    },
    {
      "inputs": [
        {
          "internalType": "uint256",
          "name": "tokenId",
          "type": "uint256"
        }
      ],
      "name": "getTokenType",
      "outputs": [
        {
          "internalType": "uint8",
          "name": "tokenType",
          "type": "uint8"
        }
      ],
      "stateMutability": "view",
      "type": "function"
    },
    {
      "inputs": [
        {
          "internalType": "address",
          "name": "owner",
          "type": "address"
        },
        {
          "internalType": "address",
          "name": "operator",
          "type": "address"
        }
      ],
      "name": "isApprovedForAll",
      "outputs": [
        {
          "internalType": "bool",
          "name": "",
          "type": "bool"
        }
      ],
      "stateMutability": "view",
      "type": "function"
    },
    {
      "inputs": [],
      "name": "marketplaceAddress",
      "outputs": [
        {
          "internalType": "address",
          "name": "",
          "type": "address"
        }
      ],
      "stateMutability": "view",
      "type": "function"
    },
    {
      "inputs": [
        {
          "internalType": "address",
          "name": "to",
          "type": "address"
        },
        {
          "internalType": "uint256",
          "name": "initialPrice",
          "type": "uint256"
        },
        {
          "internalType": "uint256",
          "name": "numberOfToken",
          "type": "uint256"
        },
        {
          "internalType": "uint8",
          "name": "tokenType",
          "type": "uint8"
        }
      ],
      "name": "mint",
      "outputs": [],
      "stateMutability": "nonpayable",
      "type": "function"
    },
    {
      "inputs": [
        {
          "internalType": "address",
          "name": "",
          "type": "address"
        }
      ],
      "name": "minters",
      "outputs": [
        {
          "internalType": "bool",
          "name": "",
          "type": "bool"
        }
      ],
      "stateMutability": "view",
      "type": "function"
    },
    {
      "inputs": [],
      "name": "name",
      "outputs": [
        {
          "internalType": "string",
          "name": "",
          "type": "string"
        }
      ],
      "stateMutability": "view",
      "type": "function"
    },
    {
      "inputs": [],
      "name": "nonTradablePeriod",
      "outputs": [
        {
          "internalType": "uint256",
          "name": "",
          "type": "uint256"
        }
      ],
      "stateMutability": "view",
      "type": "function"
    },
    {
      "inputs": [
        {
          "internalType": "uint256",
          "name": "",
          "type": "uint256"
        }
      ],
      "name": "nonTradableUntil",
      "outputs": [
        {
          "internalType": "uint256",
          "name": "",
          "type": "uint256"
        }
      ],
      "stateMutability": "view",
      "type": "function"
    },
    {
      "inputs": [],
      "name": "owner",
      "outputs": [
        {
          "internalType": "address",
          "name": "",
          "type": "address"
        }
      ],
      "stateMutability": "view",
      "type": "function"
    },
    {
      "inputs": [
        {
          "internalType": "uint256",
          "name": "tokenId",
          "type": "uint256"
        }
      ],
      "name": "ownerOf",
      "outputs": [
        {
          "internalType": "address",
          "name": "",
          "type": "address"
        }
      ],
      "stateMutability": "view",
      "type": "function"
    },
    {
      "inputs": [
        {
          "internalType": "address",
          "name": "",
          "type": "address"
        }
      ],
      "name": "priceUpdaters",
      "outputs": [
        {
          "internalType": "bool",
          "name": "",
          "type": "bool"
        }
      ],
      "stateMutability": "view",
      "type": "function"
    },
    {
      "inputs": [
        {
          "internalType": "address",
          "name": "_minter",
          "type": "address"
        }
      ],
      "name": "removeMinter",
      "outputs": [],
      "stateMutability": "nonpayable",
      "type": "function"
    },
    {
      "inputs": [
        {
          "internalType": "address",
          "name": "_updater",
          "type": "address"
        }
      ],
      "name": "removePriceUpdater",
      "outputs": [],
      "stateMutability": "nonpayable",
      "type": "function"
    },
    {
      "inputs": [],
      "name": "renounceOwnership",
      "outputs": [],
      "stateMutability": "nonpayable",
      "type": "function"
    },
    {
      "inputs": [
        {
          "internalType": "address",
          "name": "from",
          "type": "address"
        },
        {
          "internalType": "address",
          "name": "to",
          "type": "address"
        },
        {
          "internalType": "uint256",
          "name": "tokenId",
          "type": "uint256"
        }
      ],
      "name": "safeTransferFrom",
      "outputs": [],
      "stateMutability": "nonpayable",
      "type": "function"
    },
    {
      "inputs": [
        {
          "internalType": "address",
          "name": "from",
          "type": "address"
        },
        {
          "internalType": "address",
          "name": "to",
          "type": "address"
        },
        {
          "internalType": "uint256",
          "name": "tokenId",
          "type": "uint256"
        },
        {
          "internalType": "bytes",
          "name": "_data",
          "type": "bytes"
        }
      ],
      "name": "safeTransferFrom",
      "outputs": [],
      "stateMutability": "nonpayable",
      "type": "function"
    },
    {
      "inputs": [
        {
          "internalType": "address",
          "name": "operator",
          "type": "address"
        },
        {
          "internalType": "bool",
          "name": "approved",
          "type": "bool"
        }
      ],
      "name": "setApprovalForAll",
      "outputs": [],
      "stateMutability": "nonpayable",
      "type": "function"
    },
    {
      "inputs": [
        {
          "internalType": "uint8",
          "name": "tokenType",
          "type": "uint8"
        },
        {
          "internalType": "string",
          "name": "baseURI",
          "type": "string"
        }
      ],
      "name": "setBaseURIForType",
      "outputs": [],
      "stateMutability": "nonpayable",
      "type": "function"
    },
    {
      "inputs": [
        {
          "internalType": "address",
          "name": "_marketplaceAddress",
          "type": "address"
        }
      ],
      "name": "setMarketplaceAddress",
      "outputs": [],
      "stateMutability": "nonpayable",
      "type": "function"
    },
    {
      "inputs": [
        {
          "internalType": "uint256",
          "name": "_period",
          "type": "uint256"
        }
      ],
      "name": "setNonTradablePeriod",
      "outputs": [],
      "stateMutability": "nonpayable",
      "type": "function"
    },
    {
      "inputs": [
        {
          "internalType": "bytes4",
          "name": "interfaceId",
          "type": "bytes4"
        }
      ],
      "name": "supportsInterface",
      "outputs": [
        {
          "internalType": "bool",
          "name": "",
          "type": "bool"
        }
      ],
      "stateMutability": "view",
      "type": "function"
    },
    {
      "inputs": [],
      "name": "symbol",
      "outputs": [
        {
          "internalType": "string",
          "name": "",
          "type": "string"
        }
      ],
      "stateMutability": "view",
      "type": "function"
    },
    {
      "inputs": [
        {
          "internalType": "uint256",
          "name": "",
          "type": "uint256"
        }
      ],
      "name": "tokenPrices",
      "outputs": [
        {
          "internalType": "uint256",
          "name": "",
          "type": "uint256"
        }
      ],
      "stateMutability": "view",
      "type": "function"
    },
    {
      "inputs": [
        {
          "internalType": "uint256",
          "name": "tokenId",
          "type": "uint256"
        }
      ],
      "name": "tokenURI",
      "outputs": [
        {
          "internalType": "string",
          "name": "",
          "type": "string"
        }
      ],
      "stateMutability": "view",
      "type": "function"
    },
    {
      "inputs": [],
      "name": "totalSupply",
      "outputs": [
        {
          "internalType": "uint256",
          "name": "",
          "type": "uint256"
        }
      ],
      "stateMutability": "view",
      "type": "function"
    },
    {
      "inputs": [
        {
          "internalType": "address",
          "name": "from",
          "type": "address"
        },
        {
          "internalType": "address",
          "name": "to",
          "type": "address"
        },
        {
          "internalType": "uint256",
          "name": "tokenId",
          "type": "uint256"
        }
      ],
      "name": "transferFrom",
      "outputs": [],
      "stateMutability": "nonpayable",
      "type": "function"
    },
    {
      "inputs": [
        {
          "internalType": "address",
          "name": "newOwner",
          "type": "address"
        }
      ],
      "name": "transferOwnership",
      "outputs": [],
      "stateMutability": "nonpayable",
      "type": "function"
    },
    {
      "inputs": [
        {
          "internalType": "uint256",
          "name": "tokenId",
          "type": "uint256"
        },
        {
          "internalType": "uint256",
          "name": "salePrice",
          "type": "uint256"
        },
        {
          "internalType": "uint256",
          "name": "priceIncreasePercentage",
          "type": "uint256"
        }
      ],
      "name": "updateTokenPrice",
      "outputs": [],
      "stateMutability": "nonpayable",
      "type": "function"
    }
  ],
  "bytecode": "0x60806040523480156200001157600080fd5b50604051620042203803806200422083398181016040528101906200003791906200038b565b33838381600090816200004b919062000666565b5080600190816200005d919062000666565b505050600073ffffffffffffffffffffffffffffffffffffffff168173ffffffffffffffffffffffffffffffffffffffff1603620000d55760006040517f1e4fbdf7000000000000000000000000000000000000000000000000000000008152600401620000cc919062000792565b60405180910390fd5b620000e681620000f760201b60201c565b5080600e81905550505050620007af565b6000600660009054906101000a900473ffffffffffffffffffffffffffffffffffffffff16905081600660006101000a81548173ffffffffffffffffffffffffffffffffffffffff021916908373ffffffffffffffffffffffffffffffffffffffff1602179055508173ffffffffffffffffffffffffffffffffffffffff168173ffffffffffffffffffffffffffffffffffffffff167f8be0079c531659141344cd1fd0a4f28419497f9722a3daafe3b4186f6b6457e060405160405180910390a35050565b6000604051905090565b600080fd5b600080fd5b600080fd5b600080fd5b6000601f19601f8301169050919050565b7f4e487b7100000000000000000000000000000000000000000000000000000000600052604160045260246000fd5b6200022682620001db565b810181811067ffffffffffffffff82111715620002485762000247620001ec565b5b80604052505050565b60006200025d620001bd565b90506200026b82826200021b565b919050565b600067ffffffffffffffff8211156200028e576200028d620001ec565b5b6200029982620001db565b9050602081019050919050565b60005b83811015620002c6578082015181840152602081019050620002a9565b60008484015250505050565b6000620002e9620002e38462000270565b62000251565b905082815260208101848484011115620003085762000307620001d6565b5b62000315848285620002a6565b509392505050565b600082601f830112620003355762000334620001d1565b5b815162000347848260208601620002d2565b91505092915050565b6000819050919050565b620003658162000350565b81146200037157600080fd5b50565b60008151905062000385816200035a565b92915050565b600080600060608486031215620003a757620003a6620001c7565b5b600084015167ffffffffffffffff811115620003c857620003c7620001cc565b5b620003d6868287016200031d565b935050602084015167ffffffffffffffff811115620003fa57620003f9620001cc565b5b62000408868287016200031d565b92505060406200041b8682870162000374565b9150509250925092565b600081519050919050565b7f4e487b7100000000000000000000000000000000000000000000000000000000600052602260045260246000fd5b600060028204905060018216806200047857607f821691505b6020821081036200048e576200048d62000430565b5b50919050565b60008190508160005260206000209050919050565b60006020601f8301049050919050565b600082821b905092915050565b600060088302620004f87fffffffffffffffffffffffffffffffffffffffffffffffffffffffffffffffff82620004b9565b620005048683620004b9565b95508019841693508086168417925050509392505050565b6000819050919050565b600062000547620005416200053b8462000350565b6200051c565b62000350565b9050919050565b6000819050919050565b620005638362000526565b6200057b62000572826200054e565b848454620004c6565b825550505050565b600090565b6200059262000583565b6200059f81848462000558565b505050565b5b81811015620005c757620005bb60008262000588565b600181019050620005a5565b5050565b601f8211156200061657620005e08162000494565b620005eb84620004a9565b81016020851015620005fb578190505b620006136200060a85620004a9565b830182620005a4565b50505b505050565b600082821c905092915050565b60006200063b600019846008026200061b565b1980831691505092915050565b600062000656838362000628565b9150826002028217905092915050565b620006718262000425565b67ffffffffffffffff8111156200068d576200068c620001ec565b5b6200069982546200045f565b620006a6828285620005cb565b600060209050601f831160018114620006de5760008415620006c9578287015190505b620006d5858262000648565b86555062000745565b601f198416620006ee8662000494565b60005b828110156200071857848901518255600182019150602085019450602081019050620006f1565b8683101562000738578489015162000734601f89168262000628565b8355505b6001600288020188555050505b505050505050565b600073ffffffffffffffffffffffffffffffffffffffff82169050919050565b60006200077a826200074d565b9050919050565b6200078c816200076d565b82525050565b6000602082019050620007a9600083018462000781565b92915050565b613a6180620007bf6000396000f3fe608060405234801561001057600080fd5b50600436106102065760003560e01c80638da5cb5b1161011a578063d6b96050116100ad578063e985e9c51161007c578063e985e9c5146105e6578063ebb71dd614610616578063f2fde38b14610632578063f46eccc41461064e578063f50efc461461067e57610206565b8063d6b9605014610560578063daa17f491461057c578063e5afe3e61461059a578063e88456e7146105ca57610206565b8063b47cc556116100e9578063b47cc556146104c7578063b88d4fde146104e3578063c1e03728146104ff578063c87b56dd1461053057610206565b80638da5cb5b1461045357806395d89b4114610471578063983b2d561461048f578063a22cb465146104ab57610206565b80633092afd51161019d57806362eefa8e1161016c57806362eefa8e1461039b5780636352211e146103b957806370a08231146103e9578063715018a61461041957806376aed2e11461042357610206565b80633092afd51461032b5780633e7e49191461034757806342842e0e1461036357806355376e581461037f57610206565b8063125dfb09116101d9578063125dfb09146102a557806318160ddd146102d557806323b872dd146102f35780632df311081461030f57610206565b806301ffc9a71461020b57806306fdde031461023b578063081812fc14610259578063095ea7b314610289575b600080fd5b61022560048036038101906102209190612804565b6106ae565b604051610232919061284c565b60405180910390f35b610243610790565b60405161025091906128f7565b60405180910390f35b610273600480360381019061026e919061294f565b610822565b60405161028091906129bd565b60405180910390f35b6102a3600480360381019061029e9190612a04565b61083e565b005b6102bf60048036038101906102ba9190612a44565b610854565b6040516102cc919061284c565b60405180910390f35b6102dd610874565b6040516102ea9190612a80565b60405180910390f35b61030d60048036038101906103089190612a9b565b61087e565b005b61032960048036038101906103249190612a44565b610b30565b005b61034560048036038101906103409190612a44565b610b93565b005b610361600480360381019061035c919061294f565b610bf6565b005b61037d60048036038101906103789190612a9b565b610c08565b005b61039960048036038101906103949190612c5c565b610c28565b005b6103a3610c5b565b6040516103b09190612a80565b60405180910390f35b6103d360048036038101906103ce919061294f565b610c61565b6040516103e091906129bd565b60405180910390f35b61040360048036038101906103fe9190612a44565b610c73565b6040516104109190612a80565b60405180910390f35b610421610d2d565b005b61043d6004803603810190610438919061294f565b610d41565b60405161044a9190612cc7565b60405180910390f35b61045b610de1565b60405161046891906129bd565b60405180910390f35b610479610e0b565b60405161048691906128f7565b60405180910390f35b6104a960048036038101906104a49190612a44565b610e9d565b005b6104c560048036038101906104c09190612d0e565b610f00565b005b6104e160048036038101906104dc9190612a44565b610f16565b005b6104fd60048036038101906104f89190612def565b610fa3565b005b6105196004803603810190610514919061294f565b61116e565b604051610527929190612e72565b60405180910390f35b61054a6004803603810190610545919061294f565b61121c565b60405161055791906128f7565b60405180910390f35b61057a60048036038101906105759190612ea2565b6113a8565b005b610584611512565b60405161059191906129bd565b60405180910390f35b6105b460048036038101906105af919061294f565b611538565b6040516105c19190612a80565b60405180910390f35b6105e460048036038101906105df9190612a44565b611550565b005b61060060048036038101906105fb9190612f09565b6115b3565b60405161060d919061284c565b60405180910390f35b610630600480360381019061062b9190612f49565b611647565b005b61064c60048036038101906106479190612a44565b611751565b005b61066860048036038101906106639190612a44565b6117d7565b604051610675919061284c565b60405180910390f35b6106986004803603810190610693919061294f565b6117f7565b6040516106a59190612a80565b60405180910390f35b60007f80ac58cd000000000000000000000000000000000000000000000000000000007bffffffffffffffffffffffffffffffffffffffffffffffffffffffff1916827bffffffffffffffffffffffffffffffffffffffffffffffffffffffff1916148061077957507f5b5e139f000000000000000000000000000000000000000000000000000000007bffffffffffffffffffffffffffffffffffffffffffffffffffffffff1916827bffffffffffffffffffffffffffffffffffffffffffffffffffffffff1916145b8061078957506107888261180f565b5b9050919050565b60606000805461079f90612fcb565b80601f01602080910402602001604051908101604052809291908181526020018280546107cb90612fcb565b80156108185780601f106107ed57610100808354040283529160200191610818565b820191906000526020600020905b8154815290600101906020018083116107fb57829003601f168201915b5050505050905090565b600061082d82611879565b5061083782611901565b9050919050565b610850828261084b61193e565b611946565b5050565b600c6020528060005260406000206000915054906101000a900460ff1681565b6000600f54905090565b600a60009054906101000a900473ffffffffffffffffffffffffffffffffffffffff1673ffffffffffffffffffffffffffffffffffffffff168373ffffffffffffffffffffffffffffffffffffffff1614806109275750600a60009054906101000a900473ffffffffffffffffffffffffffffffffffffffff1673ffffffffffffffffffffffffffffffffffffffff168273ffffffffffffffffffffffffffffffffffffffff16145b610966576040517f08c379a000000000000000000000000000000000000000000000000000000000815260040161095d9061306e565b60405180910390fd5b600d6000828152602001908152602001600020544210156109bc576040517f08c379a00000000000000000000000000000000000000000000000000000000081526004016109b3906130da565b60405180910390fd5b6000600960009054906101000a900473ffffffffffffffffffffffffffffffffffffffff1673ffffffffffffffffffffffffffffffffffffffff1663107a274a836040518263ffffffff1660e01b8152600401610a199190612a80565b608060405180830381865afa158015610a36573d6000803e3d6000fd5b505050506040513d601f19601f82011682018060405250810190610a5a91906131b6565b9050806020015173ffffffffffffffffffffffffffffffffffffffff168373ffffffffffffffffffffffffffffffffffffffff1603610aa357610a9e848484611958565b610b2a565b600a60009054906101000a900473ffffffffffffffffffffffffffffffffffffffff1673ffffffffffffffffffffffffffffffffffffffff168473ffffffffffffffffffffffffffffffffffffffff1603610b1e57600e5442610b069190613212565b600d6000848152602001908152602001600020819055505b610b29848484611ac5565b5b50505050565b610b38611bc7565b6000600c60008373ffffffffffffffffffffffffffffffffffffffff1673ffffffffffffffffffffffffffffffffffffffff16815260200190815260200160002060006101000a81548160ff02191690831515021790555050565b610b9b611bc7565b6000600b60008373ffffffffffffffffffffffffffffffffffffffff1673ffffffffffffffffffffffffffffffffffffffff16815260200190815260200160002060006101000a81548160ff02191690831515021790555050565b610bfe611bc7565b80600e8190555050565b610c2383838360405180602001604052806000815250610fa3565b505050565b610c30611bc7565b80601160008460ff1660ff1681526020019081526020016000209081610c5691906133f2565b505050565b600e5481565b6000610c6c82611879565b9050919050565b60008073ffffffffffffffffffffffffffffffffffffffff168273ffffffffffffffffffffffffffffffffffffffff1603610ce65760006040517f89c62b64000000000000000000000000000000000000000000000000000000008152600401610cdd91906129bd565b60405180910390fd5b600360008373ffffffffffffffffffffffffffffffffffffffff1673ffffffffffffffffffffffffffffffffffffffff168152602001908152602001600020549050919050565b610d35611bc7565b610d3f6000611c4e565b565b60008073ffffffffffffffffffffffffffffffffffffffff16610d6383610c61565b73ffffffffffffffffffffffffffffffffffffffff1603610db9576040517f08c379a0000000000000000000000000000000000000000000000000000000008152600401610db090613536565b60405180910390fd5b6010600083815260200190815260200160002060009054906101000a900460ff169050919050565b6000600660009054906101000a900473ffffffffffffffffffffffffffffffffffffffff16905090565b606060018054610e1a90612fcb565b80601f0160208091040260200160405190810160405280929190818152602001828054610e4690612fcb565b8015610e935780601f10610e6857610100808354040283529160200191610e93565b820191906000526020600020905b815481529060010190602001808311610e7657829003601f168201915b5050505050905090565b610ea5611bc7565b6001600b60008373ffffffffffffffffffffffffffffffffffffffff1673ffffffffffffffffffffffffffffffffffffffff16815260200190815260200160002060006101000a81548160ff02191690831515021790555050565b610f12610f0b61193e565b8383611d14565b5050565b610f1e611bc7565b80600a60006101000a81548173ffffffffffffffffffffffffffffffffffffffff021916908373ffffffffffffffffffffffffffffffffffffffff16021790555080600960006101000a81548173ffffffffffffffffffffffffffffffffffffffff021916908373ffffffffffffffffffffffffffffffffffffffff16021790555050565b600a60009054906101000a900473ffffffffffffffffffffffffffffffffffffffff1673ffffffffffffffffffffffffffffffffffffffff168473ffffffffffffffffffffffffffffffffffffffff16148061104c5750600a60009054906101000a900473ffffffffffffffffffffffffffffffffffffffff1673ffffffffffffffffffffffffffffffffffffffff168373ffffffffffffffffffffffffffffffffffffffff16145b61108b576040517f08c379a00000000000000000000000000000000000000000000000000000000081526004016110829061306e565b60405180910390fd5b600d6000838152602001908152602001600020544210156110e1576040517f08c379a00000000000000000000000000000000000000000000000000000000081526004016110d8906130da565b60405180910390fd5b600a60009054906101000a900473ffffffffffffffffffffffffffffffffffffffff1673ffffffffffffffffffffffffffffffffffffffff168473ffffffffffffffffffffffffffffffffffffffff160361115c57600e54426111449190613212565b600d6000848152602001908152602001600020819055505b61116884848484611e83565b50505050565b60006060600073ffffffffffffffffffffffffffffffffffffffff1661119384610c61565b73ffffffffffffffffffffffffffffffffffffffff16036111e9576040517f08c379a00000000000000000000000000000000000000000000000000000000081526004016111e090613536565b60405180910390fd5b6010600084815260200190815260200160002060009054906101000a900460ff1691506112158361121c565b9050915091565b6060600073ffffffffffffffffffffffffffffffffffffffff1661123f83610c61565b73ffffffffffffffffffffffffffffffffffffffff1603611295576040517f08c379a000000000000000000000000000000000000000000000000000000000815260040161128c906135c8565b60405180910390fd5b60006010600084815260200190815260200160002060009054906101000a900460ff1690506000601160008360ff1660ff16815260200190815260200160002080546112e090612fcb565b80601f016020809104026020016040519081016040528092919081815260200182805461130c90612fcb565b80156113595780601f1061132e57610100808354040283529160200191611359565b820191906000526020600020905b81548152906001019060200180831161133c57829003601f168201915b50505050509050600081511161137e576040518060200160405280600081525061139f565b8060405160200161138f9190613670565b6040516020818303038152906040525b92505050919050565b600b60003373ffffffffffffffffffffffffffffffffffffffff1673ffffffffffffffffffffffffffffffffffffffff16815260200190815260200160002060009054906101000a900460ff16611434576040517f08c379a000000000000000000000000000000000000000000000000000000000815260040161142b906136de565b60405180910390fd5b60005b8281101561150b5760076000815480929190611452906136fe565b9190505550600060075490508460086000838152602001908152602001600020819055506114808682611ea0565b600f6000815480929190611493906136fe565b919050555042600d6000838152602001908152602001600020819055506114ba8184611f99565b7fc0d0df51781b7fcb489c14b521ff659c33f0ffdcc1e2f0283c7328234d07713b868287866040516114ef9493929190613746565b60405180910390a1508080611503906136fe565b915050611437565b5050505050565b600a60009054906101000a900473ffffffffffffffffffffffffffffffffffffffff1681565b60086020528060005260406000206000915090505481565b611558611bc7565b6001600c60008373ffffffffffffffffffffffffffffffffffffffff1673ffffffffffffffffffffffffffffffffffffffff16815260200190815260200160002060006101000a81548160ff02191690831515021790555050565b6000600560008473ffffffffffffffffffffffffffffffffffffffff1673ffffffffffffffffffffffffffffffffffffffff16815260200190815260200160002060008373ffffffffffffffffffffffffffffffffffffffff1673ffffffffffffffffffffffffffffffffffffffff16815260200190815260200160002060009054906101000a900460ff16905092915050565b600c60003373ffffffffffffffffffffffffffffffffffffffff1673ffffffffffffffffffffffffffffffffffffffff16815260200190815260200160002060009054906101000a900460ff166116d3576040517f08c379a00000000000000000000000000000000000000000000000000000000081526004016116ca906137fd565b60405180910390fd5b6000606482846116e3919061381d565b6116ed919061388e565b836116f89190613212565b90508060086000868152602001908152602001600020819055507fd9cc159fa79112d02593601db522a6696e6c5c82d9e9ca9332f89ec824935bb084826040516117439291906138bf565b60405180910390a150505050565b611759611bc7565b600073ffffffffffffffffffffffffffffffffffffffff168173ffffffffffffffffffffffffffffffffffffffff16036117cb5760006040517f1e4fbdf70000000000000000000000000000000000000000000000000000000081526004016117c291906129bd565b60405180910390fd5b6117d481611c4e565b50565b600b6020528060005260406000206000915054906101000a900460ff1681565b600d6020528060005260406000206000915090505481565b60007f01ffc9a7000000000000000000000000000000000000000000000000000000007bffffffffffffffffffffffffffffffffffffffffffffffffffffffff1916827bffffffffffffffffffffffffffffffffffffffffffffffffffffffff1916149050919050565b60008061188583612040565b9050600073ffffffffffffffffffffffffffffffffffffffff168173ffffffffffffffffffffffffffffffffffffffff16036118f857826040517f7e2732890000000000000000000000000000000000000000000000000000000081526004016118ef9190612a80565b60405180910390fd5b80915050919050565b60006004600083815260200190815260200160002060009054906101000a900473ffffffffffffffffffffffffffffffffffffffff169050919050565b600033905090565b611953838383600161207d565b505050565b600073ffffffffffffffffffffffffffffffffffffffff168273ffffffffffffffffffffffffffffffffffffffff16036119ca5760006040517f64a0ae920000000000000000000000000000000000000000000000000000000081526004016119c191906129bd565b60405180910390fd5b60006119d883836000612242565b9050600073ffffffffffffffffffffffffffffffffffffffff168173ffffffffffffffffffffffffffffffffffffffff1603611a4b57816040517f7e273289000000000000000000000000000000000000000000000000000000008152600401611a429190612a80565b60405180910390fd5b8373ffffffffffffffffffffffffffffffffffffffff168173ffffffffffffffffffffffffffffffffffffffff1614611abf578382826040517f64283d7b000000000000000000000000000000000000000000000000000000008152600401611ab6939291906138e8565b60405180910390fd5b50505050565b600073ffffffffffffffffffffffffffffffffffffffff168273ffffffffffffffffffffffffffffffffffffffff1603611b375760006040517f64a0ae92000000000000000000000000000000000000000000000000000000008152600401611b2e91906129bd565b60405180910390fd5b6000611b4b8383611b4661193e565b612242565b90508373ffffffffffffffffffffffffffffffffffffffff168173ffffffffffffffffffffffffffffffffffffffff1614611bc1578382826040517f64283d7b000000000000000000000000000000000000000000000000000000008152600401611bb8939291906138e8565b60405180910390fd5b50505050565b611bcf61193e565b73ffffffffffffffffffffffffffffffffffffffff16611bed610de1565b73ffffffffffffffffffffffffffffffffffffffff1614611c4c57611c1061193e565b6040517f118cdaa7000000000000000000000000000000000000000000000000000000008152600401611c4391906129bd565b60405180910390fd5b565b6000600660009054906101000a900473ffffffffffffffffffffffffffffffffffffffff16905081600660006101000a81548173ffffffffffffffffffffffffffffffffffffffff021916908373ffffffffffffffffffffffffffffffffffffffff1602179055508173ffffffffffffffffffffffffffffffffffffffff168173ffffffffffffffffffffffffffffffffffffffff167f8be0079c531659141344cd1fd0a4f28419497f9722a3daafe3b4186f6b6457e060405160405180910390a35050565b600073ffffffffffffffffffffffffffffffffffffffff168273ffffffffffffffffffffffffffffffffffffffff1603611d8557816040517f5b08ba18000000000000000000000000000000000000000000000000000000008152600401611d7c91906129bd565b60405180910390fd5b80600560008573ffffffffffffffffffffffffffffffffffffffff1673ffffffffffffffffffffffffffffffffffffffff16815260200190815260200160002060008473ffffffffffffffffffffffffffffffffffffffff1673ffffffffffffffffffffffffffffffffffffffff16815260200190815260200160002060006101000a81548160ff0219169083151502179055508173ffffffffffffffffffffffffffffffffffffffff168373ffffffffffffffffffffffffffffffffffffffff167f17307eab39ab6107e8899845ad3d59bd9653f200f220920489ca2b5937696c3183604051611e76919061284c565b60405180910390a3505050565b611e8e84848461087e565b611e9a8484848461245c565b50505050565b600073ffffffffffffffffffffffffffffffffffffffff168273ffffffffffffffffffffffffffffffffffffffff1603611f125760006040517f64a0ae92000000000000000000000000000000000000000000000000000000008152600401611f0991906129bd565b60405180910390fd5b6000611f2083836000612242565b9050600073ffffffffffffffffffffffffffffffffffffffff168173ffffffffffffffffffffffffffffffffffffffff1614611f945760006040517f73c6ac6e000000000000000000000000000000000000000000000000000000008152600401611f8b91906129bd565b60405180910390fd5b505050565b600073ffffffffffffffffffffffffffffffffffffffff16611fba83610c61565b73ffffffffffffffffffffffffffffffffffffffff1603612010576040517f08c379a0000000000000000000000000000000000000000000000000000000008152600401612007906135c8565b60405180910390fd5b806010600084815260200190815260200160002060006101000a81548160ff021916908360ff1602179055505050565b60006002600083815260200190815260200160002060009054906101000a900473ffffffffffffffffffffffffffffffffffffffff169050919050565b80806120b65750600073ffffffffffffffffffffffffffffffffffffffff168273ffffffffffffffffffffffffffffffffffffffff1614155b156121ea5760006120c684611879565b9050600073ffffffffffffffffffffffffffffffffffffffff168373ffffffffffffffffffffffffffffffffffffffff161415801561213157508273ffffffffffffffffffffffffffffffffffffffff168173ffffffffffffffffffffffffffffffffffffffff1614155b8015612144575061214281846115b3565b155b1561218657826040517fa9fbf51f00000000000000000000000000000000000000000000000000000000815260040161217d91906129bd565b60405180910390fd5b81156121e857838573ffffffffffffffffffffffffffffffffffffffff168273ffffffffffffffffffffffffffffffffffffffff167f8c5be1e5ebec7d5bd14f71427d1e84f3dd0314c0f7b2291e5b200ac8c7c3b92560405160405180910390a45b505b836004600085815260200190815260200160002060006101000a81548173ffffffffffffffffffffffffffffffffffffffff021916908373ffffffffffffffffffffffffffffffffffffffff16021790555050505050565b60008061224e84612040565b9050600073ffffffffffffffffffffffffffffffffffffffff168373ffffffffffffffffffffffffffffffffffffffff16146122905761228f818486612613565b5b600073ffffffffffffffffffffffffffffffffffffffff168173ffffffffffffffffffffffffffffffffffffffff1614612321576122d260008560008061207d565b6001600360008373ffffffffffffffffffffffffffffffffffffffff1673ffffffffffffffffffffffffffffffffffffffff168152602001908152602001600020600082825403925050819055505b600073ffffffffffffffffffffffffffffffffffffffff168573ffffffffffffffffffffffffffffffffffffffff16146123a4576001600360008773ffffffffffffffffffffffffffffffffffffffff1673ffffffffffffffffffffffffffffffffffffffff168152602001908152602001600020600082825401925050819055505b846002600086815260200190815260200160002060006101000a81548173ffffffffffffffffffffffffffffffffffffffff021916908373ffffffffffffffffffffffffffffffffffffffff160217905550838573ffffffffffffffffffffffffffffffffffffffff168273ffffffffffffffffffffffffffffffffffffffff167fddf252ad1be2c89b69c2b068fc378daa952ba7f163c4a11628f55a4df523b3ef60405160405180910390a4809150509392505050565b60008373ffffffffffffffffffffffffffffffffffffffff163b111561260d578273ffffffffffffffffffffffffffffffffffffffff1663150b7a026124a061193e565b8685856040518563ffffffff1660e01b81526004016124c29493929190613974565b6020604051808303816000875af19250505080156124fe57506040513d601f19601f820116820180604052508101906124fb91906139d5565b60015b612582573d806000811461252e576040519150601f19603f3d011682016040523d82523d6000602084013e612533565b606091505b50600081510361257a57836040517f64a0ae9200000000000000000000000000000000000000000000000000000000815260040161257191906129bd565b60405180910390fd5b805181602001fd5b63150b7a0260e01b7bffffffffffffffffffffffffffffffffffffffffffffffffffffffff1916817bffffffffffffffffffffffffffffffffffffffffffffffffffffffff19161461260b57836040517f64a0ae9200000000000000000000000000000000000000000000000000000000815260040161260291906129bd565b60405180910390fd5b505b50505050565b61261e8383836126d7565b6126d257600073ffffffffffffffffffffffffffffffffffffffff168373ffffffffffffffffffffffffffffffffffffffff160361269357806040517f7e27328900000000000000000000000000000000000000000000000000000000815260040161268a9190612a80565b60405180910390fd5b81816040517f177e802f0000000000000000000000000000000000000000000000000000000081526004016126c9929190613a02565b60405180910390fd5b505050565b60008073ffffffffffffffffffffffffffffffffffffffff168373ffffffffffffffffffffffffffffffffffffffff161415801561278f57508273ffffffffffffffffffffffffffffffffffffffff168473ffffffffffffffffffffffffffffffffffffffff161480612750575061274f84846115b3565b5b8061278e57508273ffffffffffffffffffffffffffffffffffffffff1661277683611901565b73ffffffffffffffffffffffffffffffffffffffff16145b5b90509392505050565b6000604051905090565b600080fd5b600080fd5b60007fffffffff0000000000000000000000000000000000000000000000000000000082169050919050565b6127e1816127ac565b81146127ec57600080fd5b50565b6000813590506127fe816127d8565b92915050565b60006020828403121561281a576128196127a2565b5b6000612828848285016127ef565b91505092915050565b60008115159050919050565b61284681612831565b82525050565b6000602082019050612861600083018461283d565b92915050565b600081519050919050565b600082825260208201905092915050565b60005b838110156128a1578082015181840152602081019050612886565b60008484015250505050565b6000601f19601f8301169050919050565b60006128c982612867565b6128d38185612872565b93506128e3818560208601612883565b6128ec816128ad565b840191505092915050565b6000602082019050818103600083015261291181846128be565b905092915050565b6000819050919050565b61292c81612919565b811461293757600080fd5b50565b60008135905061294981612923565b92915050565b600060208284031215612965576129646127a2565b5b60006129738482850161293a565b91505092915050565b600073ffffffffffffffffffffffffffffffffffffffff82169050919050565b60006129a78261297c565b9050919050565b6129b78161299c565b82525050565b60006020820190506129d260008301846129ae565b92915050565b6129e18161299c565b81146129ec57600080fd5b50565b6000813590506129fe816129d8565b92915050565b60008060408385031215612a1b57612a1a6127a2565b5b6000612a29858286016129ef565b9250506020612a3a8582860161293a565b9150509250929050565b600060208284031215612a5a57612a596127a2565b5b6000612a68848285016129ef565b91505092915050565b612a7a81612919565b82525050565b6000602082019050612a956000830184612a71565b92915050565b600080600060608486031215612ab457612ab36127a2565b5b6000612ac2868287016129ef565b9350506020612ad3868287016129ef565b9250506040612ae48682870161293a565b9150509250925092565b600060ff82169050919050565b612b0481612aee565b8114612b0f57600080fd5b50565b600081359050612b2181612afb565b92915050565b600080fd5b600080fd5b7f4e487b7100000000000000000000000000000000000000000000000000000000600052604160045260246000fd5b612b69826128ad565b810181811067ffffffffffffffff82111715612b8857612b87612b31565b5b80604052505050565b6000612b9b612798565b9050612ba78282612b60565b919050565b600067ffffffffffffffff821115612bc757612bc6612b31565b5b612bd0826128ad565b9050602081019050919050565b82818337600083830152505050565b6000612bff612bfa84612bac565b612b91565b905082815260208101848484011115612c1b57612c1a612b2c565b5b612c26848285612bdd565b509392505050565b600082601f830112612c4357612c42612b27565b5b8135612c53848260208601612bec565b91505092915050565b60008060408385031215612c7357612c726127a2565b5b6000612c8185828601612b12565b925050602083013567ffffffffffffffff811115612ca257612ca16127a7565b5b612cae85828601612c2e565b9150509250929050565b612cc181612aee565b82525050565b6000602082019050612cdc6000830184612cb8565b92915050565b612ceb81612831565b8114612cf657600080fd5b50565b600081359050612d0881612ce2565b92915050565b60008060408385031215612d2557612d246127a2565b5b6000612d33858286016129ef565b9250506020612d4485828601612cf9565b9150509250929050565b600067ffffffffffffffff821115612d6957612d68612b31565b5b612d72826128ad565b9050602081019050919050565b6000612d92612d8d84612d4e565b612b91565b905082815260208101848484011115612dae57612dad612b2c565b5b612db9848285612bdd565b509392505050565b600082601f830112612dd657612dd5612b27565b5b8135612de6848260208601612d7f565b91505092915050565b60008060008060808587031215612e0957612e086127a2565b5b6000612e17878288016129ef565b9450506020612e28878288016129ef565b9350506040612e398782880161293a565b925050606085013567ffffffffffffffff811115612e5a57612e596127a7565b5b612e6687828801612dc1565b91505092959194509250565b6000604082019050612e876000830185612cb8565b8181036020830152612e9981846128be565b90509392505050565b60008060008060808587031215612ebc57612ebb6127a2565b5b6000612eca878288016129ef565b9450506020612edb8782880161293a565b9350506040612eec8782880161293a565b9250506060612efd87828801612b12565b91505092959194509250565b60008060408385031215612f2057612f1f6127a2565b5b6000612f2e858286016129ef565b9250506020612f3f858286016129ef565b9150509250929050565b600080600060608486031215612f6257612f616127a2565b5b6000612f708682870161293a565b9350506020612f818682870161293a565b9250506040612f928682870161293a565b9150509250925092565b7f4e487b7100000000000000000000000000000000000000000000000000000000600052602260045260246000fd5b60006002820490506001821680612fe357607f821691505b602082108103612ff657612ff5612f9c565b5b50919050565b7f4f6e6c79206d61726b6574706c6163652063616e207472616e7366657220746f60008201527f6b656e7300000000000000000000000000000000000000000000000000000000602082015250565b6000613058602483612872565b915061306382612ffc565b604082019050919050565b600060208201905081810360008301526130878161304b565b9050919050565b7f546f6b656e206973206e6f6e2d7472616461626c652063757272656e746c7900600082015250565b60006130c4601f83612872565b91506130cf8261308e565b602082019050919050565b600060208201905081810360008301526130f3816130b7565b9050919050565b600080fd5b60008151905061310e81612923565b92915050565b600081519050613123816129d8565b92915050565b60008151905061313881612afb565b92915050565b600060808284031215613154576131536130fa565b5b61315e6080612b91565b9050600061316e848285016130ff565b600083015250602061318284828501613114565b6020830152506040613196848285016130ff565b60408301525060606131aa84828501613129565b60608301525092915050565b6000608082840312156131cc576131cb6127a2565b5b60006131da8482850161313e565b91505092915050565b7f4e487b7100000000000000000000000000000000000000000000000000000000600052601160045260246000fd5b600061321d82612919565b915061322883612919565b92508282019050808211156132405761323f6131e3565b5b92915050565b60008190508160005260206000209050919050565b60006020601f8301049050919050565b600082821b905092915050565b6000600883026132a87fffffffffffffffffffffffffffffffffffffffffffffffffffffffffffffffff8261326b565b6132b2868361326b565b95508019841693508086168417925050509392505050565b6000819050919050565b60006132ef6132ea6132e584612919565b6132ca565b612919565b9050919050565b6000819050919050565b613309836132d4565b61331d613315826132f6565b848454613278565b825550505050565b600090565b613332613325565b61333d818484613300565b505050565b5b818110156133615761335660008261332a565b600181019050613343565b5050565b601f8211156133a65761337781613246565b6133808461325b565b8101602085101561338f578190505b6133a361339b8561325b565b830182613342565b50505b505050565b600082821c905092915050565b60006133c9600019846008026133ab565b1980831691505092915050565b60006133e283836133b8565b9150826002028217905092915050565b6133fb82612867565b67ffffffffffffffff81111561341457613413612b31565b5b61341e8254612fcb565b613429828285613365565b600060209050601f83116001811461345c576000841561344a578287015190505b61345485826133d6565b8655506134bc565b601f19841661346a86613246565b60005b828110156134925784890151825560018201915060208501945060208101905061346d565b868310156134af57848901516134ab601f8916826133b8565b8355505b6001600288020188555050505b505050505050565b7f4552433732314d657461646174613a20517565727920666f72206e6f6e65786960008201527f7374656e7420746f6b656e000000000000000000000000000000000000000000602082015250565b6000613520602b83612872565b915061352b826134c4565b604082019050919050565b6000602082019050818103600083015261354f81613513565b9050919050565b7f4552433732314d657461646174613a2055524920717565727920666f72206e6f60008201527f6e6578697374656e7420746f6b656e0000000000000000000000000000000000602082015250565b60006135b2602f83612872565b91506135bd82613556565b604082019050919050565b600060208201905081810360008301526135e1816135a5565b9050919050565b600081905092915050565b60006135fe82612867565b61360881856135e8565b9350613618818560208601612883565b80840191505092915050565b7f2e6a736f6e000000000000000000000000000000000000000000000000000000600082015250565b600061365a6005836135e8565b915061366582613624565b600582019050919050565b600061367c82846135f3565b91506136878261364d565b915081905092915050565b7f43616c6c6572206973206e6f7420617574686f72697a656420746f206d696e74600082015250565b60006136c8602083612872565b91506136d382613692565b602082019050919050565b600060208201905081810360008301526136f7816136bb565b9050919050565b600061370982612919565b91507fffffffffffffffffffffffffffffffffffffffffffffffffffffffffffffffff820361373b5761373a6131e3565b5b600182019050919050565b600060808201905061375b60008301876129ae565b6137686020830186612a71565b6137756040830185612a71565b6137826060830184612cb8565b95945050505050565b7f43616c6c6572206973206e6f7420617574686f72697a656420746f207570646160008201527f7465207072696365000000000000000000000000000000000000000000000000602082015250565b60006137e7602883612872565b91506137f28261378b565b604082019050919050565b60006020820190508181036000830152613816816137da565b9050919050565b600061382882612919565b915061383383612919565b925082820261384181612919565b91508282048414831517613858576138576131e3565b5b5092915050565b7f4e487b7100000000000000000000000000000000000000000000000000000000600052601260045260246000fd5b600061389982612919565b91506138a483612919565b9250826138b4576138b361385f565b5b828204905092915050565b60006040820190506138d46000830185612a71565b6138e16020830184612a71565b9392505050565b60006060820190506138fd60008301866129ae565b61390a6020830185612a71565b61391760408301846129ae565b949350505050565b600081519050919050565b600082825260208201905092915050565b60006139468261391f565b613950818561392a565b9350613960818560208601612883565b613969816128ad565b840191505092915050565b600060808201905061398960008301876129ae565b61399660208301866129ae565b6139a36040830185612a71565b81810360608301526139b5818461393b565b905095945050505050565b6000815190506139cf816127d8565b92915050565b6000602082840312156139eb576139ea6127a2565b5b60006139f9848285016139c0565b91505092915050565b6000604082019050613a1760008301856129ae565b613a246020830184612a71565b939250505056fea26469706673582212206ebaa06df48249ca289e06b6176267c748e7e4c8c4ced40c442c76d6ebef725c64736f6c63430008140033",
  "linkReferences": {},
  "deployedLinkReferences": {}
}