{
	"data": {
		"bytecode": {
			"linkReferences": {},
			"object": "608060405234801562000010575f80fd5b5060405162001fdc38038062001fdc8339810160408190526200003391620001aa565b3383835f620000438382620002a4565b506001620000528282620002a4565b5050506001600160a01b0381166200008357604051631e4fbdf760e01b81525f600482015260240160405180910390fd5b6200008e816200009b565b50600e55506200036c9050565b600680546001600160a01b038381166001600160a01b0319831681179093556040519116919082907f8be0079c531659141344cd1fd0a4f28419497f9722a3daafe3b4186f6b6457e0905f90a35050565b634e487b7160e01b5f52604160045260245ffd5b5f82601f83011262000110575f80fd5b81516001600160401b03808211156200012d576200012d620000ec565b604051601f8301601f19908116603f01168101908282118183101715620001585762000158620000ec565b8160405283815260209250868385880101111562000174575f80fd5b5f91505b8382101562000197578582018301518183018401529082019062000178565b5f93810190920192909252949350505050565b5f805f60608486031215620001bd575f80fd5b83516001600160401b0380821115620001d4575f80fd5b620001e28783880162000100565b94506020860151915080821115620001f8575f80fd5b50620002078682870162000100565b925050604084015190509250925092565b600181811c908216806200022d57607f821691505b6020821081036200024c57634e487b7160e01b5f52602260045260245ffd5b50919050565b601f8211156200029f575f81815260208120601f850160051c810160208610156200027a5750805b601f850160051c820191505b818110156200029b5782815560010162000286565b5050505b505050565b81516001600160401b03811115620002c057620002c0620000ec565b620002d881620002d1845462000218565b8462000252565b602080601f8311600181146200030e575f8415620002f65750858301515b5f19600386901b1c1916600185901b1785556200029b565b5f85815260208120601f198616915b828110156200033e578886015182559484019460019091019084016200031d565b50858210156200035c57878501515f19600388901b60f8161c191681555b5050505050600190811b01905550565b611c62806200037a5f395ff3fe608060405234801561000f575f80fd5b50600436106101f2575f3560e01c80638da5cb5b11610114578063d6b96050116100a9578063e985e9c511610079578063e985e9c514610445578063ebb71dd614610458578063f2fde38b1461046b578063f46eccc41461047e578063f50efc46146104a0575f80fd5b8063d6b96050146103ed578063daa17f4914610400578063e5afe3e614610413578063e88456e714610432575f80fd5b8063b47cc556116100e4578063b47cc55614610393578063b88d4fde146103a6578063c1e03728146103b9578063c87b56dd146103da575f80fd5b80638da5cb5b1461035457806395d89b4114610365578063983b2d561461036d578063a22cb46514610380575f80fd5b80633092afd51161018a57806362eefa8e1161015a57806362eefa8e1461031d5780636352211e1461032657806370a0823114610339578063715018a61461034c575f80fd5b80633092afd5146102d15780633e7e4919146102e457806342842e0e146102f757806355376e581461030a575f80fd5b8063125dfb09116101c5578063125dfb091461027357806318160ddd1461029557806323b872dd146102ab5780632df31108146102be575f80fd5b806301ffc9a7146101f657806306fdde031461021e578063081812fc14610233578063095ea7b31461025e575b5f80fd5b610209610204366004611570565b6104bf565b60405190151581526020015b60405180910390f35b610226610510565b60405161021591906115df565b6102466102413660046115f1565b61059f565b6040516001600160a01b039091168152602001610215565b61027161026c36600461161c565b6105c6565b005b610209610281366004611646565b600c6020525f908152604090205460ff1681565b61029d6105d5565b604051908152602001610215565b6102716102b9366004611661565b6105e4565b6102716102cc366004611646565b61076c565b6102716102df366004611646565b610794565b6102716102f23660046115f1565b6107bc565b610271610305366004611661565b6107c9565b61027161031836600461173b565b6107e8565b61029d600e5481565b6102466103343660046115f1565b61080b565b61029d610347366004611646565b610815565b61027161085a565b6006546001600160a01b0316610246565b61022661086d565b61027161037b366004611646565b61087c565b61027161038e366004611799565b6108a7565b6102716103a1366004611646565b6108b2565b6102716103b43660046117d4565b6108e6565b6103cc6103c73660046115f1565b6109c6565b60405161021592919061184f565b6102266103e83660046115f1565b610a60565b6102716103fb36600461186a565b610b81565b600a54610246906001600160a01b031681565b61029d6104213660046115f1565b60086020525f908152604090205481565b610271610440366004611646565b610caf565b6102096104533660046118af565b610cda565b6102716104663660046118db565b610d07565b610271610479366004611646565b610dea565b61020961048c366004611646565b600b6020525f908152604090205460ff1681565b61029d6104ae3660046115f1565b600d6020525f908152604090205481565b5f6001600160e01b031982166380ac58cd60e01b14806104ef57506001600160e01b03198216635b5e139f60e01b145b8061050a57506301ffc9a760e01b6001600160e01b03198316145b92915050565b60605f805461051e90611904565b80601f016020809104026020016040519081016040528092919081815260200182805461054a90611904565b80156105955780601f1061056c57610100808354040283529160200191610595565b820191905f5260205f20905b81548152906001019060200180831161057857829003601f168201915b5050505050905090565b5f6105a982610e27565b505f828152600460205260409020546001600160a01b031661050a565b6105d1828233610e5f565b5050565b5f6105df600f5490565b905090565b600a546001600160a01b038481169116148061060d5750600a546001600160a01b038381169116145b6106325760405162461bcd60e51b81526004016106299061193c565b60405180910390fd5b5f818152600d602052604090205442101561068f5760405162461bcd60e51b815260206004820152601f60248201527f546f6b656e206973206e6f6e2d7472616461626c652063757272656e746c79006044820152606401610629565b60095460405163083d13a560e11b8152600481018390525f916001600160a01b03169063107a274a90602401606060405180830381865afa1580156106d6573d5f803e3d5ffd5b505050506040513d601f19601f820116820180604052508101906106fa9190611980565b905080602001516001600160a01b0316836001600160a01b03160361072957610724848484610e6c565b610766565b600a546001600160a01b039081169085160361075b57600e5461074c90426119f4565b5f838152600d60205260409020555b610766848484610f19565b50505050565b610774610f9c565b6001600160a01b03165f908152600c60205260409020805460ff19169055565b61079c610f9c565b6001600160a01b03165f908152600b60205260409020805460ff19169055565b6107c4610f9c565b600e55565b6107e383838360405180602001604052805f8152506108e6565b505050565b6107f0610f9c565b60ff82165f9081526011602052604090206107e38282611a54565b5f61050a82610e27565b5f6001600160a01b03821661083f576040516322718ad960e21b81525f6004820152602401610629565b506001600160a01b03165f9081526003602052604090205490565b610862610f9c565b61086b5f610fc9565b565b60606001805461051e90611904565b610884610f9c565b6001600160a01b03165f908152600b60205260409020805460ff19166001179055565b6105d133838361101a565b6108ba610f9c565b600a80546001600160a01b039092166001600160a01b0319928316811790915560098054909216179055565b600a546001600160a01b038581169116148061090f5750600a546001600160a01b038481169116145b61092b5760405162461bcd60e51b81526004016106299061193c565b5f828152600d60205260409020544210156109885760405162461bcd60e51b815260206004820152601f60248201527f546f6b656e206973206e6f6e2d7472616461626c652063757272656e746c79006044820152606401610629565b600a546001600160a01b03908116908516036109ba57600e546109ab90426119f4565b5f838152600d60205260409020555b610766848484846110b8565b5f6060816109d38461080b565b6001600160a01b031603610a3d5760405162461bcd60e51b815260206004820152602b60248201527f4552433732314d657461646174613a20517565727920666f72206e6f6e65786960448201526a39ba32b73a103a37b5b2b760a91b6064820152608401610629565b5f8381526010602052604090205460ff169150610a5983610a60565b9050915091565b60605f610a6c8361080b565b6001600160a01b031603610a925760405162461bcd60e51b815260040161062990611b10565b5f8281526010602090815260408083205460ff16808452601190925282208054919291610abe90611904565b80601f0160208091040260200160405190810160405280929190818152602001828054610aea90611904565b8015610b355780601f10610b0c57610100808354040283529160200191610b35565b820191905f5260205f20905b815481529060010190602001808311610b1857829003601f168201915b505050505090505f815111610b585760405180602001604052805f815250610b79565b80604051602001610b699190611b5f565b6040516020818303038152906040525b949350505050565b335f908152600b602052604090205460ff16610bdf5760405162461bcd60e51b815260206004820181905260248201527f43616c6c6572206973206e6f7420617574686f72697a656420746f206d696e746044820152606401610629565b5f5b82811015610ca85760078054905f610bf883611b87565b90915550506007545f818152600860205260409020859055610c1a86826110cf565b610c28600f80546001019055565b5f818152600d60205260409020429055610c428184611130565b604080516001600160a01b03881681526020810183905290810186905260ff841660608201527fc0d0df51781b7fcb489c14b521ff659c33f0ffdcc1e2f0283c7328234d07713b9060800160405180910390a15080610ca081611b87565b915050610be1565b5050505050565b610cb7610f9c565b6001600160a01b03165f908152600c60205260409020805460ff19166001179055565b6001600160a01b039182165f90815260056020908152604080832093909416825291909152205460ff1690565b335f908152600c602052604090205460ff16610d765760405162461bcd60e51b815260206004820152602860248201527f43616c6c6572206973206e6f7420617574686f72697a656420746f2075706461604482015267746520707269636560c01b6064820152608401610629565b5f6064610d838385611b9f565b610d8d9190611bb6565b610d9790846119f4565b5f8581526008602090815260409182902083905581518781529081018390529192507fd9cc159fa79112d02593601db522a6696e6c5c82d9e9ca9332f89ec824935bb0910160405180910390a150505050565b610df2610f9c565b6001600160a01b038116610e1b57604051631e4fbdf760e01b81525f6004820152602401610629565b610e2481610fc9565b50565b5f818152600260205260408120546001600160a01b03168061050a57604051637e27328960e01b815260048101849052602401610629565b6107e38383836001611181565b6001600160a01b038216610e9557604051633250574960e11b81525f6004820152602401610629565b5f610ea183835f611285565b90506001600160a01b038116610ecd57604051637e27328960e01b815260048101839052602401610629565b836001600160a01b0316816001600160a01b031614610766576040516364283d7b60e01b81526001600160a01b0380861660048301526024820184905282166044820152606401610629565b6001600160a01b038216610f4257604051633250574960e11b81525f6004820152602401610629565b5f610f4e838333611285565b9050836001600160a01b0316816001600160a01b031614610766576040516364283d7b60e01b81526001600160a01b0380861660048301526024820184905282166044820152606401610629565b6006546001600160a01b0316331461086b5760405163118cdaa760e01b8152336004820152602401610629565b600680546001600160a01b038381166001600160a01b0319831681179093556040519116919082907f8be0079c531659141344cd1fd0a4f28419497f9722a3daafe3b4186f6b6457e0905f90a35050565b6001600160a01b03821661104c57604051630b61174360e31b81526001600160a01b0383166004820152602401610629565b6001600160a01b038381165f81815260056020908152604080832094871680845294825291829020805460ff191686151590811790915591519182527f17307eab39ab6107e8899845ad3d59bd9653f200f220920489ca2b5937696c31910160405180910390a3505050565b6110c38484846105e4565b61076684848484611377565b6001600160a01b0382166110f857604051633250574960e11b81525f6004820152602401610629565b5f61110483835f611285565b90506001600160a01b038116156107e3576040516339e3563760e11b81525f6004820152602401610629565b5f61113a8361080b565b6001600160a01b0316036111605760405162461bcd60e51b815260040161062990611b10565b5f91825260106020526040909120805460ff191660ff909216919091179055565b808061119557506001600160a01b03821615155b15611256575f6111a484610e27565b90506001600160a01b038316158015906111d05750826001600160a01b0316816001600160a01b031614155b80156111e357506111e18184610cda565b155b1561120c5760405163a9fbf51f60e01b81526001600160a01b0384166004820152602401610629565b81156112545783856001600160a01b0316826001600160a01b03167f8c5be1e5ebec7d5bd14f71427d1e84f3dd0314c0f7b2291e5b200ac8c7c3b92560405160405180910390a45b505b50505f90815260046020526040902080546001600160a01b0319166001600160a01b0392909216919091179055565b5f828152600260205260408120546001600160a01b03908116908316156112b1576112b1818486611496565b6001600160a01b038116156112eb576112cc5f855f80611181565b6001600160a01b0381165f90815260036020526040902080545f190190555b6001600160a01b03851615611319576001600160a01b0385165f908152600360205260409020805460010190555b5f8481526002602052604080822080546001600160a01b0319166001600160a01b0389811691821790925591518793918516917fddf252ad1be2c89b69c2b068fc378daa952ba7f163c4a11628f55a4df523b3ef91a4949350505050565b6001600160a01b0383163b1561076657604051630a85bd0160e11b81526001600160a01b0384169063150b7a02906113b9903390889087908790600401611bd5565b6020604051808303815f875af19250505080156113f3575060408051601f3d908101601f191682019092526113f091810190611c11565b60015b61145a573d808015611420576040519150601f19603f3d011682016040523d82523d5f602084013e611425565b606091505b5080515f0361145257604051633250574960e11b81526001600160a01b0385166004820152602401610629565b805181602001fd5b6001600160e01b03198116630a85bd0160e11b14610ca857604051633250574960e11b81526001600160a01b0385166004820152602401610629565b6114a18383836114fa565b6107e3576001600160a01b0383166114cf57604051637e27328960e01b815260048101829052602401610629565b60405163177e802f60e01b81526001600160a01b038316600482015260248101829052604401610629565b5f6001600160a01b03831615801590610b795750826001600160a01b0316846001600160a01b0316148061153357506115338484610cda565b80610b795750505f908152600460205260409020546001600160a01b03908116911614919050565b6001600160e01b031981168114610e24575f80fd5b5f60208284031215611580575f80fd5b813561158b8161155b565b9392505050565b5f5b838110156115ac578181015183820152602001611594565b50505f910152565b5f81518084526115cb816020860160208601611592565b601f01601f19169290920160200192915050565b602081525f61158b60208301846115b4565b5f60208284031215611601575f80fd5b5035919050565b6001600160a01b0381168114610e24575f80fd5b5f806040838503121561162d575f80fd5b823561163881611608565b946020939093013593505050565b5f60208284031215611656575f80fd5b813561158b81611608565b5f805f60608486031215611673575f80fd5b833561167e81611608565b9250602084013561168e81611608565b929592945050506040919091013590565b803560ff811681146116af575f80fd5b919050565b634e487b7160e01b5f52604160045260245ffd5b5f67ffffffffffffffff808411156116e2576116e26116b4565b604051601f8501601f19908116603f0116810190828211818310171561170a5761170a6116b4565b81604052809350858152868686011115611722575f80fd5b858560208301375f602087830101525050509392505050565b5f806040838503121561174c575f80fd5b6117558361169f565b9150602083013567ffffffffffffffff811115611770575f80fd5b8301601f81018513611780575f80fd5b61178f858235602084016116c8565b9150509250929050565b5f80604083850312156117aa575f80fd5b82356117b581611608565b9150602083013580151581146117c9575f80fd5b809150509250929050565b5f805f80608085870312156117e7575f80fd5b84356117f281611608565b9350602085013561180281611608565b925060408501359150606085013567ffffffffffffffff811115611824575f80fd5b8501601f81018713611834575f80fd5b611843878235602084016116c8565b91505092959194509250565b60ff83168152604060208201525f610b7960408301846115b4565b5f805f806080858703121561187d575f80fd5b843561188881611608565b935060208501359250604085013591506118a46060860161169f565b905092959194509250565b5f80604083850312156118c0575f80fd5b82356118cb81611608565b915060208301356117c981611608565b5f805f606084860312156118ed575f80fd5b505081359360208301359350604090920135919050565b600181811c9082168061191857607f821691505b60208210810361193657634e487b7160e01b5f52602260045260245ffd5b50919050565b60208082526024908201527f4f6e6c79206d61726b6574706c6163652063616e207472616e7366657220746f6040820152636b656e7360e01b606082015260800190565b5f60608284031215611990575f80fd5b6040516060810181811067ffffffffffffffff821117156119b3576119b36116b4565b6040528251815260208301516119c881611608565b60208201526040928301519281019290925250919050565b634e487b7160e01b5f52601160045260245ffd5b8082018082111561050a5761050a6119e0565b601f8211156107e3575f81815260208120601f850160051c81016020861015611a2d5750805b601f850160051c820191505b81811015611a4c57828155600101611a39565b505050505050565b815167ffffffffffffffff811115611a6e57611a6e6116b4565b611a8281611a7c8454611904565b84611a07565b602080601f831160018114611ab5575f8415611a9e5750858301515b5f19600386901b1c1916600185901b178555611a4c565b5f85815260208120601f198616915b82811015611ae357888601518255948401946001909101908401611ac4565b5085821015611b0057878501515f19600388901b60f8161c191681555b5050505050600190811b01905550565b6020808252602f908201527f4552433732314d657461646174613a2055524920717565727920666f72206e6f60408201526e3732bc34b9ba32b73a103a37b5b2b760891b606082015260800190565b5f8251611b70818460208701611592565b64173539b7b760d91b920191825250600501919050565b5f60018201611b9857611b986119e0565b5060010190565b808202811582820484141761050a5761050a6119e0565b5f82611bd057634e487b7160e01b5f52601260045260245ffd5b500490565b6001600160a01b03858116825284166020820152604081018390526080606082018190525f90611c07908301846115b4565b9695505050505050565b5f60208284031215611c21575f80fd5b815161158b8161155b56fea26469706673582212205dc65f67af432267c7e67d6cbbdda88a4866521a34c5e2718083397d5cb6fe4364736f6c63430008140033",
			"opcodes": "PUSH1 0x80 PUSH1 0x40 MSTORE CALLVALUE DUP1 ISZERO PUSH3 0x10 JUMPI PUSH0 DUP1 REVERT JUMPDEST POP PUSH1 0x40 MLOAD PUSH3 0x1FDC CODESIZE SUB DUP1 PUSH3 0x1FDC DUP4 CODECOPY DUP2 ADD PUSH1 0x40 DUP2 SWAP1 MSTORE PUSH3 0x33 SWAP2 PUSH3 0x1AA JUMP JUMPDEST CALLER DUP4 DUP4 PUSH0 PUSH3 0x43 DUP4 DUP3 PUSH3 0x2A4 JUMP JUMPDEST POP PUSH1 0x1 PUSH3 0x52 DUP3 DUP3 PUSH3 0x2A4 JUMP JUMPDEST POP POP POP PUSH1 0x1 PUSH1 0x1 PUSH1 0xA0 SHL SUB DUP2 AND PUSH3 0x83 JUMPI PUSH1 0x40 MLOAD PUSH4 0x1E4FBDF7 PUSH1 0xE0 SHL DUP2 MSTORE PUSH0 PUSH1 0x4 DUP3 ADD MSTORE PUSH1 0x24 ADD PUSH1 0x40 MLOAD DUP1 SWAP2 SUB SWAP1 REVERT JUMPDEST PUSH3 0x8E DUP2 PUSH3 0x9B JUMP JUMPDEST POP PUSH1 0xE SSTORE POP PUSH3 0x36C SWAP1 POP JUMP JUMPDEST PUSH1 0x6 DUP1 SLOAD PUSH1 0x1 PUSH1 0x1 PUSH1 0xA0 SHL SUB DUP4 DUP2 AND PUSH1 0x1 PUSH1 0x1 PUSH1 0xA0 SHL SUB NOT DUP4 AND DUP2 OR SWAP1 SWAP4 SSTORE PUSH1 0x40 MLOAD SWAP2 AND SWAP2 SWAP1 DUP3 SWAP1 PUSH32 0x8BE0079C531659141344CD1FD0A4F28419497F9722A3DAAFE3B4186F6B6457E0 SWAP1 PUSH0 SWAP1 LOG3 POP POP JUMP JUMPDEST PUSH4 0x4E487B71 PUSH1 0xE0 SHL PUSH0 MSTORE PUSH1 0x41 PUSH1 0x4 MSTORE PUSH1 0x24 PUSH0 REVERT JUMPDEST PUSH0 DUP3 PUSH1 0x1F DUP4 ADD SLT PUSH3 0x110 JUMPI PUSH0 DUP1 REVERT JUMPDEST DUP2 MLOAD PUSH1 0x1 PUSH1 0x1 PUSH1 0x40 SHL SUB DUP1 DUP3 GT ISZERO PUSH3 0x12D JUMPI PUSH3 0x12D PUSH3 0xEC JUMP JUMPDEST PUSH1 0x40 MLOAD PUSH1 0x1F DUP4 ADD PUSH1 0x1F NOT SWAP1 DUP2 AND PUSH1 0x3F ADD AND DUP2 ADD SWAP1 DUP3 DUP3 GT DUP2 DUP4 LT OR ISZERO PUSH3 0x158 JUMPI PUSH3 0x158 PUSH3 0xEC JUMP JUMPDEST DUP2 PUSH1 0x40 MSTORE DUP4 DUP2 MSTORE PUSH1 0x20 SWAP3 POP DUP7 DUP4 DUP6 DUP9 ADD ADD GT ISZERO PUSH3 0x174 JUMPI PUSH0 DUP1 REVERT JUMPDEST PUSH0 SWAP2 POP JUMPDEST DUP4 DUP3 LT ISZERO PUSH3 0x197 JUMPI DUP6 DUP3 ADD DUP4 ADD MLOAD DUP2 DUP4 ADD DUP5 ADD MSTORE SWAP1 DUP3 ADD SWAP1 PUSH3 0x178 JUMP JUMPDEST PUSH0 SWAP4 DUP2 ADD SWAP1 SWAP3 ADD SWAP3 SWAP1 SWAP3 MSTORE SWAP5 SWAP4 POP POP POP POP JUMP JUMPDEST PUSH0 DUP1 PUSH0 PUSH1 0x60 DUP5 DUP7 SUB SLT ISZERO PUSH3 0x1BD JUMPI PUSH0 DUP1 REVERT JUMPDEST DUP4 MLOAD PUSH1 0x1 PUSH1 0x1 PUSH1 0x40 SHL SUB DUP1 DUP3 GT ISZERO PUSH3 0x1D4 JUMPI PUSH0 DUP1 REVERT JUMPDEST PUSH3 0x1E2 DUP8 DUP4 DUP9 ADD PUSH3 0x100 JUMP JUMPDEST SWAP5 POP PUSH1 0x20 DUP7 ADD MLOAD SWAP2 POP DUP1 DUP3 GT ISZERO PUSH3 0x1F8 JUMPI PUSH0 DUP1 REVERT JUMPDEST POP PUSH3 0x207 DUP7 DUP3 DUP8 ADD PUSH3 0x100 JUMP JUMPDEST SWAP3 POP POP PUSH1 0x40 DUP5 ADD MLOAD SWAP1 POP SWAP3 POP SWAP3 POP SWAP3 JUMP JUMPDEST PUSH1 0x1 DUP2 DUP2 SHR SWAP1 DUP3 AND DUP1 PUSH3 0x22D JUMPI PUSH1 0x7F DUP3 AND SWAP2 POP JUMPDEST PUSH1 0x20 DUP3 LT DUP2 SUB PUSH3 0x24C JUMPI PUSH4 0x4E487B71 PUSH1 0xE0 SHL PUSH0 MSTORE PUSH1 0x22 PUSH1 0x4 MSTORE PUSH1 0x24 PUSH0 REVERT JUMPDEST POP SWAP2 SWAP1 POP JUMP JUMPDEST PUSH1 0x1F DUP3 GT ISZERO PUSH3 0x29F JUMPI PUSH0 DUP2 DUP2 MSTORE PUSH1 0x20 DUP2 KECCAK256 PUSH1 0x1F DUP6 ADD PUSH1 0x5 SHR DUP2 ADD PUSH1 0x20 DUP7 LT ISZERO PUSH3 0x27A JUMPI POP DUP1 JUMPDEST PUSH1 0x1F DUP6 ADD PUSH1 0x5 SHR DUP3 ADD SWAP2 POP JUMPDEST DUP2 DUP2 LT ISZERO PUSH3 0x29B JUMPI DUP3 DUP2 SSTORE PUSH1 0x1 ADD PUSH3 0x286 JUMP JUMPDEST POP POP POP JUMPDEST POP POP POP JUMP JUMPDEST DUP2 MLOAD PUSH1 0x1 PUSH1 0x1 PUSH1 0x40 SHL SUB DUP2 GT ISZERO PUSH3 0x2C0 JUMPI PUSH3 0x2C0 PUSH3 0xEC JUMP JUMPDEST PUSH3 0x2D8 DUP2 PUSH3 0x2D1 DUP5 SLOAD PUSH3 0x218 JUMP JUMPDEST DUP5 PUSH3 0x252 JUMP JUMPDEST PUSH1 0x20 DUP1 PUSH1 0x1F DUP4 GT PUSH1 0x1 DUP2 EQ PUSH3 0x30E JUMPI PUSH0 DUP5 ISZERO PUSH3 0x2F6 JUMPI POP DUP6 DUP4 ADD MLOAD JUMPDEST PUSH0 NOT PUSH1 0x3 DUP7 SWAP1 SHL SHR NOT AND PUSH1 0x1 DUP6 SWAP1 SHL OR DUP6 SSTORE PUSH3 0x29B JUMP JUMPDEST PUSH0 DUP6 DUP2 MSTORE PUSH1 0x20 DUP2 KECCAK256 PUSH1 0x1F NOT DUP7 AND SWAP2 JUMPDEST DUP3 DUP2 LT ISZERO PUSH3 0x33E JUMPI DUP9 DUP7 ADD MLOAD DUP3 SSTORE SWAP5 DUP5 ADD SWAP5 PUSH1 0x1 SWAP1 SWAP2 ADD SWAP1 DUP5 ADD PUSH3 0x31D JUMP JUMPDEST POP DUP6 DUP3 LT ISZERO PUSH3 0x35C JUMPI DUP8 DUP6 ADD MLOAD PUSH0 NOT PUSH1 0x3 DUP9 SWAP1 SHL PUSH1 0xF8 AND SHR NOT AND DUP2 SSTORE JUMPDEST POP POP POP POP POP PUSH1 0x1 SWAP1 DUP2 SHL ADD SWAP1 SSTORE POP JUMP JUMPDEST PUSH2 0x1C62 DUP1 PUSH3 0x37A PUSH0 CODECOPY PUSH0 RETURN INVALID PUSH1 0x80 PUSH1 0x40 MSTORE CALLVALUE DUP1 ISZERO PUSH2 0xF JUMPI PUSH0 DUP1 REVERT JUMPDEST POP PUSH1 0x4 CALLDATASIZE LT PUSH2 0x1F2 JUMPI PUSH0 CALLDATALOAD PUSH1 0xE0 SHR DUP1 PUSH4 0x8DA5CB5B GT PUSH2 0x114 JUMPI DUP1 PUSH4 0xD6B96050 GT PUSH2 0xA9 JUMPI DUP1 PUSH4 0xE985E9C5 GT PUSH2 0x79 JUMPI DUP1 PUSH4 0xE985E9C5 EQ PUSH2 0x445 JUMPI DUP1 PUSH4 0xEBB71DD6 EQ PUSH2 0x458 JUMPI DUP1 PUSH4 0xF2FDE38B EQ PUSH2 0x46B JUMPI DUP1 PUSH4 0xF46ECCC4 EQ PUSH2 0x47E JUMPI DUP1 PUSH4 0xF50EFC46 EQ PUSH2 0x4A0 JUMPI PUSH0 DUP1 REVERT JUMPDEST DUP1 PUSH4 0xD6B96050 EQ PUSH2 0x3ED JUMPI DUP1 PUSH4 0xDAA17F49 EQ PUSH2 0x400 JUMPI DUP1 PUSH4 0xE5AFE3E6 EQ PUSH2 0x413 JUMPI DUP1 PUSH4 0xE88456E7 EQ PUSH2 0x432 JUMPI PUSH0 DUP1 REVERT JUMPDEST DUP1 PUSH4 0xB47CC556 GT PUSH2 0xE4 JUMPI DUP1 PUSH4 0xB47CC556 EQ PUSH2 0x393 JUMPI DUP1 PUSH4 0xB88D4FDE EQ PUSH2 0x3A6 JUMPI DUP1 PUSH4 0xC1E03728 EQ PUSH2 0x3B9 JUMPI DUP1 PUSH4 0xC87B56DD EQ PUSH2 0x3DA JUMPI PUSH0 DUP1 REVERT JUMPDEST DUP1 PUSH4 0x8DA5CB5B EQ PUSH2 0x354 JUMPI DUP1 PUSH4 0x95D89B41 EQ PUSH2 0x365 JUMPI DUP1 PUSH4 0x983B2D56 EQ PUSH2 0x36D JUMPI DUP1 PUSH4 0xA22CB465 EQ PUSH2 0x380 JUMPI PUSH0 DUP1 REVERT JUMPDEST DUP1 PUSH4 0x3092AFD5 GT PUSH2 0x18A JUMPI DUP1 PUSH4 0x62EEFA8E GT PUSH2 0x15A JUMPI DUP1 PUSH4 0x62EEFA8E EQ PUSH2 0x31D JUMPI DUP1 PUSH4 0x6352211E EQ PUSH2 0x326 JUMPI DUP1 PUSH4 0x70A08231 EQ PUSH2 0x339 JUMPI DUP1 PUSH4 0x715018A6 EQ PUSH2 0x34C JUMPI PUSH0 DUP1 REVERT JUMPDEST DUP1 PUSH4 0x3092AFD5 EQ PUSH2 0x2D1 JUMPI DUP1 PUSH4 0x3E7E4919 EQ PUSH2 0x2E4 JUMPI DUP1 PUSH4 0x42842E0E EQ PUSH2 0x2F7 JUMPI DUP1 PUSH4 0x55376E58 EQ PUSH2 0x30A JUMPI PUSH0 DUP1 REVERT JUMPDEST DUP1 PUSH4 0x125DFB09 GT PUSH2 0x1C5 JUMPI DUP1 PUSH4 0x125DFB09 EQ PUSH2 0x273 JUMPI DUP1 PUSH4 0x18160DDD EQ PUSH2 0x295 JUMPI DUP1 PUSH4 0x23B872DD EQ PUSH2 0x2AB JUMPI DUP1 PUSH4 0x2DF31108 EQ PUSH2 0x2BE JUMPI PUSH0 DUP1 REVERT JUMPDEST DUP1 PUSH4 0x1FFC9A7 EQ PUSH2 0x1F6 JUMPI DUP1 PUSH4 0x6FDDE03 EQ PUSH2 0x21E JUMPI DUP1 PUSH4 0x81812FC EQ PUSH2 0x233 JUMPI DUP1 PUSH4 0x95EA7B3 EQ PUSH2 0x25E JUMPI JUMPDEST PUSH0 DUP1 REVERT JUMPDEST PUSH2 0x209 PUSH2 0x204 CALLDATASIZE PUSH1 0x4 PUSH2 0x1570 JUMP JUMPDEST PUSH2 0x4BF JUMP JUMPDEST PUSH1 0x40 MLOAD SWAP1 ISZERO ISZERO DUP2 MSTORE PUSH1 0x20 ADD JUMPDEST PUSH1 0x40 MLOAD DUP1 SWAP2 SUB SWAP1 RETURN JUMPDEST PUSH2 0x226 PUSH2 0x510 JUMP JUMPDEST PUSH1 0x40 MLOAD PUSH2 0x215 SWAP2 SWAP1 PUSH2 0x15DF JUMP JUMPDEST PUSH2 0x246 PUSH2 0x241 CALLDATASIZE PUSH1 0x4 PUSH2 0x15F1 JUMP JUMPDEST PUSH2 0x59F JUMP JUMPDEST PUSH1 0x40 MLOAD PUSH1 0x1 PUSH1 0x1 PUSH1 0xA0 SHL SUB SWAP1 SWAP2 AND DUP2 MSTORE PUSH1 0x20 ADD PUSH2 0x215 JUMP JUMPDEST PUSH2 0x271 PUSH2 0x26C CALLDATASIZE PUSH1 0x4 PUSH2 0x161C JUMP JUMPDEST PUSH2 0x5C6 JUMP JUMPDEST STOP JUMPDEST PUSH2 0x209 PUSH2 0x281 CALLDATASIZE PUSH1 0x4 PUSH2 0x1646 JUMP JUMPDEST PUSH1 0xC PUSH1 0x20 MSTORE PUSH0 SWAP1 DUP2 MSTORE PUSH1 0x40 SWAP1 KECCAK256 SLOAD PUSH1 0xFF AND DUP2 JUMP JUMPDEST PUSH2 0x29D PUSH2 0x5D5 JUMP JUMPDEST PUSH1 0x40 MLOAD SWAP1 DUP2 MSTORE PUSH1 0x20 ADD PUSH2 0x215 JUMP JUMPDEST PUSH2 0x271 PUSH2 0x2B9 CALLDATASIZE PUSH1 0x4 PUSH2 0x1661 JUMP JUMPDEST PUSH2 0x5E4 JUMP JUMPDEST PUSH2 0x271 PUSH2 0x2CC CALLDATASIZE PUSH1 0x4 PUSH2 0x1646 JUMP JUMPDEST PUSH2 0x76C JUMP JUMPDEST PUSH2 0x271 PUSH2 0x2DF CALLDATASIZE PUSH1 0x4 PUSH2 0x1646 JUMP JUMPDEST PUSH2 0x794 JUMP JUMPDEST PUSH2 0x271 PUSH2 0x2F2 CALLDATASIZE PUSH1 0x4 PUSH2 0x15F1 JUMP JUMPDEST PUSH2 0x7BC JUMP JUMPDEST PUSH2 0x271 PUSH2 0x305 CALLDATASIZE PUSH1 0x4 PUSH2 0x1661 JUMP JUMPDEST PUSH2 0x7C9 JUMP JUMPDEST PUSH2 0x271 PUSH2 0x318 CALLDATASIZE PUSH1 0x4 PUSH2 0x173B JUMP JUMPDEST PUSH2 0x7E8 JUMP JUMPDEST PUSH2 0x29D PUSH1 0xE SLOAD DUP2 JUMP JUMPDEST PUSH2 0x246 PUSH2 0x334 CALLDATASIZE PUSH1 0x4 PUSH2 0x15F1 JUMP JUMPDEST PUSH2 0x80B JUMP JUMPDEST PUSH2 0x29D PUSH2 0x347 CALLDATASIZE PUSH1 0x4 PUSH2 0x1646 JUMP JUMPDEST PUSH2 0x815 JUMP JUMPDEST PUSH2 0x271 PUSH2 0x85A JUMP JUMPDEST PUSH1 0x6 SLOAD PUSH1 0x1 PUSH1 0x1 PUSH1 0xA0 SHL SUB AND PUSH2 0x246 JUMP JUMPDEST PUSH2 0x226 PUSH2 0x86D JUMP JUMPDEST PUSH2 0x271 PUSH2 0x37B CALLDATASIZE PUSH1 0x4 PUSH2 0x1646 JUMP JUMPDEST PUSH2 0x87C JUMP JUMPDEST PUSH2 0x271 PUSH2 0x38E CALLDATASIZE PUSH1 0x4 PUSH2 0x1799 JUMP JUMPDEST PUSH2 0x8A7 JUMP JUMPDEST PUSH2 0x271 PUSH2 0x3A1 CALLDATASIZE PUSH1 0x4 PUSH2 0x1646 JUMP JUMPDEST PUSH2 0x8B2 JUMP JUMPDEST PUSH2 0x271 PUSH2 0x3B4 CALLDATASIZE PUSH1 0x4 PUSH2 0x17D4 JUMP JUMPDEST PUSH2 0x8E6 JUMP JUMPDEST PUSH2 0x3CC PUSH2 0x3C7 CALLDATASIZE PUSH1 0x4 PUSH2 0x15F1 JUMP JUMPDEST PUSH2 0x9C6 JUMP JUMPDEST PUSH1 0x40 MLOAD PUSH2 0x215 SWAP3 SWAP2 SWAP1 PUSH2 0x184F JUMP JUMPDEST PUSH2 0x226 PUSH2 0x3E8 CALLDATASIZE PUSH1 0x4 PUSH2 0x15F1 JUMP JUMPDEST PUSH2 0xA60 JUMP JUMPDEST PUSH2 0x271 PUSH2 0x3FB CALLDATASIZE PUSH1 0x4 PUSH2 0x186A JUMP JUMPDEST PUSH2 0xB81 JUMP JUMPDEST PUSH1 0xA SLOAD PUSH2 0x246 SWAP1 PUSH1 0x1 PUSH1 0x1 PUSH1 0xA0 SHL SUB AND DUP2 JUMP JUMPDEST PUSH2 0x29D PUSH2 0x421 CALLDATASIZE PUSH1 0x4 PUSH2 0x15F1 JUMP JUMPDEST PUSH1 0x8 PUSH1 0x20 MSTORE PUSH0 SWAP1 DUP2 MSTORE PUSH1 0x40 SWAP1 KECCAK256 SLOAD DUP2 JUMP JUMPDEST PUSH2 0x271 PUSH2 0x440 CALLDATASIZE PUSH1 0x4 PUSH2 0x1646 JUMP JUMPDEST PUSH2 0xCAF JUMP JUMPDEST PUSH2 0x209 PUSH2 0x453 CALLDATASIZE PUSH1 0x4 PUSH2 0x18AF JUMP JUMPDEST PUSH2 0xCDA JUMP JUMPDEST PUSH2 0x271 PUSH2 0x466 CALLDATASIZE PUSH1 0x4 PUSH2 0x18DB JUMP JUMPDEST PUSH2 0xD07 JUMP JUMPDEST PUSH2 0x271 PUSH2 0x479 CALLDATASIZE PUSH1 0x4 PUSH2 0x1646 JUMP JUMPDEST PUSH2 0xDEA JUMP JUMPDEST PUSH2 0x209 PUSH2 0x48C CALLDATASIZE PUSH1 0x4 PUSH2 0x1646 JUMP JUMPDEST PUSH1 0xB PUSH1 0x20 MSTORE PUSH0 SWAP1 DUP2 MSTORE PUSH1 0x40 SWAP1 KECCAK256 SLOAD PUSH1 0xFF AND DUP2 JUMP JUMPDEST PUSH2 0x29D PUSH2 0x4AE CALLDATASIZE PUSH1 0x4 PUSH2 0x15F1 JUMP JUMPDEST PUSH1 0xD PUSH1 0x20 MSTORE PUSH0 SWAP1 DUP2 MSTORE PUSH1 0x40 SWAP1 KECCAK256 SLOAD DUP2 JUMP JUMPDEST PUSH0 PUSH1 0x1 PUSH1 0x1 PUSH1 0xE0 SHL SUB NOT DUP3 AND PUSH4 0x80AC58CD PUSH1 0xE0 SHL EQ DUP1 PUSH2 0x4EF JUMPI POP PUSH1 0x1 PUSH1 0x1 PUSH1 0xE0 SHL SUB NOT DUP3 AND PUSH4 0x5B5E139F PUSH1 0xE0 SHL EQ JUMPDEST DUP1 PUSH2 0x50A JUMPI POP PUSH4 0x1FFC9A7 PUSH1 0xE0 SHL PUSH1 0x1 PUSH1 0x1 PUSH1 0xE0 SHL SUB NOT DUP4 AND EQ JUMPDEST SWAP3 SWAP2 POP POP JUMP JUMPDEST PUSH1 0x60 PUSH0 DUP1 SLOAD PUSH2 0x51E SWAP1 PUSH2 0x1904 JUMP JUMPDEST DUP1 PUSH1 0x1F ADD PUSH1 0x20 DUP1 SWAP2 DIV MUL PUSH1 0x20 ADD PUSH1 0x40 MLOAD SWAP1 DUP2 ADD PUSH1 0x40 MSTORE DUP1 SWAP3 SWAP2 SWAP1 DUP2 DUP2 MSTORE PUSH1 0x20 ADD DUP3 DUP1 SLOAD PUSH2 0x54A SWAP1 PUSH2 0x1904 JUMP JUMPDEST DUP1 ISZERO PUSH2 0x595 JUMPI DUP1 PUSH1 0x1F LT PUSH2 0x56C JUMPI PUSH2 0x100 DUP1 DUP4 SLOAD DIV MUL DUP4 MSTORE SWAP2 PUSH1 0x20 ADD SWAP2 PUSH2 0x595 JUMP JUMPDEST DUP3 ADD SWAP2 SWAP1 PUSH0 MSTORE PUSH1 0x20 PUSH0 KECCAK256 SWAP1 JUMPDEST DUP2 SLOAD DUP2 MSTORE SWAP1 PUSH1 0x1 ADD SWAP1 PUSH1 0x20 ADD DUP1 DUP4 GT PUSH2 0x578 JUMPI DUP3 SWAP1 SUB PUSH1 0x1F AND DUP3 ADD SWAP2 JUMPDEST POP POP POP POP POP SWAP1 POP SWAP1 JUMP JUMPDEST PUSH0 PUSH2 0x5A9 DUP3 PUSH2 0xE27 JUMP JUMPDEST POP PUSH0 DUP3 DUP2 MSTORE PUSH1 0x4 PUSH1 0x20 MSTORE PUSH1 0x40 SWAP1 KECCAK256 SLOAD PUSH1 0x1 PUSH1 0x1 PUSH1 0xA0 SHL SUB AND PUSH2 0x50A JUMP JUMPDEST PUSH2 0x5D1 DUP3 DUP3 CALLER PUSH2 0xE5F JUMP JUMPDEST POP POP JUMP JUMPDEST PUSH0 PUSH2 0x5DF PUSH1 0xF SLOAD SWAP1 JUMP JUMPDEST SWAP1 POP SWAP1 JUMP JUMPDEST PUSH1 0xA SLOAD PUSH1 0x1 PUSH1 0x1 PUSH1 0xA0 SHL SUB DUP5 DUP2 AND SWAP2 AND EQ DUP1 PUSH2 0x60D JUMPI POP PUSH1 0xA SLOAD PUSH1 0x1 PUSH1 0x1 PUSH1 0xA0 SHL SUB DUP4 DUP2 AND SWAP2 AND EQ JUMPDEST PUSH2 0x632 JUMPI PUSH1 0x40 MLOAD PUSH3 0x461BCD PUSH1 0xE5 SHL DUP2 MSTORE PUSH1 0x4 ADD PUSH2 0x629 SWAP1 PUSH2 0x193C JUMP JUMPDEST PUSH1 0x40 MLOAD DUP1 SWAP2 SUB SWAP1 REVERT JUMPDEST PUSH0 DUP2 DUP2 MSTORE PUSH1 0xD PUSH1 0x20 MSTORE PUSH1 0x40 SWAP1 KECCAK256 SLOAD TIMESTAMP LT ISZERO PUSH2 0x68F JUMPI PUSH1 0x40 MLOAD PUSH3 0x461BCD PUSH1 0xE5 SHL DUP2 MSTORE PUSH1 0x20 PUSH1 0x4 DUP3 ADD MSTORE PUSH1 0x1F PUSH1 0x24 DUP3 ADD MSTORE PUSH32 0x546F6B656E206973206E6F6E2D7472616461626C652063757272656E746C7900 PUSH1 0x44 DUP3 ADD MSTORE PUSH1 0x64 ADD PUSH2 0x629 JUMP JUMPDEST PUSH1 0x9 SLOAD PUSH1 0x40 MLOAD PUSH4 0x83D13A5 PUSH1 0xE1 SHL DUP2 MSTORE PUSH1 0x4 DUP2 ADD DUP4 SWAP1 MSTORE PUSH0 SWAP2 PUSH1 0x1 PUSH1 0x1 PUSH1 0xA0 SHL SUB AND SWAP1 PUSH4 0x107A274A SWAP1 PUSH1 0x24 ADD PUSH1 0x60 PUSH1 0x40 MLOAD DUP1 DUP4 SUB DUP2 DUP7 GAS STATICCALL ISZERO DUP1 ISZERO PUSH2 0x6D6 JUMPI RETURNDATASIZE PUSH0 DUP1 RETURNDATACOPY RETURNDATASIZE PUSH0 REVERT JUMPDEST POP POP POP POP PUSH1 0x40 MLOAD RETURNDATASIZE PUSH1 0x1F NOT PUSH1 0x1F DUP3 ADD AND DUP3 ADD DUP1 PUSH1 0x40 MSTORE POP DUP2 ADD SWAP1 PUSH2 0x6FA SWAP2 SWAP1 PUSH2 0x1980 JUMP JUMPDEST SWAP1 POP DUP1 PUSH1 0x20 ADD MLOAD PUSH1 0x1 PUSH1 0x1 PUSH1 0xA0 SHL SUB AND DUP4 PUSH1 0x1 PUSH1 0x1 PUSH1 0xA0 SHL SUB AND SUB PUSH2 0x729 JUMPI PUSH2 0x724 DUP5 DUP5 DUP5 PUSH2 0xE6C JUMP JUMPDEST PUSH2 0x766 JUMP JUMPDEST PUSH1 0xA SLOAD PUSH1 0x1 PUSH1 0x1 PUSH1 0xA0 SHL SUB SWAP1 DUP2 AND SWAP1 DUP6 AND SUB PUSH2 0x75B JUMPI PUSH1 0xE SLOAD PUSH2 0x74C SWAP1 TIMESTAMP PUSH2 0x19F4 JUMP JUMPDEST PUSH0 DUP4 DUP2 MSTORE PUSH1 0xD PUSH1 0x20 MSTORE PUSH1 0x40 SWAP1 KECCAK256 SSTORE JUMPDEST PUSH2 0x766 DUP5 DUP5 DUP5 PUSH2 0xF19 JUMP JUMPDEST POP POP POP POP JUMP JUMPDEST PUSH2 0x774 PUSH2 0xF9C JUMP JUMPDEST PUSH1 0x1 PUSH1 0x1 PUSH1 0xA0 SHL SUB AND PUSH0 SWAP1 DUP2 MSTORE PUSH1 0xC PUSH1 0x20 MSTORE PUSH1 0x40 SWAP1 KECCAK256 DUP1 SLOAD PUSH1 0xFF NOT AND SWAP1 SSTORE JUMP JUMPDEST PUSH2 0x79C PUSH2 0xF9C JUMP JUMPDEST PUSH1 0x1 PUSH1 0x1 PUSH1 0xA0 SHL SUB AND PUSH0 SWAP1 DUP2 MSTORE PUSH1 0xB PUSH1 0x20 MSTORE PUSH1 0x40 SWAP1 KECCAK256 DUP1 SLOAD PUSH1 0xFF NOT AND SWAP1 SSTORE JUMP JUMPDEST PUSH2 0x7C4 PUSH2 0xF9C JUMP JUMPDEST PUSH1 0xE SSTORE JUMP JUMPDEST PUSH2 0x7E3 DUP4 DUP4 DUP4 PUSH1 0x40 MLOAD DUP1 PUSH1 0x20 ADD PUSH1 0x40 MSTORE DUP1 PUSH0 DUP2 MSTORE POP PUSH2 0x8E6 JUMP JUMPDEST POP POP POP JUMP JUMPDEST PUSH2 0x7F0 PUSH2 0xF9C JUMP JUMPDEST PUSH1 0xFF DUP3 AND PUSH0 SWAP1 DUP2 MSTORE PUSH1 0x11 PUSH1 0x20 MSTORE PUSH1 0x40 SWAP1 KECCAK256 PUSH2 0x7E3 DUP3 DUP3 PUSH2 0x1A54 JUMP JUMPDEST PUSH0 PUSH2 0x50A DUP3 PUSH2 0xE27 JUMP JUMPDEST PUSH0 PUSH1 0x1 PUSH1 0x1 PUSH1 0xA0 SHL SUB DUP3 AND PUSH2 0x83F JUMPI PUSH1 0x40 MLOAD PUSH4 0x22718AD9 PUSH1 0xE2 SHL DUP2 MSTORE PUSH0 PUSH1 0x4 DUP3 ADD MSTORE PUSH1 0x24 ADD PUSH2 0x629 JUMP JUMPDEST POP PUSH1 0x1 PUSH1 0x1 PUSH1 0xA0 SHL SUB AND PUSH0 SWAP1 DUP2 MSTORE PUSH1 0x3 PUSH1 0x20 MSTORE PUSH1 0x40 SWAP1 KECCAK256 SLOAD SWAP1 JUMP JUMPDEST PUSH2 0x862 PUSH2 0xF9C JUMP JUMPDEST PUSH2 0x86B PUSH0 PUSH2 0xFC9 JUMP JUMPDEST JUMP JUMPDEST PUSH1 0x60 PUSH1 0x1 DUP1 SLOAD PUSH2 0x51E SWAP1 PUSH2 0x1904 JUMP JUMPDEST PUSH2 0x884 PUSH2 0xF9C JUMP JUMPDEST PUSH1 0x1 PUSH1 0x1 PUSH1 0xA0 SHL SUB AND PUSH0 SWAP1 DUP2 MSTORE PUSH1 0xB PUSH1 0x20 MSTORE PUSH1 0x40 SWAP1 KECCAK256 DUP1 SLOAD PUSH1 0xFF NOT AND PUSH1 0x1 OR SWAP1 SSTORE JUMP JUMPDEST PUSH2 0x5D1 CALLER DUP4 DUP4 PUSH2 0x101A JUMP JUMPDEST PUSH2 0x8BA PUSH2 0xF9C JUMP JUMPDEST PUSH1 0xA DUP1 SLOAD PUSH1 0x1 PUSH1 0x1 PUSH1 0xA0 SHL SUB SWAP1 SWAP3 AND PUSH1 0x1 PUSH1 0x1 PUSH1 0xA0 SHL SUB NOT SWAP3 DUP4 AND DUP2 OR SWAP1 SWAP2 SSTORE PUSH1 0x9 DUP1 SLOAD SWAP1 SWAP3 AND OR SWAP1 SSTORE JUMP JUMPDEST PUSH1 0xA SLOAD PUSH1 0x1 PUSH1 0x1 PUSH1 0xA0 SHL SUB DUP6 DUP2 AND SWAP2 AND EQ DUP1 PUSH2 0x90F JUMPI POP PUSH1 0xA SLOAD PUSH1 0x1 PUSH1 0x1 PUSH1 0xA0 SHL SUB DUP5 DUP2 AND SWAP2 AND EQ JUMPDEST PUSH2 0x92B JUMPI PUSH1 0x40 MLOAD PUSH3 0x461BCD PUSH1 0xE5 SHL DUP2 MSTORE PUSH1 0x4 ADD PUSH2 0x629 SWAP1 PUSH2 0x193C JUMP JUMPDEST PUSH0 DUP3 DUP2 MSTORE PUSH1 0xD PUSH1 0x20 MSTORE PUSH1 0x40 SWAP1 KECCAK256 SLOAD TIMESTAMP LT ISZERO PUSH2 0x988 JUMPI PUSH1 0x40 MLOAD PUSH3 0x461BCD PUSH1 0xE5 SHL DUP2 MSTORE PUSH1 0x20 PUSH1 0x4 DUP3 ADD MSTORE PUSH1 0x1F PUSH1 0x24 DUP3 ADD MSTORE PUSH32 0x546F6B656E206973206E6F6E2D7472616461626C652063757272656E746C7900 PUSH1 0x44 DUP3 ADD MSTORE PUSH1 0x64 ADD PUSH2 0x629 JUMP JUMPDEST PUSH1 0xA SLOAD PUSH1 0x1 PUSH1 0x1 PUSH1 0xA0 SHL SUB SWAP1 DUP2 AND SWAP1 DUP6 AND SUB PUSH2 0x9BA JUMPI PUSH1 0xE SLOAD PUSH2 0x9AB SWAP1 TIMESTAMP PUSH2 0x19F4 JUMP JUMPDEST PUSH0 DUP4 DUP2 MSTORE PUSH1 0xD PUSH1 0x20 MSTORE PUSH1 0x40 SWAP1 KECCAK256 SSTORE JUMPDEST PUSH2 0x766 DUP5 DUP5 DUP5 DUP5 PUSH2 0x10B8 JUMP JUMPDEST PUSH0 PUSH1 0x60 DUP2 PUSH2 0x9D3 DUP5 PUSH2 0x80B JUMP JUMPDEST PUSH1 0x1 PUSH1 0x1 PUSH1 0xA0 SHL SUB AND SUB PUSH2 0xA3D JUMPI PUSH1 0x40 MLOAD PUSH3 0x461BCD PUSH1 0xE5 SHL DUP2 MSTORE PUSH1 0x20 PUSH1 0x4 DUP3 ADD MSTORE PUSH1 0x2B PUSH1 0x24 DUP3 ADD MSTORE PUSH32 0x4552433732314D657461646174613A20517565727920666F72206E6F6E657869 PUSH1 0x44 DUP3 ADD MSTORE PUSH11 0x39BA32B73A103A37B5B2B7 PUSH1 0xA9 SHL PUSH1 0x64 DUP3 ADD MSTORE PUSH1 0x84 ADD PUSH2 0x629 JUMP JUMPDEST PUSH0 DUP4 DUP2 MSTORE PUSH1 0x10 PUSH1 0x20 MSTORE PUSH1 0x40 SWAP1 KECCAK256 SLOAD PUSH1 0xFF AND SWAP2 POP PUSH2 0xA59 DUP4 PUSH2 0xA60 JUMP JUMPDEST SWAP1 POP SWAP2 POP SWAP2 JUMP JUMPDEST PUSH1 0x60 PUSH0 PUSH2 0xA6C DUP4 PUSH2 0x80B JUMP JUMPDEST PUSH1 0x1 PUSH1 0x1 PUSH1 0xA0 SHL SUB AND SUB PUSH2 0xA92 JUMPI PUSH1 0x40 MLOAD PUSH3 0x461BCD PUSH1 0xE5 SHL DUP2 MSTORE PUSH1 0x4 ADD PUSH2 0x629 SWAP1 PUSH2 0x1B10 JUMP JUMPDEST PUSH0 DUP3 DUP2 MSTORE PUSH1 0x10 PUSH1 0x20 SWAP1 DUP2 MSTORE PUSH1 0x40 DUP1 DUP4 KECCAK256 SLOAD PUSH1 0xFF AND DUP1 DUP5 MSTORE PUSH1 0x11 SWAP1 SWAP3 MSTORE DUP3 KECCAK256 DUP1 SLOAD SWAP2 SWAP3 SWAP2 PUSH2 0xABE SWAP1 PUSH2 0x1904 JUMP JUMPDEST DUP1 PUSH1 0x1F ADD PUSH1 0x20 DUP1 SWAP2 DIV MUL PUSH1 0x20 ADD PUSH1 0x40 MLOAD SWAP1 DUP2 ADD PUSH1 0x40 MSTORE DUP1 SWAP3 SWAP2 SWAP1 DUP2 DUP2 MSTORE PUSH1 0x20 ADD DUP3 DUP1 SLOAD PUSH2 0xAEA SWAP1 PUSH2 0x1904 JUMP JUMPDEST DUP1 ISZERO PUSH2 0xB35 JUMPI DUP1 PUSH1 0x1F LT PUSH2 0xB0C JUMPI PUSH2 0x100 DUP1 DUP4 SLOAD DIV MUL DUP4 MSTORE SWAP2 PUSH1 0x20 ADD SWAP2 PUSH2 0xB35 JUMP JUMPDEST DUP3 ADD SWAP2 SWAP1 PUSH0 MSTORE PUSH1 0x20 PUSH0 KECCAK256 SWAP1 JUMPDEST DUP2 SLOAD DUP2 MSTORE SWAP1 PUSH1 0x1 ADD SWAP1 PUSH1 0x20 ADD DUP1 DUP4 GT PUSH2 0xB18 JUMPI DUP3 SWAP1 SUB PUSH1 0x1F AND DUP3 ADD SWAP2 JUMPDEST POP POP POP POP POP SWAP1 POP PUSH0 DUP2 MLOAD GT PUSH2 0xB58 JUMPI PUSH1 0x40 MLOAD DUP1 PUSH1 0x20 ADD PUSH1 0x40 MSTORE DUP1 PUSH0 DUP2 MSTORE POP PUSH2 0xB79 JUMP JUMPDEST DUP1 PUSH1 0x40 MLOAD PUSH1 0x20 ADD PUSH2 0xB69 SWAP2 SWAP1 PUSH2 0x1B5F JUMP JUMPDEST PUSH1 0x40 MLOAD PUSH1 0x20 DUP2 DUP4 SUB SUB DUP2 MSTORE SWAP1 PUSH1 0x40 MSTORE JUMPDEST SWAP5 SWAP4 POP POP POP POP JUMP JUMPDEST CALLER PUSH0 SWAP1 DUP2 MSTORE PUSH1 0xB PUSH1 0x20 MSTORE PUSH1 0x40 SWAP1 KECCAK256 SLOAD PUSH1 0xFF AND PUSH2 0xBDF JUMPI PUSH1 0x40 MLOAD PUSH3 0x461BCD PUSH1 0xE5 SHL DUP2 MSTORE PUSH1 0x20 PUSH1 0x4 DUP3 ADD DUP2 SWAP1 MSTORE PUSH1 0x24 DUP3 ADD MSTORE PUSH32 0x43616C6C6572206973206E6F7420617574686F72697A656420746F206D696E74 PUSH1 0x44 DUP3 ADD MSTORE PUSH1 0x64 ADD PUSH2 0x629 JUMP JUMPDEST PUSH0 JUMPDEST DUP3 DUP2 LT ISZERO PUSH2 0xCA8 JUMPI PUSH1 0x7 DUP1 SLOAD SWAP1 PUSH0 PUSH2 0xBF8 DUP4 PUSH2 0x1B87 JUMP JUMPDEST SWAP1 SWAP2 SSTORE POP POP PUSH1 0x7 SLOAD PUSH0 DUP2 DUP2 MSTORE PUSH1 0x8 PUSH1 0x20 MSTORE PUSH1 0x40 SWAP1 KECCAK256 DUP6 SWAP1 SSTORE PUSH2 0xC1A DUP7 DUP3 PUSH2 0x10CF JUMP JUMPDEST PUSH2 0xC28 PUSH1 0xF DUP1 SLOAD PUSH1 0x1 ADD SWAP1 SSTORE JUMP JUMPDEST PUSH0 DUP2 DUP2 MSTORE PUSH1 0xD PUSH1 0x20 MSTORE PUSH1 0x40 SWAP1 KECCAK256 TIMESTAMP SWAP1 SSTORE PUSH2 0xC42 DUP2 DUP5 PUSH2 0x1130 JUMP JUMPDEST PUSH1 0x40 DUP1 MLOAD PUSH1 0x1 PUSH1 0x1 PUSH1 0xA0 SHL SUB DUP9 AND DUP2 MSTORE PUSH1 0x20 DUP2 ADD DUP4 SWAP1 MSTORE SWAP1 DUP2 ADD DUP7 SWAP1 MSTORE PUSH1 0xFF DUP5 AND PUSH1 0x60 DUP3 ADD MSTORE PUSH32 0xC0D0DF51781B7FCB489C14B521FF659C33F0FFDCC1E2F0283C7328234D07713B SWAP1 PUSH1 0x80 ADD PUSH1 0x40 MLOAD DUP1 SWAP2 SUB SWAP1 LOG1 POP DUP1 PUSH2 0xCA0 DUP2 PUSH2 0x1B87 JUMP JUMPDEST SWAP2 POP POP PUSH2 0xBE1 JUMP JUMPDEST POP POP POP POP POP JUMP JUMPDEST PUSH2 0xCB7 PUSH2 0xF9C JUMP JUMPDEST PUSH1 0x1 PUSH1 0x1 PUSH1 0xA0 SHL SUB AND PUSH0 SWAP1 DUP2 MSTORE PUSH1 0xC PUSH1 0x20 MSTORE PUSH1 0x40 SWAP1 KECCAK256 DUP1 SLOAD PUSH1 0xFF NOT AND PUSH1 0x1 OR SWAP1 SSTORE JUMP JUMPDEST PUSH1 0x1 PUSH1 0x1 PUSH1 0xA0 SHL SUB SWAP2 DUP3 AND PUSH0 SWAP1 DUP2 MSTORE PUSH1 0x5 PUSH1 0x20 SWAP1 DUP2 MSTORE PUSH1 0x40 DUP1 DUP4 KECCAK256 SWAP4 SWAP1 SWAP5 AND DUP3 MSTORE SWAP2 SWAP1 SWAP2 MSTORE KECCAK256 SLOAD PUSH1 0xFF AND SWAP1 JUMP JUMPDEST CALLER PUSH0 SWAP1 DUP2 MSTORE PUSH1 0xC PUSH1 0x20 MSTORE PUSH1 0x40 SWAP1 KECCAK256 SLOAD PUSH1 0xFF AND PUSH2 0xD76 JUMPI PUSH1 0x40 MLOAD PUSH3 0x461BCD PUSH1 0xE5 SHL DUP2 MSTORE PUSH1 0x20 PUSH1 0x4 DUP3 ADD MSTORE PUSH1 0x28 PUSH1 0x24 DUP3 ADD MSTORE PUSH32 0x43616C6C6572206973206E6F7420617574686F72697A656420746F2075706461 PUSH1 0x44 DUP3 ADD MSTORE PUSH8 0x7465207072696365 PUSH1 0xC0 SHL PUSH1 0x64 DUP3 ADD MSTORE PUSH1 0x84 ADD PUSH2 0x629 JUMP JUMPDEST PUSH0 PUSH1 0x64 PUSH2 0xD83 DUP4 DUP6 PUSH2 0x1B9F JUMP JUMPDEST PUSH2 0xD8D SWAP2 SWAP1 PUSH2 0x1BB6 JUMP JUMPDEST PUSH2 0xD97 SWAP1 DUP5 PUSH2 0x19F4 JUMP JUMPDEST PUSH0 DUP6 DUP2 MSTORE PUSH1 0x8 PUSH1 0x20 SWAP1 DUP2 MSTORE PUSH1 0x40 SWAP2 DUP3 SWAP1 KECCAK256 DUP4 SWAP1 SSTORE DUP2 MLOAD DUP8 DUP2 MSTORE SWAP1 DUP2 ADD DUP4 SWAP1 MSTORE SWAP2 SWAP3 POP PUSH32 0xD9CC159FA79112D02593601DB522A6696E6C5C82D9E9CA9332F89EC824935BB0 SWAP2 ADD PUSH1 0x40 MLOAD DUP1 SWAP2 SUB SWAP1 LOG1 POP POP POP POP JUMP JUMPDEST PUSH2 0xDF2 PUSH2 0xF9C JUMP JUMPDEST PUSH1 0x1 PUSH1 0x1 PUSH1 0xA0 SHL SUB DUP2 AND PUSH2 0xE1B JUMPI PUSH1 0x40 MLOAD PUSH4 0x1E4FBDF7 PUSH1 0xE0 SHL DUP2 MSTORE PUSH0 PUSH1 0x4 DUP3 ADD MSTORE PUSH1 0x24 ADD PUSH2 0x629 JUMP JUMPDEST PUSH2 0xE24 DUP2 PUSH2 0xFC9 JUMP JUMPDEST POP JUMP JUMPDEST PUSH0 DUP2 DUP2 MSTORE PUSH1 0x2 PUSH1 0x20 MSTORE PUSH1 0x40 DUP2 KECCAK256 SLOAD PUSH1 0x1 PUSH1 0x1 PUSH1 0xA0 SHL SUB AND DUP1 PUSH2 0x50A JUMPI PUSH1 0x40 MLOAD PUSH4 0x7E273289 PUSH1 0xE0 SHL DUP2 MSTORE PUSH1 0x4 DUP2 ADD DUP5 SWAP1 MSTORE PUSH1 0x24 ADD PUSH2 0x629 JUMP JUMPDEST PUSH2 0x7E3 DUP4 DUP4 DUP4 PUSH1 0x1 PUSH2 0x1181 JUMP JUMPDEST PUSH1 0x1 PUSH1 0x1 PUSH1 0xA0 SHL SUB DUP3 AND PUSH2 0xE95 JUMPI PUSH1 0x40 MLOAD PUSH4 0x32505749 PUSH1 0xE1 SHL DUP2 MSTORE PUSH0 PUSH1 0x4 DUP3 ADD MSTORE PUSH1 0x24 ADD PUSH2 0x629 JUMP JUMPDEST PUSH0 PUSH2 0xEA1 DUP4 DUP4 PUSH0 PUSH2 0x1285 JUMP JUMPDEST SWAP1 POP PUSH1 0x1 PUSH1 0x1 PUSH1 0xA0 SHL SUB DUP2 AND PUSH2 0xECD JUMPI PUSH1 0x40 MLOAD PUSH4 0x7E273289 PUSH1 0xE0 SHL DUP2 MSTORE PUSH1 0x4 DUP2 ADD DUP4 SWAP1 MSTORE PUSH1 0x24 ADD PUSH2 0x629 JUMP JUMPDEST DUP4 PUSH1 0x1 PUSH1 0x1 PUSH1 0xA0 SHL SUB AND DUP2 PUSH1 0x1 PUSH1 0x1 PUSH1 0xA0 SHL SUB AND EQ PUSH2 0x766 JUMPI PUSH1 0x40 MLOAD PUSH4 0x64283D7B PUSH1 0xE0 SHL DUP2 MSTORE PUSH1 0x1 PUSH1 0x1 PUSH1 0xA0 SHL SUB DUP1 DUP7 AND PUSH1 0x4 DUP4 ADD MSTORE PUSH1 0x24 DUP3 ADD DUP5 SWAP1 MSTORE DUP3 AND PUSH1 0x44 DUP3 ADD MSTORE PUSH1 0x64 ADD PUSH2 0x629 JUMP JUMPDEST PUSH1 0x1 PUSH1 0x1 PUSH1 0xA0 SHL SUB DUP3 AND PUSH2 0xF42 JUMPI PUSH1 0x40 MLOAD PUSH4 0x32505749 PUSH1 0xE1 SHL DUP2 MSTORE PUSH0 PUSH1 0x4 DUP3 ADD MSTORE PUSH1 0x24 ADD PUSH2 0x629 JUMP JUMPDEST PUSH0 PUSH2 0xF4E DUP4 DUP4 CALLER PUSH2 0x1285 JUMP JUMPDEST SWAP1 POP DUP4 PUSH1 0x1 PUSH1 0x1 PUSH1 0xA0 SHL SUB AND DUP2 PUSH1 0x1 PUSH1 0x1 PUSH1 0xA0 SHL SUB AND EQ PUSH2 0x766 JUMPI PUSH1 0x40 MLOAD PUSH4 0x64283D7B PUSH1 0xE0 SHL DUP2 MSTORE PUSH1 0x1 PUSH1 0x1 PUSH1 0xA0 SHL SUB DUP1 DUP7 AND PUSH1 0x4 DUP4 ADD MSTORE PUSH1 0x24 DUP3 ADD DUP5 SWAP1 MSTORE DUP3 AND PUSH1 0x44 DUP3 ADD MSTORE PUSH1 0x64 ADD PUSH2 0x629 JUMP JUMPDEST PUSH1 0x6 SLOAD PUSH1 0x1 PUSH1 0x1 PUSH1 0xA0 SHL SUB AND CALLER EQ PUSH2 0x86B JUMPI PUSH1 0x40 MLOAD PUSH4 0x118CDAA7 PUSH1 0xE0 SHL DUP2 MSTORE CALLER PUSH1 0x4 DUP3 ADD MSTORE PUSH1 0x24 ADD PUSH2 0x629 JUMP JUMPDEST PUSH1 0x6 DUP1 SLOAD PUSH1 0x1 PUSH1 0x1 PUSH1 0xA0 SHL SUB DUP4 DUP2 AND PUSH1 0x1 PUSH1 0x1 PUSH1 0xA0 SHL SUB NOT DUP4 AND DUP2 OR SWAP1 SWAP4 SSTORE PUSH1 0x40 MLOAD SWAP2 AND SWAP2 SWAP1 DUP3 SWAP1 PUSH32 0x8BE0079C531659141344CD1FD0A4F28419497F9722A3DAAFE3B4186F6B6457E0 SWAP1 PUSH0 SWAP1 LOG3 POP POP JUMP JUMPDEST PUSH1 0x1 PUSH1 0x1 PUSH1 0xA0 SHL SUB DUP3 AND PUSH2 0x104C JUMPI PUSH1 0x40 MLOAD PUSH4 0xB611743 PUSH1 0xE3 SHL DUP2 MSTORE PUSH1 0x1 PUSH1 0x1 PUSH1 0xA0 SHL SUB DUP4 AND PUSH1 0x4 DUP3 ADD MSTORE PUSH1 0x24 ADD PUSH2 0x629 JUMP JUMPDEST PUSH1 0x1 PUSH1 0x1 PUSH1 0xA0 SHL SUB DUP4 DUP2 AND PUSH0 DUP2 DUP2 MSTORE PUSH1 0x5 PUSH1 0x20 SWAP1 DUP2 MSTORE PUSH1 0x40 DUP1 DUP4 KECCAK256 SWAP5 DUP8 AND DUP1 DUP5 MSTORE SWAP5 DUP3 MSTORE SWAP2 DUP3 SWAP1 KECCAK256 DUP1 SLOAD PUSH1 0xFF NOT AND DUP7 ISZERO ISZERO SWAP1 DUP2 OR SWAP1 SWAP2 SSTORE SWAP2 MLOAD SWAP2 DUP3 MSTORE PUSH32 0x17307EAB39AB6107E8899845AD3D59BD9653F200F220920489CA2B5937696C31 SWAP2 ADD PUSH1 0x40 MLOAD DUP1 SWAP2 SUB SWAP1 LOG3 POP POP POP JUMP JUMPDEST PUSH2 0x10C3 DUP5 DUP5 DUP5 PUSH2 0x5E4 JUMP JUMPDEST PUSH2 0x766 DUP5 DUP5 DUP5 DUP5 PUSH2 0x1377 JUMP JUMPDEST PUSH1 0x1 PUSH1 0x1 PUSH1 0xA0 SHL SUB DUP3 AND PUSH2 0x10F8 JUMPI PUSH1 0x40 MLOAD PUSH4 0x32505749 PUSH1 0xE1 SHL DUP2 MSTORE PUSH0 PUSH1 0x4 DUP3 ADD MSTORE PUSH1 0x24 ADD PUSH2 0x629 JUMP JUMPDEST PUSH0 PUSH2 0x1104 DUP4 DUP4 PUSH0 PUSH2 0x1285 JUMP JUMPDEST SWAP1 POP PUSH1 0x1 PUSH1 0x1 PUSH1 0xA0 SHL SUB DUP2 AND ISZERO PUSH2 0x7E3 JUMPI PUSH1 0x40 MLOAD PUSH4 0x39E35637 PUSH1 0xE1 SHL DUP2 MSTORE PUSH0 PUSH1 0x4 DUP3 ADD MSTORE PUSH1 0x24 ADD PUSH2 0x629 JUMP JUMPDEST PUSH0 PUSH2 0x113A DUP4 PUSH2 0x80B JUMP JUMPDEST PUSH1 0x1 PUSH1 0x1 PUSH1 0xA0 SHL SUB AND SUB PUSH2 0x1160 JUMPI PUSH1 0x40 MLOAD PUSH3 0x461BCD PUSH1 0xE5 SHL DUP2 MSTORE PUSH1 0x4 ADD PUSH2 0x629 SWAP1 PUSH2 0x1B10 JUMP JUMPDEST PUSH0 SWAP2 DUP3 MSTORE PUSH1 0x10 PUSH1 0x20 MSTORE PUSH1 0x40 SWAP1 SWAP2 KECCAK256 DUP1 SLOAD PUSH1 0xFF NOT AND PUSH1 0xFF SWAP1 SWAP3 AND SWAP2 SWAP1 SWAP2 OR SWAP1 SSTORE JUMP JUMPDEST DUP1 DUP1 PUSH2 0x1195 JUMPI POP PUSH1 0x1 PUSH1 0x1 PUSH1 0xA0 SHL SUB DUP3 AND ISZERO ISZERO JUMPDEST ISZERO PUSH2 0x1256 JUMPI PUSH0 PUSH2 0x11A4 DUP5 PUSH2 0xE27 JUMP JUMPDEST SWAP1 POP PUSH1 0x1 PUSH1 0x1 PUSH1 0xA0 SHL SUB DUP4 AND ISZERO DUP1 ISZERO SWAP1 PUSH2 0x11D0 JUMPI POP DUP3 PUSH1 0x1 PUSH1 0x1 PUSH1 0xA0 SHL SUB AND DUP2 PUSH1 0x1 PUSH1 0x1 PUSH1 0xA0 SHL SUB AND EQ ISZERO JUMPDEST DUP1 ISZERO PUSH2 0x11E3 JUMPI POP PUSH2 0x11E1 DUP2 DUP5 PUSH2 0xCDA JUMP JUMPDEST ISZERO JUMPDEST ISZERO PUSH2 0x120C JUMPI PUSH1 0x40 MLOAD PUSH4 0xA9FBF51F PUSH1 0xE0 SHL DUP2 MSTORE PUSH1 0x1 PUSH1 0x1 PUSH1 0xA0 SHL SUB DUP5 AND PUSH1 0x4 DUP3 ADD MSTORE PUSH1 0x24 ADD PUSH2 0x629 JUMP JUMPDEST DUP2 ISZERO PUSH2 0x1254 JUMPI DUP4 DUP6 PUSH1 0x1 PUSH1 0x1 PUSH1 0xA0 SHL SUB AND DUP3 PUSH1 0x1 PUSH1 0x1 PUSH1 0xA0 SHL SUB AND PUSH32 0x8C5BE1E5EBEC7D5BD14F71427D1E84F3DD0314C0F7B2291E5B200AC8C7C3B925 PUSH1 0x40 MLOAD PUSH1 0x40 MLOAD DUP1 SWAP2 SUB SWAP1 LOG4 JUMPDEST POP JUMPDEST POP POP PUSH0 SWAP1 DUP2 MSTORE PUSH1 0x4 PUSH1 0x20 MSTORE PUSH1 0x40 SWAP1 KECCAK256 DUP1 SLOAD PUSH1 0x1 PUSH1 0x1 PUSH1 0xA0 SHL SUB NOT AND PUSH1 0x1 PUSH1 0x1 PUSH1 0xA0 SHL SUB SWAP3 SWAP1 SWAP3 AND SWAP2 SWAP1 SWAP2 OR SWAP1 SSTORE JUMP JUMPDEST PUSH0 DUP3 DUP2 MSTORE PUSH1 0x2 PUSH1 0x20 MSTORE PUSH1 0x40 DUP2 KECCAK256 SLOAD PUSH1 0x1 PUSH1 0x1 PUSH1 0xA0 SHL SUB SWAP1 DUP2 AND SWAP1 DUP4 AND ISZERO PUSH2 0x12B1 JUMPI PUSH2 0x12B1 DUP2 DUP5 DUP7 PUSH2 0x1496 JUMP JUMPDEST PUSH1 0x1 PUSH1 0x1 PUSH1 0xA0 SHL SUB DUP2 AND ISZERO PUSH2 0x12EB JUMPI PUSH2 0x12CC PUSH0 DUP6 PUSH0 DUP1 PUSH2 0x1181 JUMP JUMPDEST PUSH1 0x1 PUSH1 0x1 PUSH1 0xA0 SHL SUB DUP2 AND PUSH0 SWAP1 DUP2 MSTORE PUSH1 0x3 PUSH1 0x20 MSTORE PUSH1 0x40 SWAP1 KECCAK256 DUP1 SLOAD PUSH0 NOT ADD SWAP1 SSTORE JUMPDEST PUSH1 0x1 PUSH1 0x1 PUSH1 0xA0 SHL SUB DUP6 AND ISZERO PUSH2 0x1319 JUMPI PUSH1 0x1 PUSH1 0x1 PUSH1 0xA0 SHL SUB DUP6 AND PUSH0 SWAP1 DUP2 MSTORE PUSH1 0x3 PUSH1 0x20 MSTORE PUSH1 0x40 SWAP1 KECCAK256 DUP1 SLOAD PUSH1 0x1 ADD SWAP1 SSTORE JUMPDEST PUSH0 DUP5 DUP2 MSTORE PUSH1 0x2 PUSH1 0x20 MSTORE PUSH1 0x40 DUP1 DUP3 KECCAK256 DUP1 SLOAD PUSH1 0x1 PUSH1 0x1 PUSH1 0xA0 SHL SUB NOT AND PUSH1 0x1 PUSH1 0x1 PUSH1 0xA0 SHL SUB DUP10 DUP2 AND SWAP2 DUP3 OR SWAP1 SWAP3 SSTORE SWAP2 MLOAD DUP8 SWAP4 SWAP2 DUP6 AND SWAP2 PUSH32 0xDDF252AD1BE2C89B69C2B068FC378DAA952BA7F163C4A11628F55A4DF523B3EF SWAP2 LOG4 SWAP5 SWAP4 POP POP POP POP JUMP JUMPDEST PUSH1 0x1 PUSH1 0x1 PUSH1 0xA0 SHL SUB DUP4 AND EXTCODESIZE ISZERO PUSH2 0x766 JUMPI PUSH1 0x40 MLOAD PUSH4 0xA85BD01 PUSH1 0xE1 SHL DUP2 MSTORE PUSH1 0x1 PUSH1 0x1 PUSH1 0xA0 SHL SUB DUP5 AND SWAP1 PUSH4 0x150B7A02 SWAP1 PUSH2 0x13B9 SWAP1 CALLER SWAP1 DUP9 SWAP1 DUP8 SWAP1 DUP8 SWAP1 PUSH1 0x4 ADD PUSH2 0x1BD5 JUMP JUMPDEST PUSH1 0x20 PUSH1 0x40 MLOAD DUP1 DUP4 SUB DUP2 PUSH0 DUP8 GAS CALL SWAP3 POP POP POP DUP1 ISZERO PUSH2 0x13F3 JUMPI POP PUSH1 0x40 DUP1 MLOAD PUSH1 0x1F RETURNDATASIZE SWAP1 DUP2 ADD PUSH1 0x1F NOT AND DUP3 ADD SWAP1 SWAP3 MSTORE PUSH2 0x13F0 SWAP2 DUP2 ADD SWAP1 PUSH2 0x1C11 JUMP JUMPDEST PUSH1 0x1 JUMPDEST PUSH2 0x145A JUMPI RETURNDATASIZE DUP1 DUP1 ISZERO PUSH2 0x1420 JUMPI PUSH1 0x40 MLOAD SWAP2 POP PUSH1 0x1F NOT PUSH1 0x3F RETURNDATASIZE ADD AND DUP3 ADD PUSH1 0x40 MSTORE RETURNDATASIZE DUP3 MSTORE RETURNDATASIZE PUSH0 PUSH1 0x20 DUP5 ADD RETURNDATACOPY PUSH2 0x1425 JUMP JUMPDEST PUSH1 0x60 SWAP2 POP JUMPDEST POP DUP1 MLOAD PUSH0 SUB PUSH2 0x1452 JUMPI PUSH1 0x40 MLOAD PUSH4 0x32505749 PUSH1 0xE1 SHL DUP2 MSTORE PUSH1 0x1 PUSH1 0x1 PUSH1 0xA0 SHL SUB DUP6 AND PUSH1 0x4 DUP3 ADD MSTORE PUSH1 0x24 ADD PUSH2 0x629 JUMP JUMPDEST DUP1 MLOAD DUP2 PUSH1 0x20 ADD REVERT JUMPDEST PUSH1 0x1 PUSH1 0x1 PUSH1 0xE0 SHL SUB NOT DUP2 AND PUSH4 0xA85BD01 PUSH1 0xE1 SHL EQ PUSH2 0xCA8 JUMPI PUSH1 0x40 MLOAD PUSH4 0x32505749 PUSH1 0xE1 SHL DUP2 MSTORE PUSH1 0x1 PUSH1 0x1 PUSH1 0xA0 SHL SUB DUP6 AND PUSH1 0x4 DUP3 ADD MSTORE PUSH1 0x24 ADD PUSH2 0x629 JUMP JUMPDEST PUSH2 0x14A1 DUP4 DUP4 DUP4 PUSH2 0x14FA JUMP JUMPDEST PUSH2 0x7E3 JUMPI PUSH1 0x1 PUSH1 0x1 PUSH1 0xA0 SHL SUB DUP4 AND PUSH2 0x14CF JUMPI PUSH1 0x40 MLOAD PUSH4 0x7E273289 PUSH1 0xE0 SHL DUP2 MSTORE PUSH1 0x4 DUP2 ADD DUP3 SWAP1 MSTORE PUSH1 0x24 ADD PUSH2 0x629 JUMP JUMPDEST PUSH1 0x40 MLOAD PUSH4 0x177E802F PUSH1 0xE0 SHL DUP2 MSTORE PUSH1 0x1 PUSH1 0x1 PUSH1 0xA0 SHL SUB DUP4 AND PUSH1 0x4 DUP3 ADD MSTORE PUSH1 0x24 DUP2 ADD DUP3 SWAP1 MSTORE PUSH1 0x44 ADD PUSH2 0x629 JUMP JUMPDEST PUSH0 PUSH1 0x1 PUSH1 0x1 PUSH1 0xA0 SHL SUB DUP4 AND ISZERO DUP1 ISZERO SWAP1 PUSH2 0xB79 JUMPI POP DUP3 PUSH1 0x1 PUSH1 0x1 PUSH1 0xA0 SHL SUB AND DUP5 PUSH1 0x1 PUSH1 0x1 PUSH1 0xA0 SHL SUB AND EQ DUP1 PUSH2 0x1533 JUMPI POP PUSH2 0x1533 DUP5 DUP5 PUSH2 0xCDA JUMP JUMPDEST DUP1 PUSH2 0xB79 JUMPI POP POP PUSH0 SWAP1 DUP2 MSTORE PUSH1 0x4 PUSH1 0x20 MSTORE PUSH1 0x40 SWAP1 KECCAK256 SLOAD PUSH1 0x1 PUSH1 0x1 PUSH1 0xA0 SHL SUB SWAP1 DUP2 AND SWAP2 AND EQ SWAP2 SWAP1 POP JUMP JUMPDEST PUSH1 0x1 PUSH1 0x1 PUSH1 0xE0 SHL SUB NOT DUP2 AND DUP2 EQ PUSH2 0xE24 JUMPI PUSH0 DUP1 REVERT JUMPDEST PUSH0 PUSH1 0x20 DUP3 DUP5 SUB SLT ISZERO PUSH2 0x1580 JUMPI PUSH0 DUP1 REVERT JUMPDEST DUP2 CALLDATALOAD PUSH2 0x158B DUP2 PUSH2 0x155B JUMP JUMPDEST SWAP4 SWAP3 POP POP POP JUMP JUMPDEST PUSH0 JUMPDEST DUP4 DUP2 LT ISZERO PUSH2 0x15AC JUMPI DUP2 DUP2 ADD MLOAD DUP4 DUP3 ADD MSTORE PUSH1 0x20 ADD PUSH2 0x1594 JUMP JUMPDEST POP POP PUSH0 SWAP2 ADD MSTORE JUMP JUMPDEST PUSH0 DUP2 MLOAD DUP1 DUP5 MSTORE PUSH2 0x15CB DUP2 PUSH1 0x20 DUP7 ADD PUSH1 0x20 DUP7 ADD PUSH2 0x1592 JUMP JUMPDEST PUSH1 0x1F ADD PUSH1 0x1F NOT AND SWAP3 SWAP1 SWAP3 ADD PUSH1 0x20 ADD SWAP3 SWAP2 POP POP JUMP JUMPDEST PUSH1 0x20 DUP2 MSTORE PUSH0 PUSH2 0x158B PUSH1 0x20 DUP4 ADD DUP5 PUSH2 0x15B4 JUMP JUMPDEST PUSH0 PUSH1 0x20 DUP3 DUP5 SUB SLT ISZERO PUSH2 0x1601 JUMPI PUSH0 DUP1 REVERT JUMPDEST POP CALLDATALOAD SWAP2 SWAP1 POP JUMP JUMPDEST PUSH1 0x1 PUSH1 0x1 PUSH1 0xA0 SHL SUB DUP2 AND DUP2 EQ PUSH2 0xE24 JUMPI PUSH0 DUP1 REVERT JUMPDEST PUSH0 DUP1 PUSH1 0x40 DUP4 DUP6 SUB SLT ISZERO PUSH2 0x162D JUMPI PUSH0 DUP1 REVERT JUMPDEST DUP3 CALLDATALOAD PUSH2 0x1638 DUP2 PUSH2 0x1608 JUMP JUMPDEST SWAP5 PUSH1 0x20 SWAP4 SWAP1 SWAP4 ADD CALLDATALOAD SWAP4 POP POP POP JUMP JUMPDEST PUSH0 PUSH1 0x20 DUP3 DUP5 SUB SLT ISZERO PUSH2 0x1656 JUMPI PUSH0 DUP1 REVERT JUMPDEST DUP2 CALLDATALOAD PUSH2 0x158B DUP2 PUSH2 0x1608 JUMP JUMPDEST PUSH0 DUP1 PUSH0 PUSH1 0x60 DUP5 DUP7 SUB SLT ISZERO PUSH2 0x1673 JUMPI PUSH0 DUP1 REVERT JUMPDEST DUP4 CALLDATALOAD PUSH2 0x167E DUP2 PUSH2 0x1608 JUMP JUMPDEST SWAP3 POP PUSH1 0x20 DUP5 ADD CALLDATALOAD PUSH2 0x168E DUP2 PUSH2 0x1608 JUMP JUMPDEST SWAP3 SWAP6 SWAP3 SWAP5 POP POP POP PUSH1 0x40 SWAP2 SWAP1 SWAP2 ADD CALLDATALOAD SWAP1 JUMP JUMPDEST DUP1 CALLDATALOAD PUSH1 0xFF DUP2 AND DUP2 EQ PUSH2 0x16AF JUMPI PUSH0 DUP1 REVERT JUMPDEST SWAP2 SWAP1 POP JUMP JUMPDEST PUSH4 0x4E487B71 PUSH1 0xE0 SHL PUSH0 MSTORE PUSH1 0x41 PUSH1 0x4 MSTORE PUSH1 0x24 PUSH0 REVERT JUMPDEST PUSH0 PUSH8 0xFFFFFFFFFFFFFFFF DUP1 DUP5 GT ISZERO PUSH2 0x16E2 JUMPI PUSH2 0x16E2 PUSH2 0x16B4 JUMP JUMPDEST PUSH1 0x40 MLOAD PUSH1 0x1F DUP6 ADD PUSH1 0x1F NOT SWAP1 DUP2 AND PUSH1 0x3F ADD AND DUP2 ADD SWAP1 DUP3 DUP3 GT DUP2 DUP4 LT OR ISZERO PUSH2 0x170A JUMPI PUSH2 0x170A PUSH2 0x16B4 JUMP JUMPDEST DUP2 PUSH1 0x40 MSTORE DUP1 SWAP4 POP DUP6 DUP2 MSTORE DUP7 DUP7 DUP7 ADD GT ISZERO PUSH2 0x1722 JUMPI PUSH0 DUP1 REVERT JUMPDEST DUP6 DUP6 PUSH1 0x20 DUP4 ADD CALLDATACOPY PUSH0 PUSH1 0x20 DUP8 DUP4 ADD ADD MSTORE POP POP POP SWAP4 SWAP3 POP POP POP JUMP JUMPDEST PUSH0 DUP1 PUSH1 0x40 DUP4 DUP6 SUB SLT ISZERO PUSH2 0x174C JUMPI PUSH0 DUP1 REVERT JUMPDEST PUSH2 0x1755 DUP4 PUSH2 0x169F JUMP JUMPDEST SWAP2 POP PUSH1 0x20 DUP4 ADD CALLDATALOAD PUSH8 0xFFFFFFFFFFFFFFFF DUP2 GT ISZERO PUSH2 0x1770 JUMPI PUSH0 DUP1 REVERT JUMPDEST DUP4 ADD PUSH1 0x1F DUP2 ADD DUP6 SGT PUSH2 0x1780 JUMPI PUSH0 DUP1 REVERT JUMPDEST PUSH2 0x178F DUP6 DUP3 CALLDATALOAD PUSH1 0x20 DUP5 ADD PUSH2 0x16C8 JUMP JUMPDEST SWAP2 POP POP SWAP3 POP SWAP3 SWAP1 POP JUMP JUMPDEST PUSH0 DUP1 PUSH1 0x40 DUP4 DUP6 SUB SLT ISZERO PUSH2 0x17AA JUMPI PUSH0 DUP1 REVERT JUMPDEST DUP3 CALLDATALOAD PUSH2 0x17B5 DUP2 PUSH2 0x1608 JUMP JUMPDEST SWAP2 POP PUSH1 0x20 DUP4 ADD CALLDATALOAD DUP1 ISZERO ISZERO DUP2 EQ PUSH2 0x17C9 JUMPI PUSH0 DUP1 REVERT JUMPDEST DUP1 SWAP2 POP POP SWAP3 POP SWAP3 SWAP1 POP JUMP JUMPDEST PUSH0 DUP1 PUSH0 DUP1 PUSH1 0x80 DUP6 DUP8 SUB SLT ISZERO PUSH2 0x17E7 JUMPI PUSH0 DUP1 REVERT JUMPDEST DUP5 CALLDATALOAD PUSH2 0x17F2 DUP2 PUSH2 0x1608 JUMP JUMPDEST SWAP4 POP PUSH1 0x20 DUP6 ADD CALLDATALOAD PUSH2 0x1802 DUP2 PUSH2 0x1608 JUMP JUMPDEST SWAP3 POP PUSH1 0x40 DUP6 ADD CALLDATALOAD SWAP2 POP PUSH1 0x60 DUP6 ADD CALLDATALOAD PUSH8 0xFFFFFFFFFFFFFFFF DUP2 GT ISZERO PUSH2 0x1824 JUMPI PUSH0 DUP1 REVERT JUMPDEST DUP6 ADD PUSH1 0x1F DUP2 ADD DUP8 SGT PUSH2 0x1834 JUMPI PUSH0 DUP1 REVERT JUMPDEST PUSH2 0x1843 DUP8 DUP3 CALLDATALOAD PUSH1 0x20 DUP5 ADD PUSH2 0x16C8 JUMP JUMPDEST SWAP2 POP POP SWAP3 SWAP6 SWAP2 SWAP5 POP SWAP3 POP JUMP JUMPDEST PUSH1 0xFF DUP4 AND DUP2 MSTORE PUSH1 0x40 PUSH1 0x20 DUP3 ADD MSTORE PUSH0 PUSH2 0xB79 PUSH1 0x40 DUP4 ADD DUP5 PUSH2 0x15B4 JUMP JUMPDEST PUSH0 DUP1 PUSH0 DUP1 PUSH1 0x80 DUP6 DUP8 SUB SLT ISZERO PUSH2 0x187D JUMPI PUSH0 DUP1 REVERT JUMPDEST DUP5 CALLDATALOAD PUSH2 0x1888 DUP2 PUSH2 0x1608 JUMP JUMPDEST SWAP4 POP PUSH1 0x20 DUP6 ADD CALLDATALOAD SWAP3 POP PUSH1 0x40 DUP6 ADD CALLDATALOAD SWAP2 POP PUSH2 0x18A4 PUSH1 0x60 DUP7 ADD PUSH2 0x169F JUMP JUMPDEST SWAP1 POP SWAP3 SWAP6 SWAP2 SWAP5 POP SWAP3 POP JUMP JUMPDEST PUSH0 DUP1 PUSH1 0x40 DUP4 DUP6 SUB SLT ISZERO PUSH2 0x18C0 JUMPI PUSH0 DUP1 REVERT JUMPDEST DUP3 CALLDATALOAD PUSH2 0x18CB DUP2 PUSH2 0x1608 JUMP JUMPDEST SWAP2 POP PUSH1 0x20 DUP4 ADD CALLDATALOAD PUSH2 0x17C9 DUP2 PUSH2 0x1608 JUMP JUMPDEST PUSH0 DUP1 PUSH0 PUSH1 0x60 DUP5 DUP7 SUB SLT ISZERO PUSH2 0x18ED JUMPI PUSH0 DUP1 REVERT JUMPDEST POP POP DUP2 CALLDATALOAD SWAP4 PUSH1 0x20 DUP4 ADD CALLDATALOAD SWAP4 POP PUSH1 0x40 SWAP1 SWAP3 ADD CALLDATALOAD SWAP2 SWAP1 POP JUMP JUMPDEST PUSH1 0x1 DUP2 DUP2 SHR SWAP1 DUP3 AND DUP1 PUSH2 0x1918 JUMPI PUSH1 0x7F DUP3 AND SWAP2 POP JUMPDEST PUSH1 0x20 DUP3 LT DUP2 SUB PUSH2 0x1936 JUMPI PUSH4 0x4E487B71 PUSH1 0xE0 SHL PUSH0 MSTORE PUSH1 0x22 PUSH1 0x4 MSTORE PUSH1 0x24 PUSH0 REVERT JUMPDEST POP SWAP2 SWAP1 POP JUMP JUMPDEST PUSH1 0x20 DUP1 DUP3 MSTORE PUSH1 0x24 SWAP1 DUP3 ADD MSTORE PUSH32 0x4F6E6C79206D61726B6574706C6163652063616E207472616E7366657220746F PUSH1 0x40 DUP3 ADD MSTORE PUSH4 0x6B656E73 PUSH1 0xE0 SHL PUSH1 0x60 DUP3 ADD MSTORE PUSH1 0x80 ADD SWAP1 JUMP JUMPDEST PUSH0 PUSH1 0x60 DUP3 DUP5 SUB SLT ISZERO PUSH2 0x1990 JUMPI PUSH0 DUP1 REVERT JUMPDEST PUSH1 0x40 MLOAD PUSH1 0x60 DUP2 ADD DUP2 DUP2 LT PUSH8 0xFFFFFFFFFFFFFFFF DUP3 GT OR ISZERO PUSH2 0x19B3 JUMPI PUSH2 0x19B3 PUSH2 0x16B4 JUMP JUMPDEST PUSH1 0x40 MSTORE DUP3 MLOAD DUP2 MSTORE PUSH1 0x20 DUP4 ADD MLOAD PUSH2 0x19C8 DUP2 PUSH2 0x1608 JUMP JUMPDEST PUSH1 0x20 DUP3 ADD MSTORE PUSH1 0x40 SWAP3 DUP4 ADD MLOAD SWAP3 DUP2 ADD SWAP3 SWAP1 SWAP3 MSTORE POP SWAP2 SWAP1 POP JUMP JUMPDEST PUSH4 0x4E487B71 PUSH1 0xE0 SHL PUSH0 MSTORE PUSH1 0x11 PUSH1 0x4 MSTORE PUSH1 0x24 PUSH0 REVERT JUMPDEST DUP1 DUP3 ADD DUP1 DUP3 GT ISZERO PUSH2 0x50A JUMPI PUSH2 0x50A PUSH2 0x19E0 JUMP JUMPDEST PUSH1 0x1F DUP3 GT ISZERO PUSH2 0x7E3 JUMPI PUSH0 DUP2 DUP2 MSTORE PUSH1 0x20 DUP2 KECCAK256 PUSH1 0x1F DUP6 ADD PUSH1 0x5 SHR DUP2 ADD PUSH1 0x20 DUP7 LT ISZERO PUSH2 0x1A2D JUMPI POP DUP1 JUMPDEST PUSH1 0x1F DUP6 ADD PUSH1 0x5 SHR DUP3 ADD SWAP2 POP JUMPDEST DUP2 DUP2 LT ISZERO PUSH2 0x1A4C JUMPI DUP3 DUP2 SSTORE PUSH1 0x1 ADD PUSH2 0x1A39 JUMP JUMPDEST POP POP POP POP POP POP JUMP JUMPDEST DUP2 MLOAD PUSH8 0xFFFFFFFFFFFFFFFF DUP2 GT ISZERO PUSH2 0x1A6E JUMPI PUSH2 0x1A6E PUSH2 0x16B4 JUMP JUMPDEST PUSH2 0x1A82 DUP2 PUSH2 0x1A7C DUP5 SLOAD PUSH2 0x1904 JUMP JUMPDEST DUP5 PUSH2 0x1A07 JUMP JUMPDEST PUSH1 0x20 DUP1 PUSH1 0x1F DUP4 GT PUSH1 0x1 DUP2 EQ PUSH2 0x1AB5 JUMPI PUSH0 DUP5 ISZERO PUSH2 0x1A9E JUMPI POP DUP6 DUP4 ADD MLOAD JUMPDEST PUSH0 NOT PUSH1 0x3 DUP7 SWAP1 SHL SHR NOT AND PUSH1 0x1 DUP6 SWAP1 SHL OR DUP6 SSTORE PUSH2 0x1A4C JUMP JUMPDEST PUSH0 DUP6 DUP2 MSTORE PUSH1 0x20 DUP2 KECCAK256 PUSH1 0x1F NOT DUP7 AND SWAP2 JUMPDEST DUP3 DUP2 LT ISZERO PUSH2 0x1AE3 JUMPI DUP9 DUP7 ADD MLOAD DUP3 SSTORE SWAP5 DUP5 ADD SWAP5 PUSH1 0x1 SWAP1 SWAP2 ADD SWAP1 DUP5 ADD PUSH2 0x1AC4 JUMP JUMPDEST POP DUP6 DUP3 LT ISZERO PUSH2 0x1B00 JUMPI DUP8 DUP6 ADD MLOAD PUSH0 NOT PUSH1 0x3 DUP9 SWAP1 SHL PUSH1 0xF8 AND SHR NOT AND DUP2 SSTORE JUMPDEST POP POP POP POP POP PUSH1 0x1 SWAP1 DUP2 SHL ADD SWAP1 SSTORE POP JUMP JUMPDEST PUSH1 0x20 DUP1 DUP3 MSTORE PUSH1 0x2F SWAP1 DUP3 ADD MSTORE PUSH32 0x4552433732314D657461646174613A2055524920717565727920666F72206E6F PUSH1 0x40 DUP3 ADD MSTORE PUSH15 0x3732BC34B9BA32B73A103A37B5B2B7 PUSH1 0x89 SHL PUSH1 0x60 DUP3 ADD MSTORE PUSH1 0x80 ADD SWAP1 JUMP JUMPDEST PUSH0 DUP3 MLOAD PUSH2 0x1B70 DUP2 DUP5 PUSH1 0x20 DUP8 ADD PUSH2 0x1592 JUMP JUMPDEST PUSH5 0x173539B7B7 PUSH1 0xD9 SHL SWAP3 ADD SWAP2 DUP3 MSTORE POP PUSH1 0x5 ADD SWAP2 SWAP1 POP JUMP JUMPDEST PUSH0 PUSH1 0x1 DUP3 ADD PUSH2 0x1B98 JUMPI PUSH2 0x1B98 PUSH2 0x19E0 JUMP JUMPDEST POP PUSH1 0x1 ADD SWAP1 JUMP JUMPDEST DUP1 DUP3 MUL DUP2 ISZERO DUP3 DUP3 DIV DUP5 EQ OR PUSH2 0x50A JUMPI PUSH2 0x50A PUSH2 0x19E0 JUMP JUMPDEST PUSH0 DUP3 PUSH2 0x1BD0 JUMPI PUSH4 0x4E487B71 PUSH1 0xE0 SHL PUSH0 MSTORE PUSH1 0x12 PUSH1 0x4 MSTORE PUSH1 0x24 PUSH0 REVERT JUMPDEST POP DIV SWAP1 JUMP JUMPDEST PUSH1 0x1 PUSH1 0x1 PUSH1 0xA0 SHL SUB DUP6 DUP2 AND DUP3 MSTORE DUP5 AND PUSH1 0x20 DUP3 ADD MSTORE PUSH1 0x40 DUP2 ADD DUP4 SWAP1 MSTORE PUSH1 0x80 PUSH1 0x60 DUP3 ADD DUP2 SWAP1 MSTORE PUSH0 SWAP1 PUSH2 0x1C07 SWAP1 DUP4 ADD DUP5 PUSH2 0x15B4 JUMP JUMPDEST SWAP7 SWAP6 POP POP POP POP POP POP JUMP JUMPDEST PUSH0 PUSH1 0x20 DUP3 DUP5 SUB SLT ISZERO PUSH2 0x1C21 JUMPI PUSH0 DUP1 REVERT JUMPDEST DUP2 MLOAD PUSH2 0x158B DUP2 PUSH2 0x155B JUMP INVALID LOG2 PUSH5 0x6970667358 0x22 SLT KECCAK256 0x5D 0xC6 PUSH0 PUSH8 0xAF432267C7E67D6C 0xBB 0xDD 0xA8 DUP11 BASEFEE PUSH7 0x521A34C5E27180 DUP4 CODECOPY PUSH30 0x5CB6FE4364736F6C63430008140033000000000000000000000000000000 "
		},
		"gasEstimates": {
			"creation": {
				"codeDepositCost": "1453200",
				"executionCost": "infinite",
				"totalCost": "infinite"
			},
			"external": {
				"addMinter(address)": "26855",
				"addPriceUpdater(address)": "26876",
				"approve(address,uint256)": "31548",
				"balanceOf(address)": "2668",
				"getApproved(uint256)": "infinite",
				"getTokenDetails(uint256)": "infinite",
				"isApprovedForAll(address,address)": "infinite",
				"marketplaceAddress()": "2403",
				"mint(address,uint256,uint256,uint8)": "infinite",
				"minters(address)": "2621",
				"name()": "infinite",
				"nonTradablePeriod()": "2339",
				"nonTradableUntil(uint256)": "2567",
				"owner()": "2376",
				"ownerOf(uint256)": "infinite",
				"priceUpdaters(address)": "2557",
				"removeMinter(address)": "26805",
				"removePriceUpdater(address)": "26871",
				"renounceOwnership()": "infinite",
				"safeTransferFrom(address,address,uint256)": "infinite",
				"safeTransferFrom(address,address,uint256,bytes)": "infinite",
				"setApprovalForAll(address,bool)": "26762",
				"setBaseURIForType(uint8,string)": "infinite",
				"setMarketplaceAddress(address)": "50993",
				"setNonTradablePeriod(uint256)": "24554",
				"supportsInterface(bytes4)": "554",
				"symbol()": "infinite",
				"tokenPrices(uint256)": "2524",
				"tokenURI(uint256)": "infinite",
				"totalSupply()": "2396",
				"transferFrom(address,address,uint256)": "infinite",
				"transferOwnership(address)": "infinite",
				"updateTokenPrice(uint256,uint256,uint256)": "infinite"
			},
			"internal": {
				"setTokenType(uint256,uint8)": "infinite"
			}
		},
		"methodIdentifiers": {
			"addMinter(address)": "983b2d56",
			"addPriceUpdater(address)": "e88456e7",
			"approve(address,uint256)": "095ea7b3",
			"balanceOf(address)": "70a08231",
			"getApproved(uint256)": "081812fc",
			"getTokenDetails(uint256)": "c1e03728",
			"isApprovedForAll(address,address)": "e985e9c5",
			"marketplaceAddress()": "daa17f49",
			"mint(address,uint256,uint256,uint8)": "d6b96050",
			"minters(address)": "f46eccc4",
			"name()": "06fdde03",
			"nonTradablePeriod()": "62eefa8e",
			"nonTradableUntil(uint256)": "f50efc46",
			"owner()": "8da5cb5b",
			"ownerOf(uint256)": "6352211e",
			"priceUpdaters(address)": "125dfb09",
			"removeMinter(address)": "3092afd5",
			"removePriceUpdater(address)": "2df31108",
			"renounceOwnership()": "715018a6",
			"safeTransferFrom(address,address,uint256)": "42842e0e",
			"safeTransferFrom(address,address,uint256,bytes)": "b88d4fde",
			"setApprovalForAll(address,bool)": "a22cb465",
			"setBaseURIForType(uint8,string)": "55376e58",
			"setMarketplaceAddress(address)": "b47cc556",
			"setNonTradablePeriod(uint256)": "3e7e4919",
			"supportsInterface(bytes4)": "01ffc9a7",
			"symbol()": "95d89b41",
			"tokenPrices(uint256)": "e5afe3e6",
			"tokenURI(uint256)": "c87b56dd",
			"totalSupply()": "18160ddd",
			"transferFrom(address,address,uint256)": "23b872dd",
			"transferOwnership(address)": "f2fde38b",
			"updateTokenPrice(uint256,uint256,uint256)": "ebb71dd6"
		}
	},
	"abi": [
		{
			"inputs": [
				{
					"internalType": "string",
					"name": "name",
					"type": "string"
				},
				{
					"internalType": "string",
					"name": "symbol",
					"type": "string"
				},
				{
					"internalType": "uint256",
					"name": "_nonTradablePeriod",
					"type": "uint256"
				}
			],
			"stateMutability": "nonpayable",
			"type": "constructor"
		},
		{
			"inputs": [
				{
					"internalType": "address",
					"name": "sender",
					"type": "address"
				},
				{
					"internalType": "uint256",
					"name": "tokenId",
					"type": "uint256"
				},
				{
					"internalType": "address",
					"name": "owner",
					"type": "address"
				}
			],
			"name": "ERC721IncorrectOwner",
			"type": "error"
		},
		{
			"inputs": [
				{
					"internalType": "address",
					"name": "operator",
					"type": "address"
				},
				{
					"internalType": "uint256",
					"name": "tokenId",
					"type": "uint256"
				}
			],
			"name": "ERC721InsufficientApproval",
			"type": "error"
		},
		{
			"inputs": [
				{
					"internalType": "address",
					"name": "approver",
					"type": "address"
				}
			],
			"name": "ERC721InvalidApprover",
			"type": "error"
		},
		{
			"inputs": [
				{
					"internalType": "address",
					"name": "operator",
					"type": "address"
				}
			],
			"name": "ERC721InvalidOperator",
			"type": "error"
		},
		{
			"inputs": [
				{
					"internalType": "address",
					"name": "owner",
					"type": "address"
				}
			],
			"name": "ERC721InvalidOwner",
			"type": "error"
		},
		{
			"inputs": [
				{
					"internalType": "address",
					"name": "receiver",
					"type": "address"
				}
			],
			"name": "ERC721InvalidReceiver",
			"type": "error"
		},
		{
			"inputs": [
				{
					"internalType": "address",
					"name": "sender",
					"type": "address"
				}
			],
			"name": "ERC721InvalidSender",
			"type": "error"
		},
		{
			"inputs": [
				{
					"internalType": "uint256",
					"name": "tokenId",
					"type": "uint256"
				}
			],
			"name": "ERC721NonexistentToken",
			"type": "error"
		},
		{
			"inputs": [
				{
					"internalType": "address",
					"name": "owner",
					"type": "address"
				}
			],
			"name": "OwnableInvalidOwner",
			"type": "error"
		},
		{
			"inputs": [
				{
					"internalType": "address",
					"name": "account",
					"type": "address"
				}
			],
			"name": "OwnableUnauthorizedAccount",
			"type": "error"
		},
		{
			"anonymous": false,
			"inputs": [
				{
					"indexed": true,
					"internalType": "address",
					"name": "owner",
					"type": "address"
				},
				{
					"indexed": true,
					"internalType": "address",
					"name": "approved",
					"type": "address"
				},
				{
					"indexed": true,
					"internalType": "uint256",
					"name": "tokenId",
					"type": "uint256"
				}
			],
			"name": "Approval",
			"type": "event"
		},
		{
			"anonymous": false,
			"inputs": [
				{
					"indexed": true,
					"internalType": "address",
					"name": "owner",
					"type": "address"
				},
				{
					"indexed": true,
					"internalType": "address",
					"name": "operator",
					"type": "address"
				},
				{
					"indexed": false,
					"internalType": "bool",
					"name": "approved",
					"type": "bool"
				}
			],
			"name": "ApprovalForAll",
			"type": "event"
		},
		{
			"anonymous": false,
			"inputs": [
				{
					"indexed": true,
					"internalType": "address",
					"name": "previousOwner",
					"type": "address"
				},
				{
					"indexed": true,
					"internalType": "address",
					"name": "newOwner",
					"type": "address"
				}
			],
			"name": "OwnershipTransferred",
			"type": "event"
		},
		{
			"anonymous": false,
			"inputs": [
				{
					"indexed": false,
					"internalType": "address",
					"name": "to",
					"type": "address"
				},
				{
					"indexed": false,
					"internalType": "uint256",
					"name": "tokenId",
					"type": "uint256"
				},
				{
					"indexed": false,
					"internalType": "uint256",
					"name": "initialPrice",
					"type": "uint256"
				},
				{
					"indexed": false,
					"internalType": "uint8",
					"name": "tokenType",
					"type": "uint8"
				}
			],
			"name": "TokenMinted",
			"type": "event"
		},
		{
			"anonymous": false,
			"inputs": [
				{
					"indexed": false,
					"internalType": "uint256",
					"name": "tokenId",
					"type": "uint256"
				},
				{
					"indexed": false,
					"internalType": "uint256",
					"name": "newPrice",
					"type": "uint256"
				}
			],
			"name": "TokenPriceUpdated",
			"type": "event"
		},
		{
			"anonymous": false,
			"inputs": [
				{
					"indexed": true,
					"internalType": "address",
					"name": "from",
					"type": "address"
				},
				{
					"indexed": true,
					"internalType": "address",
					"name": "to",
					"type": "address"
				},
				{
					"indexed": true,
					"internalType": "uint256",
					"name": "tokenId",
					"type": "uint256"
				}
			],
			"name": "Transfer",
			"type": "event"
		},
		{
			"inputs": [
				{
					"internalType": "address",
					"name": "_minter",
					"type": "address"
				}
			],
			"name": "addMinter",
			"outputs": [],
			"stateMutability": "nonpayable",
			"type": "function"
		},
		{
			"inputs": [
				{
					"internalType": "address",
					"name": "_updater",
					"type": "address"
				}
			],
			"name": "addPriceUpdater",
			"outputs": [],
			"stateMutability": "nonpayable",
			"type": "function"
		},
		{
			"inputs": [
				{
					"internalType": "address",
					"name": "to",
					"type": "address"
				},
				{
					"internalType": "uint256",
					"name": "tokenId",
					"type": "uint256"
				}
			],
			"name": "approve",
			"outputs": [],
			"stateMutability": "nonpayable",
			"type": "function"
		},
		{
			"inputs": [
				{
					"internalType": "address",
					"name": "owner",
					"type": "address"
				}
			],
			"name": "balanceOf",
			"outputs": [
				{
					"internalType": "uint256",
					"name": "",
					"type": "uint256"
				}
			],
			"stateMutability": "view",
			"type": "function"
		},
		{
			"inputs": [
				{
					"internalType": "uint256",
					"name": "tokenId",
					"type": "uint256"
				}
			],
			"name": "getApproved",
			"outputs": [
				{
					"internalType": "address",
					"name": "",
					"type": "address"
				}
			],
			"stateMutability": "view",
			"type": "function"
		},
		{
			"inputs": [
				{
					"internalType": "uint256",
					"name": "tokenId",
					"type": "uint256"
				}
			],
			"name": "getTokenDetails",
			"outputs": [
				{
					"internalType": "uint8",
					"name": "tokenType",
					"type": "uint8"
				},
				{
					"internalType": "string",
					"name": "metadataURI",
					"type": "string"
				}
			],
			"stateMutability": "view",
			"type": "function"
		},
		{
			"inputs": [
				{
					"internalType": "address",
					"name": "owner",
					"type": "address"
				},
				{
					"internalType": "address",
					"name": "operator",
					"type": "address"
				}
			],
			"name": "isApprovedForAll",
			"outputs": [
				{
					"internalType": "bool",
					"name": "",
					"type": "bool"
				}
			],
			"stateMutability": "view",
			"type": "function"
		},
		{
			"inputs": [],
			"name": "marketplaceAddress",
			"outputs": [
				{
					"internalType": "address",
					"name": "",
					"type": "address"
				}
			],
			"stateMutability": "view",
			"type": "function"
		},
		{
			"inputs": [
				{
					"internalType": "address",
					"name": "to",
					"type": "address"
				},
				{
					"internalType": "uint256",
					"name": "initialPrice",
					"type": "uint256"
				},
				{
					"internalType": "uint256",
					"name": "numberOfToken",
					"type": "uint256"
				},
				{
					"internalType": "uint8",
					"name": "tokenType",
					"type": "uint8"
				}
			],
			"name": "mint",
			"outputs": [],
			"stateMutability": "nonpayable",
			"type": "function"
		},
		{
			"inputs": [
				{
					"internalType": "address",
					"name": "",
					"type": "address"
				}
			],
			"name": "minters",
			"outputs": [
				{
					"internalType": "bool",
					"name": "",
					"type": "bool"
				}
			],
			"stateMutability": "view",
			"type": "function"
		},
		{
			"inputs": [],
			"name": "name",
			"outputs": [
				{
					"internalType": "string",
					"name": "",
					"type": "string"
				}
			],
			"stateMutability": "view",
			"type": "function"
		},
		{
			"inputs": [],
			"name": "nonTradablePeriod",
			"outputs": [
				{
					"internalType": "uint256",
					"name": "",
					"type": "uint256"
				}
			],
			"stateMutability": "view",
			"type": "function"
		},
		{
			"inputs": [
				{
					"internalType": "uint256",
					"name": "",
					"type": "uint256"
				}
			],
			"name": "nonTradableUntil",
			"outputs": [
				{
					"internalType": "uint256",
					"name": "",
					"type": "uint256"
				}
			],
			"stateMutability": "view",
			"type": "function"
		},
		{
			"inputs": [],
			"name": "owner",
			"outputs": [
				{
					"internalType": "address",
					"name": "",
					"type": "address"
				}
			],
			"stateMutability": "view",
			"type": "function"
		},
		{
			"inputs": [
				{
					"internalType": "uint256",
					"name": "tokenId",
					"type": "uint256"
				}
			],
			"name": "ownerOf",
			"outputs": [
				{
					"internalType": "address",
					"name": "",
					"type": "address"
				}
			],
			"stateMutability": "view",
			"type": "function"
		},
		{
			"inputs": [
				{
					"internalType": "address",
					"name": "",
					"type": "address"
				}
			],
			"name": "priceUpdaters",
			"outputs": [
				{
					"internalType": "bool",
					"name": "",
					"type": "bool"
				}
			],
			"stateMutability": "view",
			"type": "function"
		},
		{
			"inputs": [
				{
					"internalType": "address",
					"name": "_minter",
					"type": "address"
				}
			],
			"name": "removeMinter",
			"outputs": [],
			"stateMutability": "nonpayable",
			"type": "function"
		},
		{
			"inputs": [
				{
					"internalType": "address",
					"name": "_updater",
					"type": "address"
				}
			],
			"name": "removePriceUpdater",
			"outputs": [],
			"stateMutability": "nonpayable",
			"type": "function"
		},
		{
			"inputs": [],
			"name": "renounceOwnership",
			"outputs": [],
			"stateMutability": "nonpayable",
			"type": "function"
		},
		{
			"inputs": [
				{
					"internalType": "address",
					"name": "from",
					"type": "address"
				},
				{
					"internalType": "address",
					"name": "to",
					"type": "address"
				},
				{
					"internalType": "uint256",
					"name": "tokenId",
					"type": "uint256"
				}
			],
			"name": "safeTransferFrom",
			"outputs": [],
			"stateMutability": "nonpayable",
			"type": "function"
		},
		{
			"inputs": [
				{
					"internalType": "address",
					"name": "from",
					"type": "address"
				},
				{
					"internalType": "address",
					"name": "to",
					"type": "address"
				},
				{
					"internalType": "uint256",
					"name": "tokenId",
					"type": "uint256"
				},
				{
					"internalType": "bytes",
					"name": "_data",
					"type": "bytes"
				}
			],
			"name": "safeTransferFrom",
			"outputs": [],
			"stateMutability": "nonpayable",
			"type": "function"
		},
		{
			"inputs": [
				{
					"internalType": "address",
					"name": "operator",
					"type": "address"
				},
				{
					"internalType": "bool",
					"name": "approved",
					"type": "bool"
				}
			],
			"name": "setApprovalForAll",
			"outputs": [],
			"stateMutability": "nonpayable",
			"type": "function"
		},
		{
			"inputs": [
				{
					"internalType": "uint8",
					"name": "tokenType",
					"type": "uint8"
				},
				{
					"internalType": "string",
					"name": "baseURI",
					"type": "string"
				}
			],
			"name": "setBaseURIForType",
			"outputs": [],
			"stateMutability": "nonpayable",
			"type": "function"
		},
		{
			"inputs": [
				{
					"internalType": "address",
					"name": "_marketplaceAddress",
					"type": "address"
				}
			],
			"name": "setMarketplaceAddress",
			"outputs": [],
			"stateMutability": "nonpayable",
			"type": "function"
		},
		{
			"inputs": [
				{
					"internalType": "uint256",
					"name": "_period",
					"type": "uint256"
				}
			],
			"name": "setNonTradablePeriod",
			"outputs": [],
			"stateMutability": "nonpayable",
			"type": "function"
		},
		{
			"inputs": [
				{
					"internalType": "bytes4",
					"name": "interfaceId",
					"type": "bytes4"
				}
			],
			"name": "supportsInterface",
			"outputs": [
				{
					"internalType": "bool",
					"name": "",
					"type": "bool"
				}
			],
			"stateMutability": "view",
			"type": "function"
		},
		{
			"inputs": [],
			"name": "symbol",
			"outputs": [
				{
					"internalType": "string",
					"name": "",
					"type": "string"
				}
			],
			"stateMutability": "view",
			"type": "function"
		},
		{
			"inputs": [
				{
					"internalType": "uint256",
					"name": "",
					"type": "uint256"
				}
			],
			"name": "tokenPrices",
			"outputs": [
				{
					"internalType": "uint256",
					"name": "",
					"type": "uint256"
				}
			],
			"stateMutability": "view",
			"type": "function"
		},
		{
			"inputs": [
				{
					"internalType": "uint256",
					"name": "tokenId",
					"type": "uint256"
				}
			],
			"name": "tokenURI",
			"outputs": [
				{
					"internalType": "string",
					"name": "",
					"type": "string"
				}
			],
			"stateMutability": "view",
			"type": "function"
		},
		{
			"inputs": [],
			"name": "totalSupply",
			"outputs": [
				{
					"internalType": "uint256",
					"name": "",
					"type": "uint256"
				}
			],
			"stateMutability": "view",
			"type": "function"
		},
		{
			"inputs": [
				{
					"internalType": "address",
					"name": "from",
					"type": "address"
				},
				{
					"internalType": "address",
					"name": "to",
					"type": "address"
				},
				{
					"internalType": "uint256",
					"name": "tokenId",
					"type": "uint256"
				}
			],
			"name": "transferFrom",
			"outputs": [],
			"stateMutability": "nonpayable",
			"type": "function"
		},
		{
			"inputs": [
				{
					"internalType": "address",
					"name": "newOwner",
					"type": "address"
				}
			],
			"name": "transferOwnership",
			"outputs": [],
			"stateMutability": "nonpayable",
			"type": "function"
		},
		{
			"inputs": [
				{
					"internalType": "uint256",
					"name": "tokenId",
					"type": "uint256"
				},
				{
					"internalType": "uint256",
					"name": "salePrice",
					"type": "uint256"
				},
				{
					"internalType": "uint256",
					"name": "priceIncreasePercentage",
					"type": "uint256"
				}
			],
			"name": "updateTokenPrice",
			"outputs": [],
			"stateMutability": "nonpayable",
			"type": "function"
		}
	]
}