{
	"data": {
		"bytecode": {
			"linkReferences": {},
			"object": "6080604052600c805460ff60a01b191690553480156200001e57600080fd5b506040516200158238038062001582833981016040819052620000419162000139565b33806200006857604051631e4fbdf760e01b81526000600482015260240160405180910390fd5b6200007381620000cc565b5060018055600280546001600160a01b039586166001600160a01b0319918216179091556003805494861694821694909417909355600b805492851692841692909217909155600c805491909316911617905562000196565b600080546001600160a01b038381166001600160a01b0319831681178455604051919092169283917f8be0079c531659141344cd1fd0a4f28419497f9722a3daafe3b4186f6b6457e09190a35050565b80516001600160a01b03811681146200013457600080fd5b919050565b600080600080608085870312156200015057600080fd5b6200015b856200011c565b93506200016b602086016200011c565b92506200017b604086016200011c565b91506200018b606086016200011c565b905092959194509250565b6113dc80620001a66000396000f3fe608060405234801561001057600080fd5b50600436106102065760003560e01c8063843f44f11161011a578063c216212a116100ad578063db169bce1161007c578063db169bce14610513578063e2deb8b314610533578063e67777ba14610546578063ee0ebe0c1461056f578063f2fde38b1461057857600080fd5b8063c216212a14610490578063d259ab42146104b7578063d491bab8146104ca578063daa91f2e146104f357600080fd5b806391e01dcb116100e957806391e01dcb14610422578063a3d5ecb714610442578063b20671ba14610455578063b99dfe181461046857600080fd5b8063843f44f1146103d857806389b07243146103eb5780638da5cb5b146103fe5780638ea830311461040f57600080fd5b806344a040f51161019d57806363a599a41161016c57806363a599a414610366578063645a8a561461038a578063715018a6146103aa57806376e95f6b146103b25780637d42bd14146103c557600080fd5b806344a040f5146102ec5780634b3e1333146103155780634b7aac941461033557806356582bf91461033d57600080fd5b8063292afe23116101d9578063292afe231461027c5780632f48ab7d146102b35780633177290c146102c65780633ea521ef146102d957600080fd5b806306ce70291461020b5780630a421f0f146102205780630cc566021461023e5780631c08150414610269575b600080fd5b61021e61021936600461114a565b61058b565b005b6102286105dc565b604051610235919061116c565b60405180910390f35b600354610251906001600160a01b031681565b6040516001600160a01b039091168152602001610235565b600b54610251906001600160a01b031681565b6102a561028a3660046111d7565b6001600160a01b031660009081526009602052604090205490565b604051908152602001610235565b600254610251906001600160a01b031681565b61021e6102d43660046111d7565b6106ae565b61021e6102e73660046111f9565b6106d8565b6102a56102fa3660046111d7565b6001600160a01b031660009081526008602052604090205490565b6102a56103233660046111d7565b60076020526000908152604090205481565b61021e61079d565b6102a561034b3660046111d7565b6001600160a01b031660009081526006602052604090205490565b600c5461037a90600160a01b900460ff1681565b6040519015158152602001610235565b6102a56103983660046111d7565b60086020526000908152604090205481565b61021e6107c6565b61021e6103c0366004611212565b6107da565b61021e6103d336600461123e565b610831565b61021e6103e636600461126a565b610a58565b61021e6103f936600461126a565b610ae3565b6000546001600160a01b0316610251565b600d54610251906001600160a01b031681565b6102a56104303660046111d7565b60056020526000908152604090205481565b61021e6104503660046111f9565b610b13565b61021e6104633660046111d7565b610f90565b61047b6104763660046111f9565b610fba565b60408051928352602083019190915201610235565b61047b61049e3660046111f9565b6004602052600090815260409020805460019091015482565b61021e6104c53660046111d7565b61100f565b6102a56104d83660046111d7565b6001600160a01b031660009081526005602052604090205490565b6102a56105013660046111d7565b60066020526000908152604090205481565b6102a56105213660046111d7565b60096020526000908152604090205481565b600c54610251906001600160a01b031681565b6102a56105543660046111d7565b6001600160a01b031660009081526007602052604090205490565b6102a5600a5481565b61021e6105863660046111d7565b611039565b610593611074565b6040805180820182528381526020808201848152600a8054600090815260049093529382209251835551600190920191909155815491906105d3836112aa565b91905055505050565b60606000600a5467ffffffffffffffff8111156105fb576105fb6112c3565b60405190808252806020026020018201604052801561064057816020015b60408051808201909152600080825260208201528152602001906001900390816106195790505b50905060005b600a548110156106a8576000818152600460209081526040918290208251808401909352805483526001015490820152825183908390811061068a5761068a6112d9565b602002602001018190525080806106a0906112aa565b915050610646565b50919050565b6106b6611074565b600c80546001600160a01b0319166001600160a01b0392909216919091179055565b6106e0611074565b60025460405163a9059cbb60e01b8152336004820152602481018390526001600160a01b039091169063a9059cbb906044016020604051808303816000875af1158015610731573d6000803e3d6000fd5b505050506040513d601f19601f8201168201806040525081019061075591906112ef565b61079a5760405162461bcd60e51b815260206004820152601160248201527015da5d1a191c985dd85b0819985a5b1959607a1b60448201526064015b60405180910390fd5b50565b6107a5611074565b600c805460ff60a01b198116600160a01b9182900460ff1615909102179055565b6107ce611074565b6107d860006110a1565b565b6107e2611074565b600a5483106108035760405162461bcd60e51b815260040161079190611311565b6040805180820182529283526020808401928352600094855260049052909220905181559051600190910155565b6108396110f1565b610841611074565b600c54600160a01b900460ff16156108935760405162461bcd60e51b8152602060048201526015602482015274141d5c98da185cd95cc8185c99481cdd1bdc1c1959605a1b6044820152606401610791565b600a5482106108b45760405162461bcd60e51b815260040161079190611311565b60008281526004602090815260408083208151808301835281548152600190910154818401526001600160a01b0385168452600590925290912054815111156109135780516001600160a01b0383166000908152600560205260409020555b600354602082015160405163d87326a160e01b81526001600160a01b038581166004830152602482019290925291169063d87326a190604401600060405180830381600087803b15801561096657600080fd5b505af115801561097a573d6000803e3d6000fd5b5050825161098c925090506002611341565b6001600160a01b038316600090815260076020526040812080549091906109b490849061135e565b90915550506020808201516001600160a01b0384166000908152600890925260409091205580516109e6906002611341565b6001600160a01b0383166000818152600960209081526040918290209390935583518484015182518881529485019190915290830152907f5f8edcdbf72c804e8d920f578e63d46be5f80b89c2b25581d8d23d57508ef79f9060600160405180910390a250610a5460018055565b5050565b600d546001600160a01b03163314610ab25760405162461bcd60e51b815260206004820152601f60248201527f43616c6c6572206973206e6f7420746865207377617020636f6e7472616374006044820152606401610791565b6001600160a01b03821660009081526006602052604081208054839290610ada90849061135e565b90915550505050565b610aeb611074565b6001600160a01b03821660009081526008602052604081208054839290610ada90849061135e565b610b1b6110f1565b600c54600160a01b900460ff1615610b6d5760405162461bcd60e51b8152602060048201526015602482015274141d5c98da185cd95cc8185c99481cdd1bdc1c1959605a1b6044820152606401610791565b600a548110610b8e5760405162461bcd60e51b815260040161079190611311565b6000818152600460208181526040928390208351808501855281548082526001909201549281019290925260025493516323b872dd60e01b815233938101939093523060248401526044830152916001600160a01b0316906323b872dd906064016020604051808303816000875af1158015610c0e573d6000803e3d6000fd5b505050506040513d601f19601f82011682018060405250810190610c3291906112ef565b610c755760405162461bcd60e51b81526020600482015260146024820152731554d115081d1c985b9cd9995c8819985a5b195960621b6044820152606401610791565b3360009081526005602052604090205481511115610ca0578051336000908152600560205260409020555b80516000906103e890610cb4906064611341565b610cbe9190611371565b90506000818360000151610cd29190611393565b600254600b5460405163a9059cbb60e01b81526001600160a01b03918216600482015260248101869052929350169063a9059cbb906044016020604051808303816000875af1158015610d29573d6000803e3d6000fd5b505050506040513d601f19601f82011682018060405250810190610d4d91906112ef565b610d995760405162461bcd60e51b815260206004820181905260248201527f5472616e7366657220746f2070726f6a656374206f776e6572206661696c65646044820152606401610791565b600254600c5460405163a9059cbb60e01b81526001600160a01b0391821660048201526024810184905291169063a9059cbb906044016020604051808303816000875af1158015610dee573d6000803e3d6000fd5b505050506040513d601f19601f82011682018060405250810190610e1291906112ef565b610e695760405162461bcd60e51b815260206004820152602260248201527f5472616e7366657220746f20616e6f746865722061646472657373206661696c604482015261195960f21b6064820152608401610791565b600354602084015160405163065cd85d60e01b815233600482015260248101919091526001600160a01b039091169063065cd85d90604401600060405180830381600087803b158015610ebb57600080fd5b505af1158015610ecf573d6000803e3d6000fd5b50508451610ee1925090506002611341565b3360009081526007602052604081208054909190610f0090849061135e565b909155505060208084015133600090815260089092526040909120558251610f29906002611341565b336000818152600960209081526040918290209390935585518684015182518981529485019190915290830152907f129a0377f5862974e93e873169fd1e8cf0681916d5b8b04338cb4224af00f0249060600160405180910390a250505061079a60018055565b610f98611074565b600b80546001600160a01b0319166001600160a01b0392909216919091179055565b600080600a548310610fde5760405162461bcd60e51b815260040161079190611311565b5050600090815260046020908152604091829020825180840190935280548084526001909101549290910182905291565b611017611074565b600d80546001600160a01b0319166001600160a01b0392909216919091179055565b611041611074565b6001600160a01b03811661106b57604051631e4fbdf760e01b815260006004820152602401610791565b61079a816110a1565b6000546001600160a01b031633146107d85760405163118cdaa760e01b8152336004820152602401610791565b600080546001600160a01b038381166001600160a01b0319831681178455604051919092169283917f8be0079c531659141344cd1fd0a4f28419497f9722a3daafe3b4186f6b6457e09190a35050565b6002600154036111435760405162461bcd60e51b815260206004820152601f60248201527f5265656e7472616e637947756172643a207265656e7472616e742063616c6c006044820152606401610791565b6002600155565b6000806040838503121561115d57600080fd5b50508035926020909101359150565b602080825282518282018190526000919060409081850190868401855b828110156111ae57815180518552860151868501529284019290850190600101611189565b5091979650505050505050565b80356001600160a01b03811681146111d257600080fd5b919050565b6000602082840312156111e957600080fd5b6111f2826111bb565b9392505050565b60006020828403121561120b57600080fd5b5035919050565b60008060006060848603121561122757600080fd5b505081359360208301359350604090920135919050565b6000806040838503121561125157600080fd5b82359150611261602084016111bb565b90509250929050565b6000806040838503121561127d57600080fd5b611286836111bb565b946020939093013593505050565b634e487b7160e01b600052601160045260246000fd5b6000600182016112bc576112bc611294565b5060010190565b634e487b7160e01b600052604160045260246000fd5b634e487b7160e01b600052603260045260246000fd5b60006020828403121561130157600080fd5b815180151581146111f257600080fd5b602080825260169082015275141858dad859d948191bd95cc81b9bdd08195e1a5cdd60521b604082015260600190565b808202811582820484141761135857611358611294565b92915050565b8082018082111561135857611358611294565b60008261138e57634e487b7160e01b600052601260045260246000fd5b500490565b818103818111156113585761135861129456fea264697066735822122095726b43de63c8f856e6de7d4975f36b005230bb81852a054236cf6ffa93a40b64736f6c63430008140033",
			"opcodes": "PUSH1 0x80 PUSH1 0x40 MSTORE PUSH1 0xC DUP1 SLOAD PUSH1 0xFF PUSH1 0xA0 SHL NOT AND SWAP1 SSTORE CALLVALUE DUP1 ISZERO PUSH3 0x1E JUMPI PUSH1 0x0 DUP1 REVERT JUMPDEST POP PUSH1 0x40 MLOAD PUSH3 0x1582 CODESIZE SUB DUP1 PUSH3 0x1582 DUP4 CODECOPY DUP2 ADD PUSH1 0x40 DUP2 SWAP1 MSTORE PUSH3 0x41 SWAP2 PUSH3 0x139 JUMP JUMPDEST CALLER DUP1 PUSH3 0x68 JUMPI PUSH1 0x40 MLOAD PUSH4 0x1E4FBDF7 PUSH1 0xE0 SHL DUP2 MSTORE PUSH1 0x0 PUSH1 0x4 DUP3 ADD MSTORE PUSH1 0x24 ADD PUSH1 0x40 MLOAD DUP1 SWAP2 SUB SWAP1 REVERT JUMPDEST PUSH3 0x73 DUP2 PUSH3 0xCC JUMP JUMPDEST POP PUSH1 0x1 DUP1 SSTORE PUSH1 0x2 DUP1 SLOAD PUSH1 0x1 PUSH1 0x1 PUSH1 0xA0 SHL SUB SWAP6 DUP7 AND PUSH1 0x1 PUSH1 0x1 PUSH1 0xA0 SHL SUB NOT SWAP2 DUP3 AND OR SWAP1 SWAP2 SSTORE PUSH1 0x3 DUP1 SLOAD SWAP5 DUP7 AND SWAP5 DUP3 AND SWAP5 SWAP1 SWAP5 OR SWAP1 SWAP4 SSTORE PUSH1 0xB DUP1 SLOAD SWAP3 DUP6 AND SWAP3 DUP5 AND SWAP3 SWAP1 SWAP3 OR SWAP1 SWAP2 SSTORE PUSH1 0xC DUP1 SLOAD SWAP2 SWAP1 SWAP4 AND SWAP2 AND OR SWAP1 SSTORE PUSH3 0x196 JUMP JUMPDEST PUSH1 0x0 DUP1 SLOAD PUSH1 0x1 PUSH1 0x1 PUSH1 0xA0 SHL SUB DUP4 DUP2 AND PUSH1 0x1 PUSH1 0x1 PUSH1 0xA0 SHL SUB NOT DUP4 AND DUP2 OR DUP5 SSTORE PUSH1 0x40 MLOAD SWAP2 SWAP1 SWAP3 AND SWAP3 DUP4 SWAP2 PUSH32 0x8BE0079C531659141344CD1FD0A4F28419497F9722A3DAAFE3B4186F6B6457E0 SWAP2 SWAP1 LOG3 POP POP JUMP JUMPDEST DUP1 MLOAD PUSH1 0x1 PUSH1 0x1 PUSH1 0xA0 SHL SUB DUP2 AND DUP2 EQ PUSH3 0x134 JUMPI PUSH1 0x0 DUP1 REVERT JUMPDEST SWAP2 SWAP1 POP JUMP JUMPDEST PUSH1 0x0 DUP1 PUSH1 0x0 DUP1 PUSH1 0x80 DUP6 DUP8 SUB SLT ISZERO PUSH3 0x150 JUMPI PUSH1 0x0 DUP1 REVERT JUMPDEST PUSH3 0x15B DUP6 PUSH3 0x11C JUMP JUMPDEST SWAP4 POP PUSH3 0x16B PUSH1 0x20 DUP7 ADD PUSH3 0x11C JUMP JUMPDEST SWAP3 POP PUSH3 0x17B PUSH1 0x40 DUP7 ADD PUSH3 0x11C JUMP JUMPDEST SWAP2 POP PUSH3 0x18B PUSH1 0x60 DUP7 ADD PUSH3 0x11C JUMP JUMPDEST SWAP1 POP SWAP3 SWAP6 SWAP2 SWAP5 POP SWAP3 POP JUMP JUMPDEST PUSH2 0x13DC DUP1 PUSH3 0x1A6 PUSH1 0x0 CODECOPY PUSH1 0x0 RETURN INVALID PUSH1 0x80 PUSH1 0x40 MSTORE CALLVALUE DUP1 ISZERO PUSH2 0x10 JUMPI PUSH1 0x0 DUP1 REVERT JUMPDEST POP PUSH1 0x4 CALLDATASIZE LT PUSH2 0x206 JUMPI PUSH1 0x0 CALLDATALOAD PUSH1 0xE0 SHR DUP1 PUSH4 0x843F44F1 GT PUSH2 0x11A JUMPI DUP1 PUSH4 0xC216212A GT PUSH2 0xAD JUMPI DUP1 PUSH4 0xDB169BCE GT PUSH2 0x7C JUMPI DUP1 PUSH4 0xDB169BCE EQ PUSH2 0x513 JUMPI DUP1 PUSH4 0xE2DEB8B3 EQ PUSH2 0x533 JUMPI DUP1 PUSH4 0xE67777BA EQ PUSH2 0x546 JUMPI DUP1 PUSH4 0xEE0EBE0C EQ PUSH2 0x56F JUMPI DUP1 PUSH4 0xF2FDE38B EQ PUSH2 0x578 JUMPI PUSH1 0x0 DUP1 REVERT JUMPDEST DUP1 PUSH4 0xC216212A EQ PUSH2 0x490 JUMPI DUP1 PUSH4 0xD259AB42 EQ PUSH2 0x4B7 JUMPI DUP1 PUSH4 0xD491BAB8 EQ PUSH2 0x4CA JUMPI DUP1 PUSH4 0xDAA91F2E EQ PUSH2 0x4F3 JUMPI PUSH1 0x0 DUP1 REVERT JUMPDEST DUP1 PUSH4 0x91E01DCB GT PUSH2 0xE9 JUMPI DUP1 PUSH4 0x91E01DCB EQ PUSH2 0x422 JUMPI DUP1 PUSH4 0xA3D5ECB7 EQ PUSH2 0x442 JUMPI DUP1 PUSH4 0xB20671BA EQ PUSH2 0x455 JUMPI DUP1 PUSH4 0xB99DFE18 EQ PUSH2 0x468 JUMPI PUSH1 0x0 DUP1 REVERT JUMPDEST DUP1 PUSH4 0x843F44F1 EQ PUSH2 0x3D8 JUMPI DUP1 PUSH4 0x89B07243 EQ PUSH2 0x3EB JUMPI DUP1 PUSH4 0x8DA5CB5B EQ PUSH2 0x3FE JUMPI DUP1 PUSH4 0x8EA83031 EQ PUSH2 0x40F JUMPI PUSH1 0x0 DUP1 REVERT JUMPDEST DUP1 PUSH4 0x44A040F5 GT PUSH2 0x19D JUMPI DUP1 PUSH4 0x63A599A4 GT PUSH2 0x16C JUMPI DUP1 PUSH4 0x63A599A4 EQ PUSH2 0x366 JUMPI DUP1 PUSH4 0x645A8A56 EQ PUSH2 0x38A JUMPI DUP1 PUSH4 0x715018A6 EQ PUSH2 0x3AA JUMPI DUP1 PUSH4 0x76E95F6B EQ PUSH2 0x3B2 JUMPI DUP1 PUSH4 0x7D42BD14 EQ PUSH2 0x3C5 JUMPI PUSH1 0x0 DUP1 REVERT JUMPDEST DUP1 PUSH4 0x44A040F5 EQ PUSH2 0x2EC JUMPI DUP1 PUSH4 0x4B3E1333 EQ PUSH2 0x315 JUMPI DUP1 PUSH4 0x4B7AAC94 EQ PUSH2 0x335 JUMPI DUP1 PUSH4 0x56582BF9 EQ PUSH2 0x33D JUMPI PUSH1 0x0 DUP1 REVERT JUMPDEST DUP1 PUSH4 0x292AFE23 GT PUSH2 0x1D9 JUMPI DUP1 PUSH4 0x292AFE23 EQ PUSH2 0x27C JUMPI DUP1 PUSH4 0x2F48AB7D EQ PUSH2 0x2B3 JUMPI DUP1 PUSH4 0x3177290C EQ PUSH2 0x2C6 JUMPI DUP1 PUSH4 0x3EA521EF EQ PUSH2 0x2D9 JUMPI PUSH1 0x0 DUP1 REVERT JUMPDEST DUP1 PUSH4 0x6CE7029 EQ PUSH2 0x20B JUMPI DUP1 PUSH4 0xA421F0F EQ PUSH2 0x220 JUMPI DUP1 PUSH4 0xCC56602 EQ PUSH2 0x23E JUMPI DUP1 PUSH4 0x1C081504 EQ PUSH2 0x269 JUMPI JUMPDEST PUSH1 0x0 DUP1 REVERT JUMPDEST PUSH2 0x21E PUSH2 0x219 CALLDATASIZE PUSH1 0x4 PUSH2 0x114A JUMP JUMPDEST PUSH2 0x58B JUMP JUMPDEST STOP JUMPDEST PUSH2 0x228 PUSH2 0x5DC JUMP JUMPDEST PUSH1 0x40 MLOAD PUSH2 0x235 SWAP2 SWAP1 PUSH2 0x116C JUMP JUMPDEST PUSH1 0x40 MLOAD DUP1 SWAP2 SUB SWAP1 RETURN JUMPDEST PUSH1 0x3 SLOAD PUSH2 0x251 SWAP1 PUSH1 0x1 PUSH1 0x1 PUSH1 0xA0 SHL SUB AND DUP2 JUMP JUMPDEST PUSH1 0x40 MLOAD PUSH1 0x1 PUSH1 0x1 PUSH1 0xA0 SHL SUB SWAP1 SWAP2 AND DUP2 MSTORE PUSH1 0x20 ADD PUSH2 0x235 JUMP JUMPDEST PUSH1 0xB SLOAD PUSH2 0x251 SWAP1 PUSH1 0x1 PUSH1 0x1 PUSH1 0xA0 SHL SUB AND DUP2 JUMP JUMPDEST PUSH2 0x2A5 PUSH2 0x28A CALLDATASIZE PUSH1 0x4 PUSH2 0x11D7 JUMP JUMPDEST PUSH1 0x1 PUSH1 0x1 PUSH1 0xA0 SHL SUB AND PUSH1 0x0 SWAP1 DUP2 MSTORE PUSH1 0x9 PUSH1 0x20 MSTORE PUSH1 0x40 SWAP1 KECCAK256 SLOAD SWAP1 JUMP JUMPDEST PUSH1 0x40 MLOAD SWAP1 DUP2 MSTORE PUSH1 0x20 ADD PUSH2 0x235 JUMP JUMPDEST PUSH1 0x2 SLOAD PUSH2 0x251 SWAP1 PUSH1 0x1 PUSH1 0x1 PUSH1 0xA0 SHL SUB AND DUP2 JUMP JUMPDEST PUSH2 0x21E PUSH2 0x2D4 CALLDATASIZE PUSH1 0x4 PUSH2 0x11D7 JUMP JUMPDEST PUSH2 0x6AE JUMP JUMPDEST PUSH2 0x21E PUSH2 0x2E7 CALLDATASIZE PUSH1 0x4 PUSH2 0x11F9 JUMP JUMPDEST PUSH2 0x6D8 JUMP JUMPDEST PUSH2 0x2A5 PUSH2 0x2FA CALLDATASIZE PUSH1 0x4 PUSH2 0x11D7 JUMP JUMPDEST PUSH1 0x1 PUSH1 0x1 PUSH1 0xA0 SHL SUB AND PUSH1 0x0 SWAP1 DUP2 MSTORE PUSH1 0x8 PUSH1 0x20 MSTORE PUSH1 0x40 SWAP1 KECCAK256 SLOAD SWAP1 JUMP JUMPDEST PUSH2 0x2A5 PUSH2 0x323 CALLDATASIZE PUSH1 0x4 PUSH2 0x11D7 JUMP JUMPDEST PUSH1 0x7 PUSH1 0x20 MSTORE PUSH1 0x0 SWAP1 DUP2 MSTORE PUSH1 0x40 SWAP1 KECCAK256 SLOAD DUP2 JUMP JUMPDEST PUSH2 0x21E PUSH2 0x79D JUMP JUMPDEST PUSH2 0x2A5 PUSH2 0x34B CALLDATASIZE PUSH1 0x4 PUSH2 0x11D7 JUMP JUMPDEST PUSH1 0x1 PUSH1 0x1 PUSH1 0xA0 SHL SUB AND PUSH1 0x0 SWAP1 DUP2 MSTORE PUSH1 0x6 PUSH1 0x20 MSTORE PUSH1 0x40 SWAP1 KECCAK256 SLOAD SWAP1 JUMP JUMPDEST PUSH1 0xC SLOAD PUSH2 0x37A SWAP1 PUSH1 0x1 PUSH1 0xA0 SHL SWAP1 DIV PUSH1 0xFF AND DUP2 JUMP JUMPDEST PUSH1 0x40 MLOAD SWAP1 ISZERO ISZERO DUP2 MSTORE PUSH1 0x20 ADD PUSH2 0x235 JUMP JUMPDEST PUSH2 0x2A5 PUSH2 0x398 CALLDATASIZE PUSH1 0x4 PUSH2 0x11D7 JUMP JUMPDEST PUSH1 0x8 PUSH1 0x20 MSTORE PUSH1 0x0 SWAP1 DUP2 MSTORE PUSH1 0x40 SWAP1 KECCAK256 SLOAD DUP2 JUMP JUMPDEST PUSH2 0x21E PUSH2 0x7C6 JUMP JUMPDEST PUSH2 0x21E PUSH2 0x3C0 CALLDATASIZE PUSH1 0x4 PUSH2 0x1212 JUMP JUMPDEST PUSH2 0x7DA JUMP JUMPDEST PUSH2 0x21E PUSH2 0x3D3 CALLDATASIZE PUSH1 0x4 PUSH2 0x123E JUMP JUMPDEST PUSH2 0x831 JUMP JUMPDEST PUSH2 0x21E PUSH2 0x3E6 CALLDATASIZE PUSH1 0x4 PUSH2 0x126A JUMP JUMPDEST PUSH2 0xA58 JUMP JUMPDEST PUSH2 0x21E PUSH2 0x3F9 CALLDATASIZE PUSH1 0x4 PUSH2 0x126A JUMP JUMPDEST PUSH2 0xAE3 JUMP JUMPDEST PUSH1 0x0 SLOAD PUSH1 0x1 PUSH1 0x1 PUSH1 0xA0 SHL SUB AND PUSH2 0x251 JUMP JUMPDEST PUSH1 0xD SLOAD PUSH2 0x251 SWAP1 PUSH1 0x1 PUSH1 0x1 PUSH1 0xA0 SHL SUB AND DUP2 JUMP JUMPDEST PUSH2 0x2A5 PUSH2 0x430 CALLDATASIZE PUSH1 0x4 PUSH2 0x11D7 JUMP JUMPDEST PUSH1 0x5 PUSH1 0x20 MSTORE PUSH1 0x0 SWAP1 DUP2 MSTORE PUSH1 0x40 SWAP1 KECCAK256 SLOAD DUP2 JUMP JUMPDEST PUSH2 0x21E PUSH2 0x450 CALLDATASIZE PUSH1 0x4 PUSH2 0x11F9 JUMP JUMPDEST PUSH2 0xB13 JUMP JUMPDEST PUSH2 0x21E PUSH2 0x463 CALLDATASIZE PUSH1 0x4 PUSH2 0x11D7 JUMP JUMPDEST PUSH2 0xF90 JUMP JUMPDEST PUSH2 0x47B PUSH2 0x476 CALLDATASIZE PUSH1 0x4 PUSH2 0x11F9 JUMP JUMPDEST PUSH2 0xFBA JUMP JUMPDEST PUSH1 0x40 DUP1 MLOAD SWAP3 DUP4 MSTORE PUSH1 0x20 DUP4 ADD SWAP2 SWAP1 SWAP2 MSTORE ADD PUSH2 0x235 JUMP JUMPDEST PUSH2 0x47B PUSH2 0x49E CALLDATASIZE PUSH1 0x4 PUSH2 0x11F9 JUMP JUMPDEST PUSH1 0x4 PUSH1 0x20 MSTORE PUSH1 0x0 SWAP1 DUP2 MSTORE PUSH1 0x40 SWAP1 KECCAK256 DUP1 SLOAD PUSH1 0x1 SWAP1 SWAP2 ADD SLOAD DUP3 JUMP JUMPDEST PUSH2 0x21E PUSH2 0x4C5 CALLDATASIZE PUSH1 0x4 PUSH2 0x11D7 JUMP JUMPDEST PUSH2 0x100F JUMP JUMPDEST PUSH2 0x2A5 PUSH2 0x4D8 CALLDATASIZE PUSH1 0x4 PUSH2 0x11D7 JUMP JUMPDEST PUSH1 0x1 PUSH1 0x1 PUSH1 0xA0 SHL SUB AND PUSH1 0x0 SWAP1 DUP2 MSTORE PUSH1 0x5 PUSH1 0x20 MSTORE PUSH1 0x40 SWAP1 KECCAK256 SLOAD SWAP1 JUMP JUMPDEST PUSH2 0x2A5 PUSH2 0x501 CALLDATASIZE PUSH1 0x4 PUSH2 0x11D7 JUMP JUMPDEST PUSH1 0x6 PUSH1 0x20 MSTORE PUSH1 0x0 SWAP1 DUP2 MSTORE PUSH1 0x40 SWAP1 KECCAK256 SLOAD DUP2 JUMP JUMPDEST PUSH2 0x2A5 PUSH2 0x521 CALLDATASIZE PUSH1 0x4 PUSH2 0x11D7 JUMP JUMPDEST PUSH1 0x9 PUSH1 0x20 MSTORE PUSH1 0x0 SWAP1 DUP2 MSTORE PUSH1 0x40 SWAP1 KECCAK256 SLOAD DUP2 JUMP JUMPDEST PUSH1 0xC SLOAD PUSH2 0x251 SWAP1 PUSH1 0x1 PUSH1 0x1 PUSH1 0xA0 SHL SUB AND DUP2 JUMP JUMPDEST PUSH2 0x2A5 PUSH2 0x554 CALLDATASIZE PUSH1 0x4 PUSH2 0x11D7 JUMP JUMPDEST PUSH1 0x1 PUSH1 0x1 PUSH1 0xA0 SHL SUB AND PUSH1 0x0 SWAP1 DUP2 MSTORE PUSH1 0x7 PUSH1 0x20 MSTORE PUSH1 0x40 SWAP1 KECCAK256 SLOAD SWAP1 JUMP JUMPDEST PUSH2 0x2A5 PUSH1 0xA SLOAD DUP2 JUMP JUMPDEST PUSH2 0x21E PUSH2 0x586 CALLDATASIZE PUSH1 0x4 PUSH2 0x11D7 JUMP JUMPDEST PUSH2 0x1039 JUMP JUMPDEST PUSH2 0x593 PUSH2 0x1074 JUMP JUMPDEST PUSH1 0x40 DUP1 MLOAD DUP1 DUP3 ADD DUP3 MSTORE DUP4 DUP2 MSTORE PUSH1 0x20 DUP1 DUP3 ADD DUP5 DUP2 MSTORE PUSH1 0xA DUP1 SLOAD PUSH1 0x0 SWAP1 DUP2 MSTORE PUSH1 0x4 SWAP1 SWAP4 MSTORE SWAP4 DUP3 KECCAK256 SWAP3 MLOAD DUP4 SSTORE MLOAD PUSH1 0x1 SWAP1 SWAP3 ADD SWAP2 SWAP1 SWAP2 SSTORE DUP2 SLOAD SWAP2 SWAP1 PUSH2 0x5D3 DUP4 PUSH2 0x12AA JUMP JUMPDEST SWAP2 SWAP1 POP SSTORE POP POP POP JUMP JUMPDEST PUSH1 0x60 PUSH1 0x0 PUSH1 0xA SLOAD PUSH8 0xFFFFFFFFFFFFFFFF DUP2 GT ISZERO PUSH2 0x5FB JUMPI PUSH2 0x5FB PUSH2 0x12C3 JUMP JUMPDEST PUSH1 0x40 MLOAD SWAP1 DUP1 DUP3 MSTORE DUP1 PUSH1 0x20 MUL PUSH1 0x20 ADD DUP3 ADD PUSH1 0x40 MSTORE DUP1 ISZERO PUSH2 0x640 JUMPI DUP2 PUSH1 0x20 ADD JUMPDEST PUSH1 0x40 DUP1 MLOAD DUP1 DUP3 ADD SWAP1 SWAP2 MSTORE PUSH1 0x0 DUP1 DUP3 MSTORE PUSH1 0x20 DUP3 ADD MSTORE DUP2 MSTORE PUSH1 0x20 ADD SWAP1 PUSH1 0x1 SWAP1 SUB SWAP1 DUP2 PUSH2 0x619 JUMPI SWAP1 POP JUMPDEST POP SWAP1 POP PUSH1 0x0 JUMPDEST PUSH1 0xA SLOAD DUP2 LT ISZERO PUSH2 0x6A8 JUMPI PUSH1 0x0 DUP2 DUP2 MSTORE PUSH1 0x4 PUSH1 0x20 SWAP1 DUP2 MSTORE PUSH1 0x40 SWAP2 DUP3 SWAP1 KECCAK256 DUP3 MLOAD DUP1 DUP5 ADD SWAP1 SWAP4 MSTORE DUP1 SLOAD DUP4 MSTORE PUSH1 0x1 ADD SLOAD SWAP1 DUP3 ADD MSTORE DUP3 MLOAD DUP4 SWAP1 DUP4 SWAP1 DUP2 LT PUSH2 0x68A JUMPI PUSH2 0x68A PUSH2 0x12D9 JUMP JUMPDEST PUSH1 0x20 MUL PUSH1 0x20 ADD ADD DUP2 SWAP1 MSTORE POP DUP1 DUP1 PUSH2 0x6A0 SWAP1 PUSH2 0x12AA JUMP JUMPDEST SWAP2 POP POP PUSH2 0x646 JUMP JUMPDEST POP SWAP2 SWAP1 POP JUMP JUMPDEST PUSH2 0x6B6 PUSH2 0x1074 JUMP JUMPDEST PUSH1 0xC DUP1 SLOAD PUSH1 0x1 PUSH1 0x1 PUSH1 0xA0 SHL SUB NOT AND PUSH1 0x1 PUSH1 0x1 PUSH1 0xA0 SHL SUB SWAP3 SWAP1 SWAP3 AND SWAP2 SWAP1 SWAP2 OR SWAP1 SSTORE JUMP JUMPDEST PUSH2 0x6E0 PUSH2 0x1074 JUMP JUMPDEST PUSH1 0x2 SLOAD PUSH1 0x40 MLOAD PUSH4 0xA9059CBB PUSH1 0xE0 SHL DUP2 MSTORE CALLER PUSH1 0x4 DUP3 ADD MSTORE PUSH1 0x24 DUP2 ADD DUP4 SWAP1 MSTORE PUSH1 0x1 PUSH1 0x1 PUSH1 0xA0 SHL SUB SWAP1 SWAP2 AND SWAP1 PUSH4 0xA9059CBB SWAP1 PUSH1 0x44 ADD PUSH1 0x20 PUSH1 0x40 MLOAD DUP1 DUP4 SUB DUP2 PUSH1 0x0 DUP8 GAS CALL ISZERO DUP1 ISZERO PUSH2 0x731 JUMPI RETURNDATASIZE PUSH1 0x0 DUP1 RETURNDATACOPY RETURNDATASIZE PUSH1 0x0 REVERT JUMPDEST POP POP POP POP PUSH1 0x40 MLOAD RETURNDATASIZE PUSH1 0x1F NOT PUSH1 0x1F DUP3 ADD AND DUP3 ADD DUP1 PUSH1 0x40 MSTORE POP DUP2 ADD SWAP1 PUSH2 0x755 SWAP2 SWAP1 PUSH2 0x12EF JUMP JUMPDEST PUSH2 0x79A JUMPI PUSH1 0x40 MLOAD PUSH3 0x461BCD PUSH1 0xE5 SHL DUP2 MSTORE PUSH1 0x20 PUSH1 0x4 DUP3 ADD MSTORE PUSH1 0x11 PUSH1 0x24 DUP3 ADD MSTORE PUSH17 0x15DA5D1A191C985DD85B0819985A5B1959 PUSH1 0x7A SHL PUSH1 0x44 DUP3 ADD MSTORE PUSH1 0x64 ADD JUMPDEST PUSH1 0x40 MLOAD DUP1 SWAP2 SUB SWAP1 REVERT JUMPDEST POP JUMP JUMPDEST PUSH2 0x7A5 PUSH2 0x1074 JUMP JUMPDEST PUSH1 0xC DUP1 SLOAD PUSH1 0xFF PUSH1 0xA0 SHL NOT DUP2 AND PUSH1 0x1 PUSH1 0xA0 SHL SWAP2 DUP3 SWAP1 DIV PUSH1 0xFF AND ISZERO SWAP1 SWAP2 MUL OR SWAP1 SSTORE JUMP JUMPDEST PUSH2 0x7CE PUSH2 0x1074 JUMP JUMPDEST PUSH2 0x7D8 PUSH1 0x0 PUSH2 0x10A1 JUMP JUMPDEST JUMP JUMPDEST PUSH2 0x7E2 PUSH2 0x1074 JUMP JUMPDEST PUSH1 0xA SLOAD DUP4 LT PUSH2 0x803 JUMPI PUSH1 0x40 MLOAD PUSH3 0x461BCD PUSH1 0xE5 SHL DUP2 MSTORE PUSH1 0x4 ADD PUSH2 0x791 SWAP1 PUSH2 0x1311 JUMP JUMPDEST PUSH1 0x40 DUP1 MLOAD DUP1 DUP3 ADD DUP3 MSTORE SWAP3 DUP4 MSTORE PUSH1 0x20 DUP1 DUP5 ADD SWAP3 DUP4 MSTORE PUSH1 0x0 SWAP5 DUP6 MSTORE PUSH1 0x4 SWAP1 MSTORE SWAP1 SWAP3 KECCAK256 SWAP1 MLOAD DUP2 SSTORE SWAP1 MLOAD PUSH1 0x1 SWAP1 SWAP2 ADD SSTORE JUMP JUMPDEST PUSH2 0x839 PUSH2 0x10F1 JUMP JUMPDEST PUSH2 0x841 PUSH2 0x1074 JUMP JUMPDEST PUSH1 0xC SLOAD PUSH1 0x1 PUSH1 0xA0 SHL SWAP1 DIV PUSH1 0xFF AND ISZERO PUSH2 0x893 JUMPI PUSH1 0x40 MLOAD PUSH3 0x461BCD PUSH1 0xE5 SHL DUP2 MSTORE PUSH1 0x20 PUSH1 0x4 DUP3 ADD MSTORE PUSH1 0x15 PUSH1 0x24 DUP3 ADD MSTORE PUSH21 0x141D5C98DA185CD95CC8185C99481CDD1BDC1C1959 PUSH1 0x5A SHL PUSH1 0x44 DUP3 ADD MSTORE PUSH1 0x64 ADD PUSH2 0x791 JUMP JUMPDEST PUSH1 0xA SLOAD DUP3 LT PUSH2 0x8B4 JUMPI PUSH1 0x40 MLOAD PUSH3 0x461BCD PUSH1 0xE5 SHL DUP2 MSTORE PUSH1 0x4 ADD PUSH2 0x791 SWAP1 PUSH2 0x1311 JUMP JUMPDEST PUSH1 0x0 DUP3 DUP2 MSTORE PUSH1 0x4 PUSH1 0x20 SWAP1 DUP2 MSTORE PUSH1 0x40 DUP1 DUP4 KECCAK256 DUP2 MLOAD DUP1 DUP4 ADD DUP4 MSTORE DUP2 SLOAD DUP2 MSTORE PUSH1 0x1 SWAP1 SWAP2 ADD SLOAD DUP2 DUP5 ADD MSTORE PUSH1 0x1 PUSH1 0x1 PUSH1 0xA0 SHL SUB DUP6 AND DUP5 MSTORE PUSH1 0x5 SWAP1 SWAP3 MSTORE SWAP1 SWAP2 KECCAK256 SLOAD DUP2 MLOAD GT ISZERO PUSH2 0x913 JUMPI DUP1 MLOAD PUSH1 0x1 PUSH1 0x1 PUSH1 0xA0 SHL SUB DUP4 AND PUSH1 0x0 SWAP1 DUP2 MSTORE PUSH1 0x5 PUSH1 0x20 MSTORE PUSH1 0x40 SWAP1 KECCAK256 SSTORE JUMPDEST PUSH1 0x3 SLOAD PUSH1 0x20 DUP3 ADD MLOAD PUSH1 0x40 MLOAD PUSH4 0xD87326A1 PUSH1 0xE0 SHL DUP2 MSTORE PUSH1 0x1 PUSH1 0x1 PUSH1 0xA0 SHL SUB DUP6 DUP2 AND PUSH1 0x4 DUP4 ADD MSTORE PUSH1 0x24 DUP3 ADD SWAP3 SWAP1 SWAP3 MSTORE SWAP2 AND SWAP1 PUSH4 0xD87326A1 SWAP1 PUSH1 0x44 ADD PUSH1 0x0 PUSH1 0x40 MLOAD DUP1 DUP4 SUB DUP2 PUSH1 0x0 DUP8 DUP1 EXTCODESIZE ISZERO DUP1 ISZERO PUSH2 0x966 JUMPI PUSH1 0x0 DUP1 REVERT JUMPDEST POP GAS CALL ISZERO DUP1 ISZERO PUSH2 0x97A JUMPI RETURNDATASIZE PUSH1 0x0 DUP1 RETURNDATACOPY RETURNDATASIZE PUSH1 0x0 REVERT JUMPDEST POP POP DUP3 MLOAD PUSH2 0x98C SWAP3 POP SWAP1 POP PUSH1 0x2 PUSH2 0x1341 JUMP JUMPDEST PUSH1 0x1 PUSH1 0x1 PUSH1 0xA0 SHL SUB DUP4 AND PUSH1 0x0 SWAP1 DUP2 MSTORE PUSH1 0x7 PUSH1 0x20 MSTORE PUSH1 0x40 DUP2 KECCAK256 DUP1 SLOAD SWAP1 SWAP2 SWAP1 PUSH2 0x9B4 SWAP1 DUP5 SWAP1 PUSH2 0x135E JUMP JUMPDEST SWAP1 SWAP2 SSTORE POP POP PUSH1 0x20 DUP1 DUP3 ADD MLOAD PUSH1 0x1 PUSH1 0x1 PUSH1 0xA0 SHL SUB DUP5 AND PUSH1 0x0 SWAP1 DUP2 MSTORE PUSH1 0x8 SWAP1 SWAP3 MSTORE PUSH1 0x40 SWAP1 SWAP2 KECCAK256 SSTORE DUP1 MLOAD PUSH2 0x9E6 SWAP1 PUSH1 0x2 PUSH2 0x1341 JUMP JUMPDEST PUSH1 0x1 PUSH1 0x1 PUSH1 0xA0 SHL SUB DUP4 AND PUSH1 0x0 DUP2 DUP2 MSTORE PUSH1 0x9 PUSH1 0x20 SWAP1 DUP2 MSTORE PUSH1 0x40 SWAP2 DUP3 SWAP1 KECCAK256 SWAP4 SWAP1 SWAP4 SSTORE DUP4 MLOAD DUP5 DUP5 ADD MLOAD DUP3 MLOAD DUP9 DUP2 MSTORE SWAP5 DUP6 ADD SWAP2 SWAP1 SWAP2 MSTORE SWAP1 DUP4 ADD MSTORE SWAP1 PUSH32 0x5F8EDCDBF72C804E8D920F578E63D46BE5F80B89C2B25581D8D23D57508EF79F SWAP1 PUSH1 0x60 ADD PUSH1 0x40 MLOAD DUP1 SWAP2 SUB SWAP1 LOG2 POP PUSH2 0xA54 PUSH1 0x1 DUP1 SSTORE JUMP JUMPDEST POP POP JUMP JUMPDEST PUSH1 0xD SLOAD PUSH1 0x1 PUSH1 0x1 PUSH1 0xA0 SHL SUB AND CALLER EQ PUSH2 0xAB2 JUMPI PUSH1 0x40 MLOAD PUSH3 0x461BCD PUSH1 0xE5 SHL DUP2 MSTORE PUSH1 0x20 PUSH1 0x4 DUP3 ADD MSTORE PUSH1 0x1F PUSH1 0x24 DUP3 ADD MSTORE PUSH32 0x43616C6C6572206973206E6F7420746865207377617020636F6E747261637400 PUSH1 0x44 DUP3 ADD MSTORE PUSH1 0x64 ADD PUSH2 0x791 JUMP JUMPDEST PUSH1 0x1 PUSH1 0x1 PUSH1 0xA0 SHL SUB DUP3 AND PUSH1 0x0 SWAP1 DUP2 MSTORE PUSH1 0x6 PUSH1 0x20 MSTORE PUSH1 0x40 DUP2 KECCAK256 DUP1 SLOAD DUP4 SWAP3 SWAP1 PUSH2 0xADA SWAP1 DUP5 SWAP1 PUSH2 0x135E JUMP JUMPDEST SWAP1 SWAP2 SSTORE POP POP POP POP JUMP JUMPDEST PUSH2 0xAEB PUSH2 0x1074 JUMP JUMPDEST PUSH1 0x1 PUSH1 0x1 PUSH1 0xA0 SHL SUB DUP3 AND PUSH1 0x0 SWAP1 DUP2 MSTORE PUSH1 0x8 PUSH1 0x20 MSTORE PUSH1 0x40 DUP2 KECCAK256 DUP1 SLOAD DUP4 SWAP3 SWAP1 PUSH2 0xADA SWAP1 DUP5 SWAP1 PUSH2 0x135E JUMP JUMPDEST PUSH2 0xB1B PUSH2 0x10F1 JUMP JUMPDEST PUSH1 0xC SLOAD PUSH1 0x1 PUSH1 0xA0 SHL SWAP1 DIV PUSH1 0xFF AND ISZERO PUSH2 0xB6D JUMPI PUSH1 0x40 MLOAD PUSH3 0x461BCD PUSH1 0xE5 SHL DUP2 MSTORE PUSH1 0x20 PUSH1 0x4 DUP3 ADD MSTORE PUSH1 0x15 PUSH1 0x24 DUP3 ADD MSTORE PUSH21 0x141D5C98DA185CD95CC8185C99481CDD1BDC1C1959 PUSH1 0x5A SHL PUSH1 0x44 DUP3 ADD MSTORE PUSH1 0x64 ADD PUSH2 0x791 JUMP JUMPDEST PUSH1 0xA SLOAD DUP2 LT PUSH2 0xB8E JUMPI PUSH1 0x40 MLOAD PUSH3 0x461BCD PUSH1 0xE5 SHL DUP2 MSTORE PUSH1 0x4 ADD PUSH2 0x791 SWAP1 PUSH2 0x1311 JUMP JUMPDEST PUSH1 0x0 DUP2 DUP2 MSTORE PUSH1 0x4 PUSH1 0x20 DUP2 DUP2 MSTORE PUSH1 0x40 SWAP3 DUP4 SWAP1 KECCAK256 DUP4 MLOAD DUP1 DUP6 ADD DUP6 MSTORE DUP2 SLOAD DUP1 DUP3 MSTORE PUSH1 0x1 SWAP1 SWAP3 ADD SLOAD SWAP3 DUP2 ADD SWAP3 SWAP1 SWAP3 MSTORE PUSH1 0x2 SLOAD SWAP4 MLOAD PUSH4 0x23B872DD PUSH1 0xE0 SHL DUP2 MSTORE CALLER SWAP4 DUP2 ADD SWAP4 SWAP1 SWAP4 MSTORE ADDRESS PUSH1 0x24 DUP5 ADD MSTORE PUSH1 0x44 DUP4 ADD MSTORE SWAP2 PUSH1 0x1 PUSH1 0x1 PUSH1 0xA0 SHL SUB AND SWAP1 PUSH4 0x23B872DD SWAP1 PUSH1 0x64 ADD PUSH1 0x20 PUSH1 0x40 MLOAD DUP1 DUP4 SUB DUP2 PUSH1 0x0 DUP8 GAS CALL ISZERO DUP1 ISZERO PUSH2 0xC0E JUMPI RETURNDATASIZE PUSH1 0x0 DUP1 RETURNDATACOPY RETURNDATASIZE PUSH1 0x0 REVERT JUMPDEST POP POP POP POP PUSH1 0x40 MLOAD RETURNDATASIZE PUSH1 0x1F NOT PUSH1 0x1F DUP3 ADD AND DUP3 ADD DUP1 PUSH1 0x40 MSTORE POP DUP2 ADD SWAP1 PUSH2 0xC32 SWAP2 SWAP1 PUSH2 0x12EF JUMP JUMPDEST PUSH2 0xC75 JUMPI PUSH1 0x40 MLOAD PUSH3 0x461BCD PUSH1 0xE5 SHL DUP2 MSTORE PUSH1 0x20 PUSH1 0x4 DUP3 ADD MSTORE PUSH1 0x14 PUSH1 0x24 DUP3 ADD MSTORE PUSH20 0x1554D115081D1C985B9CD9995C8819985A5B1959 PUSH1 0x62 SHL PUSH1 0x44 DUP3 ADD MSTORE PUSH1 0x64 ADD PUSH2 0x791 JUMP JUMPDEST CALLER PUSH1 0x0 SWAP1 DUP2 MSTORE PUSH1 0x5 PUSH1 0x20 MSTORE PUSH1 0x40 SWAP1 KECCAK256 SLOAD DUP2 MLOAD GT ISZERO PUSH2 0xCA0 JUMPI DUP1 MLOAD CALLER PUSH1 0x0 SWAP1 DUP2 MSTORE PUSH1 0x5 PUSH1 0x20 MSTORE PUSH1 0x40 SWAP1 KECCAK256 SSTORE JUMPDEST DUP1 MLOAD PUSH1 0x0 SWAP1 PUSH2 0x3E8 SWAP1 PUSH2 0xCB4 SWAP1 PUSH1 0x64 PUSH2 0x1341 JUMP JUMPDEST PUSH2 0xCBE SWAP2 SWAP1 PUSH2 0x1371 JUMP JUMPDEST SWAP1 POP PUSH1 0x0 DUP2 DUP4 PUSH1 0x0 ADD MLOAD PUSH2 0xCD2 SWAP2 SWAP1 PUSH2 0x1393 JUMP JUMPDEST PUSH1 0x2 SLOAD PUSH1 0xB SLOAD PUSH1 0x40 MLOAD PUSH4 0xA9059CBB PUSH1 0xE0 SHL DUP2 MSTORE PUSH1 0x1 PUSH1 0x1 PUSH1 0xA0 SHL SUB SWAP2 DUP3 AND PUSH1 0x4 DUP3 ADD MSTORE PUSH1 0x24 DUP2 ADD DUP7 SWAP1 MSTORE SWAP3 SWAP4 POP AND SWAP1 PUSH4 0xA9059CBB SWAP1 PUSH1 0x44 ADD PUSH1 0x20 PUSH1 0x40 MLOAD DUP1 DUP4 SUB DUP2 PUSH1 0x0 DUP8 GAS CALL ISZERO DUP1 ISZERO PUSH2 0xD29 JUMPI RETURNDATASIZE PUSH1 0x0 DUP1 RETURNDATACOPY RETURNDATASIZE PUSH1 0x0 REVERT JUMPDEST POP POP POP POP PUSH1 0x40 MLOAD RETURNDATASIZE PUSH1 0x1F NOT PUSH1 0x1F DUP3 ADD AND DUP3 ADD DUP1 PUSH1 0x40 MSTORE POP DUP2 ADD SWAP1 PUSH2 0xD4D SWAP2 SWAP1 PUSH2 0x12EF JUMP JUMPDEST PUSH2 0xD99 JUMPI PUSH1 0x40 MLOAD PUSH3 0x461BCD PUSH1 0xE5 SHL DUP2 MSTORE PUSH1 0x20 PUSH1 0x4 DUP3 ADD DUP2 SWAP1 MSTORE PUSH1 0x24 DUP3 ADD MSTORE PUSH32 0x5472616E7366657220746F2070726F6A656374206F776E6572206661696C6564 PUSH1 0x44 DUP3 ADD MSTORE PUSH1 0x64 ADD PUSH2 0x791 JUMP JUMPDEST PUSH1 0x2 SLOAD PUSH1 0xC SLOAD PUSH1 0x40 MLOAD PUSH4 0xA9059CBB PUSH1 0xE0 SHL DUP2 MSTORE PUSH1 0x1 PUSH1 0x1 PUSH1 0xA0 SHL SUB SWAP2 DUP3 AND PUSH1 0x4 DUP3 ADD MSTORE PUSH1 0x24 DUP2 ADD DUP5 SWAP1 MSTORE SWAP2 AND SWAP1 PUSH4 0xA9059CBB SWAP1 PUSH1 0x44 ADD PUSH1 0x20 PUSH1 0x40 MLOAD DUP1 DUP4 SUB DUP2 PUSH1 0x0 DUP8 GAS CALL ISZERO DUP1 ISZERO PUSH2 0xDEE JUMPI RETURNDATASIZE PUSH1 0x0 DUP1 RETURNDATACOPY RETURNDATASIZE PUSH1 0x0 REVERT JUMPDEST POP POP POP POP PUSH1 0x40 MLOAD RETURNDATASIZE PUSH1 0x1F NOT PUSH1 0x1F DUP3 ADD AND DUP3 ADD DUP1 PUSH1 0x40 MSTORE POP DUP2 ADD SWAP1 PUSH2 0xE12 SWAP2 SWAP1 PUSH2 0x12EF JUMP JUMPDEST PUSH2 0xE69 JUMPI PUSH1 0x40 MLOAD PUSH3 0x461BCD PUSH1 0xE5 SHL DUP2 MSTORE PUSH1 0x20 PUSH1 0x4 DUP3 ADD MSTORE PUSH1 0x22 PUSH1 0x24 DUP3 ADD MSTORE PUSH32 0x5472616E7366657220746F20616E6F746865722061646472657373206661696C PUSH1 0x44 DUP3 ADD MSTORE PUSH2 0x1959 PUSH1 0xF2 SHL PUSH1 0x64 DUP3 ADD MSTORE PUSH1 0x84 ADD PUSH2 0x791 JUMP JUMPDEST PUSH1 0x3 SLOAD PUSH1 0x20 DUP5 ADD MLOAD PUSH1 0x40 MLOAD PUSH4 0x65CD85D PUSH1 0xE0 SHL DUP2 MSTORE CALLER PUSH1 0x4 DUP3 ADD MSTORE PUSH1 0x24 DUP2 ADD SWAP2 SWAP1 SWAP2 MSTORE PUSH1 0x1 PUSH1 0x1 PUSH1 0xA0 SHL SUB SWAP1 SWAP2 AND SWAP1 PUSH4 0x65CD85D SWAP1 PUSH1 0x44 ADD PUSH1 0x0 PUSH1 0x40 MLOAD DUP1 DUP4 SUB DUP2 PUSH1 0x0 DUP8 DUP1 EXTCODESIZE ISZERO DUP1 ISZERO PUSH2 0xEBB JUMPI PUSH1 0x0 DUP1 REVERT JUMPDEST POP GAS CALL ISZERO DUP1 ISZERO PUSH2 0xECF JUMPI RETURNDATASIZE PUSH1 0x0 DUP1 RETURNDATACOPY RETURNDATASIZE PUSH1 0x0 REVERT JUMPDEST POP POP DUP5 MLOAD PUSH2 0xEE1 SWAP3 POP SWAP1 POP PUSH1 0x2 PUSH2 0x1341 JUMP JUMPDEST CALLER PUSH1 0x0 SWAP1 DUP2 MSTORE PUSH1 0x7 PUSH1 0x20 MSTORE PUSH1 0x40 DUP2 KECCAK256 DUP1 SLOAD SWAP1 SWAP2 SWAP1 PUSH2 0xF00 SWAP1 DUP5 SWAP1 PUSH2 0x135E JUMP JUMPDEST SWAP1 SWAP2 SSTORE POP POP PUSH1 0x20 DUP1 DUP5 ADD MLOAD CALLER PUSH1 0x0 SWAP1 DUP2 MSTORE PUSH1 0x8 SWAP1 SWAP3 MSTORE PUSH1 0x40 SWAP1 SWAP2 KECCAK256 SSTORE DUP3 MLOAD PUSH2 0xF29 SWAP1 PUSH1 0x2 PUSH2 0x1341 JUMP JUMPDEST CALLER PUSH1 0x0 DUP2 DUP2 MSTORE PUSH1 0x9 PUSH1 0x20 SWAP1 DUP2 MSTORE PUSH1 0x40 SWAP2 DUP3 SWAP1 KECCAK256 SWAP4 SWAP1 SWAP4 SSTORE DUP6 MLOAD DUP7 DUP5 ADD MLOAD DUP3 MLOAD DUP10 DUP2 MSTORE SWAP5 DUP6 ADD SWAP2 SWAP1 SWAP2 MSTORE SWAP1 DUP4 ADD MSTORE SWAP1 PUSH32 0x129A0377F5862974E93E873169FD1E8CF0681916D5B8B04338CB4224AF00F024 SWAP1 PUSH1 0x60 ADD PUSH1 0x40 MLOAD DUP1 SWAP2 SUB SWAP1 LOG2 POP POP POP PUSH2 0x79A PUSH1 0x1 DUP1 SSTORE JUMP JUMPDEST PUSH2 0xF98 PUSH2 0x1074 JUMP JUMPDEST PUSH1 0xB DUP1 SLOAD PUSH1 0x1 PUSH1 0x1 PUSH1 0xA0 SHL SUB NOT AND PUSH1 0x1 PUSH1 0x1 PUSH1 0xA0 SHL SUB SWAP3 SWAP1 SWAP3 AND SWAP2 SWAP1 SWAP2 OR SWAP1 SSTORE JUMP JUMPDEST PUSH1 0x0 DUP1 PUSH1 0xA SLOAD DUP4 LT PUSH2 0xFDE JUMPI PUSH1 0x40 MLOAD PUSH3 0x461BCD PUSH1 0xE5 SHL DUP2 MSTORE PUSH1 0x4 ADD PUSH2 0x791 SWAP1 PUSH2 0x1311 JUMP JUMPDEST POP POP PUSH1 0x0 SWAP1 DUP2 MSTORE PUSH1 0x4 PUSH1 0x20 SWAP1 DUP2 MSTORE PUSH1 0x40 SWAP2 DUP3 SWAP1 KECCAK256 DUP3 MLOAD DUP1 DUP5 ADD SWAP1 SWAP4 MSTORE DUP1 SLOAD DUP1 DUP5 MSTORE PUSH1 0x1 SWAP1 SWAP2 ADD SLOAD SWAP3 SWAP1 SWAP2 ADD DUP3 SWAP1 MSTORE SWAP2 JUMP JUMPDEST PUSH2 0x1017 PUSH2 0x1074 JUMP JUMPDEST PUSH1 0xD DUP1 SLOAD PUSH1 0x1 PUSH1 0x1 PUSH1 0xA0 SHL SUB NOT AND PUSH1 0x1 PUSH1 0x1 PUSH1 0xA0 SHL SUB SWAP3 SWAP1 SWAP3 AND SWAP2 SWAP1 SWAP2 OR SWAP1 SSTORE JUMP JUMPDEST PUSH2 0x1041 PUSH2 0x1074 JUMP JUMPDEST PUSH1 0x1 PUSH1 0x1 PUSH1 0xA0 SHL SUB DUP2 AND PUSH2 0x106B JUMPI PUSH1 0x40 MLOAD PUSH4 0x1E4FBDF7 PUSH1 0xE0 SHL DUP2 MSTORE PUSH1 0x0 PUSH1 0x4 DUP3 ADD MSTORE PUSH1 0x24 ADD PUSH2 0x791 JUMP JUMPDEST PUSH2 0x79A DUP2 PUSH2 0x10A1 JUMP JUMPDEST PUSH1 0x0 SLOAD PUSH1 0x1 PUSH1 0x1 PUSH1 0xA0 SHL SUB AND CALLER EQ PUSH2 0x7D8 JUMPI PUSH1 0x40 MLOAD PUSH4 0x118CDAA7 PUSH1 0xE0 SHL DUP2 MSTORE CALLER PUSH1 0x4 DUP3 ADD MSTORE PUSH1 0x24 ADD PUSH2 0x791 JUMP JUMPDEST PUSH1 0x0 DUP1 SLOAD PUSH1 0x1 PUSH1 0x1 PUSH1 0xA0 SHL SUB DUP4 DUP2 AND PUSH1 0x1 PUSH1 0x1 PUSH1 0xA0 SHL SUB NOT DUP4 AND DUP2 OR DUP5 SSTORE PUSH1 0x40 MLOAD SWAP2 SWAP1 SWAP3 AND SWAP3 DUP4 SWAP2 PUSH32 0x8BE0079C531659141344CD1FD0A4F28419497F9722A3DAAFE3B4186F6B6457E0 SWAP2 SWAP1 LOG3 POP POP JUMP JUMPDEST PUSH1 0x2 PUSH1 0x1 SLOAD SUB PUSH2 0x1143 JUMPI PUSH1 0x40 MLOAD PUSH3 0x461BCD PUSH1 0xE5 SHL DUP2 MSTORE PUSH1 0x20 PUSH1 0x4 DUP3 ADD MSTORE PUSH1 0x1F PUSH1 0x24 DUP3 ADD MSTORE PUSH32 0x5265656E7472616E637947756172643A207265656E7472616E742063616C6C00 PUSH1 0x44 DUP3 ADD MSTORE PUSH1 0x64 ADD PUSH2 0x791 JUMP JUMPDEST PUSH1 0x2 PUSH1 0x1 SSTORE JUMP JUMPDEST PUSH1 0x0 DUP1 PUSH1 0x40 DUP4 DUP6 SUB SLT ISZERO PUSH2 0x115D JUMPI PUSH1 0x0 DUP1 REVERT JUMPDEST POP POP DUP1 CALLDATALOAD SWAP3 PUSH1 0x20 SWAP1 SWAP2 ADD CALLDATALOAD SWAP2 POP JUMP JUMPDEST PUSH1 0x20 DUP1 DUP3 MSTORE DUP3 MLOAD DUP3 DUP3 ADD DUP2 SWAP1 MSTORE PUSH1 0x0 SWAP2 SWAP1 PUSH1 0x40 SWAP1 DUP2 DUP6 ADD SWAP1 DUP7 DUP5 ADD DUP6 JUMPDEST DUP3 DUP2 LT ISZERO PUSH2 0x11AE JUMPI DUP2 MLOAD DUP1 MLOAD DUP6 MSTORE DUP7 ADD MLOAD DUP7 DUP6 ADD MSTORE SWAP3 DUP5 ADD SWAP3 SWAP1 DUP6 ADD SWAP1 PUSH1 0x1 ADD PUSH2 0x1189 JUMP JUMPDEST POP SWAP2 SWAP8 SWAP7 POP POP POP POP POP POP POP JUMP JUMPDEST DUP1 CALLDATALOAD PUSH1 0x1 PUSH1 0x1 PUSH1 0xA0 SHL SUB DUP2 AND DUP2 EQ PUSH2 0x11D2 JUMPI PUSH1 0x0 DUP1 REVERT JUMPDEST SWAP2 SWAP1 POP JUMP JUMPDEST PUSH1 0x0 PUSH1 0x20 DUP3 DUP5 SUB SLT ISZERO PUSH2 0x11E9 JUMPI PUSH1 0x0 DUP1 REVERT JUMPDEST PUSH2 0x11F2 DUP3 PUSH2 0x11BB JUMP JUMPDEST SWAP4 SWAP3 POP POP POP JUMP JUMPDEST PUSH1 0x0 PUSH1 0x20 DUP3 DUP5 SUB SLT ISZERO PUSH2 0x120B JUMPI PUSH1 0x0 DUP1 REVERT JUMPDEST POP CALLDATALOAD SWAP2 SWAP1 POP JUMP JUMPDEST PUSH1 0x0 DUP1 PUSH1 0x0 PUSH1 0x60 DUP5 DUP7 SUB SLT ISZERO PUSH2 0x1227 JUMPI PUSH1 0x0 DUP1 REVERT JUMPDEST POP POP DUP2 CALLDATALOAD SWAP4 PUSH1 0x20 DUP4 ADD CALLDATALOAD SWAP4 POP PUSH1 0x40 SWAP1 SWAP3 ADD CALLDATALOAD SWAP2 SWAP1 POP JUMP JUMPDEST PUSH1 0x0 DUP1 PUSH1 0x40 DUP4 DUP6 SUB SLT ISZERO PUSH2 0x1251 JUMPI PUSH1 0x0 DUP1 REVERT JUMPDEST DUP3 CALLDATALOAD SWAP2 POP PUSH2 0x1261 PUSH1 0x20 DUP5 ADD PUSH2 0x11BB JUMP JUMPDEST SWAP1 POP SWAP3 POP SWAP3 SWAP1 POP JUMP JUMPDEST PUSH1 0x0 DUP1 PUSH1 0x40 DUP4 DUP6 SUB SLT ISZERO PUSH2 0x127D JUMPI PUSH1 0x0 DUP1 REVERT JUMPDEST PUSH2 0x1286 DUP4 PUSH2 0x11BB JUMP JUMPDEST SWAP5 PUSH1 0x20 SWAP4 SWAP1 SWAP4 ADD CALLDATALOAD SWAP4 POP POP POP JUMP JUMPDEST PUSH4 0x4E487B71 PUSH1 0xE0 SHL PUSH1 0x0 MSTORE PUSH1 0x11 PUSH1 0x4 MSTORE PUSH1 0x24 PUSH1 0x0 REVERT JUMPDEST PUSH1 0x0 PUSH1 0x1 DUP3 ADD PUSH2 0x12BC JUMPI PUSH2 0x12BC PUSH2 0x1294 JUMP JUMPDEST POP PUSH1 0x1 ADD SWAP1 JUMP JUMPDEST PUSH4 0x4E487B71 PUSH1 0xE0 SHL PUSH1 0x0 MSTORE PUSH1 0x41 PUSH1 0x4 MSTORE PUSH1 0x24 PUSH1 0x0 REVERT JUMPDEST PUSH4 0x4E487B71 PUSH1 0xE0 SHL PUSH1 0x0 MSTORE PUSH1 0x32 PUSH1 0x4 MSTORE PUSH1 0x24 PUSH1 0x0 REVERT JUMPDEST PUSH1 0x0 PUSH1 0x20 DUP3 DUP5 SUB SLT ISZERO PUSH2 0x1301 JUMPI PUSH1 0x0 DUP1 REVERT JUMPDEST DUP2 MLOAD DUP1 ISZERO ISZERO DUP2 EQ PUSH2 0x11F2 JUMPI PUSH1 0x0 DUP1 REVERT JUMPDEST PUSH1 0x20 DUP1 DUP3 MSTORE PUSH1 0x16 SWAP1 DUP3 ADD MSTORE PUSH22 0x141858DAD859D948191BD95CC81B9BDD08195E1A5CDD PUSH1 0x52 SHL PUSH1 0x40 DUP3 ADD MSTORE PUSH1 0x60 ADD SWAP1 JUMP JUMPDEST DUP1 DUP3 MUL DUP2 ISZERO DUP3 DUP3 DIV DUP5 EQ OR PUSH2 0x1358 JUMPI PUSH2 0x1358 PUSH2 0x1294 JUMP JUMPDEST SWAP3 SWAP2 POP POP JUMP JUMPDEST DUP1 DUP3 ADD DUP1 DUP3 GT ISZERO PUSH2 0x1358 JUMPI PUSH2 0x1358 PUSH2 0x1294 JUMP JUMPDEST PUSH1 0x0 DUP3 PUSH2 0x138E JUMPI PUSH4 0x4E487B71 PUSH1 0xE0 SHL PUSH1 0x0 MSTORE PUSH1 0x12 PUSH1 0x4 MSTORE PUSH1 0x24 PUSH1 0x0 REVERT JUMPDEST POP DIV SWAP1 JUMP JUMPDEST DUP2 DUP2 SUB DUP2 DUP2 GT ISZERO PUSH2 0x1358 JUMPI PUSH2 0x1358 PUSH2 0x1294 JUMP INVALID LOG2 PUSH5 0x6970667358 0x22 SLT KECCAK256 SWAP6 PUSH19 0x6B43DE63C8F856E6DE7D4975F36B005230BB81 DUP6 0x2A SDIV TIMESTAMP CALLDATASIZE 0xCF PUSH16 0xFA93A40B64736F6C6343000814003300 "
		},
		"gasEstimates": {
			"creation": {
				"codeDepositCost": "1016800",
				"executionCost": "infinite",
				"totalCost": "infinite"
			},
			"external": {
				"anotherAddress()": "2403",
				"createPackage(uint256,uint256)": "73216",
				"editPackage(uint256,uint256,uint256)": "49024",
				"emergencyStop()": "2372",
				"getAllPackages()": "infinite",
				"getHighestPurchase(address)": "2626",
				"getPackage(uint256)": "6905",
				"getRewardAmount(address)": "2583",
				"getRewardAmountLimit(address)": "2583",
				"getWithdrawalAmount(address)": "2649",
				"getWithdrawalAmountLimit(address)": "2625",
				"highestPurchases(address)": "2564",
				"owner()": "2421",
				"packageCount()": "2405",
				"packages(uint256)": "4622",
				"pmt()": "2428",
				"projectOwnerAddress()": "2450",
				"purchasePackage(uint256)": "infinite",
				"purchasePackageByRT(uint256,address)": "infinite",
				"renounceOwnership()": "infinite",
				"rewardAmount(address)": "2586",
				"rewardAmountLimit(address)": "2563",
				"setAnotherAddress(address)": "26825",
				"setProjectOwnerAddress(address)": "26824",
				"setSwapContract(address)": "26802",
				"swapContract()": "2449",
				"toggleEmergencyStop()": "26671",
				"transferOwnership(address)": "28465",
				"updateRewardAmount(address,uint256)": "26949",
				"updateWithdrawalAmount(address,uint256)": "26903",
				"usdt()": "2405",
				"withdrawUSDT(uint256)": "infinite",
				"withdrawalAmount(address)": "2630",
				"withdrawalAmountLimit(address)": "2587"
			}
		},
		"methodIdentifiers": {
			"anotherAddress()": "e2deb8b3",
			"createPackage(uint256,uint256)": "06ce7029",
			"editPackage(uint256,uint256,uint256)": "76e95f6b",
			"emergencyStop()": "63a599a4",
			"getAllPackages()": "0a421f0f",
			"getHighestPurchase(address)": "d491bab8",
			"getPackage(uint256)": "b99dfe18",
			"getRewardAmount(address)": "44a040f5",
			"getRewardAmountLimit(address)": "292afe23",
			"getWithdrawalAmount(address)": "56582bf9",
			"getWithdrawalAmountLimit(address)": "e67777ba",
			"highestPurchases(address)": "91e01dcb",
			"owner()": "8da5cb5b",
			"packageCount()": "ee0ebe0c",
			"packages(uint256)": "c216212a",
			"pmt()": "0cc56602",
			"projectOwnerAddress()": "1c081504",
			"purchasePackage(uint256)": "a3d5ecb7",
			"purchasePackageByRT(uint256,address)": "7d42bd14",
			"renounceOwnership()": "715018a6",
			"rewardAmount(address)": "645a8a56",
			"rewardAmountLimit(address)": "db169bce",
			"setAnotherAddress(address)": "3177290c",
			"setProjectOwnerAddress(address)": "b20671ba",
			"setSwapContract(address)": "d259ab42",
			"swapContract()": "8ea83031",
			"toggleEmergencyStop()": "4b7aac94",
			"transferOwnership(address)": "f2fde38b",
			"updateRewardAmount(address,uint256)": "89b07243",
			"updateWithdrawalAmount(address,uint256)": "843f44f1",
			"usdt()": "2f48ab7d",
			"withdrawUSDT(uint256)": "3ea521ef",
			"withdrawalAmount(address)": "daa91f2e",
			"withdrawalAmountLimit(address)": "4b3e1333"
		}
	},
	"abi": [
		{
			"inputs": [
				{
					"internalType": "address",
					"name": "_usdtAddress",
					"type": "address"
				},
				{
					"internalType": "address",
					"name": "_pmtAddress",
					"type": "address"
				},
				{
					"internalType": "address",
					"name": "_projectOwnerAddress",
					"type": "address"
				},
				{
					"internalType": "address",
					"name": "_anotherAddress",
					"type": "address"
				}
			],
			"stateMutability": "nonpayable",
			"type": "constructor"
		},
		{
			"inputs": [
				{
					"internalType": "address",
					"name": "owner",
					"type": "address"
				}
			],
			"name": "OwnableInvalidOwner",
			"type": "error"
		},
		{
			"inputs": [
				{
					"internalType": "address",
					"name": "account",
					"type": "address"
				}
			],
			"name": "OwnableUnauthorizedAccount",
			"type": "error"
		},
		{
			"anonymous": false,
			"inputs": [
				{
					"indexed": true,
					"internalType": "address",
					"name": "previousOwner",
					"type": "address"
				},
				{
					"indexed": true,
					"internalType": "address",
					"name": "newOwner",
					"type": "address"
				}
			],
			"name": "OwnershipTransferred",
			"type": "event"
		},
		{
			"anonymous": false,
			"inputs": [
				{
					"indexed": true,
					"internalType": "address",
					"name": "buyer",
					"type": "address"
				},
				{
					"indexed": false,
					"internalType": "uint256",
					"name": "packageId",
					"type": "uint256"
				},
				{
					"indexed": false,
					"internalType": "uint256",
					"name": "usdtAmount",
					"type": "uint256"
				},
				{
					"indexed": false,
					"internalType": "uint256",
					"name": "pmtAmount",
					"type": "uint256"
				}
			],
			"name": "PackagePurchased",
			"type": "event"
		},
		{
			"anonymous": false,
			"inputs": [
				{
					"indexed": true,
					"internalType": "address",
					"name": "buyer",
					"type": "address"
				},
				{
					"indexed": false,
					"internalType": "uint256",
					"name": "packageId",
					"type": "uint256"
				},
				{
					"indexed": false,
					"internalType": "uint256",
					"name": "usdtAmount",
					"type": "uint256"
				},
				{
					"indexed": false,
					"internalType": "uint256",
					"name": "pmtAmount",
					"type": "uint256"
				}
			],
			"name": "PackagePurchasedByRT",
			"type": "event"
		},
		{
			"inputs": [],
			"name": "anotherAddress",
			"outputs": [
				{
					"internalType": "address",
					"name": "",
					"type": "address"
				}
			],
			"stateMutability": "view",
			"type": "function"
		},
		{
			"inputs": [
				{
					"internalType": "uint256",
					"name": "usdtAmount",
					"type": "uint256"
				},
				{
					"internalType": "uint256",
					"name": "pmtAmount",
					"type": "uint256"
				}
			],
			"name": "createPackage",
			"outputs": [],
			"stateMutability": "nonpayable",
			"type": "function"
		},
		{
			"inputs": [
				{
					"internalType": "uint256",
					"name": "packageId",
					"type": "uint256"
				},
				{
					"internalType": "uint256",
					"name": "usdtAmount",
					"type": "uint256"
				},
				{
					"internalType": "uint256",
					"name": "pmtAmount",
					"type": "uint256"
				}
			],
			"name": "editPackage",
			"outputs": [],
			"stateMutability": "nonpayable",
			"type": "function"
		},
		{
			"inputs": [],
			"name": "emergencyStop",
			"outputs": [
				{
					"internalType": "bool",
					"name": "",
					"type": "bool"
				}
			],
			"stateMutability": "view",
			"type": "function"
		},
		{
			"inputs": [],
			"name": "getAllPackages",
			"outputs": [
				{
					"components": [
						{
							"internalType": "uint256",
							"name": "usdtAmount",
							"type": "uint256"
						},
						{
							"internalType": "uint256",
							"name": "pmtAmount",
							"type": "uint256"
						}
					],
					"internalType": "struct PMTPurchaseContract.Package[]",
					"name": "",
					"type": "tuple[]"
				}
			],
			"stateMutability": "view",
			"type": "function"
		},
		{
			"inputs": [
				{
					"internalType": "address",
					"name": "buyer",
					"type": "address"
				}
			],
			"name": "getHighestPurchase",
			"outputs": [
				{
					"internalType": "uint256",
					"name": "",
					"type": "uint256"
				}
			],
			"stateMutability": "view",
			"type": "function"
		},
		{
			"inputs": [
				{
					"internalType": "uint256",
					"name": "packageId",
					"type": "uint256"
				}
			],
			"name": "getPackage",
			"outputs": [
				{
					"internalType": "uint256",
					"name": "usdtAmount",
					"type": "uint256"
				},
				{
					"internalType": "uint256",
					"name": "pmtAmount",
					"type": "uint256"
				}
			],
			"stateMutability": "view",
			"type": "function"
		},
		{
			"inputs": [
				{
					"internalType": "address",
					"name": "_address",
					"type": "address"
				}
			],
			"name": "getRewardAmount",
			"outputs": [
				{
					"internalType": "uint256",
					"name": "",
					"type": "uint256"
				}
			],
			"stateMutability": "view",
			"type": "function"
		},
		{
			"inputs": [
				{
					"internalType": "address",
					"name": "_address",
					"type": "address"
				}
			],
			"name": "getRewardAmountLimit",
			"outputs": [
				{
					"internalType": "uint256",
					"name": "",
					"type": "uint256"
				}
			],
			"stateMutability": "view",
			"type": "function"
		},
		{
			"inputs": [
				{
					"internalType": "address",
					"name": "_address",
					"type": "address"
				}
			],
			"name": "getWithdrawalAmount",
			"outputs": [
				{
					"internalType": "uint256",
					"name": "",
					"type": "uint256"
				}
			],
			"stateMutability": "view",
			"type": "function"
		},
		{
			"inputs": [
				{
					"internalType": "address",
					"name": "_address",
					"type": "address"
				}
			],
			"name": "getWithdrawalAmountLimit",
			"outputs": [
				{
					"internalType": "uint256",
					"name": "",
					"type": "uint256"
				}
			],
			"stateMutability": "view",
			"type": "function"
		},
		{
			"inputs": [
				{
					"internalType": "address",
					"name": "",
					"type": "address"
				}
			],
			"name": "highestPurchases",
			"outputs": [
				{
					"internalType": "uint256",
					"name": "",
					"type": "uint256"
				}
			],
			"stateMutability": "view",
			"type": "function"
		},
		{
			"inputs": [],
			"name": "owner",
			"outputs": [
				{
					"internalType": "address",
					"name": "",
					"type": "address"
				}
			],
			"stateMutability": "view",
			"type": "function"
		},
		{
			"inputs": [],
			"name": "packageCount",
			"outputs": [
				{
					"internalType": "uint256",
					"name": "",
					"type": "uint256"
				}
			],
			"stateMutability": "view",
			"type": "function"
		},
		{
			"inputs": [
				{
					"internalType": "uint256",
					"name": "",
					"type": "uint256"
				}
			],
			"name": "packages",
			"outputs": [
				{
					"internalType": "uint256",
					"name": "usdtAmount",
					"type": "uint256"
				},
				{
					"internalType": "uint256",
					"name": "pmtAmount",
					"type": "uint256"
				}
			],
			"stateMutability": "view",
			"type": "function"
		},
		{
			"inputs": [],
			"name": "pmt",
			"outputs": [
				{
					"internalType": "contract IPMT",
					"name": "",
					"type": "address"
				}
			],
			"stateMutability": "view",
			"type": "function"
		},
		{
			"inputs": [],
			"name": "projectOwnerAddress",
			"outputs": [
				{
					"internalType": "address",
					"name": "",
					"type": "address"
				}
			],
			"stateMutability": "view",
			"type": "function"
		},
		{
			"inputs": [
				{
					"internalType": "uint256",
					"name": "packageId",
					"type": "uint256"
				}
			],
			"name": "purchasePackage",
			"outputs": [],
			"stateMutability": "nonpayable",
			"type": "function"
		},
		{
			"inputs": [
				{
					"internalType": "uint256",
					"name": "packageId",
					"type": "uint256"
				},
				{
					"internalType": "address",
					"name": "buyer",
					"type": "address"
				}
			],
			"name": "purchasePackageByRT",
			"outputs": [],
			"stateMutability": "nonpayable",
			"type": "function"
		},
		{
			"inputs": [],
			"name": "renounceOwnership",
			"outputs": [],
			"stateMutability": "nonpayable",
			"type": "function"
		},
		{
			"inputs": [
				{
					"internalType": "address",
					"name": "",
					"type": "address"
				}
			],
			"name": "rewardAmount",
			"outputs": [
				{
					"internalType": "uint256",
					"name": "",
					"type": "uint256"
				}
			],
			"stateMutability": "view",
			"type": "function"
		},
		{
			"inputs": [
				{
					"internalType": "address",
					"name": "",
					"type": "address"
				}
			],
			"name": "rewardAmountLimit",
			"outputs": [
				{
					"internalType": "uint256",
					"name": "",
					"type": "uint256"
				}
			],
			"stateMutability": "view",
			"type": "function"
		},
		{
			"inputs": [
				{
					"internalType": "address",
					"name": "_address",
					"type": "address"
				}
			],
			"name": "setAnotherAddress",
			"outputs": [],
			"stateMutability": "nonpayable",
			"type": "function"
		},
		{
			"inputs": [
				{
					"internalType": "address",
					"name": "_address",
					"type": "address"
				}
			],
			"name": "setProjectOwnerAddress",
			"outputs": [],
			"stateMutability": "nonpayable",
			"type": "function"
		},
		{
			"inputs": [
				{
					"internalType": "address",
					"name": "_swapContract",
					"type": "address"
				}
			],
			"name": "setSwapContract",
			"outputs": [],
			"stateMutability": "nonpayable",
			"type": "function"
		},
		{
			"inputs": [],
			"name": "swapContract",
			"outputs": [
				{
					"internalType": "address",
					"name": "",
					"type": "address"
				}
			],
			"stateMutability": "view",
			"type": "function"
		},
		{
			"inputs": [],
			"name": "toggleEmergencyStop",
			"outputs": [],
			"stateMutability": "nonpayable",
			"type": "function"
		},
		{
			"inputs": [
				{
					"internalType": "address",
					"name": "newOwner",
					"type": "address"
				}
			],
			"name": "transferOwnership",
			"outputs": [],
			"stateMutability": "nonpayable",
			"type": "function"
		},
		{
			"inputs": [
				{
					"internalType": "address",
					"name": "_address",
					"type": "address"
				},
				{
					"internalType": "uint256",
					"name": "_amount",
					"type": "uint256"
				}
			],
			"name": "updateRewardAmount",
			"outputs": [],
			"stateMutability": "nonpayable",
			"type": "function"
		},
		{
			"inputs": [
				{
					"internalType": "address",
					"name": "_address",
					"type": "address"
				},
				{
					"internalType": "uint256",
					"name": "_amount",
					"type": "uint256"
				}
			],
			"name": "updateWithdrawalAmount",
			"outputs": [],
			"stateMutability": "nonpayable",
			"type": "function"
		},
		{
			"inputs": [],
			"name": "usdt",
			"outputs": [
				{
					"internalType": "contract IERC20",
					"name": "",
					"type": "address"
				}
			],
			"stateMutability": "view",
			"type": "function"
		},
		{
			"inputs": [
				{
					"internalType": "uint256",
					"name": "amount",
					"type": "uint256"
				}
			],
			"name": "withdrawUSDT",
			"outputs": [],
			"stateMutability": "nonpayable",
			"type": "function"
		},
		{
			"inputs": [
				{
					"internalType": "address",
					"name": "",
					"type": "address"
				}
			],
			"name": "withdrawalAmount",
			"outputs": [
				{
					"internalType": "uint256",
					"name": "",
					"type": "uint256"
				}
			],
			"stateMutability": "view",
			"type": "function"
		},
		{
			"inputs": [
				{
					"internalType": "address",
					"name": "",
					"type": "address"
				}
			],
			"name": "withdrawalAmountLimit",
			"outputs": [
				{
					"internalType": "uint256",
					"name": "",
					"type": "uint256"
				}
			],
			"stateMutability": "view",
			"type": "function"
		}
	]
}