{
	"data": {
		"bytecode": {
			"linkReferences": {},
			"object": "60806040526008805460ff60a01b1916905534801561001d57600080fd5b50604051610f31380380610f3183398101604081905261003c9161012f565b338061006257604051631e4fbdf760e01b81526000600482015260240160405180910390fd5b61006b816100c3565b5060018055600280546001600160a01b039586166001600160a01b0319918216179091556003805494861694821694909417909355600780549285169284169290921790915560088054919093169116179055610183565b600080546001600160a01b038381166001600160a01b0319831681178455604051919092169283917f8be0079c531659141344cd1fd0a4f28419497f9722a3daafe3b4186f6b6457e09190a35050565b80516001600160a01b038116811461012a57600080fd5b919050565b6000806000806080858703121561014557600080fd5b61014e85610113565b935061015c60208601610113565b925061016a60408601610113565b915061017860608601610113565b905092959194509250565b610d9f806101926000396000f3fe608060405234801561001057600080fd5b50600436106101375760003560e01c806376e95f6b116100b8578063b99dfe181161007c578063b99dfe1814610292578063c216212a146102ba578063d491bab8146102e1578063e2deb8b31461030a578063ee0ebe0c1461031d578063f2fde38b1461032657600080fd5b806376e95f6b1461021a5780638da5cb5b1461022d57806391e01dcb1461023e578063a3d5ecb71461026c578063b20671ba1461027f57600080fd5b80633177290c116100ff5780633177290c146101c05780633ea521ef146101d35780634b7aac94146101e657806363a599a4146101ee578063715018a61461021257600080fd5b806306ce70291461013c5780630a421f0f146101515780630cc566021461016f5780631c0815041461019a5780632f48ab7d146101ad575b600080fd5b61014f61014a366004610b84565b610339565b005b61015961038a565b6040516101669190610ba6565b60405180910390f35b600354610182906001600160a01b031681565b6040516001600160a01b039091168152602001610166565b600754610182906001600160a01b031681565b600254610182906001600160a01b031681565b61014f6101ce366004610bf5565b61045c565b61014f6101e1366004610c25565b610486565b61014f61054b565b60085461020290600160a01b900460ff1681565b6040519015158152602001610166565b61014f610574565b61014f610228366004610c3e565b610588565b6000546001600160a01b0316610182565b61025e61024c366004610bf5565b60056020526000908152604090205481565b604051908152602001610166565b61014f61027a366004610c25565b6105df565b61014f61028d366004610bf5565b6109f4565b6102a56102a0366004610c25565b610a1e565b60408051928352602083019190915201610166565b6102a56102c8366004610c25565b6004602052600090815260409020805460019091015482565b61025e6102ef366004610bf5565b6001600160a01b031660009081526005602052604090205490565b600854610182906001600160a01b031681565b61025e60065481565b61014f610334366004610bf5565b610a73565b610341610aae565b6040805180820182528381526020808201848152600680546000908152600490935293822092518355516001909201919091558154919061038183610c80565b91905055505050565b6060600060065467ffffffffffffffff8111156103a9576103a9610c99565b6040519080825280602002602001820160405280156103ee57816020015b60408051808201909152600080825260208201528152602001906001900390816103c75790505b50905060005b600654811015610456576000818152600460209081526040918290208251808401909352805483526001015490820152825183908390811061043857610438610caf565b6020026020010181905250808061044e90610c80565b9150506103f4565b50919050565b610464610aae565b600880546001600160a01b0319166001600160a01b0392909216919091179055565b61048e610aae565b60025460405163a9059cbb60e01b8152336004820152602481018390526001600160a01b039091169063a9059cbb906044016020604051808303816000875af11580156104df573d6000803e3d6000fd5b505050506040513d601f19601f820116820180604052508101906105039190610cc5565b6105485760405162461bcd60e51b815260206004820152601160248201527015da5d1a191c985dd85b0819985a5b1959607a1b60448201526064015b60405180910390fd5b50565b610553610aae565b6008805460ff60a01b198116600160a01b9182900460ff1615909102179055565b61057c610aae565b6105866000610adb565b565b610590610aae565b60065483106105b15760405162461bcd60e51b815260040161053f90610ce7565b6040805180820182529283526020808401928352600094855260049052909220905181559051600190910155565b6105e7610b2b565b600854600160a01b900460ff16156106395760405162461bcd60e51b8152602060048201526015602482015274141d5c98da185cd95cc8185c99481cdd1bdc1c1959605a1b604482015260640161053f565b600654811061065a5760405162461bcd60e51b815260040161053f90610ce7565b6000818152600460208181526040928390208351808501855281548082526001909201549281019290925260025493516323b872dd60e01b815233938101939093523060248401526044830152916001600160a01b0316906323b872dd906064016020604051808303816000875af11580156106da573d6000803e3d6000fd5b505050506040513d601f19601f820116820180604052508101906106fe9190610cc5565b6107415760405162461bcd60e51b81526020600482015260146024820152731554d115081d1c985b9cd9995c8819985a5b195960621b604482015260640161053f565b336000908152600560205260409020548151111561076c578051336000908152600560205260409020555b80516000906103e890610780906064610d17565b61078a9190610d34565b9050600081836000015161079e9190610d56565b60025460075460405163a9059cbb60e01b81526001600160a01b03918216600482015260248101869052929350169063a9059cbb906044016020604051808303816000875af11580156107f5573d6000803e3d6000fd5b505050506040513d601f19601f820116820180604052508101906108199190610cc5565b6108655760405162461bcd60e51b815260206004820181905260248201527f5472616e7366657220746f2070726f6a656374206f776e6572206661696c6564604482015260640161053f565b60025460085460405163a9059cbb60e01b81526001600160a01b0391821660048201526024810184905291169063a9059cbb906044016020604051808303816000875af11580156108ba573d6000803e3d6000fd5b505050506040513d601f19601f820116820180604052508101906108de9190610cc5565b6109355760405162461bcd60e51b815260206004820152602260248201527f5472616e7366657220746f20616e6f746865722061646472657373206661696c604482015261195960f21b606482015260840161053f565b600354602084015160405163065cd85d60e01b815233600482015260248101919091526001600160a01b039091169063065cd85d90604401600060405180830381600087803b15801561098757600080fd5b505af115801561099b573d6000803e3d6000fd5b50508451602080870151604080518a8152928301939093528183015290513393507f129a0377f5862974e93e873169fd1e8cf0681916d5b8b04338cb4224af00f02492509081900360600190a250505061054860018055565b6109fc610aae565b600780546001600160a01b0319166001600160a01b0392909216919091179055565b6000806006548310610a425760405162461bcd60e51b815260040161053f90610ce7565b5050600090815260046020908152604091829020825180840190935280548084526001909101549290910182905291565b610a7b610aae565b6001600160a01b038116610aa557604051631e4fbdf760e01b81526000600482015260240161053f565b61054881610adb565b6000546001600160a01b031633146105865760405163118cdaa760e01b815233600482015260240161053f565b600080546001600160a01b038381166001600160a01b0319831681178455604051919092169283917f8be0079c531659141344cd1fd0a4f28419497f9722a3daafe3b4186f6b6457e09190a35050565b600260015403610b7d5760405162461bcd60e51b815260206004820152601f60248201527f5265656e7472616e637947756172643a207265656e7472616e742063616c6c00604482015260640161053f565b6002600155565b60008060408385031215610b9757600080fd5b50508035926020909101359150565b602080825282518282018190526000919060409081850190868401855b82811015610be857815180518552860151868501529284019290850190600101610bc3565b5091979650505050505050565b600060208284031215610c0757600080fd5b81356001600160a01b0381168114610c1e57600080fd5b9392505050565b600060208284031215610c3757600080fd5b5035919050565b600080600060608486031215610c5357600080fd5b505081359360208301359350604090920135919050565b634e487b7160e01b600052601160045260246000fd5b600060018201610c9257610c92610c6a565b5060010190565b634e487b7160e01b600052604160045260246000fd5b634e487b7160e01b600052603260045260246000fd5b600060208284031215610cd757600080fd5b81518015158114610c1e57600080fd5b602080825260169082015275141858dad859d948191bd95cc81b9bdd08195e1a5cdd60521b604082015260600190565b8082028115828204841417610d2e57610d2e610c6a565b92915050565b600082610d5157634e487b7160e01b600052601260045260246000fd5b500490565b81810381811115610d2e57610d2e610c6a56fea2646970667358221220dd19f0133e14a7ec07b8f892ffd84e1d8ca4318f158da5bd586d673401b463eb64736f6c63430008140033",
			"opcodes": "PUSH1 0x80 PUSH1 0x40 MSTORE PUSH1 0x8 DUP1 SLOAD PUSH1 0xFF PUSH1 0xA0 SHL NOT AND SWAP1 SSTORE CALLVALUE DUP1 ISZERO PUSH2 0x1D JUMPI PUSH1 0x0 DUP1 REVERT JUMPDEST POP PUSH1 0x40 MLOAD PUSH2 0xF31 CODESIZE SUB DUP1 PUSH2 0xF31 DUP4 CODECOPY DUP2 ADD PUSH1 0x40 DUP2 SWAP1 MSTORE PUSH2 0x3C SWAP2 PUSH2 0x12F JUMP JUMPDEST CALLER DUP1 PUSH2 0x62 JUMPI PUSH1 0x40 MLOAD PUSH4 0x1E4FBDF7 PUSH1 0xE0 SHL DUP2 MSTORE PUSH1 0x0 PUSH1 0x4 DUP3 ADD MSTORE PUSH1 0x24 ADD PUSH1 0x40 MLOAD DUP1 SWAP2 SUB SWAP1 REVERT JUMPDEST PUSH2 0x6B DUP2 PUSH2 0xC3 JUMP JUMPDEST POP PUSH1 0x1 DUP1 SSTORE PUSH1 0x2 DUP1 SLOAD PUSH1 0x1 PUSH1 0x1 PUSH1 0xA0 SHL SUB SWAP6 DUP7 AND PUSH1 0x1 PUSH1 0x1 PUSH1 0xA0 SHL SUB NOT SWAP2 DUP3 AND OR SWAP1 SWAP2 SSTORE PUSH1 0x3 DUP1 SLOAD SWAP5 DUP7 AND SWAP5 DUP3 AND SWAP5 SWAP1 SWAP5 OR SWAP1 SWAP4 SSTORE PUSH1 0x7 DUP1 SLOAD SWAP3 DUP6 AND SWAP3 DUP5 AND SWAP3 SWAP1 SWAP3 OR SWAP1 SWAP2 SSTORE PUSH1 0x8 DUP1 SLOAD SWAP2 SWAP1 SWAP4 AND SWAP2 AND OR SWAP1 SSTORE PUSH2 0x183 JUMP JUMPDEST PUSH1 0x0 DUP1 SLOAD PUSH1 0x1 PUSH1 0x1 PUSH1 0xA0 SHL SUB DUP4 DUP2 AND PUSH1 0x1 PUSH1 0x1 PUSH1 0xA0 SHL SUB NOT DUP4 AND DUP2 OR DUP5 SSTORE PUSH1 0x40 MLOAD SWAP2 SWAP1 SWAP3 AND SWAP3 DUP4 SWAP2 PUSH32 0x8BE0079C531659141344CD1FD0A4F28419497F9722A3DAAFE3B4186F6B6457E0 SWAP2 SWAP1 LOG3 POP POP JUMP JUMPDEST DUP1 MLOAD PUSH1 0x1 PUSH1 0x1 PUSH1 0xA0 SHL SUB DUP2 AND DUP2 EQ PUSH2 0x12A JUMPI PUSH1 0x0 DUP1 REVERT JUMPDEST SWAP2 SWAP1 POP JUMP JUMPDEST PUSH1 0x0 DUP1 PUSH1 0x0 DUP1 PUSH1 0x80 DUP6 DUP8 SUB SLT ISZERO PUSH2 0x145 JUMPI PUSH1 0x0 DUP1 REVERT JUMPDEST PUSH2 0x14E DUP6 PUSH2 0x113 JUMP JUMPDEST SWAP4 POP PUSH2 0x15C PUSH1 0x20 DUP7 ADD PUSH2 0x113 JUMP JUMPDEST SWAP3 POP PUSH2 0x16A PUSH1 0x40 DUP7 ADD PUSH2 0x113 JUMP JUMPDEST SWAP2 POP PUSH2 0x178 PUSH1 0x60 DUP7 ADD PUSH2 0x113 JUMP JUMPDEST SWAP1 POP SWAP3 SWAP6 SWAP2 SWAP5 POP SWAP3 POP JUMP JUMPDEST PUSH2 0xD9F DUP1 PUSH2 0x192 PUSH1 0x0 CODECOPY PUSH1 0x0 RETURN INVALID PUSH1 0x80 PUSH1 0x40 MSTORE CALLVALUE DUP1 ISZERO PUSH2 0x10 JUMPI PUSH1 0x0 DUP1 REVERT JUMPDEST POP PUSH1 0x4 CALLDATASIZE LT PUSH2 0x137 JUMPI PUSH1 0x0 CALLDATALOAD PUSH1 0xE0 SHR DUP1 PUSH4 0x76E95F6B GT PUSH2 0xB8 JUMPI DUP1 PUSH4 0xB99DFE18 GT PUSH2 0x7C JUMPI DUP1 PUSH4 0xB99DFE18 EQ PUSH2 0x292 JUMPI DUP1 PUSH4 0xC216212A EQ PUSH2 0x2BA JUMPI DUP1 PUSH4 0xD491BAB8 EQ PUSH2 0x2E1 JUMPI DUP1 PUSH4 0xE2DEB8B3 EQ PUSH2 0x30A JUMPI DUP1 PUSH4 0xEE0EBE0C EQ PUSH2 0x31D JUMPI DUP1 PUSH4 0xF2FDE38B EQ PUSH2 0x326 JUMPI PUSH1 0x0 DUP1 REVERT JUMPDEST DUP1 PUSH4 0x76E95F6B EQ PUSH2 0x21A JUMPI DUP1 PUSH4 0x8DA5CB5B EQ PUSH2 0x22D JUMPI DUP1 PUSH4 0x91E01DCB EQ PUSH2 0x23E JUMPI DUP1 PUSH4 0xA3D5ECB7 EQ PUSH2 0x26C JUMPI DUP1 PUSH4 0xB20671BA EQ PUSH2 0x27F JUMPI PUSH1 0x0 DUP1 REVERT JUMPDEST DUP1 PUSH4 0x3177290C GT PUSH2 0xFF JUMPI DUP1 PUSH4 0x3177290C EQ PUSH2 0x1C0 JUMPI DUP1 PUSH4 0x3EA521EF EQ PUSH2 0x1D3 JUMPI DUP1 PUSH4 0x4B7AAC94 EQ PUSH2 0x1E6 JUMPI DUP1 PUSH4 0x63A599A4 EQ PUSH2 0x1EE JUMPI DUP1 PUSH4 0x715018A6 EQ PUSH2 0x212 JUMPI PUSH1 0x0 DUP1 REVERT JUMPDEST DUP1 PUSH4 0x6CE7029 EQ PUSH2 0x13C JUMPI DUP1 PUSH4 0xA421F0F EQ PUSH2 0x151 JUMPI DUP1 PUSH4 0xCC56602 EQ PUSH2 0x16F JUMPI DUP1 PUSH4 0x1C081504 EQ PUSH2 0x19A JUMPI DUP1 PUSH4 0x2F48AB7D EQ PUSH2 0x1AD JUMPI JUMPDEST PUSH1 0x0 DUP1 REVERT JUMPDEST PUSH2 0x14F PUSH2 0x14A CALLDATASIZE PUSH1 0x4 PUSH2 0xB84 JUMP JUMPDEST PUSH2 0x339 JUMP JUMPDEST STOP JUMPDEST PUSH2 0x159 PUSH2 0x38A JUMP JUMPDEST PUSH1 0x40 MLOAD PUSH2 0x166 SWAP2 SWAP1 PUSH2 0xBA6 JUMP JUMPDEST PUSH1 0x40 MLOAD DUP1 SWAP2 SUB SWAP1 RETURN JUMPDEST PUSH1 0x3 SLOAD PUSH2 0x182 SWAP1 PUSH1 0x1 PUSH1 0x1 PUSH1 0xA0 SHL SUB AND DUP2 JUMP JUMPDEST PUSH1 0x40 MLOAD PUSH1 0x1 PUSH1 0x1 PUSH1 0xA0 SHL SUB SWAP1 SWAP2 AND DUP2 MSTORE PUSH1 0x20 ADD PUSH2 0x166 JUMP JUMPDEST PUSH1 0x7 SLOAD PUSH2 0x182 SWAP1 PUSH1 0x1 PUSH1 0x1 PUSH1 0xA0 SHL SUB AND DUP2 JUMP JUMPDEST PUSH1 0x2 SLOAD PUSH2 0x182 SWAP1 PUSH1 0x1 PUSH1 0x1 PUSH1 0xA0 SHL SUB AND DUP2 JUMP JUMPDEST PUSH2 0x14F PUSH2 0x1CE CALLDATASIZE PUSH1 0x4 PUSH2 0xBF5 JUMP JUMPDEST PUSH2 0x45C JUMP JUMPDEST PUSH2 0x14F PUSH2 0x1E1 CALLDATASIZE PUSH1 0x4 PUSH2 0xC25 JUMP JUMPDEST PUSH2 0x486 JUMP JUMPDEST PUSH2 0x14F PUSH2 0x54B JUMP JUMPDEST PUSH1 0x8 SLOAD PUSH2 0x202 SWAP1 PUSH1 0x1 PUSH1 0xA0 SHL SWAP1 DIV PUSH1 0xFF AND DUP2 JUMP JUMPDEST PUSH1 0x40 MLOAD SWAP1 ISZERO ISZERO DUP2 MSTORE PUSH1 0x20 ADD PUSH2 0x166 JUMP JUMPDEST PUSH2 0x14F PUSH2 0x574 JUMP JUMPDEST PUSH2 0x14F PUSH2 0x228 CALLDATASIZE PUSH1 0x4 PUSH2 0xC3E JUMP JUMPDEST PUSH2 0x588 JUMP JUMPDEST PUSH1 0x0 SLOAD PUSH1 0x1 PUSH1 0x1 PUSH1 0xA0 SHL SUB AND PUSH2 0x182 JUMP JUMPDEST PUSH2 0x25E PUSH2 0x24C CALLDATASIZE PUSH1 0x4 PUSH2 0xBF5 JUMP JUMPDEST PUSH1 0x5 PUSH1 0x20 MSTORE PUSH1 0x0 SWAP1 DUP2 MSTORE PUSH1 0x40 SWAP1 KECCAK256 SLOAD DUP2 JUMP JUMPDEST PUSH1 0x40 MLOAD SWAP1 DUP2 MSTORE PUSH1 0x20 ADD PUSH2 0x166 JUMP JUMPDEST PUSH2 0x14F PUSH2 0x27A CALLDATASIZE PUSH1 0x4 PUSH2 0xC25 JUMP JUMPDEST PUSH2 0x5DF JUMP JUMPDEST PUSH2 0x14F PUSH2 0x28D CALLDATASIZE PUSH1 0x4 PUSH2 0xBF5 JUMP JUMPDEST PUSH2 0x9F4 JUMP JUMPDEST PUSH2 0x2A5 PUSH2 0x2A0 CALLDATASIZE PUSH1 0x4 PUSH2 0xC25 JUMP JUMPDEST PUSH2 0xA1E JUMP JUMPDEST PUSH1 0x40 DUP1 MLOAD SWAP3 DUP4 MSTORE PUSH1 0x20 DUP4 ADD SWAP2 SWAP1 SWAP2 MSTORE ADD PUSH2 0x166 JUMP JUMPDEST PUSH2 0x2A5 PUSH2 0x2C8 CALLDATASIZE PUSH1 0x4 PUSH2 0xC25 JUMP JUMPDEST PUSH1 0x4 PUSH1 0x20 MSTORE PUSH1 0x0 SWAP1 DUP2 MSTORE PUSH1 0x40 SWAP1 KECCAK256 DUP1 SLOAD PUSH1 0x1 SWAP1 SWAP2 ADD SLOAD DUP3 JUMP JUMPDEST PUSH2 0x25E PUSH2 0x2EF CALLDATASIZE PUSH1 0x4 PUSH2 0xBF5 JUMP JUMPDEST PUSH1 0x1 PUSH1 0x1 PUSH1 0xA0 SHL SUB AND PUSH1 0x0 SWAP1 DUP2 MSTORE PUSH1 0x5 PUSH1 0x20 MSTORE PUSH1 0x40 SWAP1 KECCAK256 SLOAD SWAP1 JUMP JUMPDEST PUSH1 0x8 SLOAD PUSH2 0x182 SWAP1 PUSH1 0x1 PUSH1 0x1 PUSH1 0xA0 SHL SUB AND DUP2 JUMP JUMPDEST PUSH2 0x25E PUSH1 0x6 SLOAD DUP2 JUMP JUMPDEST PUSH2 0x14F PUSH2 0x334 CALLDATASIZE PUSH1 0x4 PUSH2 0xBF5 JUMP JUMPDEST PUSH2 0xA73 JUMP JUMPDEST PUSH2 0x341 PUSH2 0xAAE JUMP JUMPDEST PUSH1 0x40 DUP1 MLOAD DUP1 DUP3 ADD DUP3 MSTORE DUP4 DUP2 MSTORE PUSH1 0x20 DUP1 DUP3 ADD DUP5 DUP2 MSTORE PUSH1 0x6 DUP1 SLOAD PUSH1 0x0 SWAP1 DUP2 MSTORE PUSH1 0x4 SWAP1 SWAP4 MSTORE SWAP4 DUP3 KECCAK256 SWAP3 MLOAD DUP4 SSTORE MLOAD PUSH1 0x1 SWAP1 SWAP3 ADD SWAP2 SWAP1 SWAP2 SSTORE DUP2 SLOAD SWAP2 SWAP1 PUSH2 0x381 DUP4 PUSH2 0xC80 JUMP JUMPDEST SWAP2 SWAP1 POP SSTORE POP POP POP JUMP JUMPDEST PUSH1 0x60 PUSH1 0x0 PUSH1 0x6 SLOAD PUSH8 0xFFFFFFFFFFFFFFFF DUP2 GT ISZERO PUSH2 0x3A9 JUMPI PUSH2 0x3A9 PUSH2 0xC99 JUMP JUMPDEST PUSH1 0x40 MLOAD SWAP1 DUP1 DUP3 MSTORE DUP1 PUSH1 0x20 MUL PUSH1 0x20 ADD DUP3 ADD PUSH1 0x40 MSTORE DUP1 ISZERO PUSH2 0x3EE JUMPI DUP2 PUSH1 0x20 ADD JUMPDEST PUSH1 0x40 DUP1 MLOAD DUP1 DUP3 ADD SWAP1 SWAP2 MSTORE PUSH1 0x0 DUP1 DUP3 MSTORE PUSH1 0x20 DUP3 ADD MSTORE DUP2 MSTORE PUSH1 0x20 ADD SWAP1 PUSH1 0x1 SWAP1 SUB SWAP1 DUP2 PUSH2 0x3C7 JUMPI SWAP1 POP JUMPDEST POP SWAP1 POP PUSH1 0x0 JUMPDEST PUSH1 0x6 SLOAD DUP2 LT ISZERO PUSH2 0x456 JUMPI PUSH1 0x0 DUP2 DUP2 MSTORE PUSH1 0x4 PUSH1 0x20 SWAP1 DUP2 MSTORE PUSH1 0x40 SWAP2 DUP3 SWAP1 KECCAK256 DUP3 MLOAD DUP1 DUP5 ADD SWAP1 SWAP4 MSTORE DUP1 SLOAD DUP4 MSTORE PUSH1 0x1 ADD SLOAD SWAP1 DUP3 ADD MSTORE DUP3 MLOAD DUP4 SWAP1 DUP4 SWAP1 DUP2 LT PUSH2 0x438 JUMPI PUSH2 0x438 PUSH2 0xCAF JUMP JUMPDEST PUSH1 0x20 MUL PUSH1 0x20 ADD ADD DUP2 SWAP1 MSTORE POP DUP1 DUP1 PUSH2 0x44E SWAP1 PUSH2 0xC80 JUMP JUMPDEST SWAP2 POP POP PUSH2 0x3F4 JUMP JUMPDEST POP SWAP2 SWAP1 POP JUMP JUMPDEST PUSH2 0x464 PUSH2 0xAAE JUMP JUMPDEST PUSH1 0x8 DUP1 SLOAD PUSH1 0x1 PUSH1 0x1 PUSH1 0xA0 SHL SUB NOT AND PUSH1 0x1 PUSH1 0x1 PUSH1 0xA0 SHL SUB SWAP3 SWAP1 SWAP3 AND SWAP2 SWAP1 SWAP2 OR SWAP1 SSTORE JUMP JUMPDEST PUSH2 0x48E PUSH2 0xAAE JUMP JUMPDEST PUSH1 0x2 SLOAD PUSH1 0x40 MLOAD PUSH4 0xA9059CBB PUSH1 0xE0 SHL DUP2 MSTORE CALLER PUSH1 0x4 DUP3 ADD MSTORE PUSH1 0x24 DUP2 ADD DUP4 SWAP1 MSTORE PUSH1 0x1 PUSH1 0x1 PUSH1 0xA0 SHL SUB SWAP1 SWAP2 AND SWAP1 PUSH4 0xA9059CBB SWAP1 PUSH1 0x44 ADD PUSH1 0x20 PUSH1 0x40 MLOAD DUP1 DUP4 SUB DUP2 PUSH1 0x0 DUP8 GAS CALL ISZERO DUP1 ISZERO PUSH2 0x4DF JUMPI RETURNDATASIZE PUSH1 0x0 DUP1 RETURNDATACOPY RETURNDATASIZE PUSH1 0x0 REVERT JUMPDEST POP POP POP POP PUSH1 0x40 MLOAD RETURNDATASIZE PUSH1 0x1F NOT PUSH1 0x1F DUP3 ADD AND DUP3 ADD DUP1 PUSH1 0x40 MSTORE POP DUP2 ADD SWAP1 PUSH2 0x503 SWAP2 SWAP1 PUSH2 0xCC5 JUMP JUMPDEST PUSH2 0x548 JUMPI PUSH1 0x40 MLOAD PUSH3 0x461BCD PUSH1 0xE5 SHL DUP2 MSTORE PUSH1 0x20 PUSH1 0x4 DUP3 ADD MSTORE PUSH1 0x11 PUSH1 0x24 DUP3 ADD MSTORE PUSH17 0x15DA5D1A191C985DD85B0819985A5B1959 PUSH1 0x7A SHL PUSH1 0x44 DUP3 ADD MSTORE PUSH1 0x64 ADD JUMPDEST PUSH1 0x40 MLOAD DUP1 SWAP2 SUB SWAP1 REVERT JUMPDEST POP JUMP JUMPDEST PUSH2 0x553 PUSH2 0xAAE JUMP JUMPDEST PUSH1 0x8 DUP1 SLOAD PUSH1 0xFF PUSH1 0xA0 SHL NOT DUP2 AND PUSH1 0x1 PUSH1 0xA0 SHL SWAP2 DUP3 SWAP1 DIV PUSH1 0xFF AND ISZERO SWAP1 SWAP2 MUL OR SWAP1 SSTORE JUMP JUMPDEST PUSH2 0x57C PUSH2 0xAAE JUMP JUMPDEST PUSH2 0x586 PUSH1 0x0 PUSH2 0xADB JUMP JUMPDEST JUMP JUMPDEST PUSH2 0x590 PUSH2 0xAAE JUMP JUMPDEST PUSH1 0x6 SLOAD DUP4 LT PUSH2 0x5B1 JUMPI PUSH1 0x40 MLOAD PUSH3 0x461BCD PUSH1 0xE5 SHL DUP2 MSTORE PUSH1 0x4 ADD PUSH2 0x53F SWAP1 PUSH2 0xCE7 JUMP JUMPDEST PUSH1 0x40 DUP1 MLOAD DUP1 DUP3 ADD DUP3 MSTORE SWAP3 DUP4 MSTORE PUSH1 0x20 DUP1 DUP5 ADD SWAP3 DUP4 MSTORE PUSH1 0x0 SWAP5 DUP6 MSTORE PUSH1 0x4 SWAP1 MSTORE SWAP1 SWAP3 KECCAK256 SWAP1 MLOAD DUP2 SSTORE SWAP1 MLOAD PUSH1 0x1 SWAP1 SWAP2 ADD SSTORE JUMP JUMPDEST PUSH2 0x5E7 PUSH2 0xB2B JUMP JUMPDEST PUSH1 0x8 SLOAD PUSH1 0x1 PUSH1 0xA0 SHL SWAP1 DIV PUSH1 0xFF AND ISZERO PUSH2 0x639 JUMPI PUSH1 0x40 MLOAD PUSH3 0x461BCD PUSH1 0xE5 SHL DUP2 MSTORE PUSH1 0x20 PUSH1 0x4 DUP3 ADD MSTORE PUSH1 0x15 PUSH1 0x24 DUP3 ADD MSTORE PUSH21 0x141D5C98DA185CD95CC8185C99481CDD1BDC1C1959 PUSH1 0x5A SHL PUSH1 0x44 DUP3 ADD MSTORE PUSH1 0x64 ADD PUSH2 0x53F JUMP JUMPDEST PUSH1 0x6 SLOAD DUP2 LT PUSH2 0x65A JUMPI PUSH1 0x40 MLOAD PUSH3 0x461BCD PUSH1 0xE5 SHL DUP2 MSTORE PUSH1 0x4 ADD PUSH2 0x53F SWAP1 PUSH2 0xCE7 JUMP JUMPDEST PUSH1 0x0 DUP2 DUP2 MSTORE PUSH1 0x4 PUSH1 0x20 DUP2 DUP2 MSTORE PUSH1 0x40 SWAP3 DUP4 SWAP1 KECCAK256 DUP4 MLOAD DUP1 DUP6 ADD DUP6 MSTORE DUP2 SLOAD DUP1 DUP3 MSTORE PUSH1 0x1 SWAP1 SWAP3 ADD SLOAD SWAP3 DUP2 ADD SWAP3 SWAP1 SWAP3 MSTORE PUSH1 0x2 SLOAD SWAP4 MLOAD PUSH4 0x23B872DD PUSH1 0xE0 SHL DUP2 MSTORE CALLER SWAP4 DUP2 ADD SWAP4 SWAP1 SWAP4 MSTORE ADDRESS PUSH1 0x24 DUP5 ADD MSTORE PUSH1 0x44 DUP4 ADD MSTORE SWAP2 PUSH1 0x1 PUSH1 0x1 PUSH1 0xA0 SHL SUB AND SWAP1 PUSH4 0x23B872DD SWAP1 PUSH1 0x64 ADD PUSH1 0x20 PUSH1 0x40 MLOAD DUP1 DUP4 SUB DUP2 PUSH1 0x0 DUP8 GAS CALL ISZERO DUP1 ISZERO PUSH2 0x6DA JUMPI RETURNDATASIZE PUSH1 0x0 DUP1 RETURNDATACOPY RETURNDATASIZE PUSH1 0x0 REVERT JUMPDEST POP POP POP POP PUSH1 0x40 MLOAD RETURNDATASIZE PUSH1 0x1F NOT PUSH1 0x1F DUP3 ADD AND DUP3 ADD DUP1 PUSH1 0x40 MSTORE POP DUP2 ADD SWAP1 PUSH2 0x6FE SWAP2 SWAP1 PUSH2 0xCC5 JUMP JUMPDEST PUSH2 0x741 JUMPI PUSH1 0x40 MLOAD PUSH3 0x461BCD PUSH1 0xE5 SHL DUP2 MSTORE PUSH1 0x20 PUSH1 0x4 DUP3 ADD MSTORE PUSH1 0x14 PUSH1 0x24 DUP3 ADD MSTORE PUSH20 0x1554D115081D1C985B9CD9995C8819985A5B1959 PUSH1 0x62 SHL PUSH1 0x44 DUP3 ADD MSTORE PUSH1 0x64 ADD PUSH2 0x53F JUMP JUMPDEST CALLER PUSH1 0x0 SWAP1 DUP2 MSTORE PUSH1 0x5 PUSH1 0x20 MSTORE PUSH1 0x40 SWAP1 KECCAK256 SLOAD DUP2 MLOAD GT ISZERO PUSH2 0x76C JUMPI DUP1 MLOAD CALLER PUSH1 0x0 SWAP1 DUP2 MSTORE PUSH1 0x5 PUSH1 0x20 MSTORE PUSH1 0x40 SWAP1 KECCAK256 SSTORE JUMPDEST DUP1 MLOAD PUSH1 0x0 SWAP1 PUSH2 0x3E8 SWAP1 PUSH2 0x780 SWAP1 PUSH1 0x64 PUSH2 0xD17 JUMP JUMPDEST PUSH2 0x78A SWAP2 SWAP1 PUSH2 0xD34 JUMP JUMPDEST SWAP1 POP PUSH1 0x0 DUP2 DUP4 PUSH1 0x0 ADD MLOAD PUSH2 0x79E SWAP2 SWAP1 PUSH2 0xD56 JUMP JUMPDEST PUSH1 0x2 SLOAD PUSH1 0x7 SLOAD PUSH1 0x40 MLOAD PUSH4 0xA9059CBB PUSH1 0xE0 SHL DUP2 MSTORE PUSH1 0x1 PUSH1 0x1 PUSH1 0xA0 SHL SUB SWAP2 DUP3 AND PUSH1 0x4 DUP3 ADD MSTORE PUSH1 0x24 DUP2 ADD DUP7 SWAP1 MSTORE SWAP3 SWAP4 POP AND SWAP1 PUSH4 0xA9059CBB SWAP1 PUSH1 0x44 ADD PUSH1 0x20 PUSH1 0x40 MLOAD DUP1 DUP4 SUB DUP2 PUSH1 0x0 DUP8 GAS CALL ISZERO DUP1 ISZERO PUSH2 0x7F5 JUMPI RETURNDATASIZE PUSH1 0x0 DUP1 RETURNDATACOPY RETURNDATASIZE PUSH1 0x0 REVERT JUMPDEST POP POP POP POP PUSH1 0x40 MLOAD RETURNDATASIZE PUSH1 0x1F NOT PUSH1 0x1F DUP3 ADD AND DUP3 ADD DUP1 PUSH1 0x40 MSTORE POP DUP2 ADD SWAP1 PUSH2 0x819 SWAP2 SWAP1 PUSH2 0xCC5 JUMP JUMPDEST PUSH2 0x865 JUMPI PUSH1 0x40 MLOAD PUSH3 0x461BCD PUSH1 0xE5 SHL DUP2 MSTORE PUSH1 0x20 PUSH1 0x4 DUP3 ADD DUP2 SWAP1 MSTORE PUSH1 0x24 DUP3 ADD MSTORE PUSH32 0x5472616E7366657220746F2070726F6A656374206F776E6572206661696C6564 PUSH1 0x44 DUP3 ADD MSTORE PUSH1 0x64 ADD PUSH2 0x53F JUMP JUMPDEST PUSH1 0x2 SLOAD PUSH1 0x8 SLOAD PUSH1 0x40 MLOAD PUSH4 0xA9059CBB PUSH1 0xE0 SHL DUP2 MSTORE PUSH1 0x1 PUSH1 0x1 PUSH1 0xA0 SHL SUB SWAP2 DUP3 AND PUSH1 0x4 DUP3 ADD MSTORE PUSH1 0x24 DUP2 ADD DUP5 SWAP1 MSTORE SWAP2 AND SWAP1 PUSH4 0xA9059CBB SWAP1 PUSH1 0x44 ADD PUSH1 0x20 PUSH1 0x40 MLOAD DUP1 DUP4 SUB DUP2 PUSH1 0x0 DUP8 GAS CALL ISZERO DUP1 ISZERO PUSH2 0x8BA JUMPI RETURNDATASIZE PUSH1 0x0 DUP1 RETURNDATACOPY RETURNDATASIZE PUSH1 0x0 REVERT JUMPDEST POP POP POP POP PUSH1 0x40 MLOAD RETURNDATASIZE PUSH1 0x1F NOT PUSH1 0x1F DUP3 ADD AND DUP3 ADD DUP1 PUSH1 0x40 MSTORE POP DUP2 ADD SWAP1 PUSH2 0x8DE SWAP2 SWAP1 PUSH2 0xCC5 JUMP JUMPDEST PUSH2 0x935 JUMPI PUSH1 0x40 MLOAD PUSH3 0x461BCD PUSH1 0xE5 SHL DUP2 MSTORE PUSH1 0x20 PUSH1 0x4 DUP3 ADD MSTORE PUSH1 0x22 PUSH1 0x24 DUP3 ADD MSTORE PUSH32 0x5472616E7366657220746F20616E6F746865722061646472657373206661696C PUSH1 0x44 DUP3 ADD MSTORE PUSH2 0x1959 PUSH1 0xF2 SHL PUSH1 0x64 DUP3 ADD MSTORE PUSH1 0x84 ADD PUSH2 0x53F JUMP JUMPDEST PUSH1 0x3 SLOAD PUSH1 0x20 DUP5 ADD MLOAD PUSH1 0x40 MLOAD PUSH4 0x65CD85D PUSH1 0xE0 SHL DUP2 MSTORE CALLER PUSH1 0x4 DUP3 ADD MSTORE PUSH1 0x24 DUP2 ADD SWAP2 SWAP1 SWAP2 MSTORE PUSH1 0x1 PUSH1 0x1 PUSH1 0xA0 SHL SUB SWAP1 SWAP2 AND SWAP1 PUSH4 0x65CD85D SWAP1 PUSH1 0x44 ADD PUSH1 0x0 PUSH1 0x40 MLOAD DUP1 DUP4 SUB DUP2 PUSH1 0x0 DUP8 DUP1 EXTCODESIZE ISZERO DUP1 ISZERO PUSH2 0x987 JUMPI PUSH1 0x0 DUP1 REVERT JUMPDEST POP GAS CALL ISZERO DUP1 ISZERO PUSH2 0x99B JUMPI RETURNDATASIZE PUSH1 0x0 DUP1 RETURNDATACOPY RETURNDATASIZE PUSH1 0x0 REVERT JUMPDEST POP POP DUP5 MLOAD PUSH1 0x20 DUP1 DUP8 ADD MLOAD PUSH1 0x40 DUP1 MLOAD DUP11 DUP2 MSTORE SWAP3 DUP4 ADD SWAP4 SWAP1 SWAP4 MSTORE DUP2 DUP4 ADD MSTORE SWAP1 MLOAD CALLER SWAP4 POP PUSH32 0x129A0377F5862974E93E873169FD1E8CF0681916D5B8B04338CB4224AF00F024 SWAP3 POP SWAP1 DUP2 SWAP1 SUB PUSH1 0x60 ADD SWAP1 LOG2 POP POP POP PUSH2 0x548 PUSH1 0x1 DUP1 SSTORE JUMP JUMPDEST PUSH2 0x9FC PUSH2 0xAAE JUMP JUMPDEST PUSH1 0x7 DUP1 SLOAD PUSH1 0x1 PUSH1 0x1 PUSH1 0xA0 SHL SUB NOT AND PUSH1 0x1 PUSH1 0x1 PUSH1 0xA0 SHL SUB SWAP3 SWAP1 SWAP3 AND SWAP2 SWAP1 SWAP2 OR SWAP1 SSTORE JUMP JUMPDEST PUSH1 0x0 DUP1 PUSH1 0x6 SLOAD DUP4 LT PUSH2 0xA42 JUMPI PUSH1 0x40 MLOAD PUSH3 0x461BCD PUSH1 0xE5 SHL DUP2 MSTORE PUSH1 0x4 ADD PUSH2 0x53F SWAP1 PUSH2 0xCE7 JUMP JUMPDEST POP POP PUSH1 0x0 SWAP1 DUP2 MSTORE PUSH1 0x4 PUSH1 0x20 SWAP1 DUP2 MSTORE PUSH1 0x40 SWAP2 DUP3 SWAP1 KECCAK256 DUP3 MLOAD DUP1 DUP5 ADD SWAP1 SWAP4 MSTORE DUP1 SLOAD DUP1 DUP5 MSTORE PUSH1 0x1 SWAP1 SWAP2 ADD SLOAD SWAP3 SWAP1 SWAP2 ADD DUP3 SWAP1 MSTORE SWAP2 JUMP JUMPDEST PUSH2 0xA7B PUSH2 0xAAE JUMP JUMPDEST PUSH1 0x1 PUSH1 0x1 PUSH1 0xA0 SHL SUB DUP2 AND PUSH2 0xAA5 JUMPI PUSH1 0x40 MLOAD PUSH4 0x1E4FBDF7 PUSH1 0xE0 SHL DUP2 MSTORE PUSH1 0x0 PUSH1 0x4 DUP3 ADD MSTORE PUSH1 0x24 ADD PUSH2 0x53F JUMP JUMPDEST PUSH2 0x548 DUP2 PUSH2 0xADB JUMP JUMPDEST PUSH1 0x0 SLOAD PUSH1 0x1 PUSH1 0x1 PUSH1 0xA0 SHL SUB AND CALLER EQ PUSH2 0x586 JUMPI PUSH1 0x40 MLOAD PUSH4 0x118CDAA7 PUSH1 0xE0 SHL DUP2 MSTORE CALLER PUSH1 0x4 DUP3 ADD MSTORE PUSH1 0x24 ADD PUSH2 0x53F JUMP JUMPDEST PUSH1 0x0 DUP1 SLOAD PUSH1 0x1 PUSH1 0x1 PUSH1 0xA0 SHL SUB DUP4 DUP2 AND PUSH1 0x1 PUSH1 0x1 PUSH1 0xA0 SHL SUB NOT DUP4 AND DUP2 OR DUP5 SSTORE PUSH1 0x40 MLOAD SWAP2 SWAP1 SWAP3 AND SWAP3 DUP4 SWAP2 PUSH32 0x8BE0079C531659141344CD1FD0A4F28419497F9722A3DAAFE3B4186F6B6457E0 SWAP2 SWAP1 LOG3 POP POP JUMP JUMPDEST PUSH1 0x2 PUSH1 0x1 SLOAD SUB PUSH2 0xB7D JUMPI PUSH1 0x40 MLOAD PUSH3 0x461BCD PUSH1 0xE5 SHL DUP2 MSTORE PUSH1 0x20 PUSH1 0x4 DUP3 ADD MSTORE PUSH1 0x1F PUSH1 0x24 DUP3 ADD MSTORE PUSH32 0x5265656E7472616E637947756172643A207265656E7472616E742063616C6C00 PUSH1 0x44 DUP3 ADD MSTORE PUSH1 0x64 ADD PUSH2 0x53F JUMP JUMPDEST PUSH1 0x2 PUSH1 0x1 SSTORE JUMP JUMPDEST PUSH1 0x0 DUP1 PUSH1 0x40 DUP4 DUP6 SUB SLT ISZERO PUSH2 0xB97 JUMPI PUSH1 0x0 DUP1 REVERT JUMPDEST POP POP DUP1 CALLDATALOAD SWAP3 PUSH1 0x20 SWAP1 SWAP2 ADD CALLDATALOAD SWAP2 POP JUMP JUMPDEST PUSH1 0x20 DUP1 DUP3 MSTORE DUP3 MLOAD DUP3 DUP3 ADD DUP2 SWAP1 MSTORE PUSH1 0x0 SWAP2 SWAP1 PUSH1 0x40 SWAP1 DUP2 DUP6 ADD SWAP1 DUP7 DUP5 ADD DUP6 JUMPDEST DUP3 DUP2 LT ISZERO PUSH2 0xBE8 JUMPI DUP2 MLOAD DUP1 MLOAD DUP6 MSTORE DUP7 ADD MLOAD DUP7 DUP6 ADD MSTORE SWAP3 DUP5 ADD SWAP3 SWAP1 DUP6 ADD SWAP1 PUSH1 0x1 ADD PUSH2 0xBC3 JUMP JUMPDEST POP SWAP2 SWAP8 SWAP7 POP POP POP POP POP POP POP JUMP JUMPDEST PUSH1 0x0 PUSH1 0x20 DUP3 DUP5 SUB SLT ISZERO PUSH2 0xC07 JUMPI PUSH1 0x0 DUP1 REVERT JUMPDEST DUP2 CALLDATALOAD PUSH1 0x1 PUSH1 0x1 PUSH1 0xA0 SHL SUB DUP2 AND DUP2 EQ PUSH2 0xC1E JUMPI PUSH1 0x0 DUP1 REVERT JUMPDEST SWAP4 SWAP3 POP POP POP JUMP JUMPDEST PUSH1 0x0 PUSH1 0x20 DUP3 DUP5 SUB SLT ISZERO PUSH2 0xC37 JUMPI PUSH1 0x0 DUP1 REVERT JUMPDEST POP CALLDATALOAD SWAP2 SWAP1 POP JUMP JUMPDEST PUSH1 0x0 DUP1 PUSH1 0x0 PUSH1 0x60 DUP5 DUP7 SUB SLT ISZERO PUSH2 0xC53 JUMPI PUSH1 0x0 DUP1 REVERT JUMPDEST POP POP DUP2 CALLDATALOAD SWAP4 PUSH1 0x20 DUP4 ADD CALLDATALOAD SWAP4 POP PUSH1 0x40 SWAP1 SWAP3 ADD CALLDATALOAD SWAP2 SWAP1 POP JUMP JUMPDEST PUSH4 0x4E487B71 PUSH1 0xE0 SHL PUSH1 0x0 MSTORE PUSH1 0x11 PUSH1 0x4 MSTORE PUSH1 0x24 PUSH1 0x0 REVERT JUMPDEST PUSH1 0x0 PUSH1 0x1 DUP3 ADD PUSH2 0xC92 JUMPI PUSH2 0xC92 PUSH2 0xC6A JUMP JUMPDEST POP PUSH1 0x1 ADD SWAP1 JUMP JUMPDEST PUSH4 0x4E487B71 PUSH1 0xE0 SHL PUSH1 0x0 MSTORE PUSH1 0x41 PUSH1 0x4 MSTORE PUSH1 0x24 PUSH1 0x0 REVERT JUMPDEST PUSH4 0x4E487B71 PUSH1 0xE0 SHL PUSH1 0x0 MSTORE PUSH1 0x32 PUSH1 0x4 MSTORE PUSH1 0x24 PUSH1 0x0 REVERT JUMPDEST PUSH1 0x0 PUSH1 0x20 DUP3 DUP5 SUB SLT ISZERO PUSH2 0xCD7 JUMPI PUSH1 0x0 DUP1 REVERT JUMPDEST DUP2 MLOAD DUP1 ISZERO ISZERO DUP2 EQ PUSH2 0xC1E JUMPI PUSH1 0x0 DUP1 REVERT JUMPDEST PUSH1 0x20 DUP1 DUP3 MSTORE PUSH1 0x16 SWAP1 DUP3 ADD MSTORE PUSH22 0x141858DAD859D948191BD95CC81B9BDD08195E1A5CDD PUSH1 0x52 SHL PUSH1 0x40 DUP3 ADD MSTORE PUSH1 0x60 ADD SWAP1 JUMP JUMPDEST DUP1 DUP3 MUL DUP2 ISZERO DUP3 DUP3 DIV DUP5 EQ OR PUSH2 0xD2E JUMPI PUSH2 0xD2E PUSH2 0xC6A JUMP JUMPDEST SWAP3 SWAP2 POP POP JUMP JUMPDEST PUSH1 0x0 DUP3 PUSH2 0xD51 JUMPI PUSH4 0x4E487B71 PUSH1 0xE0 SHL PUSH1 0x0 MSTORE PUSH1 0x12 PUSH1 0x4 MSTORE PUSH1 0x24 PUSH1 0x0 REVERT JUMPDEST POP DIV SWAP1 JUMP JUMPDEST DUP2 DUP2 SUB DUP2 DUP2 GT ISZERO PUSH2 0xD2E JUMPI PUSH2 0xD2E PUSH2 0xC6A JUMP INVALID LOG2 PUSH5 0x6970667358 0x22 SLT KECCAK256 0xDD NOT CREATE SGT RETURNDATACOPY EQ 0xA7 0xEC SMOD 0xB8 0xF8 SWAP3 SELFDESTRUCT 0xD8 0x4E SAR DUP13 LOG4 BALANCE DUP16 ISZERO DUP14 0xA5 0xBD PC PUSH14 0x673401B463EB64736F6C63430008 EQ STOP CALLER "
		},
		"gasEstimates": {
			"creation": {
				"codeDepositCost": "697400",
				"executionCost": "infinite",
				"totalCost": "infinite"
			},
			"external": {
				"anotherAddress()": "2425",
				"createPackage(uint256,uint256)": "73193",
				"editPackage(uint256,uint256,uint256)": "48936",
				"emergencyStop()": "2416",
				"getAllPackages()": "infinite",
				"getHighestPurchase(address)": "2568",
				"getPackage(uint256)": "6816",
				"highestPurchases(address)": "2551",
				"owner()": "2376",
				"packageCount()": "2405",
				"packages(uint256)": "4621",
				"pmt()": "2405",
				"projectOwnerAddress()": "2427",
				"purchasePackage(uint256)": "infinite",
				"renounceOwnership()": "infinite",
				"setAnotherAddress(address)": "26723",
				"setProjectOwnerAddress(address)": "26811",
				"toggleEmergencyStop()": "26648",
				"transferOwnership(address)": "28430",
				"usdt()": "2449",
				"withdrawUSDT(uint256)": "infinite"
			}
		},
		"methodIdentifiers": {
			"anotherAddress()": "e2deb8b3",
			"createPackage(uint256,uint256)": "06ce7029",
			"editPackage(uint256,uint256,uint256)": "76e95f6b",
			"emergencyStop()": "63a599a4",
			"getAllPackages()": "0a421f0f",
			"getHighestPurchase(address)": "d491bab8",
			"getPackage(uint256)": "b99dfe18",
			"highestPurchases(address)": "91e01dcb",
			"owner()": "8da5cb5b",
			"packageCount()": "ee0ebe0c",
			"packages(uint256)": "c216212a",
			"pmt()": "0cc56602",
			"projectOwnerAddress()": "1c081504",
			"purchasePackage(uint256)": "a3d5ecb7",
			"renounceOwnership()": "715018a6",
			"setAnotherAddress(address)": "3177290c",
			"setProjectOwnerAddress(address)": "b20671ba",
			"toggleEmergencyStop()": "4b7aac94",
			"transferOwnership(address)": "f2fde38b",
			"usdt()": "2f48ab7d",
			"withdrawUSDT(uint256)": "3ea521ef"
		}
	},
	"abi": [
		{
			"inputs": [
				{
					"internalType": "address",
					"name": "_usdtAddress",
					"type": "address"
				},
				{
					"internalType": "address",
					"name": "_pmtAddress",
					"type": "address"
				},
				{
					"internalType": "address",
					"name": "_projectOwnerAddress",
					"type": "address"
				},
				{
					"internalType": "address",
					"name": "_anotherAddress",
					"type": "address"
				}
			],
			"stateMutability": "nonpayable",
			"type": "constructor"
		},
		{
			"inputs": [
				{
					"internalType": "address",
					"name": "owner",
					"type": "address"
				}
			],
			"name": "OwnableInvalidOwner",
			"type": "error"
		},
		{
			"inputs": [
				{
					"internalType": "address",
					"name": "account",
					"type": "address"
				}
			],
			"name": "OwnableUnauthorizedAccount",
			"type": "error"
		},
		{
			"anonymous": false,
			"inputs": [
				{
					"indexed": true,
					"internalType": "address",
					"name": "previousOwner",
					"type": "address"
				},
				{
					"indexed": true,
					"internalType": "address",
					"name": "newOwner",
					"type": "address"
				}
			],
			"name": "OwnershipTransferred",
			"type": "event"
		},
		{
			"anonymous": false,
			"inputs": [
				{
					"indexed": true,
					"internalType": "address",
					"name": "buyer",
					"type": "address"
				},
				{
					"indexed": false,
					"internalType": "uint256",
					"name": "packageId",
					"type": "uint256"
				},
				{
					"indexed": false,
					"internalType": "uint256",
					"name": "usdtAmount",
					"type": "uint256"
				},
				{
					"indexed": false,
					"internalType": "uint256",
					"name": "pmtAmount",
					"type": "uint256"
				}
			],
			"name": "PackagePurchased",
			"type": "event"
		},
		{
			"inputs": [],
			"name": "anotherAddress",
			"outputs": [
				{
					"internalType": "address",
					"name": "",
					"type": "address"
				}
			],
			"stateMutability": "view",
			"type": "function"
		},
		{
			"inputs": [
				{
					"internalType": "uint256",
					"name": "usdtAmount",
					"type": "uint256"
				},
				{
					"internalType": "uint256",
					"name": "pmtAmount",
					"type": "uint256"
				}
			],
			"name": "createPackage",
			"outputs": [],
			"stateMutability": "nonpayable",
			"type": "function"
		},
		{
			"inputs": [
				{
					"internalType": "uint256",
					"name": "packageId",
					"type": "uint256"
				},
				{
					"internalType": "uint256",
					"name": "usdtAmount",
					"type": "uint256"
				},
				{
					"internalType": "uint256",
					"name": "pmtAmount",
					"type": "uint256"
				}
			],
			"name": "editPackage",
			"outputs": [],
			"stateMutability": "nonpayable",
			"type": "function"
		},
		{
			"inputs": [],
			"name": "emergencyStop",
			"outputs": [
				{
					"internalType": "bool",
					"name": "",
					"type": "bool"
				}
			],
			"stateMutability": "view",
			"type": "function"
		},
		{
			"inputs": [],
			"name": "getAllPackages",
			"outputs": [
				{
					"components": [
						{
							"internalType": "uint256",
							"name": "usdtAmount",
							"type": "uint256"
						},
						{
							"internalType": "uint256",
							"name": "pmtAmount",
							"type": "uint256"
						}
					],
					"internalType": "struct PMTPurchaseContract.Package[]",
					"name": "",
					"type": "tuple[]"
				}
			],
			"stateMutability": "view",
			"type": "function"
		},
		{
			"inputs": [
				{
					"internalType": "address",
					"name": "buyer",
					"type": "address"
				}
			],
			"name": "getHighestPurchase",
			"outputs": [
				{
					"internalType": "uint256",
					"name": "",
					"type": "uint256"
				}
			],
			"stateMutability": "view",
			"type": "function"
		},
		{
			"inputs": [
				{
					"internalType": "uint256",
					"name": "packageId",
					"type": "uint256"
				}
			],
			"name": "getPackage",
			"outputs": [
				{
					"internalType": "uint256",
					"name": "usdtAmount",
					"type": "uint256"
				},
				{
					"internalType": "uint256",
					"name": "pmtAmount",
					"type": "uint256"
				}
			],
			"stateMutability": "view",
			"type": "function"
		},
		{
			"inputs": [
				{
					"internalType": "address",
					"name": "",
					"type": "address"
				}
			],
			"name": "highestPurchases",
			"outputs": [
				{
					"internalType": "uint256",
					"name": "",
					"type": "uint256"
				}
			],
			"stateMutability": "view",
			"type": "function"
		},
		{
			"inputs": [],
			"name": "owner",
			"outputs": [
				{
					"internalType": "address",
					"name": "",
					"type": "address"
				}
			],
			"stateMutability": "view",
			"type": "function"
		},
		{
			"inputs": [],
			"name": "packageCount",
			"outputs": [
				{
					"internalType": "uint256",
					"name": "",
					"type": "uint256"
				}
			],
			"stateMutability": "view",
			"type": "function"
		},
		{
			"inputs": [
				{
					"internalType": "uint256",
					"name": "",
					"type": "uint256"
				}
			],
			"name": "packages",
			"outputs": [
				{
					"internalType": "uint256",
					"name": "usdtAmount",
					"type": "uint256"
				},
				{
					"internalType": "uint256",
					"name": "pmtAmount",
					"type": "uint256"
				}
			],
			"stateMutability": "view",
			"type": "function"
		},
		{
			"inputs": [],
			"name": "pmt",
			"outputs": [
				{
					"internalType": "contract IPMT",
					"name": "",
					"type": "address"
				}
			],
			"stateMutability": "view",
			"type": "function"
		},
		{
			"inputs": [],
			"name": "projectOwnerAddress",
			"outputs": [
				{
					"internalType": "address",
					"name": "",
					"type": "address"
				}
			],
			"stateMutability": "view",
			"type": "function"
		},
		{
			"inputs": [
				{
					"internalType": "uint256",
					"name": "packageId",
					"type": "uint256"
				}
			],
			"name": "purchasePackage",
			"outputs": [],
			"stateMutability": "nonpayable",
			"type": "function"
		},
		{
			"inputs": [],
			"name": "renounceOwnership",
			"outputs": [],
			"stateMutability": "nonpayable",
			"type": "function"
		},
		{
			"inputs": [
				{
					"internalType": "address",
					"name": "_address",
					"type": "address"
				}
			],
			"name": "setAnotherAddress",
			"outputs": [],
			"stateMutability": "nonpayable",
			"type": "function"
		},
		{
			"inputs": [
				{
					"internalType": "address",
					"name": "_address",
					"type": "address"
				}
			],
			"name": "setProjectOwnerAddress",
			"outputs": [],
			"stateMutability": "nonpayable",
			"type": "function"
		},
		{
			"inputs": [],
			"name": "toggleEmergencyStop",
			"outputs": [],
			"stateMutability": "nonpayable",
			"type": "function"
		},
		{
			"inputs": [
				{
					"internalType": "address",
					"name": "newOwner",
					"type": "address"
				}
			],
			"name": "transferOwnership",
			"outputs": [],
			"stateMutability": "nonpayable",
			"type": "function"
		},
		{
			"inputs": [],
			"name": "usdt",
			"outputs": [
				{
					"internalType": "contract IERC20",
					"name": "",
					"type": "address"
				}
			],
			"stateMutability": "view",
			"type": "function"
		},
		{
			"inputs": [
				{
					"internalType": "uint256",
					"name": "amount",
					"type": "uint256"
				}
			],
			"name": "withdrawUSDT",
			"outputs": [],
			"stateMutability": "nonpayable",
			"type": "function"
		}
	]
}