{
	"data": {
		"bytecode": {
			"linkReferences": {},
			"object": "6080604052600a60085560056009553480156200001a575f80fd5b5060405162001533380380620015338339810160408190526200003d9162000153565b5f805460ff1916905533806200006c57604051631e4fbdf760e01b81525f600482015260240160405180910390fd5b6200007781620000df565b5060018055600280546001600160a01b03199081166001600160a01b03978816179091556003805482169587169590951790945560058054851693861693909317909255600680548416918516919091179055600480549092169216919091179055620001bf565b5f80546001600160a01b03838116610100818102610100600160a81b0319851617855560405193049190911692909183917f8be0079c531659141344cd1fd0a4f28419497f9722a3daafe3b4186f6b6457e091a35050565b80516001600160a01b03811681146200014e575f80fd5b919050565b5f805f805f60a0868803121562000168575f80fd5b620001738662000137565b9450620001836020870162000137565b9350620001936040870162000137565b9250620001a36060870162000137565b9150620001b36080870162000137565b90509295509295909350565b61136680620001cd5f395ff3fe608060405234801561000f575f80fd5b50600436106101a1575f3560e01c80638a2a5f76116100f3578063d617c0a811610093578063e9ef92c31161006e578063e9ef92c314610356578063efe6c0e614610369578063f2fde38b1461037c578063fce0f9281461038f575f80fd5b8063d617c0a814610327578063e04ffb2414610330578063e9e15b4f14610343575f80fd5b8063abfd18e7116100ce578063abfd18e7146102d7578063ad1dd070146102ea578063c82b0a48146102fd578063cbf4b23b14610310575f80fd5b80638a2a5f761461029c5780638da5cb5b146102af578063a98ad46c146102c4575f80fd5b8063493f49691161015e57806365d502011161013957806365d5020114610266578063715018a6146102795780638456cb59146102815780638946847514610289575f80fd5b8063493f49691461022b578063537df3b61461023e5780635c975abb14610251575f80fd5b80631755ff21146101a5578063377c495f146101d55780633a3c28b5146101ea5780633cf96af1146101fd5780633f4ba83a1461021057806344337ea114610218575b5f80fd5b6006546101b8906001600160a01b031681565b6040516001600160a01b0390911681526020015b60405180910390f35b6101e86101e336600461115e565b6103a2565b005b6101e86101f836600461117e565b6103cc565b6005546101b8906001600160a01b031681565b6101e8610424565b6101e861022636600461115e565b610436565b6101e8610239366004611195565b610461565b6101e861024c36600461115e565b6105b9565b5f5460ff1660405190151581526020016101cc565b6101e861027436600461117e565b6105e1565b6101e86106fc565b6101e861070d565b6007546101b8906001600160a01b031681565b6101e86102aa36600461117e565b61071d565b5f5461010090046001600160a01b03166101b8565b6003546101b8906001600160a01b031681565b6101e86102e536600461117e565b610770565b6002546101b8906001600160a01b031681565b6101e861030b36600461115e565b6109d3565b61031960085481565b6040519081526020016101cc565b61031960095481565b6004546101b8906001600160a01b031681565b6101e861035136600461115e565b6109fd565b6101e861036436600461117e565b610a27565b6101e861037736600461115e565b610d10565b6101e861038a36600461115e565b610d3a565b6101e861039d36600461115e565b610d74565b6103aa610d9e565b600780546001600160a01b0319166001600160a01b0392909216919091179055565b6103d4610d9e565b606481111561041f5760405162461bcd60e51b8152602060048201526012602482015271496e76616c69642070657263656e7461676560701b60448201526064015b60405180910390fd5b600855565b61042c610d9e565b610434610dd0565b565b61043e610d9e565b6001600160a01b03165f908152600a60205260409020805460ff19166001179055565b610469610e21565b610471610e66565b610479610d9e565b6001600160a01b0381165f908152600a602052604090205460ff16156104b15760405162461bcd60e51b8152600401610416906111bf565b5f6064600854846104c29190611203565b6104cc9190611220565b90505f6104d9828561123f565b6003546007546040516323b872dd60e01b81529293506001600160a01b03918216926323b872dd9261051392169087908690600401611252565b6020604051808303815f875af115801561052f573d5f803e3d5ffd5b505050506040513d601f19601f820116820180604052508101906105539190611276565b61056f5760405162461bcd60e51b815260040161041690611295565b604080518581526020810183905233917f81f48ccab218e8df6698e1c0608e5b0f630ea8eaf47606ba4a8f54d9369b9602910160405180910390a250506105b560018055565b5050565b6105c1610d9e565b6001600160a01b03165f908152600a60205260409020805460ff19169055565b6105e9610e21565b6105f1610e66565b335f908152600a602052604090205460ff16156106205760405162461bcd60e51b8152600401610416906111bf565b6003546006546040516323b872dd60e01b81526001600160a01b03928316926323b872dd92610659923392909116908690600401611252565b6020604051808303815f875af1158015610675573d5f803e3d5ffd5b505050506040513d601f19601f820116820180604052508101906106999190611276565b6106b55760405162461bcd60e51b815260040161041690611295565b604080518281526020810183905233917f871ff7cd2602a0625d0277a8fbf9ae6610e192046a90f845cd9e657fcb3d3e8b910160405180910390a26106f960018055565b50565b610704610d9e565b6104345f610ebf565b610715610d9e565b610434610f17565b610725610d9e565b606481111561076b5760405162461bcd60e51b8152602060048201526012602482015271496e76616c69642070657263656e7461676560701b6044820152606401610416565b600955565b610778610e21565b610780610e66565b335f908152600a602052604090205460ff16156107af5760405162461bcd60e51b8152600401610416906111bf565b6107b93382610f53565b5f6064600954836107ca9190611203565b6107d49190611220565b90505f6107e1828461123f565b6002546005546040516323b872dd60e01b81529293506001600160a01b03918216926323b872dd9261081c9233929116908790600401611252565b6020604051808303815f875af1158015610838573d5f803e3d5ffd5b505050506040513d601f19601f8201168201806040525081019061085c9190611276565b6108785760405162461bcd60e51b8152600401610416906112c3565b6002546040516323b872dd60e01b81526001600160a01b03909116906323b872dd906108ac90339030908690600401611252565b6020604051808303815f875af11580156108c8573d5f803e3d5ffd5b505050506040513d601f19601f820116820180604052508101906108ec9190611276565b6109335760405162461bcd60e51b8152602060048201526018602482015277135508151bdad95b881d1c985b9cd9995c8819985a5b195960421b6044820152606401610416565b600254604051630852cd8d60e31b8152600481018390526001600160a01b03909116906342966c68906024015f604051808303815f87803b158015610976575f80fd5b505af1158015610988573d5f803e3d5ffd5b505060408051868152602081018590523393507fc240fa06e9cb797acd4c857af1248358da150d43e3e0e741e8696e36821ed16b9250015b60405180910390a250506106f960018055565b6109db610d9e565b600280546001600160a01b0319166001600160a01b0392909216919091179055565b610a05610d9e565b600680546001600160a01b0319166001600160a01b0392909216919091179055565b610a2f610e21565b610a37610e66565b335f908152600a602052604090205460ff1615610a665760405162461bcd60e51b8152600401610416906111bf565b610a703382610f53565b5f606460085483610a819190611203565b610a8b9190611220565b90505f610a98828461123f565b6002546005546040516323b872dd60e01b81529293506001600160a01b03918216926323b872dd92610ad39233929116908790600401611252565b6020604051808303815f875af1158015610aef573d5f803e3d5ffd5b505050506040513d601f19601f82011682018060405250810190610b139190611276565b610b2f5760405162461bcd60e51b8152600401610416906112c3565b6002546040516323b872dd60e01b81526001600160a01b03909116906323b872dd90610b6390339030908690600401611252565b6020604051808303815f875af1158015610b7f573d5f803e3d5ffd5b505050506040513d601f19601f82011682018060405250810190610ba39190611276565b610bea5760405162461bcd60e51b8152602060048201526018602482015277135508151bdad95b881d1c985b9cd9995c8819985a5b195960421b6044820152606401610416565b600254604051630852cd8d60e31b8152600481018390526001600160a01b03909116906342966c68906024015f604051808303815f87803b158015610c2d575f80fd5b505af1158015610c3f573d5f803e3d5ffd5b50506003546007546040516323b872dd60e01b81526001600160a01b0392831694506323b872dd9350610c7c929091169033908690600401611252565b6020604051808303815f875af1158015610c98573d5f803e3d5ffd5b505050506040513d601f19601f82011682018060405250810190610cbc9190611276565b610cd85760405162461bcd60e51b815260040161041690611295565b604080518481526020810183905233917fd0dcb5d6ccbc65558941eda1d0add99921923cc1868a41bbf8d224258a21396d91016109c0565b610d18610d9e565b600480546001600160a01b0319166001600160a01b0392909216919091179055565b610d42610d9e565b6001600160a01b038116610d6b57604051631e4fbdf760e01b81525f6004820152602401610416565b6106f981610ebf565b610d7c610d9e565b600580546001600160a01b0319166001600160a01b0392909216919091179055565b5f546001600160a01b036101009091041633146104345760405163118cdaa760e01b8152336004820152602401610416565b610dd86110fb565b5f805460ff191690557f5db9ee0a495bf2e6ff9c91a7834c1ba4fdd244a5e8aa4e537bd38aeae4b073aa335b6040516001600160a01b03909116815260200160405180910390a1565b5f5460ff16156104345760405162461bcd60e51b815260206004820152601060248201526f14185d5cd8589b194e881c185d5cd95960821b6044820152606401610416565b600260015403610eb85760405162461bcd60e51b815260206004820152601f60248201527f5265656e7472616e637947756172643a207265656e7472616e742063616c6c006044820152606401610416565b6002600155565b5f80546001600160a01b03838116610100818102610100600160a81b0319851617855560405193049190911692909183917f8be0079c531659141344cd1fd0a4f28419497f9722a3daafe3b4186f6b6457e091a35050565b610f1f610e21565b5f805460ff191660011790557f62e78cea01bee320cd4e420270b5ea74000d11b0c9f74754ebdbfc544b05a258610e043390565b6004805460405163733bbbdd60e11b81526001600160a01b03858116938201939093525f929091169063e67777ba90602401602060405180830381865afa158015610fa0573d5f803e3d5ffd5b505050506040513d601f19601f82011682018060405250810190610fc49190611306565b600480546040516356582bf960e01b81526001600160a01b03878116938201939093529293505f929116906356582bf990602401602060405180830381865afa158015611013573d5f803e3d5ffd5b505050506040513d601f19601f820116820180604052508101906110379190611306565b9050611043838261131d565b8210156110925760405162461bcd60e51b815260206004820152601f60248201527f5769746864726177616c20616d6f756e742065786365656473206c696d6974006044820152606401610416565b6004805460405163843f44f160e01b81526001600160a01b03878116938201939093526024810186905291169063843f44f1906044015f604051808303815f87803b1580156110df575f80fd5b505af11580156110f1573d5f803e3d5ffd5b5050505050505050565b5f5460ff166104345760405162461bcd60e51b815260206004820152601460248201527314185d5cd8589b194e881b9bdd081c185d5cd95960621b6044820152606401610416565b80356001600160a01b0381168114611159575f80fd5b919050565b5f6020828403121561116e575f80fd5b61117782611143565b9392505050565b5f6020828403121561118e575f80fd5b5035919050565b5f80604083850312156111a6575f80fd5b823591506111b660208401611143565b90509250929050565b6020808252601690820152751059191c995cdcc81a5cc8189b1858dadb1a5cdd195960521b604082015260600190565b634e487b7160e01b5f52601160045260245ffd5b808202811582820484141761121a5761121a6111ef565b92915050565b5f8261123a57634e487b7160e01b5f52601260045260245ffd5b500490565b8181038181111561121a5761121a6111ef565b6001600160a01b039384168152919092166020820152604081019190915260600190565b5f60208284031215611286575f80fd5b81518015158114611177575f80fd5b6020808252601490820152731554d115081d1c985b9cd9995c8819985a5b195960621b604082015260600190565b60208082526023908201527f4d5420546f6b656e207472616e7366657220746f2070726f6a656374206661696040820152621b195960ea1b606082015260800190565b5f60208284031215611316575f80fd5b5051919050565b8082018082111561121a5761121a6111ef56fea2646970667358221220a4d46cbd239f8e2e690f598e90f099636179ca33d877e6e11b7a59a7e682d53764736f6c63430008140033",
			"opcodes": "PUSH1 0x80 PUSH1 0x40 MSTORE PUSH1 0xA PUSH1 0x8 SSTORE PUSH1 0x5 PUSH1 0x9 SSTORE CALLVALUE DUP1 ISZERO PUSH3 0x1A JUMPI PUSH0 DUP1 REVERT JUMPDEST POP PUSH1 0x40 MLOAD PUSH3 0x1533 CODESIZE SUB DUP1 PUSH3 0x1533 DUP4 CODECOPY DUP2 ADD PUSH1 0x40 DUP2 SWAP1 MSTORE PUSH3 0x3D SWAP2 PUSH3 0x153 JUMP JUMPDEST PUSH0 DUP1 SLOAD PUSH1 0xFF NOT AND SWAP1 SSTORE CALLER DUP1 PUSH3 0x6C JUMPI PUSH1 0x40 MLOAD PUSH4 0x1E4FBDF7 PUSH1 0xE0 SHL DUP2 MSTORE PUSH0 PUSH1 0x4 DUP3 ADD MSTORE PUSH1 0x24 ADD PUSH1 0x40 MLOAD DUP1 SWAP2 SUB SWAP1 REVERT JUMPDEST PUSH3 0x77 DUP2 PUSH3 0xDF JUMP JUMPDEST POP PUSH1 0x1 DUP1 SSTORE PUSH1 0x2 DUP1 SLOAD PUSH1 0x1 PUSH1 0x1 PUSH1 0xA0 SHL SUB NOT SWAP1 DUP2 AND PUSH1 0x1 PUSH1 0x1 PUSH1 0xA0 SHL SUB SWAP8 DUP9 AND OR SWAP1 SWAP2 SSTORE PUSH1 0x3 DUP1 SLOAD DUP3 AND SWAP6 DUP8 AND SWAP6 SWAP1 SWAP6 OR SWAP1 SWAP5 SSTORE PUSH1 0x5 DUP1 SLOAD DUP6 AND SWAP4 DUP7 AND SWAP4 SWAP1 SWAP4 OR SWAP1 SWAP3 SSTORE PUSH1 0x6 DUP1 SLOAD DUP5 AND SWAP2 DUP6 AND SWAP2 SWAP1 SWAP2 OR SWAP1 SSTORE PUSH1 0x4 DUP1 SLOAD SWAP1 SWAP3 AND SWAP3 AND SWAP2 SWAP1 SWAP2 OR SWAP1 SSTORE PUSH3 0x1BF JUMP JUMPDEST PUSH0 DUP1 SLOAD PUSH1 0x1 PUSH1 0x1 PUSH1 0xA0 SHL SUB DUP4 DUP2 AND PUSH2 0x100 DUP2 DUP2 MUL PUSH2 0x100 PUSH1 0x1 PUSH1 0xA8 SHL SUB NOT DUP6 AND OR DUP6 SSTORE PUSH1 0x40 MLOAD SWAP4 DIV SWAP2 SWAP1 SWAP2 AND SWAP3 SWAP1 SWAP2 DUP4 SWAP2 PUSH32 0x8BE0079C531659141344CD1FD0A4F28419497F9722A3DAAFE3B4186F6B6457E0 SWAP2 LOG3 POP POP JUMP JUMPDEST DUP1 MLOAD PUSH1 0x1 PUSH1 0x1 PUSH1 0xA0 SHL SUB DUP2 AND DUP2 EQ PUSH3 0x14E JUMPI PUSH0 DUP1 REVERT JUMPDEST SWAP2 SWAP1 POP JUMP JUMPDEST PUSH0 DUP1 PUSH0 DUP1 PUSH0 PUSH1 0xA0 DUP7 DUP9 SUB SLT ISZERO PUSH3 0x168 JUMPI PUSH0 DUP1 REVERT JUMPDEST PUSH3 0x173 DUP7 PUSH3 0x137 JUMP JUMPDEST SWAP5 POP PUSH3 0x183 PUSH1 0x20 DUP8 ADD PUSH3 0x137 JUMP JUMPDEST SWAP4 POP PUSH3 0x193 PUSH1 0x40 DUP8 ADD PUSH3 0x137 JUMP JUMPDEST SWAP3 POP PUSH3 0x1A3 PUSH1 0x60 DUP8 ADD PUSH3 0x137 JUMP JUMPDEST SWAP2 POP PUSH3 0x1B3 PUSH1 0x80 DUP8 ADD PUSH3 0x137 JUMP JUMPDEST SWAP1 POP SWAP3 SWAP6 POP SWAP3 SWAP6 SWAP1 SWAP4 POP JUMP JUMPDEST PUSH2 0x1366 DUP1 PUSH3 0x1CD PUSH0 CODECOPY PUSH0 RETURN INVALID PUSH1 0x80 PUSH1 0x40 MSTORE CALLVALUE DUP1 ISZERO PUSH2 0xF JUMPI PUSH0 DUP1 REVERT JUMPDEST POP PUSH1 0x4 CALLDATASIZE LT PUSH2 0x1A1 JUMPI PUSH0 CALLDATALOAD PUSH1 0xE0 SHR DUP1 PUSH4 0x8A2A5F76 GT PUSH2 0xF3 JUMPI DUP1 PUSH4 0xD617C0A8 GT PUSH2 0x93 JUMPI DUP1 PUSH4 0xE9EF92C3 GT PUSH2 0x6E JUMPI DUP1 PUSH4 0xE9EF92C3 EQ PUSH2 0x356 JUMPI DUP1 PUSH4 0xEFE6C0E6 EQ PUSH2 0x369 JUMPI DUP1 PUSH4 0xF2FDE38B EQ PUSH2 0x37C JUMPI DUP1 PUSH4 0xFCE0F928 EQ PUSH2 0x38F JUMPI PUSH0 DUP1 REVERT JUMPDEST DUP1 PUSH4 0xD617C0A8 EQ PUSH2 0x327 JUMPI DUP1 PUSH4 0xE04FFB24 EQ PUSH2 0x330 JUMPI DUP1 PUSH4 0xE9E15B4F EQ PUSH2 0x343 JUMPI PUSH0 DUP1 REVERT JUMPDEST DUP1 PUSH4 0xABFD18E7 GT PUSH2 0xCE JUMPI DUP1 PUSH4 0xABFD18E7 EQ PUSH2 0x2D7 JUMPI DUP1 PUSH4 0xAD1DD070 EQ PUSH2 0x2EA JUMPI DUP1 PUSH4 0xC82B0A48 EQ PUSH2 0x2FD JUMPI DUP1 PUSH4 0xCBF4B23B EQ PUSH2 0x310 JUMPI PUSH0 DUP1 REVERT JUMPDEST DUP1 PUSH4 0x8A2A5F76 EQ PUSH2 0x29C JUMPI DUP1 PUSH4 0x8DA5CB5B EQ PUSH2 0x2AF JUMPI DUP1 PUSH4 0xA98AD46C EQ PUSH2 0x2C4 JUMPI PUSH0 DUP1 REVERT JUMPDEST DUP1 PUSH4 0x493F4969 GT PUSH2 0x15E JUMPI DUP1 PUSH4 0x65D50201 GT PUSH2 0x139 JUMPI DUP1 PUSH4 0x65D50201 EQ PUSH2 0x266 JUMPI DUP1 PUSH4 0x715018A6 EQ PUSH2 0x279 JUMPI DUP1 PUSH4 0x8456CB59 EQ PUSH2 0x281 JUMPI DUP1 PUSH4 0x89468475 EQ PUSH2 0x289 JUMPI PUSH0 DUP1 REVERT JUMPDEST DUP1 PUSH4 0x493F4969 EQ PUSH2 0x22B JUMPI DUP1 PUSH4 0x537DF3B6 EQ PUSH2 0x23E JUMPI DUP1 PUSH4 0x5C975ABB EQ PUSH2 0x251 JUMPI PUSH0 DUP1 REVERT JUMPDEST DUP1 PUSH4 0x1755FF21 EQ PUSH2 0x1A5 JUMPI DUP1 PUSH4 0x377C495F EQ PUSH2 0x1D5 JUMPI DUP1 PUSH4 0x3A3C28B5 EQ PUSH2 0x1EA JUMPI DUP1 PUSH4 0x3CF96AF1 EQ PUSH2 0x1FD JUMPI DUP1 PUSH4 0x3F4BA83A EQ PUSH2 0x210 JUMPI DUP1 PUSH4 0x44337EA1 EQ PUSH2 0x218 JUMPI JUMPDEST PUSH0 DUP1 REVERT JUMPDEST PUSH1 0x6 SLOAD PUSH2 0x1B8 SWAP1 PUSH1 0x1 PUSH1 0x1 PUSH1 0xA0 SHL SUB AND DUP2 JUMP JUMPDEST PUSH1 0x40 MLOAD PUSH1 0x1 PUSH1 0x1 PUSH1 0xA0 SHL SUB SWAP1 SWAP2 AND DUP2 MSTORE PUSH1 0x20 ADD JUMPDEST PUSH1 0x40 MLOAD DUP1 SWAP2 SUB SWAP1 RETURN JUMPDEST PUSH2 0x1E8 PUSH2 0x1E3 CALLDATASIZE PUSH1 0x4 PUSH2 0x115E JUMP JUMPDEST PUSH2 0x3A2 JUMP JUMPDEST STOP JUMPDEST PUSH2 0x1E8 PUSH2 0x1F8 CALLDATASIZE PUSH1 0x4 PUSH2 0x117E JUMP JUMPDEST PUSH2 0x3CC JUMP JUMPDEST PUSH1 0x5 SLOAD PUSH2 0x1B8 SWAP1 PUSH1 0x1 PUSH1 0x1 PUSH1 0xA0 SHL SUB AND DUP2 JUMP JUMPDEST PUSH2 0x1E8 PUSH2 0x424 JUMP JUMPDEST PUSH2 0x1E8 PUSH2 0x226 CALLDATASIZE PUSH1 0x4 PUSH2 0x115E JUMP JUMPDEST PUSH2 0x436 JUMP JUMPDEST PUSH2 0x1E8 PUSH2 0x239 CALLDATASIZE PUSH1 0x4 PUSH2 0x1195 JUMP JUMPDEST PUSH2 0x461 JUMP JUMPDEST PUSH2 0x1E8 PUSH2 0x24C CALLDATASIZE PUSH1 0x4 PUSH2 0x115E JUMP JUMPDEST PUSH2 0x5B9 JUMP JUMPDEST PUSH0 SLOAD PUSH1 0xFF AND PUSH1 0x40 MLOAD SWAP1 ISZERO ISZERO DUP2 MSTORE PUSH1 0x20 ADD PUSH2 0x1CC JUMP JUMPDEST PUSH2 0x1E8 PUSH2 0x274 CALLDATASIZE PUSH1 0x4 PUSH2 0x117E JUMP JUMPDEST PUSH2 0x5E1 JUMP JUMPDEST PUSH2 0x1E8 PUSH2 0x6FC JUMP JUMPDEST PUSH2 0x1E8 PUSH2 0x70D JUMP JUMPDEST PUSH1 0x7 SLOAD PUSH2 0x1B8 SWAP1 PUSH1 0x1 PUSH1 0x1 PUSH1 0xA0 SHL SUB AND DUP2 JUMP JUMPDEST PUSH2 0x1E8 PUSH2 0x2AA CALLDATASIZE PUSH1 0x4 PUSH2 0x117E JUMP JUMPDEST PUSH2 0x71D JUMP JUMPDEST PUSH0 SLOAD PUSH2 0x100 SWAP1 DIV PUSH1 0x1 PUSH1 0x1 PUSH1 0xA0 SHL SUB AND PUSH2 0x1B8 JUMP JUMPDEST PUSH1 0x3 SLOAD PUSH2 0x1B8 SWAP1 PUSH1 0x1 PUSH1 0x1 PUSH1 0xA0 SHL SUB AND DUP2 JUMP JUMPDEST PUSH2 0x1E8 PUSH2 0x2E5 CALLDATASIZE PUSH1 0x4 PUSH2 0x117E JUMP JUMPDEST PUSH2 0x770 JUMP JUMPDEST PUSH1 0x2 SLOAD PUSH2 0x1B8 SWAP1 PUSH1 0x1 PUSH1 0x1 PUSH1 0xA0 SHL SUB AND DUP2 JUMP JUMPDEST PUSH2 0x1E8 PUSH2 0x30B CALLDATASIZE PUSH1 0x4 PUSH2 0x115E JUMP JUMPDEST PUSH2 0x9D3 JUMP JUMPDEST PUSH2 0x319 PUSH1 0x8 SLOAD DUP2 JUMP JUMPDEST PUSH1 0x40 MLOAD SWAP1 DUP2 MSTORE PUSH1 0x20 ADD PUSH2 0x1CC JUMP JUMPDEST PUSH2 0x319 PUSH1 0x9 SLOAD DUP2 JUMP JUMPDEST PUSH1 0x4 SLOAD PUSH2 0x1B8 SWAP1 PUSH1 0x1 PUSH1 0x1 PUSH1 0xA0 SHL SUB AND DUP2 JUMP JUMPDEST PUSH2 0x1E8 PUSH2 0x351 CALLDATASIZE PUSH1 0x4 PUSH2 0x115E JUMP JUMPDEST PUSH2 0x9FD JUMP JUMPDEST PUSH2 0x1E8 PUSH2 0x364 CALLDATASIZE PUSH1 0x4 PUSH2 0x117E JUMP JUMPDEST PUSH2 0xA27 JUMP JUMPDEST PUSH2 0x1E8 PUSH2 0x377 CALLDATASIZE PUSH1 0x4 PUSH2 0x115E JUMP JUMPDEST PUSH2 0xD10 JUMP JUMPDEST PUSH2 0x1E8 PUSH2 0x38A CALLDATASIZE PUSH1 0x4 PUSH2 0x115E JUMP JUMPDEST PUSH2 0xD3A JUMP JUMPDEST PUSH2 0x1E8 PUSH2 0x39D CALLDATASIZE PUSH1 0x4 PUSH2 0x115E JUMP JUMPDEST PUSH2 0xD74 JUMP JUMPDEST PUSH2 0x3AA PUSH2 0xD9E JUMP JUMPDEST PUSH1 0x7 DUP1 SLOAD PUSH1 0x1 PUSH1 0x1 PUSH1 0xA0 SHL SUB NOT AND PUSH1 0x1 PUSH1 0x1 PUSH1 0xA0 SHL SUB SWAP3 SWAP1 SWAP3 AND SWAP2 SWAP1 SWAP2 OR SWAP1 SSTORE JUMP JUMPDEST PUSH2 0x3D4 PUSH2 0xD9E JUMP JUMPDEST PUSH1 0x64 DUP2 GT ISZERO PUSH2 0x41F JUMPI PUSH1 0x40 MLOAD PUSH3 0x461BCD PUSH1 0xE5 SHL DUP2 MSTORE PUSH1 0x20 PUSH1 0x4 DUP3 ADD MSTORE PUSH1 0x12 PUSH1 0x24 DUP3 ADD MSTORE PUSH18 0x496E76616C69642070657263656E74616765 PUSH1 0x70 SHL PUSH1 0x44 DUP3 ADD MSTORE PUSH1 0x64 ADD JUMPDEST PUSH1 0x40 MLOAD DUP1 SWAP2 SUB SWAP1 REVERT JUMPDEST PUSH1 0x8 SSTORE JUMP JUMPDEST PUSH2 0x42C PUSH2 0xD9E JUMP JUMPDEST PUSH2 0x434 PUSH2 0xDD0 JUMP JUMPDEST JUMP JUMPDEST PUSH2 0x43E PUSH2 0xD9E JUMP JUMPDEST PUSH1 0x1 PUSH1 0x1 PUSH1 0xA0 SHL SUB AND PUSH0 SWAP1 DUP2 MSTORE PUSH1 0xA PUSH1 0x20 MSTORE PUSH1 0x40 SWAP1 KECCAK256 DUP1 SLOAD PUSH1 0xFF NOT AND PUSH1 0x1 OR SWAP1 SSTORE JUMP JUMPDEST PUSH2 0x469 PUSH2 0xE21 JUMP JUMPDEST PUSH2 0x471 PUSH2 0xE66 JUMP JUMPDEST PUSH2 0x479 PUSH2 0xD9E JUMP JUMPDEST PUSH1 0x1 PUSH1 0x1 PUSH1 0xA0 SHL SUB DUP2 AND PUSH0 SWAP1 DUP2 MSTORE PUSH1 0xA PUSH1 0x20 MSTORE PUSH1 0x40 SWAP1 KECCAK256 SLOAD PUSH1 0xFF AND ISZERO PUSH2 0x4B1 JUMPI PUSH1 0x40 MLOAD PUSH3 0x461BCD PUSH1 0xE5 SHL DUP2 MSTORE PUSH1 0x4 ADD PUSH2 0x416 SWAP1 PUSH2 0x11BF JUMP JUMPDEST PUSH0 PUSH1 0x64 PUSH1 0x8 SLOAD DUP5 PUSH2 0x4C2 SWAP2 SWAP1 PUSH2 0x1203 JUMP JUMPDEST PUSH2 0x4CC SWAP2 SWAP1 PUSH2 0x1220 JUMP JUMPDEST SWAP1 POP PUSH0 PUSH2 0x4D9 DUP3 DUP6 PUSH2 0x123F JUMP JUMPDEST PUSH1 0x3 SLOAD PUSH1 0x7 SLOAD PUSH1 0x40 MLOAD PUSH4 0x23B872DD PUSH1 0xE0 SHL DUP2 MSTORE SWAP3 SWAP4 POP PUSH1 0x1 PUSH1 0x1 PUSH1 0xA0 SHL SUB SWAP2 DUP3 AND SWAP3 PUSH4 0x23B872DD SWAP3 PUSH2 0x513 SWAP3 AND SWAP1 DUP8 SWAP1 DUP7 SWAP1 PUSH1 0x4 ADD PUSH2 0x1252 JUMP JUMPDEST PUSH1 0x20 PUSH1 0x40 MLOAD DUP1 DUP4 SUB DUP2 PUSH0 DUP8 GAS CALL ISZERO DUP1 ISZERO PUSH2 0x52F JUMPI RETURNDATASIZE PUSH0 DUP1 RETURNDATACOPY RETURNDATASIZE PUSH0 REVERT JUMPDEST POP POP POP POP PUSH1 0x40 MLOAD RETURNDATASIZE PUSH1 0x1F NOT PUSH1 0x1F DUP3 ADD AND DUP3 ADD DUP1 PUSH1 0x40 MSTORE POP DUP2 ADD SWAP1 PUSH2 0x553 SWAP2 SWAP1 PUSH2 0x1276 JUMP JUMPDEST PUSH2 0x56F JUMPI PUSH1 0x40 MLOAD PUSH3 0x461BCD PUSH1 0xE5 SHL DUP2 MSTORE PUSH1 0x4 ADD PUSH2 0x416 SWAP1 PUSH2 0x1295 JUMP JUMPDEST PUSH1 0x40 DUP1 MLOAD DUP6 DUP2 MSTORE PUSH1 0x20 DUP2 ADD DUP4 SWAP1 MSTORE CALLER SWAP2 PUSH32 0x81F48CCAB218E8DF6698E1C0608E5B0F630EA8EAF47606BA4A8F54D9369B9602 SWAP2 ADD PUSH1 0x40 MLOAD DUP1 SWAP2 SUB SWAP1 LOG2 POP POP PUSH2 0x5B5 PUSH1 0x1 DUP1 SSTORE JUMP JUMPDEST POP POP JUMP JUMPDEST PUSH2 0x5C1 PUSH2 0xD9E JUMP JUMPDEST PUSH1 0x1 PUSH1 0x1 PUSH1 0xA0 SHL SUB AND PUSH0 SWAP1 DUP2 MSTORE PUSH1 0xA PUSH1 0x20 MSTORE PUSH1 0x40 SWAP1 KECCAK256 DUP1 SLOAD PUSH1 0xFF NOT AND SWAP1 SSTORE JUMP JUMPDEST PUSH2 0x5E9 PUSH2 0xE21 JUMP JUMPDEST PUSH2 0x5F1 PUSH2 0xE66 JUMP JUMPDEST CALLER PUSH0 SWAP1 DUP2 MSTORE PUSH1 0xA PUSH1 0x20 MSTORE PUSH1 0x40 SWAP1 KECCAK256 SLOAD PUSH1 0xFF AND ISZERO PUSH2 0x620 JUMPI PUSH1 0x40 MLOAD PUSH3 0x461BCD PUSH1 0xE5 SHL DUP2 MSTORE PUSH1 0x4 ADD PUSH2 0x416 SWAP1 PUSH2 0x11BF JUMP JUMPDEST PUSH1 0x3 SLOAD PUSH1 0x6 SLOAD PUSH1 0x40 MLOAD PUSH4 0x23B872DD PUSH1 0xE0 SHL DUP2 MSTORE PUSH1 0x1 PUSH1 0x1 PUSH1 0xA0 SHL SUB SWAP3 DUP4 AND SWAP3 PUSH4 0x23B872DD SWAP3 PUSH2 0x659 SWAP3 CALLER SWAP3 SWAP1 SWAP2 AND SWAP1 DUP7 SWAP1 PUSH1 0x4 ADD PUSH2 0x1252 JUMP JUMPDEST PUSH1 0x20 PUSH1 0x40 MLOAD DUP1 DUP4 SUB DUP2 PUSH0 DUP8 GAS CALL ISZERO DUP1 ISZERO PUSH2 0x675 JUMPI RETURNDATASIZE PUSH0 DUP1 RETURNDATACOPY RETURNDATASIZE PUSH0 REVERT JUMPDEST POP POP POP POP PUSH1 0x40 MLOAD RETURNDATASIZE PUSH1 0x1F NOT PUSH1 0x1F DUP3 ADD AND DUP3 ADD DUP1 PUSH1 0x40 MSTORE POP DUP2 ADD SWAP1 PUSH2 0x699 SWAP2 SWAP1 PUSH2 0x1276 JUMP JUMPDEST PUSH2 0x6B5 JUMPI PUSH1 0x40 MLOAD PUSH3 0x461BCD PUSH1 0xE5 SHL DUP2 MSTORE PUSH1 0x4 ADD PUSH2 0x416 SWAP1 PUSH2 0x1295 JUMP JUMPDEST PUSH1 0x40 DUP1 MLOAD DUP3 DUP2 MSTORE PUSH1 0x20 DUP2 ADD DUP4 SWAP1 MSTORE CALLER SWAP2 PUSH32 0x871FF7CD2602A0625D0277A8FBF9AE6610E192046A90F845CD9E657FCB3D3E8B SWAP2 ADD PUSH1 0x40 MLOAD DUP1 SWAP2 SUB SWAP1 LOG2 PUSH2 0x6F9 PUSH1 0x1 DUP1 SSTORE JUMP JUMPDEST POP JUMP JUMPDEST PUSH2 0x704 PUSH2 0xD9E JUMP JUMPDEST PUSH2 0x434 PUSH0 PUSH2 0xEBF JUMP JUMPDEST PUSH2 0x715 PUSH2 0xD9E JUMP JUMPDEST PUSH2 0x434 PUSH2 0xF17 JUMP JUMPDEST PUSH2 0x725 PUSH2 0xD9E JUMP JUMPDEST PUSH1 0x64 DUP2 GT ISZERO PUSH2 0x76B JUMPI PUSH1 0x40 MLOAD PUSH3 0x461BCD PUSH1 0xE5 SHL DUP2 MSTORE PUSH1 0x20 PUSH1 0x4 DUP3 ADD MSTORE PUSH1 0x12 PUSH1 0x24 DUP3 ADD MSTORE PUSH18 0x496E76616C69642070657263656E74616765 PUSH1 0x70 SHL PUSH1 0x44 DUP3 ADD MSTORE PUSH1 0x64 ADD PUSH2 0x416 JUMP JUMPDEST PUSH1 0x9 SSTORE JUMP JUMPDEST PUSH2 0x778 PUSH2 0xE21 JUMP JUMPDEST PUSH2 0x780 PUSH2 0xE66 JUMP JUMPDEST CALLER PUSH0 SWAP1 DUP2 MSTORE PUSH1 0xA PUSH1 0x20 MSTORE PUSH1 0x40 SWAP1 KECCAK256 SLOAD PUSH1 0xFF AND ISZERO PUSH2 0x7AF JUMPI PUSH1 0x40 MLOAD PUSH3 0x461BCD PUSH1 0xE5 SHL DUP2 MSTORE PUSH1 0x4 ADD PUSH2 0x416 SWAP1 PUSH2 0x11BF JUMP JUMPDEST PUSH2 0x7B9 CALLER DUP3 PUSH2 0xF53 JUMP JUMPDEST PUSH0 PUSH1 0x64 PUSH1 0x9 SLOAD DUP4 PUSH2 0x7CA SWAP2 SWAP1 PUSH2 0x1203 JUMP JUMPDEST PUSH2 0x7D4 SWAP2 SWAP1 PUSH2 0x1220 JUMP JUMPDEST SWAP1 POP PUSH0 PUSH2 0x7E1 DUP3 DUP5 PUSH2 0x123F JUMP JUMPDEST PUSH1 0x2 SLOAD PUSH1 0x5 SLOAD PUSH1 0x40 MLOAD PUSH4 0x23B872DD PUSH1 0xE0 SHL DUP2 MSTORE SWAP3 SWAP4 POP PUSH1 0x1 PUSH1 0x1 PUSH1 0xA0 SHL SUB SWAP2 DUP3 AND SWAP3 PUSH4 0x23B872DD SWAP3 PUSH2 0x81C SWAP3 CALLER SWAP3 SWAP2 AND SWAP1 DUP8 SWAP1 PUSH1 0x4 ADD PUSH2 0x1252 JUMP JUMPDEST PUSH1 0x20 PUSH1 0x40 MLOAD DUP1 DUP4 SUB DUP2 PUSH0 DUP8 GAS CALL ISZERO DUP1 ISZERO PUSH2 0x838 JUMPI RETURNDATASIZE PUSH0 DUP1 RETURNDATACOPY RETURNDATASIZE PUSH0 REVERT JUMPDEST POP POP POP POP PUSH1 0x40 MLOAD RETURNDATASIZE PUSH1 0x1F NOT PUSH1 0x1F DUP3 ADD AND DUP3 ADD DUP1 PUSH1 0x40 MSTORE POP DUP2 ADD SWAP1 PUSH2 0x85C SWAP2 SWAP1 PUSH2 0x1276 JUMP JUMPDEST PUSH2 0x878 JUMPI PUSH1 0x40 MLOAD PUSH3 0x461BCD PUSH1 0xE5 SHL DUP2 MSTORE PUSH1 0x4 ADD PUSH2 0x416 SWAP1 PUSH2 0x12C3 JUMP JUMPDEST PUSH1 0x2 SLOAD PUSH1 0x40 MLOAD PUSH4 0x23B872DD PUSH1 0xE0 SHL DUP2 MSTORE PUSH1 0x1 PUSH1 0x1 PUSH1 0xA0 SHL SUB SWAP1 SWAP2 AND SWAP1 PUSH4 0x23B872DD SWAP1 PUSH2 0x8AC SWAP1 CALLER SWAP1 ADDRESS SWAP1 DUP7 SWAP1 PUSH1 0x4 ADD PUSH2 0x1252 JUMP JUMPDEST PUSH1 0x20 PUSH1 0x40 MLOAD DUP1 DUP4 SUB DUP2 PUSH0 DUP8 GAS CALL ISZERO DUP1 ISZERO PUSH2 0x8C8 JUMPI RETURNDATASIZE PUSH0 DUP1 RETURNDATACOPY RETURNDATASIZE PUSH0 REVERT JUMPDEST POP POP POP POP PUSH1 0x40 MLOAD RETURNDATASIZE PUSH1 0x1F NOT PUSH1 0x1F DUP3 ADD AND DUP3 ADD DUP1 PUSH1 0x40 MSTORE POP DUP2 ADD SWAP1 PUSH2 0x8EC SWAP2 SWAP1 PUSH2 0x1276 JUMP JUMPDEST PUSH2 0x933 JUMPI PUSH1 0x40 MLOAD PUSH3 0x461BCD PUSH1 0xE5 SHL DUP2 MSTORE PUSH1 0x20 PUSH1 0x4 DUP3 ADD MSTORE PUSH1 0x18 PUSH1 0x24 DUP3 ADD MSTORE PUSH24 0x135508151BDAD95B881D1C985B9CD9995C8819985A5B1959 PUSH1 0x42 SHL PUSH1 0x44 DUP3 ADD MSTORE PUSH1 0x64 ADD PUSH2 0x416 JUMP JUMPDEST PUSH1 0x2 SLOAD PUSH1 0x40 MLOAD PUSH4 0x852CD8D PUSH1 0xE3 SHL DUP2 MSTORE PUSH1 0x4 DUP2 ADD DUP4 SWAP1 MSTORE PUSH1 0x1 PUSH1 0x1 PUSH1 0xA0 SHL SUB SWAP1 SWAP2 AND SWAP1 PUSH4 0x42966C68 SWAP1 PUSH1 0x24 ADD PUSH0 PUSH1 0x40 MLOAD DUP1 DUP4 SUB DUP2 PUSH0 DUP8 DUP1 EXTCODESIZE ISZERO DUP1 ISZERO PUSH2 0x976 JUMPI PUSH0 DUP1 REVERT JUMPDEST POP GAS CALL ISZERO DUP1 ISZERO PUSH2 0x988 JUMPI RETURNDATASIZE PUSH0 DUP1 RETURNDATACOPY RETURNDATASIZE PUSH0 REVERT JUMPDEST POP POP PUSH1 0x40 DUP1 MLOAD DUP7 DUP2 MSTORE PUSH1 0x20 DUP2 ADD DUP6 SWAP1 MSTORE CALLER SWAP4 POP PUSH32 0xC240FA06E9CB797ACD4C857AF1248358DA150D43E3E0E741E8696E36821ED16B SWAP3 POP ADD JUMPDEST PUSH1 0x40 MLOAD DUP1 SWAP2 SUB SWAP1 LOG2 POP POP PUSH2 0x6F9 PUSH1 0x1 DUP1 SSTORE JUMP JUMPDEST PUSH2 0x9DB PUSH2 0xD9E JUMP JUMPDEST PUSH1 0x2 DUP1 SLOAD PUSH1 0x1 PUSH1 0x1 PUSH1 0xA0 SHL SUB NOT AND PUSH1 0x1 PUSH1 0x1 PUSH1 0xA0 SHL SUB SWAP3 SWAP1 SWAP3 AND SWAP2 SWAP1 SWAP2 OR SWAP1 SSTORE JUMP JUMPDEST PUSH2 0xA05 PUSH2 0xD9E JUMP JUMPDEST PUSH1 0x6 DUP1 SLOAD PUSH1 0x1 PUSH1 0x1 PUSH1 0xA0 SHL SUB NOT AND PUSH1 0x1 PUSH1 0x1 PUSH1 0xA0 SHL SUB SWAP3 SWAP1 SWAP3 AND SWAP2 SWAP1 SWAP2 OR SWAP1 SSTORE JUMP JUMPDEST PUSH2 0xA2F PUSH2 0xE21 JUMP JUMPDEST PUSH2 0xA37 PUSH2 0xE66 JUMP JUMPDEST CALLER PUSH0 SWAP1 DUP2 MSTORE PUSH1 0xA PUSH1 0x20 MSTORE PUSH1 0x40 SWAP1 KECCAK256 SLOAD PUSH1 0xFF AND ISZERO PUSH2 0xA66 JUMPI PUSH1 0x40 MLOAD PUSH3 0x461BCD PUSH1 0xE5 SHL DUP2 MSTORE PUSH1 0x4 ADD PUSH2 0x416 SWAP1 PUSH2 0x11BF JUMP JUMPDEST PUSH2 0xA70 CALLER DUP3 PUSH2 0xF53 JUMP JUMPDEST PUSH0 PUSH1 0x64 PUSH1 0x8 SLOAD DUP4 PUSH2 0xA81 SWAP2 SWAP1 PUSH2 0x1203 JUMP JUMPDEST PUSH2 0xA8B SWAP2 SWAP1 PUSH2 0x1220 JUMP JUMPDEST SWAP1 POP PUSH0 PUSH2 0xA98 DUP3 DUP5 PUSH2 0x123F JUMP JUMPDEST PUSH1 0x2 SLOAD PUSH1 0x5 SLOAD PUSH1 0x40 MLOAD PUSH4 0x23B872DD PUSH1 0xE0 SHL DUP2 MSTORE SWAP3 SWAP4 POP PUSH1 0x1 PUSH1 0x1 PUSH1 0xA0 SHL SUB SWAP2 DUP3 AND SWAP3 PUSH4 0x23B872DD SWAP3 PUSH2 0xAD3 SWAP3 CALLER SWAP3 SWAP2 AND SWAP1 DUP8 SWAP1 PUSH1 0x4 ADD PUSH2 0x1252 JUMP JUMPDEST PUSH1 0x20 PUSH1 0x40 MLOAD DUP1 DUP4 SUB DUP2 PUSH0 DUP8 GAS CALL ISZERO DUP1 ISZERO PUSH2 0xAEF JUMPI RETURNDATASIZE PUSH0 DUP1 RETURNDATACOPY RETURNDATASIZE PUSH0 REVERT JUMPDEST POP POP POP POP PUSH1 0x40 MLOAD RETURNDATASIZE PUSH1 0x1F NOT PUSH1 0x1F DUP3 ADD AND DUP3 ADD DUP1 PUSH1 0x40 MSTORE POP DUP2 ADD SWAP1 PUSH2 0xB13 SWAP2 SWAP1 PUSH2 0x1276 JUMP JUMPDEST PUSH2 0xB2F JUMPI PUSH1 0x40 MLOAD PUSH3 0x461BCD PUSH1 0xE5 SHL DUP2 MSTORE PUSH1 0x4 ADD PUSH2 0x416 SWAP1 PUSH2 0x12C3 JUMP JUMPDEST PUSH1 0x2 SLOAD PUSH1 0x40 MLOAD PUSH4 0x23B872DD PUSH1 0xE0 SHL DUP2 MSTORE PUSH1 0x1 PUSH1 0x1 PUSH1 0xA0 SHL SUB SWAP1 SWAP2 AND SWAP1 PUSH4 0x23B872DD SWAP1 PUSH2 0xB63 SWAP1 CALLER SWAP1 ADDRESS SWAP1 DUP7 SWAP1 PUSH1 0x4 ADD PUSH2 0x1252 JUMP JUMPDEST PUSH1 0x20 PUSH1 0x40 MLOAD DUP1 DUP4 SUB DUP2 PUSH0 DUP8 GAS CALL ISZERO DUP1 ISZERO PUSH2 0xB7F JUMPI RETURNDATASIZE PUSH0 DUP1 RETURNDATACOPY RETURNDATASIZE PUSH0 REVERT JUMPDEST POP POP POP POP PUSH1 0x40 MLOAD RETURNDATASIZE PUSH1 0x1F NOT PUSH1 0x1F DUP3 ADD AND DUP3 ADD DUP1 PUSH1 0x40 MSTORE POP DUP2 ADD SWAP1 PUSH2 0xBA3 SWAP2 SWAP1 PUSH2 0x1276 JUMP JUMPDEST PUSH2 0xBEA JUMPI PUSH1 0x40 MLOAD PUSH3 0x461BCD PUSH1 0xE5 SHL DUP2 MSTORE PUSH1 0x20 PUSH1 0x4 DUP3 ADD MSTORE PUSH1 0x18 PUSH1 0x24 DUP3 ADD MSTORE PUSH24 0x135508151BDAD95B881D1C985B9CD9995C8819985A5B1959 PUSH1 0x42 SHL PUSH1 0x44 DUP3 ADD MSTORE PUSH1 0x64 ADD PUSH2 0x416 JUMP JUMPDEST PUSH1 0x2 SLOAD PUSH1 0x40 MLOAD PUSH4 0x852CD8D PUSH1 0xE3 SHL DUP2 MSTORE PUSH1 0x4 DUP2 ADD DUP4 SWAP1 MSTORE PUSH1 0x1 PUSH1 0x1 PUSH1 0xA0 SHL SUB SWAP1 SWAP2 AND SWAP1 PUSH4 0x42966C68 SWAP1 PUSH1 0x24 ADD PUSH0 PUSH1 0x40 MLOAD DUP1 DUP4 SUB DUP2 PUSH0 DUP8 DUP1 EXTCODESIZE ISZERO DUP1 ISZERO PUSH2 0xC2D JUMPI PUSH0 DUP1 REVERT JUMPDEST POP GAS CALL ISZERO DUP1 ISZERO PUSH2 0xC3F JUMPI RETURNDATASIZE PUSH0 DUP1 RETURNDATACOPY RETURNDATASIZE PUSH0 REVERT JUMPDEST POP POP PUSH1 0x3 SLOAD PUSH1 0x7 SLOAD PUSH1 0x40 MLOAD PUSH4 0x23B872DD PUSH1 0xE0 SHL DUP2 MSTORE PUSH1 0x1 PUSH1 0x1 PUSH1 0xA0 SHL SUB SWAP3 DUP4 AND SWAP5 POP PUSH4 0x23B872DD SWAP4 POP PUSH2 0xC7C SWAP3 SWAP1 SWAP2 AND SWAP1 CALLER SWAP1 DUP7 SWAP1 PUSH1 0x4 ADD PUSH2 0x1252 JUMP JUMPDEST PUSH1 0x20 PUSH1 0x40 MLOAD DUP1 DUP4 SUB DUP2 PUSH0 DUP8 GAS CALL ISZERO DUP1 ISZERO PUSH2 0xC98 JUMPI RETURNDATASIZE PUSH0 DUP1 RETURNDATACOPY RETURNDATASIZE PUSH0 REVERT JUMPDEST POP POP POP POP PUSH1 0x40 MLOAD RETURNDATASIZE PUSH1 0x1F NOT PUSH1 0x1F DUP3 ADD AND DUP3 ADD DUP1 PUSH1 0x40 MSTORE POP DUP2 ADD SWAP1 PUSH2 0xCBC SWAP2 SWAP1 PUSH2 0x1276 JUMP JUMPDEST PUSH2 0xCD8 JUMPI PUSH1 0x40 MLOAD PUSH3 0x461BCD PUSH1 0xE5 SHL DUP2 MSTORE PUSH1 0x4 ADD PUSH2 0x416 SWAP1 PUSH2 0x1295 JUMP JUMPDEST PUSH1 0x40 DUP1 MLOAD DUP5 DUP2 MSTORE PUSH1 0x20 DUP2 ADD DUP4 SWAP1 MSTORE CALLER SWAP2 PUSH32 0xD0DCB5D6CCBC65558941EDA1D0ADD99921923CC1868A41BBF8D224258A21396D SWAP2 ADD PUSH2 0x9C0 JUMP JUMPDEST PUSH2 0xD18 PUSH2 0xD9E JUMP JUMPDEST PUSH1 0x4 DUP1 SLOAD PUSH1 0x1 PUSH1 0x1 PUSH1 0xA0 SHL SUB NOT AND PUSH1 0x1 PUSH1 0x1 PUSH1 0xA0 SHL SUB SWAP3 SWAP1 SWAP3 AND SWAP2 SWAP1 SWAP2 OR SWAP1 SSTORE JUMP JUMPDEST PUSH2 0xD42 PUSH2 0xD9E JUMP JUMPDEST PUSH1 0x1 PUSH1 0x1 PUSH1 0xA0 SHL SUB DUP2 AND PUSH2 0xD6B JUMPI PUSH1 0x40 MLOAD PUSH4 0x1E4FBDF7 PUSH1 0xE0 SHL DUP2 MSTORE PUSH0 PUSH1 0x4 DUP3 ADD MSTORE PUSH1 0x24 ADD PUSH2 0x416 JUMP JUMPDEST PUSH2 0x6F9 DUP2 PUSH2 0xEBF JUMP JUMPDEST PUSH2 0xD7C PUSH2 0xD9E JUMP JUMPDEST PUSH1 0x5 DUP1 SLOAD PUSH1 0x1 PUSH1 0x1 PUSH1 0xA0 SHL SUB NOT AND PUSH1 0x1 PUSH1 0x1 PUSH1 0xA0 SHL SUB SWAP3 SWAP1 SWAP3 AND SWAP2 SWAP1 SWAP2 OR SWAP1 SSTORE JUMP JUMPDEST PUSH0 SLOAD PUSH1 0x1 PUSH1 0x1 PUSH1 0xA0 SHL SUB PUSH2 0x100 SWAP1 SWAP2 DIV AND CALLER EQ PUSH2 0x434 JUMPI PUSH1 0x40 MLOAD PUSH4 0x118CDAA7 PUSH1 0xE0 SHL DUP2 MSTORE CALLER PUSH1 0x4 DUP3 ADD MSTORE PUSH1 0x24 ADD PUSH2 0x416 JUMP JUMPDEST PUSH2 0xDD8 PUSH2 0x10FB JUMP JUMPDEST PUSH0 DUP1 SLOAD PUSH1 0xFF NOT AND SWAP1 SSTORE PUSH32 0x5DB9EE0A495BF2E6FF9C91A7834C1BA4FDD244A5E8AA4E537BD38AEAE4B073AA CALLER JUMPDEST PUSH1 0x40 MLOAD PUSH1 0x1 PUSH1 0x1 PUSH1 0xA0 SHL SUB SWAP1 SWAP2 AND DUP2 MSTORE PUSH1 0x20 ADD PUSH1 0x40 MLOAD DUP1 SWAP2 SUB SWAP1 LOG1 JUMP JUMPDEST PUSH0 SLOAD PUSH1 0xFF AND ISZERO PUSH2 0x434 JUMPI PUSH1 0x40 MLOAD PUSH3 0x461BCD PUSH1 0xE5 SHL DUP2 MSTORE PUSH1 0x20 PUSH1 0x4 DUP3 ADD MSTORE PUSH1 0x10 PUSH1 0x24 DUP3 ADD MSTORE PUSH16 0x14185D5CD8589B194E881C185D5CD959 PUSH1 0x82 SHL PUSH1 0x44 DUP3 ADD MSTORE PUSH1 0x64 ADD PUSH2 0x416 JUMP JUMPDEST PUSH1 0x2 PUSH1 0x1 SLOAD SUB PUSH2 0xEB8 JUMPI PUSH1 0x40 MLOAD PUSH3 0x461BCD PUSH1 0xE5 SHL DUP2 MSTORE PUSH1 0x20 PUSH1 0x4 DUP3 ADD MSTORE PUSH1 0x1F PUSH1 0x24 DUP3 ADD MSTORE PUSH32 0x5265656E7472616E637947756172643A207265656E7472616E742063616C6C00 PUSH1 0x44 DUP3 ADD MSTORE PUSH1 0x64 ADD PUSH2 0x416 JUMP JUMPDEST PUSH1 0x2 PUSH1 0x1 SSTORE JUMP JUMPDEST PUSH0 DUP1 SLOAD PUSH1 0x1 PUSH1 0x1 PUSH1 0xA0 SHL SUB DUP4 DUP2 AND PUSH2 0x100 DUP2 DUP2 MUL PUSH2 0x100 PUSH1 0x1 PUSH1 0xA8 SHL SUB NOT DUP6 AND OR DUP6 SSTORE PUSH1 0x40 MLOAD SWAP4 DIV SWAP2 SWAP1 SWAP2 AND SWAP3 SWAP1 SWAP2 DUP4 SWAP2 PUSH32 0x8BE0079C531659141344CD1FD0A4F28419497F9722A3DAAFE3B4186F6B6457E0 SWAP2 LOG3 POP POP JUMP JUMPDEST PUSH2 0xF1F PUSH2 0xE21 JUMP JUMPDEST PUSH0 DUP1 SLOAD PUSH1 0xFF NOT AND PUSH1 0x1 OR SWAP1 SSTORE PUSH32 0x62E78CEA01BEE320CD4E420270B5EA74000D11B0C9F74754EBDBFC544B05A258 PUSH2 0xE04 CALLER SWAP1 JUMP JUMPDEST PUSH1 0x4 DUP1 SLOAD PUSH1 0x40 MLOAD PUSH4 0x733BBBDD PUSH1 0xE1 SHL DUP2 MSTORE PUSH1 0x1 PUSH1 0x1 PUSH1 0xA0 SHL SUB DUP6 DUP2 AND SWAP4 DUP3 ADD SWAP4 SWAP1 SWAP4 MSTORE PUSH0 SWAP3 SWAP1 SWAP2 AND SWAP1 PUSH4 0xE67777BA SWAP1 PUSH1 0x24 ADD PUSH1 0x20 PUSH1 0x40 MLOAD DUP1 DUP4 SUB DUP2 DUP7 GAS STATICCALL ISZERO DUP1 ISZERO PUSH2 0xFA0 JUMPI RETURNDATASIZE PUSH0 DUP1 RETURNDATACOPY RETURNDATASIZE PUSH0 REVERT JUMPDEST POP POP POP POP PUSH1 0x40 MLOAD RETURNDATASIZE PUSH1 0x1F NOT PUSH1 0x1F DUP3 ADD AND DUP3 ADD DUP1 PUSH1 0x40 MSTORE POP DUP2 ADD SWAP1 PUSH2 0xFC4 SWAP2 SWAP1 PUSH2 0x1306 JUMP JUMPDEST PUSH1 0x4 DUP1 SLOAD PUSH1 0x40 MLOAD PUSH4 0x56582BF9 PUSH1 0xE0 SHL DUP2 MSTORE PUSH1 0x1 PUSH1 0x1 PUSH1 0xA0 SHL SUB DUP8 DUP2 AND SWAP4 DUP3 ADD SWAP4 SWAP1 SWAP4 MSTORE SWAP3 SWAP4 POP PUSH0 SWAP3 SWAP2 AND SWAP1 PUSH4 0x56582BF9 SWAP1 PUSH1 0x24 ADD PUSH1 0x20 PUSH1 0x40 MLOAD DUP1 DUP4 SUB DUP2 DUP7 GAS STATICCALL ISZERO DUP1 ISZERO PUSH2 0x1013 JUMPI RETURNDATASIZE PUSH0 DUP1 RETURNDATACOPY RETURNDATASIZE PUSH0 REVERT JUMPDEST POP POP POP POP PUSH1 0x40 MLOAD RETURNDATASIZE PUSH1 0x1F NOT PUSH1 0x1F DUP3 ADD AND DUP3 ADD DUP1 PUSH1 0x40 MSTORE POP DUP2 ADD SWAP1 PUSH2 0x1037 SWAP2 SWAP1 PUSH2 0x1306 JUMP JUMPDEST SWAP1 POP PUSH2 0x1043 DUP4 DUP3 PUSH2 0x131D JUMP JUMPDEST DUP3 LT ISZERO PUSH2 0x1092 JUMPI PUSH1 0x40 MLOAD PUSH3 0x461BCD PUSH1 0xE5 SHL DUP2 MSTORE PUSH1 0x20 PUSH1 0x4 DUP3 ADD MSTORE PUSH1 0x1F PUSH1 0x24 DUP3 ADD MSTORE PUSH32 0x5769746864726177616C20616D6F756E742065786365656473206C696D697400 PUSH1 0x44 DUP3 ADD MSTORE PUSH1 0x64 ADD PUSH2 0x416 JUMP JUMPDEST PUSH1 0x4 DUP1 SLOAD PUSH1 0x40 MLOAD PUSH4 0x843F44F1 PUSH1 0xE0 SHL DUP2 MSTORE PUSH1 0x1 PUSH1 0x1 PUSH1 0xA0 SHL SUB DUP8 DUP2 AND SWAP4 DUP3 ADD SWAP4 SWAP1 SWAP4 MSTORE PUSH1 0x24 DUP2 ADD DUP7 SWAP1 MSTORE SWAP2 AND SWAP1 PUSH4 0x843F44F1 SWAP1 PUSH1 0x44 ADD PUSH0 PUSH1 0x40 MLOAD DUP1 DUP4 SUB DUP2 PUSH0 DUP8 DUP1 EXTCODESIZE ISZERO DUP1 ISZERO PUSH2 0x10DF JUMPI PUSH0 DUP1 REVERT JUMPDEST POP GAS CALL ISZERO DUP1 ISZERO PUSH2 0x10F1 JUMPI RETURNDATASIZE PUSH0 DUP1 RETURNDATACOPY RETURNDATASIZE PUSH0 REVERT JUMPDEST POP POP POP POP POP POP POP POP JUMP JUMPDEST PUSH0 SLOAD PUSH1 0xFF AND PUSH2 0x434 JUMPI PUSH1 0x40 MLOAD PUSH3 0x461BCD PUSH1 0xE5 SHL DUP2 MSTORE PUSH1 0x20 PUSH1 0x4 DUP3 ADD MSTORE PUSH1 0x14 PUSH1 0x24 DUP3 ADD MSTORE PUSH20 0x14185D5CD8589B194E881B9BDD081C185D5CD959 PUSH1 0x62 SHL PUSH1 0x44 DUP3 ADD MSTORE PUSH1 0x64 ADD PUSH2 0x416 JUMP JUMPDEST DUP1 CALLDATALOAD PUSH1 0x1 PUSH1 0x1 PUSH1 0xA0 SHL SUB DUP2 AND DUP2 EQ PUSH2 0x1159 JUMPI PUSH0 DUP1 REVERT JUMPDEST SWAP2 SWAP1 POP JUMP JUMPDEST PUSH0 PUSH1 0x20 DUP3 DUP5 SUB SLT ISZERO PUSH2 0x116E JUMPI PUSH0 DUP1 REVERT JUMPDEST PUSH2 0x1177 DUP3 PUSH2 0x1143 JUMP JUMPDEST SWAP4 SWAP3 POP POP POP JUMP JUMPDEST PUSH0 PUSH1 0x20 DUP3 DUP5 SUB SLT ISZERO PUSH2 0x118E JUMPI PUSH0 DUP1 REVERT JUMPDEST POP CALLDATALOAD SWAP2 SWAP1 POP JUMP JUMPDEST PUSH0 DUP1 PUSH1 0x40 DUP4 DUP6 SUB SLT ISZERO PUSH2 0x11A6 JUMPI PUSH0 DUP1 REVERT JUMPDEST DUP3 CALLDATALOAD SWAP2 POP PUSH2 0x11B6 PUSH1 0x20 DUP5 ADD PUSH2 0x1143 JUMP JUMPDEST SWAP1 POP SWAP3 POP SWAP3 SWAP1 POP JUMP JUMPDEST PUSH1 0x20 DUP1 DUP3 MSTORE PUSH1 0x16 SWAP1 DUP3 ADD MSTORE PUSH22 0x1059191C995CDCC81A5CC8189B1858DADB1A5CDD1959 PUSH1 0x52 SHL PUSH1 0x40 DUP3 ADD MSTORE PUSH1 0x60 ADD SWAP1 JUMP JUMPDEST PUSH4 0x4E487B71 PUSH1 0xE0 SHL PUSH0 MSTORE PUSH1 0x11 PUSH1 0x4 MSTORE PUSH1 0x24 PUSH0 REVERT JUMPDEST DUP1 DUP3 MUL DUP2 ISZERO DUP3 DUP3 DIV DUP5 EQ OR PUSH2 0x121A JUMPI PUSH2 0x121A PUSH2 0x11EF JUMP JUMPDEST SWAP3 SWAP2 POP POP JUMP JUMPDEST PUSH0 DUP3 PUSH2 0x123A JUMPI PUSH4 0x4E487B71 PUSH1 0xE0 SHL PUSH0 MSTORE PUSH1 0x12 PUSH1 0x4 MSTORE PUSH1 0x24 PUSH0 REVERT JUMPDEST POP DIV SWAP1 JUMP JUMPDEST DUP2 DUP2 SUB DUP2 DUP2 GT ISZERO PUSH2 0x121A JUMPI PUSH2 0x121A PUSH2 0x11EF JUMP JUMPDEST PUSH1 0x1 PUSH1 0x1 PUSH1 0xA0 SHL SUB SWAP4 DUP5 AND DUP2 MSTORE SWAP2 SWAP1 SWAP3 AND PUSH1 0x20 DUP3 ADD MSTORE PUSH1 0x40 DUP2 ADD SWAP2 SWAP1 SWAP2 MSTORE PUSH1 0x60 ADD SWAP1 JUMP JUMPDEST PUSH0 PUSH1 0x20 DUP3 DUP5 SUB SLT ISZERO PUSH2 0x1286 JUMPI PUSH0 DUP1 REVERT JUMPDEST DUP2 MLOAD DUP1 ISZERO ISZERO DUP2 EQ PUSH2 0x1177 JUMPI PUSH0 DUP1 REVERT JUMPDEST PUSH1 0x20 DUP1 DUP3 MSTORE PUSH1 0x14 SWAP1 DUP3 ADD MSTORE PUSH20 0x1554D115081D1C985B9CD9995C8819985A5B1959 PUSH1 0x62 SHL PUSH1 0x40 DUP3 ADD MSTORE PUSH1 0x60 ADD SWAP1 JUMP JUMPDEST PUSH1 0x20 DUP1 DUP3 MSTORE PUSH1 0x23 SWAP1 DUP3 ADD MSTORE PUSH32 0x4D5420546F6B656E207472616E7366657220746F2070726F6A65637420666169 PUSH1 0x40 DUP3 ADD MSTORE PUSH3 0x1B1959 PUSH1 0xEA SHL PUSH1 0x60 DUP3 ADD MSTORE PUSH1 0x80 ADD SWAP1 JUMP JUMPDEST PUSH0 PUSH1 0x20 DUP3 DUP5 SUB SLT ISZERO PUSH2 0x1316 JUMPI PUSH0 DUP1 REVERT JUMPDEST POP MLOAD SWAP2 SWAP1 POP JUMP JUMPDEST DUP1 DUP3 ADD DUP1 DUP3 GT ISZERO PUSH2 0x121A JUMPI PUSH2 0x121A PUSH2 0x11EF JUMP INVALID LOG2 PUSH5 0x6970667358 0x22 SLT KECCAK256 LOG4 0xD4 PUSH13 0xBD239F8E2E690F598E90F09963 PUSH2 0x79CA CALLER 0xD8 PUSH24 0xE6E11B7A59A7E682D53764736F6C63430008140033000000 "
		},
		"gasEstimates": {
			"creation": {
				"codeDepositCost": "993200",
				"executionCost": "infinite",
				"totalCost": "infinite"
			},
			"external": {
				"addToBlacklist(address)": "26918",
				"mtToken()": "2392",
				"owner()": "2397",
				"pause()": "infinite",
				"paused()": "2380",
				"pmtPurchaseContract()": "2392",
				"poolAddress()": "2349",
				"projectAddress()": "2415",
				"projectFeePercentage()": "2405",
				"removeFromBlacklist(address)": "26846",
				"renounceOwnership()": "infinite",
				"rtProjectFeePercentage()": "2339",
				"setMTTokenAddress(address)": "26835",
				"setPMTPurchaseContractAddress(address)": "26812",
				"setPoolAddress(address)": "26835",
				"setProjectAddress(address)": "26856",
				"setProjectFeePercentage(uint256)": "24593",
				"setRtProjectFeePercentage(uint256)": "24571",
				"setUsdtHolderAddress(address)": "26792",
				"swapBTForUSDT(uint256,address)": "infinite",
				"swapMTForRT(uint256)": "infinite",
				"swapMTForUSDT(uint256)": "infinite",
				"swapUSDTForRT(uint256)": "infinite",
				"transferOwnership(address)": "28453",
				"unpause()": "infinite",
				"usdtHolderAddress()": "2436",
				"usdtToken()": "2415"
			},
			"internal": {
				"_checkAndUpdateWithdrawalLimit(address,uint256)": "infinite"
			}
		},
		"methodIdentifiers": {
			"addToBlacklist(address)": "44337ea1",
			"mtToken()": "ad1dd070",
			"owner()": "8da5cb5b",
			"pause()": "8456cb59",
			"paused()": "5c975abb",
			"pmtPurchaseContract()": "e04ffb24",
			"poolAddress()": "1755ff21",
			"projectAddress()": "3cf96af1",
			"projectFeePercentage()": "cbf4b23b",
			"removeFromBlacklist(address)": "537df3b6",
			"renounceOwnership()": "715018a6",
			"rtProjectFeePercentage()": "d617c0a8",
			"setMTTokenAddress(address)": "c82b0a48",
			"setPMTPurchaseContractAddress(address)": "efe6c0e6",
			"setPoolAddress(address)": "e9e15b4f",
			"setProjectAddress(address)": "fce0f928",
			"setProjectFeePercentage(uint256)": "3a3c28b5",
			"setRtProjectFeePercentage(uint256)": "8a2a5f76",
			"setUsdtHolderAddress(address)": "377c495f",
			"swapBTForUSDT(uint256,address)": "493f4969",
			"swapMTForRT(uint256)": "abfd18e7",
			"swapMTForUSDT(uint256)": "e9ef92c3",
			"swapUSDTForRT(uint256)": "65d50201",
			"transferOwnership(address)": "f2fde38b",
			"unpause()": "3f4ba83a",
			"usdtHolderAddress()": "89468475",
			"usdtToken()": "a98ad46c"
		}
	},
	"abi": [
		{
			"inputs": [
				{
					"internalType": "address",
					"name": "_mtTokenAddress",
					"type": "address"
				},
				{
					"internalType": "address",
					"name": "_usdtTokenAddress",
					"type": "address"
				},
				{
					"internalType": "address",
					"name": "_projectAddress",
					"type": "address"
				},
				{
					"internalType": "address",
					"name": "_poolAddress",
					"type": "address"
				},
				{
					"internalType": "address",
					"name": "_pmtPurchaseContractAddress",
					"type": "address"
				}
			],
			"stateMutability": "nonpayable",
			"type": "constructor"
		},
		{
			"inputs": [
				{
					"internalType": "address",
					"name": "owner",
					"type": "address"
				}
			],
			"name": "OwnableInvalidOwner",
			"type": "error"
		},
		{
			"inputs": [
				{
					"internalType": "address",
					"name": "account",
					"type": "address"
				}
			],
			"name": "OwnableUnauthorizedAccount",
			"type": "error"
		},
		{
			"anonymous": false,
			"inputs": [
				{
					"indexed": true,
					"internalType": "address",
					"name": "previousOwner",
					"type": "address"
				},
				{
					"indexed": true,
					"internalType": "address",
					"name": "newOwner",
					"type": "address"
				}
			],
			"name": "OwnershipTransferred",
			"type": "event"
		},
		{
			"anonymous": false,
			"inputs": [
				{
					"indexed": false,
					"internalType": "address",
					"name": "account",
					"type": "address"
				}
			],
			"name": "Paused",
			"type": "event"
		},
		{
			"anonymous": false,
			"inputs": [
				{
					"indexed": true,
					"internalType": "address",
					"name": "sender",
					"type": "address"
				},
				{
					"indexed": false,
					"internalType": "uint256",
					"name": "btAmount",
					"type": "uint256"
				},
				{
					"indexed": false,
					"internalType": "uint256",
					"name": "usdtAmount",
					"type": "uint256"
				}
			],
			"name": "SwapBtSuccessful",
			"type": "event"
		},
		{
			"anonymous": false,
			"inputs": [
				{
					"indexed": true,
					"internalType": "address",
					"name": "sender",
					"type": "address"
				},
				{
					"indexed": false,
					"internalType": "uint256",
					"name": "mtAmount",
					"type": "uint256"
				},
				{
					"indexed": false,
					"internalType": "uint256",
					"name": "rtAmount",
					"type": "uint256"
				}
			],
			"name": "SwapRtSuccessful",
			"type": "event"
		},
		{
			"anonymous": false,
			"inputs": [
				{
					"indexed": true,
					"internalType": "address",
					"name": "sender",
					"type": "address"
				},
				{
					"indexed": false,
					"internalType": "uint256",
					"name": "mtAmount",
					"type": "uint256"
				},
				{
					"indexed": false,
					"internalType": "uint256",
					"name": "usdtAmount",
					"type": "uint256"
				}
			],
			"name": "SwapSuccessful",
			"type": "event"
		},
		{
			"anonymous": false,
			"inputs": [
				{
					"indexed": true,
					"internalType": "address",
					"name": "sender",
					"type": "address"
				},
				{
					"indexed": false,
					"internalType": "uint256",
					"name": "usdtAmount",
					"type": "uint256"
				},
				{
					"indexed": false,
					"internalType": "uint256",
					"name": "rtAmount",
					"type": "uint256"
				}
			],
			"name": "SwapUSDTSuccessful",
			"type": "event"
		},
		{
			"anonymous": false,
			"inputs": [
				{
					"indexed": false,
					"internalType": "address",
					"name": "account",
					"type": "address"
				}
			],
			"name": "Unpaused",
			"type": "event"
		},
		{
			"inputs": [
				{
					"internalType": "address",
					"name": "_address",
					"type": "address"
				}
			],
			"name": "addToBlacklist",
			"outputs": [],
			"stateMutability": "nonpayable",
			"type": "function"
		},
		{
			"inputs": [],
			"name": "mtToken",
			"outputs": [
				{
					"internalType": "contract IERC20",
					"name": "",
					"type": "address"
				}
			],
			"stateMutability": "view",
			"type": "function"
		},
		{
			"inputs": [],
			"name": "owner",
			"outputs": [
				{
					"internalType": "address",
					"name": "",
					"type": "address"
				}
			],
			"stateMutability": "view",
			"type": "function"
		},
		{
			"inputs": [],
			"name": "pause",
			"outputs": [],
			"stateMutability": "nonpayable",
			"type": "function"
		},
		{
			"inputs": [],
			"name": "paused",
			"outputs": [
				{
					"internalType": "bool",
					"name": "",
					"type": "bool"
				}
			],
			"stateMutability": "view",
			"type": "function"
		},
		{
			"inputs": [],
			"name": "pmtPurchaseContract",
			"outputs": [
				{
					"internalType": "contract IPMTPurchaseContract",
					"name": "",
					"type": "address"
				}
			],
			"stateMutability": "view",
			"type": "function"
		},
		{
			"inputs": [],
			"name": "poolAddress",
			"outputs": [
				{
					"internalType": "address",
					"name": "",
					"type": "address"
				}
			],
			"stateMutability": "view",
			"type": "function"
		},
		{
			"inputs": [],
			"name": "projectAddress",
			"outputs": [
				{
					"internalType": "address",
					"name": "",
					"type": "address"
				}
			],
			"stateMutability": "view",
			"type": "function"
		},
		{
			"inputs": [],
			"name": "projectFeePercentage",
			"outputs": [
				{
					"internalType": "uint256",
					"name": "",
					"type": "uint256"
				}
			],
			"stateMutability": "view",
			"type": "function"
		},
		{
			"inputs": [
				{
					"internalType": "address",
					"name": "_address",
					"type": "address"
				}
			],
			"name": "removeFromBlacklist",
			"outputs": [],
			"stateMutability": "nonpayable",
			"type": "function"
		},
		{
			"inputs": [],
			"name": "renounceOwnership",
			"outputs": [],
			"stateMutability": "nonpayable",
			"type": "function"
		},
		{
			"inputs": [],
			"name": "rtProjectFeePercentage",
			"outputs": [
				{
					"internalType": "uint256",
					"name": "",
					"type": "uint256"
				}
			],
			"stateMutability": "view",
			"type": "function"
		},
		{
			"inputs": [
				{
					"internalType": "address",
					"name": "_mtTokenAddress",
					"type": "address"
				}
			],
			"name": "setMTTokenAddress",
			"outputs": [],
			"stateMutability": "nonpayable",
			"type": "function"
		},
		{
			"inputs": [
				{
					"internalType": "address",
					"name": "_pmtPurchaseContractAddress",
					"type": "address"
				}
			],
			"name": "setPMTPurchaseContractAddress",
			"outputs": [],
			"stateMutability": "nonpayable",
			"type": "function"
		},
		{
			"inputs": [
				{
					"internalType": "address",
					"name": "_poolAddress",
					"type": "address"
				}
			],
			"name": "setPoolAddress",
			"outputs": [],
			"stateMutability": "nonpayable",
			"type": "function"
		},
		{
			"inputs": [
				{
					"internalType": "address",
					"name": "_projectAddress",
					"type": "address"
				}
			],
			"name": "setProjectAddress",
			"outputs": [],
			"stateMutability": "nonpayable",
			"type": "function"
		},
		{
			"inputs": [
				{
					"internalType": "uint256",
					"name": "_percentage",
					"type": "uint256"
				}
			],
			"name": "setProjectFeePercentage",
			"outputs": [],
			"stateMutability": "nonpayable",
			"type": "function"
		},
		{
			"inputs": [
				{
					"internalType": "uint256",
					"name": "_percentage",
					"type": "uint256"
				}
			],
			"name": "setRtProjectFeePercentage",
			"outputs": [],
			"stateMutability": "nonpayable",
			"type": "function"
		},
		{
			"inputs": [
				{
					"internalType": "address",
					"name": "_usdtHolderAddress",
					"type": "address"
				}
			],
			"name": "setUsdtHolderAddress",
			"outputs": [],
			"stateMutability": "nonpayable",
			"type": "function"
		},
		{
			"inputs": [
				{
					"internalType": "uint256",
					"name": "btAmount",
					"type": "uint256"
				},
				{
					"internalType": "address",
					"name": "user",
					"type": "address"
				}
			],
			"name": "swapBTForUSDT",
			"outputs": [],
			"stateMutability": "nonpayable",
			"type": "function"
		},
		{
			"inputs": [
				{
					"internalType": "uint256",
					"name": "mtAmount",
					"type": "uint256"
				}
			],
			"name": "swapMTForRT",
			"outputs": [],
			"stateMutability": "nonpayable",
			"type": "function"
		},
		{
			"inputs": [
				{
					"internalType": "uint256",
					"name": "mtAmount",
					"type": "uint256"
				}
			],
			"name": "swapMTForUSDT",
			"outputs": [],
			"stateMutability": "nonpayable",
			"type": "function"
		},
		{
			"inputs": [
				{
					"internalType": "uint256",
					"name": "usdtAmount",
					"type": "uint256"
				}
			],
			"name": "swapUSDTForRT",
			"outputs": [],
			"stateMutability": "nonpayable",
			"type": "function"
		},
		{
			"inputs": [
				{
					"internalType": "address",
					"name": "newOwner",
					"type": "address"
				}
			],
			"name": "transferOwnership",
			"outputs": [],
			"stateMutability": "nonpayable",
			"type": "function"
		},
		{
			"inputs": [],
			"name": "unpause",
			"outputs": [],
			"stateMutability": "nonpayable",
			"type": "function"
		},
		{
			"inputs": [],
			"name": "usdtHolderAddress",
			"outputs": [
				{
					"internalType": "address",
					"name": "",
					"type": "address"
				}
			],
			"stateMutability": "view",
			"type": "function"
		},
		{
			"inputs": [],
			"name": "usdtToken",
			"outputs": [
				{
					"internalType": "contract IERC20",
					"name": "",
					"type": "address"
				}
			],
			"stateMutability": "view",
			"type": "function"
		}
	]
}